{
	"contracts/GymMembership.sol": {
		"GymMembership": {
			"abi": [
				{
					"inputs": [],
					"stateMutability": "nonpayable",
					"type": "constructor"
				},
				{
					"inputs": [
						{
							"internalType": "string",
							"name": "_machine",
							"type": "string"
						},
						{
							"internalType": "uint256",
							"name": "_weightLifted",
							"type": "uint256"
						}
					],
					"name": "addExercise",
					"outputs": [],
					"stateMutability": "nonpayable",
					"type": "function"
				},
				{
					"inputs": [
						{
							"internalType": "address",
							"name": "_gym",
							"type": "address"
						}
					],
					"name": "addVisit",
					"outputs": [],
					"stateMutability": "nonpayable",
					"type": "function"
				},
				{
					"inputs": [
						{
							"internalType": "address",
							"name": "_gym",
							"type": "address"
						}
					],
					"name": "calculateGymFee",
					"outputs": [
						{
							"internalType": "uint256",
							"name": "",
							"type": "uint256"
						}
					],
					"stateMutability": "view",
					"type": "function"
				},
				{
					"inputs": [],
					"name": "getActiveMembers",
					"outputs": [
						{
							"internalType": "string[]",
							"name": "",
							"type": "string[]"
						},
						{
							"internalType": "uint256[]",
							"name": "",
							"type": "uint256[]"
						}
					],
					"stateMutability": "view",
					"type": "function"
				},
				{
					"inputs": [],
					"name": "getAllGyms",
					"outputs": [
						{
							"internalType": "address[]",
							"name": "",
							"type": "address[]"
						}
					],
					"stateMutability": "view",
					"type": "function"
				},
				{
					"inputs": [],
					"name": "getAllMembers",
					"outputs": [
						{
							"internalType": "address[]",
							"name": "",
							"type": "address[]"
						}
					],
					"stateMutability": "view",
					"type": "function"
				},
				{
					"inputs": [
						{
							"internalType": "address",
							"name": "_member",
							"type": "address"
						},
						{
							"internalType": "uint256",
							"name": "_index",
							"type": "uint256"
						}
					],
					"name": "getExercise",
					"outputs": [
						{
							"internalType": "string",
							"name": "",
							"type": "string"
						},
						{
							"internalType": "uint256",
							"name": "",
							"type": "uint256"
						},
						{
							"internalType": "uint256",
							"name": "",
							"type": "uint256"
						}
					],
					"stateMutability": "view",
					"type": "function"
				},
				{
					"inputs": [
						{
							"internalType": "address",
							"name": "_member",
							"type": "address"
						}
					],
					"name": "getMemberInfo",
					"outputs": [
						{
							"internalType": "string",
							"name": "",
							"type": "string"
						},
						{
							"internalType": "uint256",
							"name": "",
							"type": "uint256"
						},
						{
							"internalType": "uint256",
							"name": "",
							"type": "uint256"
						},
						{
							"internalType": "uint256",
							"name": "",
							"type": "uint256"
						},
						{
							"internalType": "bool",
							"name": "",
							"type": "bool"
						}
					],
					"stateMutability": "view",
					"type": "function"
				},
				{
					"inputs": [
						{
							"internalType": "address",
							"name": "_member",
							"type": "address"
						}
					],
					"name": "getMemberSubscriptions",
					"outputs": [
						{
							"internalType": "address[]",
							"name": "",
							"type": "address[]"
						},
						{
							"internalType": "uint256[]",
							"name": "",
							"type": "uint256[]"
						}
					],
					"stateMutability": "view",
					"type": "function"
				},
				{
					"inputs": [
						{
							"internalType": "address",
							"name": "_member",
							"type": "address"
						},
						{
							"internalType": "uint256",
							"name": "_index",
							"type": "uint256"
						}
					],
					"name": "getVisit",
					"outputs": [
						{
							"internalType": "string",
							"name": "",
							"type": "string"
						},
						{
							"internalType": "uint256",
							"name": "",
							"type": "uint256"
						}
					],
					"stateMutability": "view",
					"type": "function"
				},
				{
					"inputs": [
						{
							"internalType": "uint256",
							"name": "",
							"type": "uint256"
						}
					],
					"name": "gymAddresses",
					"outputs": [
						{
							"internalType": "address",
							"name": "",
							"type": "address"
						}
					],
					"stateMutability": "view",
					"type": "function"
				},
				{
					"inputs": [
						{
							"internalType": "address",
							"name": "",
							"type": "address"
						}
					],
					"name": "gyms",
					"outputs": [
						{
							"internalType": "string",
							"name": "name",
							"type": "string"
						},
						{
							"components": [
								{
									"internalType": "uint256",
									"name": "dailyFee",
									"type": "uint256"
								},
								{
									"internalType": "uint256",
									"name": "weeklyFee",
									"type": "uint256"
								},
								{
									"internalType": "uint256",
									"name": "monthlyFee",
									"type": "uint256"
								},
								{
									"internalType": "uint256",
									"name": "quarterlyFee",
									"type": "uint256"
								},
								{
									"internalType": "uint256",
									"name": "semiAnnualFee",
									"type": "uint256"
								},
								{
									"internalType": "uint256",
									"name": "annualFee",
									"type": "uint256"
								}
							],
							"internalType": "struct GymMembership.Fee",
							"name": "fees",
							"type": "tuple"
						},
						{
							"internalType": "uint256",
							"name": "totalUsers",
							"type": "uint256"
						},
						{
							"internalType": "uint256",
							"name": "totalRating",
							"type": "uint256"
						},
						{
							"internalType": "uint256",
							"name": "reviewCount",
							"type": "uint256"
						},
						{
							"internalType": "uint256",
							"name": "balance",
							"type": "uint256"
						},
						{
							"components": [
								{
									"internalType": "string",
									"name": "latitude",
									"type": "string"
								},
								{
									"internalType": "string",
									"name": "longitude",
									"type": "string"
								}
							],
							"internalType": "struct GymMembership.Location",
							"name": "location",
							"type": "tuple"
						}
					],
					"stateMutability": "view",
					"type": "function"
				},
				{
					"inputs": [
						{
							"internalType": "address",
							"name": "",
							"type": "address"
						}
					],
					"name": "isGym",
					"outputs": [
						{
							"internalType": "bool",
							"name": "",
							"type": "bool"
						}
					],
					"stateMutability": "view",
					"type": "function"
				},
				{
					"inputs": [
						{
							"internalType": "address",
							"name": "",
							"type": "address"
						}
					],
					"name": "isMember",
					"outputs": [
						{
							"internalType": "bool",
							"name": "",
							"type": "bool"
						}
					],
					"stateMutability": "view",
					"type": "function"
				},
				{
					"inputs": [
						{
							"internalType": "address",
							"name": "_member",
							"type": "address"
						},
						{
							"internalType": "string",
							"name": "_name",
							"type": "string"
						},
						{
							"internalType": "uint256",
							"name": "_age",
							"type": "uint256"
						},
						{
							"internalType": "uint256",
							"name": "_weight",
							"type": "uint256"
						},
						{
							"internalType": "uint256",
							"name": "_height",
							"type": "uint256"
						}
					],
					"name": "manualAddMember",
					"outputs": [],
					"stateMutability": "nonpayable",
					"type": "function"
				},
				{
					"inputs": [
						{
							"internalType": "uint256",
							"name": "",
							"type": "uint256"
						}
					],
					"name": "memberAddresses",
					"outputs": [
						{
							"internalType": "address",
							"name": "",
							"type": "address"
						}
					],
					"stateMutability": "view",
					"type": "function"
				},
				{
					"inputs": [
						{
							"internalType": "address",
							"name": "",
							"type": "address"
						}
					],
					"name": "members",
					"outputs": [
						{
							"internalType": "string",
							"name": "name",
							"type": "string"
						},
						{
							"internalType": "uint256",
							"name": "age",
							"type": "uint256"
						},
						{
							"internalType": "uint256",
							"name": "weight",
							"type": "uint256"
						},
						{
							"internalType": "uint256",
							"name": "height",
							"type": "uint256"
						},
						{
							"internalType": "uint256",
							"name": "exerciseCount",
							"type": "uint256"
						},
						{
							"internalType": "uint256",
							"name": "visitCount",
							"type": "uint256"
						},
						{
							"internalType": "bool",
							"name": "isManual",
							"type": "bool"
						}
					],
					"stateMutability": "view",
					"type": "function"
				},
				{
					"inputs": [],
					"name": "owner",
					"outputs": [
						{
							"internalType": "address",
							"name": "",
							"type": "address"
						}
					],
					"stateMutability": "view",
					"type": "function"
				},
				{
					"inputs": [
						{
							"internalType": "address",
							"name": "_gym",
							"type": "address"
						},
						{
							"internalType": "uint256",
							"name": "_rating",
							"type": "uint256"
						}
					],
					"name": "rateGym",
					"outputs": [],
					"stateMutability": "nonpayable",
					"type": "function"
				},
				{
					"inputs": [
						{
							"internalType": "string",
							"name": "name",
							"type": "string"
						},
						{
							"internalType": "uint256",
							"name": "dailyFee",
							"type": "uint256"
						},
						{
							"internalType": "uint256",
							"name": "weeklyFee",
							"type": "uint256"
						},
						{
							"internalType": "uint256",
							"name": "monthlyFee",
							"type": "uint256"
						},
						{
							"internalType": "uint256",
							"name": "quarterlyFee",
							"type": "uint256"
						},
						{
							"internalType": "uint256",
							"name": "semiAnnualFee",
							"type": "uint256"
						},
						{
							"internalType": "uint256",
							"name": "annualFee",
							"type": "uint256"
						},
						{
							"internalType": "string",
							"name": "latitude",
							"type": "string"
						},
						{
							"internalType": "string",
							"name": "longitude",
							"type": "string"
						}
					],
					"name": "registerGym",
					"outputs": [],
					"stateMutability": "nonpayable",
					"type": "function"
				},
				{
					"inputs": [
						{
							"internalType": "string",
							"name": "_name",
							"type": "string"
						},
						{
							"internalType": "uint256",
							"name": "_age",
							"type": "uint256"
						},
						{
							"internalType": "uint256",
							"name": "_weight",
							"type": "uint256"
						},
						{
							"internalType": "uint256",
							"name": "_height",
							"type": "uint256"
						}
					],
					"name": "registerMember",
					"outputs": [],
					"stateMutability": "nonpayable",
					"type": "function"
				},
				{
					"inputs": [
						{
							"internalType": "address",
							"name": "gymAddress",
							"type": "address"
						},
						{
							"internalType": "uint256",
							"name": "duration",
							"type": "uint256"
						}
					],
					"name": "subscribeGym",
					"outputs": [],
					"stateMutability": "payable",
					"type": "function"
				},
				{
					"inputs": [],
					"name": "withdrawEarnings",
					"outputs": [],
					"stateMutability": "nonpayable",
					"type": "function"
				}
			],
			"devdoc": {
				"kind": "dev",
				"methods": {},
				"version": 1
			},
			"evm": {
				"assembly": "    /* \"contracts/GymMembership.sol\":60:10945  contract GymMembership {... */\n  mstore(0x40, 0x80)\n    /* \"contracts/GymMembership.sol\":1719:1770  constructor() {... */\n  callvalue\n  dup1\n  iszero\n  tag_1\n  jumpi\n  0x00\n  dup1\n  revert\ntag_1:\n  pop\n    /* \"contracts/GymMembership.sol\":1752:1762  msg.sender */\n  caller\n    /* \"contracts/GymMembership.sol\":1744:1749  owner */\n  0x06\n  0x00\n    /* \"contracts/GymMembership.sol\":1744:1762  owner = msg.sender */\n  0x0100\n  exp\n  dup2\n  sload\n  dup2\n  0xffffffffffffffffffffffffffffffffffffffff\n  mul\n  not\n  and\n  swap1\n  dup4\n  0xffffffffffffffffffffffffffffffffffffffff\n  and\n  mul\n  or\n  swap1\n  sstore\n  pop\n    /* \"contracts/GymMembership.sol\":60:10945  contract GymMembership {... */\n  dataSize(sub_0)\n  dup1\n  dataOffset(sub_0)\n  0x00\n  codecopy\n  0x00\n  return\nstop\n\nsub_0: assembly {\n        /* \"contracts/GymMembership.sol\":60:10945  contract GymMembership {... */\n      mstore(0x40, 0x80)\n      jumpi(tag_1, lt(calldatasize, 0x04))\n      shr(0xe0, calldataload(0x00))\n      dup1\n      0x7d4e1be3\n      gt\n      tag_25\n      jumpi\n      dup1\n      0xca4cba8e\n      gt\n      tag_26\n      jumpi\n      dup1\n      0xca4cba8e\n      eq\n      tag_19\n      jumpi\n      dup1\n      0xcc4e6299\n      eq\n      tag_20\n      jumpi\n      dup1\n      0xda9f67fe\n      eq\n      tag_21\n      jumpi\n      dup1\n      0xdc1d9188\n      eq\n      tag_22\n      jumpi\n      dup1\n      0xdfd73077\n      eq\n      tag_23\n      jumpi\n      dup1\n      0xf377b3c0\n      eq\n      tag_24\n      jumpi\n      jump(tag_1)\n    tag_26:\n      dup1\n      0x7d4e1be3\n      eq\n      tag_13\n      jumpi\n      dup1\n      0x8149f74c\n      eq\n      tag_14\n      jumpi\n      dup1\n      0x8da5cb5b\n      eq\n      tag_15\n      jumpi\n      dup1\n      0x9c6e3e32\n      eq\n      tag_16\n      jumpi\n      dup1\n      0xa230c524\n      eq\n      tag_17\n      jumpi\n      dup1\n      0xb73c6ce9\n      eq\n      tag_18\n      jumpi\n      jump(tag_1)\n    tag_25:\n      dup1\n      0x34336077\n      gt\n      tag_27\n      jumpi\n      dup1\n      0x34336077\n      eq\n      tag_7\n      jumpi\n      dup1\n      0x4876aebc\n      eq\n      tag_8\n      jumpi\n      dup1\n      0x5d762fb8\n      eq\n      tag_9\n      jumpi\n      dup1\n      0x5f1231ea\n      eq\n      tag_10\n      jumpi\n      dup1\n      0x78f5fa0a\n      eq\n      tag_11\n      jumpi\n      dup1\n      0x7c0f6b35\n      eq\n      tag_12\n      jumpi\n      jump(tag_1)\n    tag_27:\n      dup1\n      0x05d52812\n      eq\n      tag_2\n      jumpi\n      dup1\n      0x08ae4b0c\n      eq\n      tag_3\n      jumpi\n      dup1\n      0x09d050f8\n      eq\n      tag_4\n      jumpi\n      dup1\n      0x1dbe316b\n      eq\n      tag_5\n      jumpi\n      dup1\n      0x2b5dd630\n      eq\n      tag_6\n      jumpi\n    tag_1:\n      0x00\n      dup1\n      revert\n        /* \"contracts/GymMembership.sol\":9919:10942  function getMemberSubscriptions(address _member) public view onlyOwner returns (address[] memory, uint[] memory) {... */\n    tag_2:\n      callvalue\n      dup1\n      iszero\n      tag_28\n      jumpi\n      0x00\n      dup1\n      revert\n    tag_28:\n      pop\n      tag_29\n      0x04\n      dup1\n      calldatasize\n      sub\n      dup2\n      add\n      swap1\n      tag_30\n      swap2\n      swap1\n      tag_31\n      jump\t// in\n    tag_30:\n      tag_32\n      jump\t// in\n    tag_29:\n      mload(0x40)\n      tag_33\n      swap3\n      swap2\n      swap1\n      tag_34\n      jump\t// in\n    tag_33:\n      mload(0x40)\n      dup1\n      swap2\n      sub\n      swap1\n      return\n        /* \"contracts/GymMembership.sol\":1432:1473  mapping(address => Member) public members */\n    tag_3:\n      callvalue\n      dup1\n      iszero\n      tag_35\n      jumpi\n      0x00\n      dup1\n      revert\n    tag_35:\n      pop\n      tag_36\n      0x04\n      dup1\n      calldatasize\n      sub\n      dup2\n      add\n      swap1\n      tag_37\n      swap2\n      swap1\n      tag_31\n      jump\t// in\n    tag_37:\n      tag_38\n      jump\t// in\n    tag_36:\n      mload(0x40)\n      tag_39\n      swap8\n      swap7\n      swap6\n      swap5\n      swap4\n      swap3\n      swap2\n      swap1\n      tag_40\n      jump\t// in\n    tag_39:\n      mload(0x40)\n      dup1\n      swap2\n      sub\n      swap1\n      return\n        /* \"contracts/GymMembership.sol\":6174:6461  function rateGym(address _gym, uint _rating) public onlyMember {... */\n    tag_4:\n      callvalue\n      dup1\n      iszero\n      tag_41\n      jumpi\n      0x00\n      dup1\n      revert\n    tag_41:\n      pop\n      tag_42\n      0x04\n      dup1\n      calldatasize\n      sub\n      dup2\n      add\n      swap1\n      tag_43\n      swap2\n      swap1\n      tag_44\n      jump\t// in\n    tag_43:\n      tag_45\n      jump\t// in\n    tag_42:\n      stop\n        /* \"contracts/GymMembership.sol\":6469:6839  function calculateGymFee(address _gym) public view onlyOwner returns (uint) {... */\n    tag_5:\n      callvalue\n      dup1\n      iszero\n      tag_46\n      jumpi\n      0x00\n      dup1\n      revert\n    tag_46:\n      pop\n      tag_47\n      0x04\n      dup1\n      calldatasize\n      sub\n      dup2\n      add\n      swap1\n      tag_48\n      swap2\n      swap1\n      tag_31\n      jump\t// in\n    tag_48:\n      tag_49\n      jump\t// in\n    tag_47:\n      mload(0x40)\n      tag_50\n      swap2\n      swap1\n      tag_51\n      jump\t// in\n    tag_50:\n      mload(0x40)\n      dup1\n      swap2\n      sub\n      swap1\n      return\n        /* \"contracts/GymMembership.sol\":5699:6166  function addVisit(address _gym) public onlyMember {... */\n    tag_6:\n      callvalue\n      dup1\n      iszero\n      tag_52\n      jumpi\n      0x00\n      dup1\n      revert\n    tag_52:\n      pop\n      tag_53\n      0x04\n      dup1\n      calldatasize\n      sub\n      dup2\n      add\n      swap1\n      tag_54\n      swap2\n      swap1\n      tag_31\n      jump\t// in\n    tag_54:\n      tag_55\n      jump\t// in\n    tag_53:\n      stop\n        /* \"contracts/GymMembership.sol\":5411:5691  function addExercise(string memory _machine, uint _weightLifted) public onlyMember {... */\n    tag_7:\n      callvalue\n      dup1\n      iszero\n      tag_56\n      jumpi\n      0x00\n      dup1\n      revert\n    tag_56:\n      pop\n      tag_57\n      0x04\n      dup1\n      calldatasize\n      sub\n      dup2\n      add\n      swap1\n      tag_58\n      swap2\n      swap1\n      tag_59\n      jump\t// in\n    tag_58:\n      tag_60\n      jump\t// in\n    tag_57:\n      stop\n        /* \"contracts/GymMembership.sol\":8898:9663  function getActiveMembers() public view onlyGym returns (string[] memory, uint[] memory) {... */\n    tag_8:\n      callvalue\n      dup1\n      iszero\n      tag_61\n      jumpi\n      0x00\n      dup1\n      revert\n    tag_61:\n      pop\n      tag_62\n      tag_63\n      jump\t// in\n    tag_62:\n      mload(0x40)\n      tag_64\n      swap3\n      swap2\n      swap1\n      tag_65\n      jump\t// in\n    tag_64:\n      mload(0x40)\n      dup1\n      swap2\n      sub\n      swap1\n      return\n        /* \"contracts/GymMembership.sol\":1569:1606  mapping(address => bool) public isGym */\n    tag_9:\n      callvalue\n      dup1\n      iszero\n      tag_66\n      jumpi\n      0x00\n      dup1\n      revert\n    tag_66:\n      pop\n      tag_67\n      0x04\n      dup1\n      calldatasize\n      sub\n      dup2\n      add\n      swap1\n      tag_68\n      swap2\n      swap1\n      tag_31\n      jump\t// in\n    tag_68:\n      tag_69\n      jump\t// in\n    tag_67:\n      mload(0x40)\n      tag_70\n      swap2\n      swap1\n      tag_71\n      jump\t// in\n    tag_70:\n      mload(0x40)\n      dup1\n      swap2\n      sub\n      swap1\n      return\n        /* \"contracts/GymMembership.sol\":7880:8193  function getMemberInfo(address _member) public view onlyMember returns (string memory, uint, uint, uint, bool) {... */\n    tag_10:\n      callvalue\n      dup1\n      iszero\n      tag_72\n      jumpi\n      0x00\n      dup1\n      revert\n    tag_72:\n      pop\n      tag_73\n      0x04\n      dup1\n      calldatasize\n      sub\n      dup2\n      add\n      swap1\n      tag_74\n      swap2\n      swap1\n      tag_31\n      jump\t// in\n    tag_74:\n      tag_75\n      jump\t// in\n    tag_73:\n      mload(0x40)\n      tag_76\n      swap6\n      swap5\n      swap4\n      swap3\n      swap2\n      swap1\n      tag_77\n      jump\t// in\n    tag_76:\n      mload(0x40)\n      dup1\n      swap2\n      sub\n      swap1\n      return\n        /* \"contracts/GymMembership.sol\":1527:1562  mapping(address => Gym) public gyms */\n    tag_11:\n      callvalue\n      dup1\n      iszero\n      tag_78\n      jumpi\n      0x00\n      dup1\n      revert\n    tag_78:\n      pop\n      tag_79\n      0x04\n      dup1\n      calldatasize\n      sub\n      dup2\n      add\n      swap1\n      tag_80\n      swap2\n      swap1\n      tag_31\n      jump\t// in\n    tag_80:\n      tag_81\n      jump\t// in\n    tag_79:\n      mload(0x40)\n      tag_82\n      swap8\n      swap7\n      swap6\n      swap5\n      swap4\n      swap3\n      swap2\n      swap1\n      tag_83\n      jump\t// in\n    tag_82:\n      mload(0x40)\n      dup1\n      swap2\n      sub\n      swap1\n      return\n        /* \"contracts/GymMembership.sol\":9796:9911  function getAllMembers() public view onlyOwner returns (address[] memory) {... */\n    tag_12:\n      callvalue\n      dup1\n      iszero\n      tag_84\n      jumpi\n      0x00\n      dup1\n      revert\n    tag_84:\n      pop\n      tag_85\n      tag_86\n      jump\t// in\n    tag_85:\n      mload(0x40)\n      tag_87\n      swap2\n      swap1\n      tag_88\n      jump\t// in\n    tag_87:\n      mload(0x40)\n      dup1\n      swap2\n      sub\n      swap1\n      return\n        /* \"contracts/GymMembership.sol\":8201:8565  function getExercise(address _member, uint _index) public view onlyMember returns (string memory, uint, uint) {... */\n    tag_13:\n      callvalue\n      dup1\n      iszero\n      tag_89\n      jumpi\n      0x00\n      dup1\n      revert\n    tag_89:\n      pop\n      tag_90\n      0x04\n      dup1\n      calldatasize\n      sub\n      dup2\n      add\n      swap1\n      tag_91\n      swap2\n      swap1\n      tag_44\n      jump\t// in\n    tag_91:\n      tag_92\n      jump\t// in\n    tag_90:\n      mload(0x40)\n      tag_93\n      swap4\n      swap3\n      swap2\n      swap1\n      tag_94\n      jump\t// in\n    tag_93:\n      mload(0x40)\n      dup1\n      swap2\n      sub\n      swap1\n      return\n        /* \"contracts/GymMembership.sol\":4818:5403  function subscribeGym(address gymAddress, uint duration) public payable onlyMember {... */\n    tag_14:\n      tag_95\n      0x04\n      dup1\n      calldatasize\n      sub\n      dup2\n      add\n      swap1\n      tag_96\n      swap2\n      swap1\n      tag_44\n      jump\t// in\n    tag_96:\n      tag_97\n      jump\t// in\n    tag_95:\n      stop\n        /* \"contracts/GymMembership.sol\":1690:1710  address public owner */\n    tag_15:\n      callvalue\n      dup1\n      iszero\n      tag_98\n      jumpi\n      0x00\n      dup1\n      revert\n    tag_98:\n      pop\n      tag_99\n      tag_100\n      jump\t// in\n    tag_99:\n      mload(0x40)\n      tag_101\n      swap2\n      swap1\n      tag_102\n      jump\t// in\n    tag_101:\n      mload(0x40)\n      dup1\n      swap2\n      sub\n      swap1\n      return\n        /* \"contracts/GymMembership.sol\":2152:2770  function registerMember(string memory _name, uint _age, uint _weight, uint _height) public {... */\n    tag_16:\n      callvalue\n      dup1\n      iszero\n      tag_103\n      jumpi\n      0x00\n      dup1\n      revert\n    tag_103:\n      pop\n      tag_104\n      0x04\n      dup1\n      calldatasize\n      sub\n      dup2\n      add\n      swap1\n      tag_105\n      swap2\n      swap1\n      tag_106\n      jump\t// in\n    tag_105:\n      tag_107\n      jump\t// in\n    tag_104:\n      stop\n        /* \"contracts/GymMembership.sol\":1480:1520  mapping(address => bool) public isMember */\n    tag_17:\n      callvalue\n      dup1\n      iszero\n      tag_108\n      jumpi\n      0x00\n      dup1\n      revert\n    tag_108:\n      pop\n      tag_109\n      0x04\n      dup1\n      calldatasize\n      sub\n      dup2\n      add\n      swap1\n      tag_110\n      swap2\n      swap1\n      tag_31\n      jump\t// in\n    tag_110:\n      tag_111\n      jump\t// in\n    tag_109:\n      mload(0x40)\n      tag_112\n      swap2\n      swap1\n      tag_71\n      jump\t// in\n    tag_112:\n      mload(0x40)\n      dup1\n      swap2\n      sub\n      swap1\n      return\n        /* \"contracts/GymMembership.sol\":6847:7109  function withdrawEarnings() public onlyGym {... */\n    tag_18:\n      callvalue\n      dup1\n      iszero\n      tag_113\n      jumpi\n      0x00\n      dup1\n      revert\n    tag_113:\n      pop\n      tag_114\n      tag_115\n      jump\t// in\n    tag_114:\n      stop\n        /* \"contracts/GymMembership.sol\":1652:1681  address[] public gymAddresses */\n    tag_19:\n      callvalue\n      dup1\n      iszero\n      tag_116\n      jumpi\n      0x00\n      dup1\n      revert\n    tag_116:\n      pop\n      tag_117\n      0x04\n      dup1\n      calldatasize\n      sub\n      dup2\n      add\n      swap1\n      tag_118\n      swap2\n      swap1\n      tag_119\n      jump\t// in\n    tag_118:\n      tag_120\n      jump\t// in\n    tag_117:\n      mload(0x40)\n      tag_121\n      swap2\n      swap1\n      tag_102\n      jump\t// in\n    tag_121:\n      mload(0x40)\n      dup1\n      swap2\n      sub\n      swap1\n      return\n        /* \"contracts/GymMembership.sol\":1613:1645  address[] public memberAddresses */\n    tag_20:\n      callvalue\n      dup1\n      iszero\n      tag_122\n      jumpi\n      0x00\n      dup1\n      revert\n    tag_122:\n      pop\n      tag_123\n      0x04\n      dup1\n      calldatasize\n      sub\n      dup2\n      add\n      swap1\n      tag_124\n      swap2\n      swap1\n      tag_119\n      jump\t// in\n    tag_124:\n      tag_125\n      jump\t// in\n    tag_123:\n      mload(0x40)\n      tag_126\n      swap2\n      swap1\n      tag_102\n      jump\t// in\n    tag_126:\n      mload(0x40)\n      dup1\n      swap2\n      sub\n      swap1\n      return\n        /* \"contracts/GymMembership.sol\":9675:9784  function getAllGyms() public view onlyOwner returns (address[] memory) {... */\n    tag_21:\n      callvalue\n      dup1\n      iszero\n      tag_127\n      jumpi\n      0x00\n      dup1\n      revert\n    tag_127:\n      pop\n      tag_128\n      tag_129\n      jump\t// in\n    tag_128:\n      mload(0x40)\n      tag_130\n      swap2\n      swap1\n      tag_88\n      jump\t// in\n    tag_130:\n      mload(0x40)\n      dup1\n      swap2\n      sub\n      swap1\n      return\n        /* \"contracts/GymMembership.sol\":3431:4173  function registerGym(... */\n    tag_22:\n      callvalue\n      dup1\n      iszero\n      tag_131\n      jumpi\n      0x00\n      dup1\n      revert\n    tag_131:\n      pop\n      tag_132\n      0x04\n      dup1\n      calldatasize\n      sub\n      dup2\n      add\n      swap1\n      tag_133\n      swap2\n      swap1\n      tag_134\n      jump\t// in\n    tag_133:\n      tag_135\n      jump\t// in\n    tag_132:\n      stop\n        /* \"contracts/GymMembership.sol\":7117:7872  function manualAddMember(address _member, string memory _name, uint _age, uint _weight, uint _height) public onlyGym {... */\n    tag_23:\n      callvalue\n      dup1\n      iszero\n      tag_136\n      jumpi\n      0x00\n      dup1\n      revert\n    tag_136:\n      pop\n      tag_137\n      0x04\n      dup1\n      calldatasize\n      sub\n      dup2\n      add\n      swap1\n      tag_138\n      swap2\n      swap1\n      tag_139\n      jump\t// in\n    tag_138:\n      tag_140\n      jump\t// in\n    tag_137:\n      stop\n        /* \"contracts/GymMembership.sol\":8573:8890  function getVisit(address _member, uint _index) public view onlyMember returns (string memory, uint) {... */\n    tag_24:\n      callvalue\n      dup1\n      iszero\n      tag_141\n      jumpi\n      0x00\n      dup1\n      revert\n    tag_141:\n      pop\n      tag_142\n      0x04\n      dup1\n      calldatasize\n      sub\n      dup2\n      add\n      swap1\n      tag_143\n      swap2\n      swap1\n      tag_44\n      jump\t// in\n    tag_143:\n      tag_144\n      jump\t// in\n    tag_142:\n      mload(0x40)\n      tag_145\n      swap3\n      swap2\n      swap1\n      tag_146\n      jump\t// in\n    tag_145:\n      mload(0x40)\n      dup1\n      swap2\n      sub\n      swap1\n      return\n        /* \"contracts/GymMembership.sol\":9919:10942  function getMemberSubscriptions(address _member) public view onlyOwner returns (address[] memory, uint[] memory) {... */\n    tag_32:\n        /* \"contracts/GymMembership.sol\":9999:10015  address[] memory */\n      0x60\n        /* \"contracts/GymMembership.sol\":10017:10030  uint[] memory */\n      dup1\n        /* \"contracts/GymMembership.sol\":1832:1837  owner */\n      0x06\n      0x00\n      swap1\n      sload\n      swap1\n      0x0100\n      exp\n      swap1\n      div\n      0xffffffffffffffffffffffffffffffffffffffff\n      and\n        /* \"contracts/GymMembership.sol\":1818:1837  msg.sender == owner */\n      0xffffffffffffffffffffffffffffffffffffffff\n      and\n        /* \"contracts/GymMembership.sol\":1818:1828  msg.sender */\n      caller\n        /* \"contracts/GymMembership.sol\":1818:1837  msg.sender == owner */\n      0xffffffffffffffffffffffffffffffffffffffff\n      and\n      eq\n        /* \"contracts/GymMembership.sol\":1810:1875  require(msg.sender == owner, \"Only owner can call this function\") */\n      tag_148\n      jumpi\n      mload(0x40)\n      0x08c379a000000000000000000000000000000000000000000000000000000000\n      dup2\n      mstore\n      0x04\n      add\n      tag_149\n      swap1\n      tag_150\n      jump\t// in\n    tag_149:\n      mload(0x40)\n      dup1\n      swap2\n      sub\n      swap1\n      revert\n    tag_148:\n        /* \"contracts/GymMembership.sol\":10043:10064  Member storage member */\n      0x00\n        /* \"contracts/GymMembership.sol\":10067:10074  members */\n      dup1\n        /* \"contracts/GymMembership.sol\":10067:10083  members[_member] */\n      0x00\n        /* \"contracts/GymMembership.sol\":10075:10082  _member */\n      dup6\n        /* \"contracts/GymMembership.sol\":10067:10083  members[_member] */\n      0xffffffffffffffffffffffffffffffffffffffff\n      and\n      0xffffffffffffffffffffffffffffffffffffffff\n      and\n      dup2\n      mstore\n      0x20\n      add\n      swap1\n      dup2\n      mstore\n      0x20\n      add\n      0x00\n      keccak256\n        /* \"contracts/GymMembership.sol\":10043:10083  Member storage member = members[_member] */\n      swap1\n      pop\n        /* \"contracts/GymMembership.sol\":10094:10116  uint subscriptionCount */\n      0x00\n        /* \"contracts/GymMembership.sol\":10136:10142  uint i */\n      dup1\n        /* \"contracts/GymMembership.sol\":10131:10322  for (uint i = 0; i < gymAddresses.length; i++) {... */\n    tag_152:\n        /* \"contracts/GymMembership.sol\":10152:10164  gymAddresses */\n      0x05\n        /* \"contracts/GymMembership.sol\":10152:10171  gymAddresses.length */\n      dup1\n      sload\n      swap1\n      pop\n        /* \"contracts/GymMembership.sol\":10148:10149  i */\n      dup2\n        /* \"contracts/GymMembership.sol\":10148:10171  i < gymAddresses.length */\n      lt\n        /* \"contracts/GymMembership.sol\":10131:10322  for (uint i = 0; i < gymAddresses.length; i++) {... */\n      iszero\n      tag_153\n      jumpi\n        /* \"contracts/GymMembership.sol\":10240:10255  block.timestamp */\n      timestamp\n        /* \"contracts/GymMembership.sol\":10197:10203  member */\n      dup4\n        /* \"contracts/GymMembership.sol\":10197:10220  member.gymSubscriptions */\n      0x09\n      add\n        /* \"contracts/GymMembership.sol\":10197:10237  member.gymSubscriptions[gymAddresses[i]] */\n      0x00\n        /* \"contracts/GymMembership.sol\":10221:10233  gymAddresses */\n      0x05\n        /* \"contracts/GymMembership.sol\":10234:10235  i */\n      dup5\n        /* \"contracts/GymMembership.sol\":10221:10236  gymAddresses[i] */\n      dup2\n      sload\n      dup2\n      lt\n      tag_155\n      jumpi\n      tag_156\n      tag_157\n      jump\t// in\n    tag_156:\n    tag_155:\n      swap1\n      0x00\n      mstore\n      keccak256(0x00, 0x20)\n      add\n      0x00\n      swap1\n      sload\n      swap1\n      0x0100\n      exp\n      swap1\n      div\n      0xffffffffffffffffffffffffffffffffffffffff\n      and\n        /* \"contracts/GymMembership.sol\":10197:10237  member.gymSubscriptions[gymAddresses[i]] */\n      0xffffffffffffffffffffffffffffffffffffffff\n      and\n      0xffffffffffffffffffffffffffffffffffffffff\n      and\n      dup2\n      mstore\n      0x20\n      add\n      swap1\n      dup2\n      mstore\n      0x20\n      add\n      0x00\n      keccak256\n      sload\n        /* \"contracts/GymMembership.sol\":10197:10255  member.gymSubscriptions[gymAddresses[i]] > block.timestamp */\n      gt\n        /* \"contracts/GymMembership.sol\":10193:10311  if (member.gymSubscriptions[gymAddresses[i]] > block.timestamp) {... */\n      iszero\n      tag_159\n      jumpi\n        /* \"contracts/GymMembership.sol\":10276:10295  subscriptionCount++ */\n      dup2\n      dup1\n      tag_160\n      swap1\n      tag_161\n      jump\t// in\n    tag_160:\n      swap3\n      pop\n      pop\n        /* \"contracts/GymMembership.sol\":10193:10311  if (member.gymSubscriptions[gymAddresses[i]] > block.timestamp) {... */\n    tag_159:\n        /* \"contracts/GymMembership.sol\":10173:10176  i++ */\n      dup1\n      dup1\n      0x01\n      add\n      swap2\n      pop\n      pop\n        /* \"contracts/GymMembership.sol\":10131:10322  for (uint i = 0; i < gymAddresses.length; i++) {... */\n      jump(tag_152)\n    tag_153:\n      pop\n        /* \"contracts/GymMembership.sol\":10342:10377  address[] memory gymAddressesActive */\n      0x00\n        /* \"contracts/GymMembership.sol\":10394:10411  subscriptionCount */\n      dup2\n        /* \"contracts/GymMembership.sol\":10380:10412  new address[](subscriptionCount) */\n      0xffffffffffffffff\n      dup2\n      gt\n      iszero\n      tag_162\n      jumpi\n      tag_163\n      tag_164\n      jump\t// in\n    tag_163:\n    tag_162:\n      mload(0x40)\n      swap1\n      dup1\n      dup3\n      mstore\n      dup1\n      0x20\n      mul\n      0x20\n      add\n      dup3\n      add\n      0x40\n      mstore\n      dup1\n      iszero\n      tag_165\n      jumpi\n      dup2\n      0x20\n      add\n      0x20\n      dup3\n      mul\n      dup1\n      calldatasize\n      dup4\n      calldatacopy\n      dup1\n      dup3\n      add\n      swap2\n      pop\n      pop\n      swap1\n      pop\n    tag_165:\n      pop\n        /* \"contracts/GymMembership.sol\":10342:10412  address[] memory gymAddressesActive = new address[](subscriptionCount) */\n      swap1\n      pop\n        /* \"contracts/GymMembership.sol\":10423:10457  uint[] memory subscriptionEndDates */\n      0x00\n        /* \"contracts/GymMembership.sol\":10471:10488  subscriptionCount */\n      dup3\n        /* \"contracts/GymMembership.sol\":10460:10489  new uint[](subscriptionCount) */\n      0xffffffffffffffff\n      dup2\n      gt\n      iszero\n      tag_166\n      jumpi\n      tag_167\n      tag_164\n      jump\t// in\n    tag_167:\n    tag_166:\n      mload(0x40)\n      swap1\n      dup1\n      dup3\n      mstore\n      dup1\n      0x20\n      mul\n      0x20\n      add\n      dup3\n      add\n      0x40\n      mstore\n      dup1\n      iszero\n      tag_168\n      jumpi\n      dup2\n      0x20\n      add\n      0x20\n      dup3\n      mul\n      dup1\n      calldatasize\n      dup4\n      calldatacopy\n      dup1\n      dup3\n      add\n      swap2\n      pop\n      pop\n      swap1\n      pop\n    tag_168:\n      pop\n        /* \"contracts/GymMembership.sol\":10423:10489  uint[] memory subscriptionEndDates = new uint[](subscriptionCount) */\n      swap1\n      pop\n        /* \"contracts/GymMembership.sol\":10500:10510  uint index */\n      0x00\n        /* \"contracts/GymMembership.sol\":10540:10546  uint i */\n      dup1\n        /* \"contracts/GymMembership.sol\":10535:10865  for (uint i = 0; i < gymAddresses.length; i++) {... */\n    tag_169:\n        /* \"contracts/GymMembership.sol\":10556:10568  gymAddresses */\n      0x05\n        /* \"contracts/GymMembership.sol\":10556:10575  gymAddresses.length */\n      dup1\n      sload\n      swap1\n      pop\n        /* \"contracts/GymMembership.sol\":10552:10553  i */\n      dup2\n        /* \"contracts/GymMembership.sol\":10552:10575  i < gymAddresses.length */\n      lt\n        /* \"contracts/GymMembership.sol\":10535:10865  for (uint i = 0; i < gymAddresses.length; i++) {... */\n      iszero\n      tag_170\n      jumpi\n        /* \"contracts/GymMembership.sol\":10644:10659  block.timestamp */\n      timestamp\n        /* \"contracts/GymMembership.sol\":10601:10607  member */\n      dup7\n        /* \"contracts/GymMembership.sol\":10601:10624  member.gymSubscriptions */\n      0x09\n      add\n        /* \"contracts/GymMembership.sol\":10601:10641  member.gymSubscriptions[gymAddresses[i]] */\n      0x00\n        /* \"contracts/GymMembership.sol\":10625:10637  gymAddresses */\n      0x05\n        /* \"contracts/GymMembership.sol\":10638:10639  i */\n      dup5\n        /* \"contracts/GymMembership.sol\":10625:10640  gymAddresses[i] */\n      dup2\n      sload\n      dup2\n      lt\n      tag_172\n      jumpi\n      tag_173\n      tag_157\n      jump\t// in\n    tag_173:\n    tag_172:\n      swap1\n      0x00\n      mstore\n      keccak256(0x00, 0x20)\n      add\n      0x00\n      swap1\n      sload\n      swap1\n      0x0100\n      exp\n      swap1\n      div\n      0xffffffffffffffffffffffffffffffffffffffff\n      and\n        /* \"contracts/GymMembership.sol\":10601:10641  member.gymSubscriptions[gymAddresses[i]] */\n      0xffffffffffffffffffffffffffffffffffffffff\n      and\n      0xffffffffffffffffffffffffffffffffffffffff\n      and\n      dup2\n      mstore\n      0x20\n      add\n      swap1\n      dup2\n      mstore\n      0x20\n      add\n      0x00\n      keccak256\n      sload\n        /* \"contracts/GymMembership.sol\":10601:10659  member.gymSubscriptions[gymAddresses[i]] > block.timestamp */\n      gt\n        /* \"contracts/GymMembership.sol\":10597:10854  if (member.gymSubscriptions[gymAddresses[i]] > block.timestamp) {... */\n      iszero\n      tag_175\n      jumpi\n        /* \"contracts/GymMembership.sol\":10708:10720  gymAddresses */\n      0x05\n        /* \"contracts/GymMembership.sol\":10721:10722  i */\n      dup2\n        /* \"contracts/GymMembership.sol\":10708:10723  gymAddresses[i] */\n      dup2\n      sload\n      dup2\n      lt\n      tag_176\n      jumpi\n      tag_177\n      tag_157\n      jump\t// in\n    tag_177:\n    tag_176:\n      swap1\n      0x00\n      mstore\n      keccak256(0x00, 0x20)\n      add\n      0x00\n      swap1\n      sload\n      swap1\n      0x0100\n      exp\n      swap1\n      div\n      0xffffffffffffffffffffffffffffffffffffffff\n      and\n        /* \"contracts/GymMembership.sol\":10680:10698  gymAddressesActive */\n      dup5\n        /* \"contracts/GymMembership.sol\":10699:10704  index */\n      dup4\n        /* \"contracts/GymMembership.sol\":10680:10705  gymAddressesActive[index] */\n      dup2\n      mload\n      dup2\n      lt\n      tag_179\n      jumpi\n      tag_180\n      tag_157\n      jump\t// in\n    tag_180:\n    tag_179:\n      0x20\n      mul\n      0x20\n      add\n      add\n        /* \"contracts/GymMembership.sol\":10680:10723  gymAddressesActive[index] = gymAddresses[i] */\n      swap1\n      0xffffffffffffffffffffffffffffffffffffffff\n      and\n      swap1\n      dup2\n      0xffffffffffffffffffffffffffffffffffffffff\n      and\n      dup2\n      mstore\n      pop\n      pop\n        /* \"contracts/GymMembership.sol\":10772:10778  member */\n      dup6\n        /* \"contracts/GymMembership.sol\":10772:10795  member.gymSubscriptions */\n      0x09\n      add\n        /* \"contracts/GymMembership.sol\":10772:10812  member.gymSubscriptions[gymAddresses[i]] */\n      0x00\n        /* \"contracts/GymMembership.sol\":10796:10808  gymAddresses */\n      0x05\n        /* \"contracts/GymMembership.sol\":10809:10810  i */\n      dup4\n        /* \"contracts/GymMembership.sol\":10796:10811  gymAddresses[i] */\n      dup2\n      sload\n      dup2\n      lt\n      tag_181\n      jumpi\n      tag_182\n      tag_157\n      jump\t// in\n    tag_182:\n    tag_181:\n      swap1\n      0x00\n      mstore\n      keccak256(0x00, 0x20)\n      add\n      0x00\n      swap1\n      sload\n      swap1\n      0x0100\n      exp\n      swap1\n      div\n      0xffffffffffffffffffffffffffffffffffffffff\n      and\n        /* \"contracts/GymMembership.sol\":10772:10812  member.gymSubscriptions[gymAddresses[i]] */\n      0xffffffffffffffffffffffffffffffffffffffff\n      and\n      0xffffffffffffffffffffffffffffffffffffffff\n      and\n      dup2\n      mstore\n      0x20\n      add\n      swap1\n      dup2\n      mstore\n      0x20\n      add\n      0x00\n      keccak256\n      sload\n        /* \"contracts/GymMembership.sol\":10742:10762  subscriptionEndDates */\n      dup4\n        /* \"contracts/GymMembership.sol\":10763:10768  index */\n      dup4\n        /* \"contracts/GymMembership.sol\":10742:10769  subscriptionEndDates[index] */\n      dup2\n      mload\n      dup2\n      lt\n      tag_184\n      jumpi\n      tag_185\n      tag_157\n      jump\t// in\n    tag_185:\n    tag_184:\n      0x20\n      mul\n      0x20\n      add\n      add\n        /* \"contracts/GymMembership.sol\":10742:10812  subscriptionEndDates[index] = member.gymSubscriptions[gymAddresses[i]] */\n      dup2\n      dup2\n      mstore\n      pop\n      pop\n        /* \"contracts/GymMembership.sol\":10831:10838  index++ */\n      dup2\n      dup1\n      tag_186\n      swap1\n      tag_161\n      jump\t// in\n    tag_186:\n      swap3\n      pop\n      pop\n        /* \"contracts/GymMembership.sol\":10597:10854  if (member.gymSubscriptions[gymAddresses[i]] > block.timestamp) {... */\n    tag_175:\n        /* \"contracts/GymMembership.sol\":10577:10580  i++ */\n      dup1\n      dup1\n      0x01\n      add\n      swap2\n      pop\n      pop\n        /* \"contracts/GymMembership.sol\":10535:10865  for (uint i = 0; i < gymAddresses.length; i++) {... */\n      jump(tag_169)\n    tag_170:\n      pop\n        /* \"contracts/GymMembership.sol\":10893:10911  gymAddressesActive */\n      dup3\n        /* \"contracts/GymMembership.sol\":10913:10933  subscriptionEndDates */\n      dup3\n        /* \"contracts/GymMembership.sol\":10885:10934  return (gymAddressesActive, subscriptionEndDates) */\n      swap7\n      pop\n      swap7\n      pop\n      pop\n      pop\n      pop\n      pop\n      pop\n        /* \"contracts/GymMembership.sol\":9919:10942  function getMemberSubscriptions(address _member) public view onlyOwner returns (address[] memory, uint[] memory) {... */\n      swap2\n      pop\n      swap2\n      jump\t// out\n        /* \"contracts/GymMembership.sol\":1432:1473  mapping(address => Member) public members */\n    tag_38:\n      mstore(0x20, 0x00)\n      dup1\n      0x00\n      mstore\n      keccak256(0x00, 0x40)\n      0x00\n      swap2\n      pop\n      swap1\n      pop\n      dup1\n      0x00\n      add\n      dup1\n      sload\n      tag_187\n      swap1\n      tag_188\n      jump\t// in\n    tag_187:\n      dup1\n      0x1f\n      add\n      0x20\n      dup1\n      swap2\n      div\n      mul\n      0x20\n      add\n      mload(0x40)\n      swap1\n      dup2\n      add\n      0x40\n      mstore\n      dup1\n      swap3\n      swap2\n      swap1\n      dup2\n      dup2\n      mstore\n      0x20\n      add\n      dup3\n      dup1\n      sload\n      tag_189\n      swap1\n      tag_188\n      jump\t// in\n    tag_189:\n      dup1\n      iszero\n      tag_190\n      jumpi\n      dup1\n      0x1f\n      lt\n      tag_191\n      jumpi\n      0x0100\n      dup1\n      dup4\n      sload\n      div\n      mul\n      dup4\n      mstore\n      swap2\n      0x20\n      add\n      swap2\n      jump(tag_190)\n    tag_191:\n      dup3\n      add\n      swap2\n      swap1\n      0x00\n      mstore\n      keccak256(0x00, 0x20)\n      swap1\n    tag_192:\n      dup2\n      sload\n      dup2\n      mstore\n      swap1\n      0x01\n      add\n      swap1\n      0x20\n      add\n      dup1\n      dup4\n      gt\n      tag_192\n      jumpi\n      dup3\n      swap1\n      sub\n      0x1f\n      and\n      dup3\n      add\n      swap2\n    tag_190:\n      pop\n      pop\n      pop\n      pop\n      pop\n      swap1\n      dup1\n      0x01\n      add\n      sload\n      swap1\n      dup1\n      0x02\n      add\n      sload\n      swap1\n      dup1\n      0x03\n      add\n      sload\n      swap1\n      dup1\n      0x04\n      add\n      sload\n      swap1\n      dup1\n      0x05\n      add\n      sload\n      swap1\n      dup1\n      0x06\n      add\n      0x00\n      swap1\n      sload\n      swap1\n      0x0100\n      exp\n      swap1\n      div\n      0xff\n      and\n      swap1\n      pop\n      dup8\n      jump\t// out\n        /* \"contracts/GymMembership.sol\":6174:6461  function rateGym(address _gym, uint _rating) public onlyMember {... */\n    tag_45:\n        /* \"contracts/GymMembership.sol\":1944:1952  isMember */\n      0x01\n        /* \"contracts/GymMembership.sol\":1944:1964  isMember[msg.sender] */\n      0x00\n        /* \"contracts/GymMembership.sol\":1953:1963  msg.sender */\n      caller\n        /* \"contracts/GymMembership.sol\":1944:1964  isMember[msg.sender] */\n      0xffffffffffffffffffffffffffffffffffffffff\n      and\n      0xffffffffffffffffffffffffffffffffffffffff\n      and\n      dup2\n      mstore\n      0x20\n      add\n      swap1\n      dup2\n      mstore\n      0x20\n      add\n      0x00\n      keccak256\n      0x00\n      swap1\n      sload\n      swap1\n      0x0100\n      exp\n      swap1\n      div\n      0xff\n      and\n        /* \"contracts/GymMembership.sol\":1936:2004  require(isMember[msg.sender], \"Only members can call this function\") */\n      tag_194\n      jumpi\n      mload(0x40)\n      0x08c379a000000000000000000000000000000000000000000000000000000000\n      dup2\n      mstore\n      0x04\n      add\n      tag_195\n      swap1\n      tag_196\n      jump\t// in\n    tag_195:\n      mload(0x40)\n      dup1\n      swap2\n      sub\n      swap1\n      revert\n    tag_194:\n        /* \"contracts/GymMembership.sol\":6256:6261  isGym */\n      0x03\n        /* \"contracts/GymMembership.sol\":6256:6267  isGym[_gym] */\n      0x00\n        /* \"contracts/GymMembership.sol\":6262:6266  _gym */\n      dup4\n        /* \"contracts/GymMembership.sol\":6256:6267  isGym[_gym] */\n      0xffffffffffffffffffffffffffffffffffffffff\n      and\n      0xffffffffffffffffffffffffffffffffffffffff\n      and\n      dup2\n      mstore\n      0x20\n      add\n      swap1\n      dup2\n      mstore\n      0x20\n      add\n      0x00\n      keccak256\n      0x00\n      swap1\n      sload\n      swap1\n      0x0100\n      exp\n      swap1\n      div\n      0xff\n      and\n        /* \"contracts/GymMembership.sol\":6248:6283  require(isGym[_gym], \"Invalid gym\") */\n      tag_198\n      jumpi\n      mload(0x40)\n      0x08c379a000000000000000000000000000000000000000000000000000000000\n      dup2\n      mstore\n      0x04\n      add\n      tag_199\n      swap1\n      tag_200\n      jump\t// in\n    tag_199:\n      mload(0x40)\n      dup1\n      swap2\n      sub\n      swap1\n      revert\n    tag_198:\n        /* \"contracts/GymMembership.sol\":6313:6314  1 */\n      0x01\n        /* \"contracts/GymMembership.sol\":6302:6309  _rating */\n      dup2\n        /* \"contracts/GymMembership.sol\":6302:6314  _rating >= 1 */\n      lt\n      iszero\n        /* \"contracts/GymMembership.sol\":6302:6330  _rating >= 1 && _rating <= 5 */\n      dup1\n      iszero\n      tag_201\n      jumpi\n      pop\n        /* \"contracts/GymMembership.sol\":6329:6330  5 */\n      0x05\n        /* \"contracts/GymMembership.sol\":6318:6325  _rating */\n      dup2\n        /* \"contracts/GymMembership.sol\":6318:6330  _rating <= 5 */\n      gt\n      iszero\n        /* \"contracts/GymMembership.sol\":6302:6330  _rating >= 1 && _rating <= 5 */\n    tag_201:\n        /* \"contracts/GymMembership.sol\":6294:6349  require(_rating >= 1 && _rating <= 5, \"Invalid rating\") */\n      tag_202\n      jumpi\n      mload(0x40)\n      0x08c379a000000000000000000000000000000000000000000000000000000000\n      dup2\n      mstore\n      0x04\n      add\n      tag_203\n      swap1\n      tag_204\n      jump\t// in\n    tag_203:\n      mload(0x40)\n      dup1\n      swap2\n      sub\n      swap1\n      revert\n    tag_202:\n        /* \"contracts/GymMembership.sol\":6360:6375  Gym storage gym */\n      0x00\n        /* \"contracts/GymMembership.sol\":6378:6382  gyms */\n      0x02\n        /* \"contracts/GymMembership.sol\":6378:6388  gyms[_gym] */\n      0x00\n        /* \"contracts/GymMembership.sol\":6383:6387  _gym */\n      dup5\n        /* \"contracts/GymMembership.sol\":6378:6388  gyms[_gym] */\n      0xffffffffffffffffffffffffffffffffffffffff\n      and\n      0xffffffffffffffffffffffffffffffffffffffff\n      and\n      dup2\n      mstore\n      0x20\n      add\n      swap1\n      dup2\n      mstore\n      0x20\n      add\n      0x00\n      keccak256\n        /* \"contracts/GymMembership.sol\":6360:6388  Gym storage gym = gyms[_gym] */\n      swap1\n      pop\n        /* \"contracts/GymMembership.sol\":6418:6425  _rating */\n      dup2\n        /* \"contracts/GymMembership.sol\":6399:6402  gym */\n      dup2\n        /* \"contracts/GymMembership.sol\":6399:6414  gym.totalRating */\n      0x08\n      add\n      0x00\n        /* \"contracts/GymMembership.sol\":6399:6425  gym.totalRating += _rating */\n      dup3\n      dup3\n      sload\n      tag_205\n      swap2\n      swap1\n      tag_206\n      jump\t// in\n    tag_205:\n      swap3\n      pop\n      pop\n      dup2\n      swap1\n      sstore\n      pop\n        /* \"contracts/GymMembership.sol\":6436:6439  gym */\n      dup1\n        /* \"contracts/GymMembership.sol\":6436:6451  gym.reviewCount */\n      0x09\n      add\n      0x00\n        /* \"contracts/GymMembership.sol\":6436:6453  gym.reviewCount++ */\n      dup2\n      sload\n      dup1\n      swap3\n      swap2\n      swap1\n      tag_207\n      swap1\n      tag_161\n      jump\t// in\n    tag_207:\n      swap2\n      swap1\n      pop\n      sstore\n      pop\n        /* \"contracts/GymMembership.sol\":6237:6461  {... */\n      pop\n        /* \"contracts/GymMembership.sol\":6174:6461  function rateGym(address _gym, uint _rating) public onlyMember {... */\n      pop\n      pop\n      jump\t// out\n        /* \"contracts/GymMembership.sol\":6469:6839  function calculateGymFee(address _gym) public view onlyOwner returns (uint) {... */\n    tag_49:\n        /* \"contracts/GymMembership.sol\":6539:6543  uint */\n      0x00\n        /* \"contracts/GymMembership.sol\":1832:1837  owner */\n      0x06\n      0x00\n      swap1\n      sload\n      swap1\n      0x0100\n      exp\n      swap1\n      div\n      0xffffffffffffffffffffffffffffffffffffffff\n      and\n        /* \"contracts/GymMembership.sol\":1818:1837  msg.sender == owner */\n      0xffffffffffffffffffffffffffffffffffffffff\n      and\n        /* \"contracts/GymMembership.sol\":1818:1828  msg.sender */\n      caller\n        /* \"contracts/GymMembership.sol\":1818:1837  msg.sender == owner */\n      0xffffffffffffffffffffffffffffffffffffffff\n      and\n      eq\n        /* \"contracts/GymMembership.sol\":1810:1875  require(msg.sender == owner, \"Only owner can call this function\") */\n      tag_209\n      jumpi\n      mload(0x40)\n      0x08c379a000000000000000000000000000000000000000000000000000000000\n      dup2\n      mstore\n      0x04\n      add\n      tag_210\n      swap1\n      tag_150\n      jump\t// in\n    tag_210:\n      mload(0x40)\n      dup1\n      swap2\n      sub\n      swap1\n      revert\n    tag_209:\n        /* \"contracts/GymMembership.sol\":6564:6569  isGym */\n      0x03\n        /* \"contracts/GymMembership.sol\":6564:6575  isGym[_gym] */\n      0x00\n        /* \"contracts/GymMembership.sol\":6570:6574  _gym */\n      dup4\n        /* \"contracts/GymMembership.sol\":6564:6575  isGym[_gym] */\n      0xffffffffffffffffffffffffffffffffffffffff\n      and\n      0xffffffffffffffffffffffffffffffffffffffff\n      and\n      dup2\n      mstore\n      0x20\n      add\n      swap1\n      dup2\n      mstore\n      0x20\n      add\n      0x00\n      keccak256\n      0x00\n      swap1\n      sload\n      swap1\n      0x0100\n      exp\n      swap1\n      div\n      0xff\n      and\n        /* \"contracts/GymMembership.sol\":6556:6591  require(isGym[_gym], \"Invalid gym\") */\n      tag_212\n      jumpi\n      mload(0x40)\n      0x08c379a000000000000000000000000000000000000000000000000000000000\n      dup2\n      mstore\n      0x04\n      add\n      tag_213\n      swap1\n      tag_200\n      jump\t// in\n    tag_213:\n      mload(0x40)\n      dup1\n      swap2\n      sub\n      swap1\n      revert\n    tag_212:\n        /* \"contracts/GymMembership.sol\":6602:6617  Gym storage gym */\n      0x00\n        /* \"contracts/GymMembership.sol\":6620:6624  gyms */\n      0x02\n        /* \"contracts/GymMembership.sol\":6620:6630  gyms[_gym] */\n      0x00\n        /* \"contracts/GymMembership.sol\":6625:6629  _gym */\n      dup5\n        /* \"contracts/GymMembership.sol\":6620:6630  gyms[_gym] */\n      0xffffffffffffffffffffffffffffffffffffffff\n      and\n      0xffffffffffffffffffffffffffffffffffffffff\n      and\n      dup2\n      mstore\n      0x20\n      add\n      swap1\n      dup2\n      mstore\n      0x20\n      add\n      0x00\n      keccak256\n        /* \"contracts/GymMembership.sol\":6602:6630  Gym storage gym = gyms[_gym] */\n      swap1\n      pop\n        /* \"contracts/GymMembership.sol\":6664:6665  0 */\n      0x00\n        /* \"contracts/GymMembership.sol\":6645:6648  gym */\n      dup2\n        /* \"contracts/GymMembership.sol\":6645:6660  gym.reviewCount */\n      0x09\n      add\n      sload\n        /* \"contracts/GymMembership.sol\":6645:6665  gym.reviewCount == 0 */\n      sub\n        /* \"contracts/GymMembership.sol\":6641:6719  if (gym.reviewCount == 0) {... */\n      tag_214\n      jumpi\n        /* \"contracts/GymMembership.sol\":6706:6707  1 */\n      0x01\n        /* \"contracts/GymMembership.sol\":6689:6692  gym */\n      dup2\n        /* \"contracts/GymMembership.sol\":6689:6703  gym.totalUsers */\n      0x07\n      add\n      sload\n        /* \"contracts/GymMembership.sol\":6689:6707  gym.totalUsers * 1 */\n      tag_215\n      swap2\n      swap1\n      tag_216\n      jump\t// in\n    tag_215:\n        /* \"contracts/GymMembership.sol\":6682:6707  return gym.totalUsers * 1 */\n      swap2\n      pop\n      pop\n      jump(tag_211)\n        /* \"contracts/GymMembership.sol\":6641:6719  if (gym.reviewCount == 0) {... */\n    tag_214:\n        /* \"contracts/GymMembership.sol\":6729:6747  uint averageRating */\n      0x00\n        /* \"contracts/GymMembership.sol\":6768:6771  gym */\n      dup2\n        /* \"contracts/GymMembership.sol\":6768:6783  gym.reviewCount */\n      0x09\n      add\n      sload\n        /* \"contracts/GymMembership.sol\":6750:6753  gym */\n      dup3\n        /* \"contracts/GymMembership.sol\":6750:6765  gym.totalRating */\n      0x08\n      add\n      sload\n        /* \"contracts/GymMembership.sol\":6750:6783  gym.totalRating / gym.reviewCount */\n      tag_217\n      swap2\n      swap1\n      tag_218\n      jump\t// in\n    tag_217:\n        /* \"contracts/GymMembership.sol\":6729:6783  uint averageRating = gym.totalRating / gym.reviewCount */\n      swap1\n      pop\n        /* \"contracts/GymMembership.sol\":6818:6831  averageRating */\n      dup1\n        /* \"contracts/GymMembership.sol\":6801:6804  gym */\n      dup3\n        /* \"contracts/GymMembership.sol\":6801:6815  gym.totalUsers */\n      0x07\n      add\n      sload\n        /* \"contracts/GymMembership.sol\":6801:6831  gym.totalUsers * averageRating */\n      tag_219\n      swap2\n      swap1\n      tag_216\n      jump\t// in\n    tag_219:\n        /* \"contracts/GymMembership.sol\":6794:6831  return gym.totalUsers * averageRating */\n      swap3\n      pop\n      pop\n      pop\n        /* \"contracts/GymMembership.sol\":1886:1887  _ */\n    tag_211:\n        /* \"contracts/GymMembership.sol\":6469:6839  function calculateGymFee(address _gym) public view onlyOwner returns (uint) {... */\n      swap2\n      swap1\n      pop\n      jump\t// out\n        /* \"contracts/GymMembership.sol\":5699:6166  function addVisit(address _gym) public onlyMember {... */\n    tag_55:\n        /* \"contracts/GymMembership.sol\":1944:1952  isMember */\n      0x01\n        /* \"contracts/GymMembership.sol\":1944:1964  isMember[msg.sender] */\n      0x00\n        /* \"contracts/GymMembership.sol\":1953:1963  msg.sender */\n      caller\n        /* \"contracts/GymMembership.sol\":1944:1964  isMember[msg.sender] */\n      0xffffffffffffffffffffffffffffffffffffffff\n      and\n      0xffffffffffffffffffffffffffffffffffffffff\n      and\n      dup2\n      mstore\n      0x20\n      add\n      swap1\n      dup2\n      mstore\n      0x20\n      add\n      0x00\n      keccak256\n      0x00\n      swap1\n      sload\n      swap1\n      0x0100\n      exp\n      swap1\n      div\n      0xff\n      and\n        /* \"contracts/GymMembership.sol\":1936:2004  require(isMember[msg.sender], \"Only members can call this function\") */\n      tag_221\n      jumpi\n      mload(0x40)\n      0x08c379a000000000000000000000000000000000000000000000000000000000\n      dup2\n      mstore\n      0x04\n      add\n      tag_222\n      swap1\n      tag_196\n      jump\t// in\n    tag_222:\n      mload(0x40)\n      dup1\n      swap2\n      sub\n      swap1\n      revert\n    tag_221:\n        /* \"contracts/GymMembership.sol\":5768:5773  isGym */\n      0x03\n        /* \"contracts/GymMembership.sol\":5768:5779  isGym[_gym] */\n      0x00\n        /* \"contracts/GymMembership.sol\":5774:5778  _gym */\n      dup3\n        /* \"contracts/GymMembership.sol\":5768:5779  isGym[_gym] */\n      0xffffffffffffffffffffffffffffffffffffffff\n      and\n      0xffffffffffffffffffffffffffffffffffffffff\n      and\n      dup2\n      mstore\n      0x20\n      add\n      swap1\n      dup2\n      mstore\n      0x20\n      add\n      0x00\n      keccak256\n      0x00\n      swap1\n      sload\n      swap1\n      0x0100\n      exp\n      swap1\n      div\n      0xff\n      and\n        /* \"contracts/GymMembership.sol\":5760:5795  require(isGym[_gym], \"Invalid gym\") */\n      tag_224\n      jumpi\n      mload(0x40)\n      0x08c379a000000000000000000000000000000000000000000000000000000000\n      dup2\n      mstore\n      0x04\n      add\n      tag_225\n      swap1\n      tag_200\n      jump\t// in\n    tag_225:\n      mload(0x40)\n      dup1\n      swap2\n      sub\n      swap1\n      revert\n    tag_224:\n        /* \"contracts/GymMembership.sol\":5859:5874  block.timestamp */\n      timestamp\n        /* \"contracts/GymMembership.sol\":5814:5821  members */\n      0x00\n        /* \"contracts/GymMembership.sol\":5814:5833  members[msg.sender] */\n      dup1\n        /* \"contracts/GymMembership.sol\":5822:5832  msg.sender */\n      caller\n        /* \"contracts/GymMembership.sol\":5814:5833  members[msg.sender] */\n      0xffffffffffffffffffffffffffffffffffffffff\n      and\n      0xffffffffffffffffffffffffffffffffffffffff\n      and\n      dup2\n      mstore\n      0x20\n      add\n      swap1\n      dup2\n      mstore\n      0x20\n      add\n      0x00\n      keccak256\n        /* \"contracts/GymMembership.sol\":5814:5850  members[msg.sender].gymSubscriptions */\n      0x09\n      add\n        /* \"contracts/GymMembership.sol\":5814:5856  members[msg.sender].gymSubscriptions[_gym] */\n      0x00\n        /* \"contracts/GymMembership.sol\":5851:5855  _gym */\n      dup4\n        /* \"contracts/GymMembership.sol\":5814:5856  members[msg.sender].gymSubscriptions[_gym] */\n      0xffffffffffffffffffffffffffffffffffffffff\n      and\n      0xffffffffffffffffffffffffffffffffffffffff\n      and\n      dup2\n      mstore\n      0x20\n      add\n      swap1\n      dup2\n      mstore\n      0x20\n      add\n      0x00\n      keccak256\n      sload\n        /* \"contracts/GymMembership.sol\":5814:5874  members[msg.sender].gymSubscriptions[_gym] > block.timestamp */\n      gt\n        /* \"contracts/GymMembership.sol\":5806:5899  require(members[msg.sender].gymSubscriptions[_gym] > block.timestamp, \"Subscription expired\") */\n      tag_226\n      jumpi\n      mload(0x40)\n      0x08c379a000000000000000000000000000000000000000000000000000000000\n      dup2\n      mstore\n      0x04\n      add\n      tag_227\n      swap1\n      tag_228\n      jump\t// in\n    tag_227:\n      mload(0x40)\n      dup1\n      swap2\n      sub\n      swap1\n      revert\n    tag_226:\n        /* \"contracts/GymMembership.sol\":5912:5933  Member storage member */\n      0x00\n        /* \"contracts/GymMembership.sol\":5936:5943  members */\n      dup1\n        /* \"contracts/GymMembership.sol\":5936:5955  members[msg.sender] */\n      0x00\n        /* \"contracts/GymMembership.sol\":5944:5954  msg.sender */\n      caller\n        /* \"contracts/GymMembership.sol\":5936:5955  members[msg.sender] */\n      0xffffffffffffffffffffffffffffffffffffffff\n      and\n      0xffffffffffffffffffffffffffffffffffffffff\n      and\n      dup2\n      mstore\n      0x20\n      add\n      swap1\n      dup2\n      mstore\n      0x20\n      add\n      0x00\n      keccak256\n        /* \"contracts/GymMembership.sol\":5912:5955  Member storage member = members[msg.sender] */\n      swap1\n      pop\n        /* \"contracts/GymMembership.sol\":5966:5981  Gym storage gym */\n      0x00\n        /* \"contracts/GymMembership.sol\":5984:5988  gyms */\n      0x02\n        /* \"contracts/GymMembership.sol\":5984:5994  gyms[_gym] */\n      0x00\n        /* \"contracts/GymMembership.sol\":5989:5993  _gym */\n      dup5\n        /* \"contracts/GymMembership.sol\":5984:5994  gyms[_gym] */\n      0xffffffffffffffffffffffffffffffffffffffff\n      and\n      0xffffffffffffffffffffffffffffffffffffffff\n      and\n      dup2\n      mstore\n      0x20\n      add\n      swap1\n      dup2\n      mstore\n      0x20\n      add\n      0x00\n      keccak256\n        /* \"contracts/GymMembership.sol\":5966:5994  Gym storage gym = gyms[_gym] */\n      swap1\n      pop\n        /* \"contracts/GymMembership.sol\":6042:6074  Visit(gym.name, block.timestamp) */\n      mload(0x40)\n      dup1\n      0x40\n      add\n      0x40\n      mstore\n      dup1\n        /* \"contracts/GymMembership.sol\":6048:6051  gym */\n      dup3\n        /* \"contracts/GymMembership.sol\":6048:6056  gym.name */\n      0x00\n      add\n        /* \"contracts/GymMembership.sol\":6042:6074  Visit(gym.name, block.timestamp) */\n      dup1\n      sload\n      tag_229\n      swap1\n      tag_188\n      jump\t// in\n    tag_229:\n      dup1\n      0x1f\n      add\n      0x20\n      dup1\n      swap2\n      div\n      mul\n      0x20\n      add\n      mload(0x40)\n      swap1\n      dup2\n      add\n      0x40\n      mstore\n      dup1\n      swap3\n      swap2\n      swap1\n      dup2\n      dup2\n      mstore\n      0x20\n      add\n      dup3\n      dup1\n      sload\n      tag_230\n      swap1\n      tag_188\n      jump\t// in\n    tag_230:\n      dup1\n      iszero\n      tag_231\n      jumpi\n      dup1\n      0x1f\n      lt\n      tag_232\n      jumpi\n      0x0100\n      dup1\n      dup4\n      sload\n      div\n      mul\n      dup4\n      mstore\n      swap2\n      0x20\n      add\n      swap2\n      jump(tag_231)\n    tag_232:\n      dup3\n      add\n      swap2\n      swap1\n      0x00\n      mstore\n      keccak256(0x00, 0x20)\n      swap1\n    tag_233:\n      dup2\n      sload\n      dup2\n      mstore\n      swap1\n      0x01\n      add\n      swap1\n      0x20\n      add\n      dup1\n      dup4\n      gt\n      tag_233\n      jumpi\n      dup3\n      swap1\n      sub\n      0x1f\n      and\n      dup3\n      add\n      swap2\n    tag_231:\n      pop\n      pop\n      pop\n      pop\n      pop\n      dup2\n      mstore\n      0x20\n      add\n        /* \"contracts/GymMembership.sol\":6058:6073  block.timestamp */\n      timestamp\n        /* \"contracts/GymMembership.sol\":6042:6074  Visit(gym.name, block.timestamp) */\n      dup2\n      mstore\n      pop\n        /* \"contracts/GymMembership.sol\":6007:6013  member */\n      dup3\n        /* \"contracts/GymMembership.sol\":6007:6020  member.visits */\n      0x08\n      add\n        /* \"contracts/GymMembership.sol\":6007:6039  member.visits[member.visitCount] */\n      0x00\n        /* \"contracts/GymMembership.sol\":6021:6027  member */\n      dup5\n        /* \"contracts/GymMembership.sol\":6021:6038  member.visitCount */\n      0x05\n      add\n      sload\n        /* \"contracts/GymMembership.sol\":6007:6039  member.visits[member.visitCount] */\n      dup2\n      mstore\n      0x20\n      add\n      swap1\n      dup2\n      mstore\n      0x20\n      add\n      0x00\n      keccak256\n        /* \"contracts/GymMembership.sol\":6007:6074  member.visits[member.visitCount] = Visit(gym.name, block.timestamp) */\n      0x00\n      dup3\n      add\n      mload\n      dup2\n      0x00\n      add\n      swap1\n      dup2\n      tag_234\n      swap2\n      swap1\n      tag_235\n      jump\t// in\n    tag_234:\n      pop\n      0x20\n      dup3\n      add\n      mload\n      dup2\n      0x01\n      add\n      sstore\n      swap1\n      pop\n      pop\n        /* \"contracts/GymMembership.sol\":6085:6091  member */\n      dup2\n        /* \"contracts/GymMembership.sol\":6085:6102  member.visitCount */\n      0x05\n      add\n      0x00\n        /* \"contracts/GymMembership.sol\":6085:6104  member.visitCount++ */\n      dup2\n      sload\n      dup1\n      swap3\n      swap2\n      swap1\n      tag_236\n      swap1\n      tag_161\n      jump\t// in\n    tag_236:\n      swap2\n      swap1\n      pop\n      sstore\n      pop\n        /* \"contracts/GymMembership.sol\":6125:6129  _gym */\n      dup3\n        /* \"contracts/GymMembership.sol\":6117:6139  payable(_gym).transfer */\n      0xffffffffffffffffffffffffffffffffffffffff\n      and\n        /* \"contracts/GymMembership.sol\":6117:6158  payable(_gym).transfer(gym.fees.dailyFee) */\n      0x08fc\n        /* \"contracts/GymMembership.sol\":6140:6143  gym */\n      dup3\n        /* \"contracts/GymMembership.sol\":6140:6148  gym.fees */\n      0x01\n      add\n        /* \"contracts/GymMembership.sol\":6140:6157  gym.fees.dailyFee */\n      0x00\n      add\n      sload\n        /* \"contracts/GymMembership.sol\":6117:6158  payable(_gym).transfer(gym.fees.dailyFee) */\n      swap1\n      dup2\n      iszero\n      mul\n      swap1\n      mload(0x40)\n      0x00\n      mload(0x40)\n      dup1\n      dup4\n      sub\n      dup2\n      dup6\n      dup9\n      dup9\n      call\n      swap4\n      pop\n      pop\n      pop\n      pop\n      iszero\n      dup1\n      iszero\n      tag_238\n      jumpi\n      returndatasize\n      0x00\n      dup1\n      returndatacopy\n      revert(0x00, returndatasize)\n    tag_238:\n      pop\n        /* \"contracts/GymMembership.sol\":5749:6166  {... */\n      pop\n      pop\n        /* \"contracts/GymMembership.sol\":5699:6166  function addVisit(address _gym) public onlyMember {... */\n      pop\n      jump\t// out\n        /* \"contracts/GymMembership.sol\":5411:5691  function addExercise(string memory _machine, uint _weightLifted) public onlyMember {... */\n    tag_60:\n        /* \"contracts/GymMembership.sol\":1944:1952  isMember */\n      0x01\n        /* \"contracts/GymMembership.sol\":1944:1964  isMember[msg.sender] */\n      0x00\n        /* \"contracts/GymMembership.sol\":1953:1963  msg.sender */\n      caller\n        /* \"contracts/GymMembership.sol\":1944:1964  isMember[msg.sender] */\n      0xffffffffffffffffffffffffffffffffffffffff\n      and\n      0xffffffffffffffffffffffffffffffffffffffff\n      and\n      dup2\n      mstore\n      0x20\n      add\n      swap1\n      dup2\n      mstore\n      0x20\n      add\n      0x00\n      keccak256\n      0x00\n      swap1\n      sload\n      swap1\n      0x0100\n      exp\n      swap1\n      div\n      0xff\n      and\n        /* \"contracts/GymMembership.sol\":1936:2004  require(isMember[msg.sender], \"Only members can call this function\") */\n      tag_240\n      jumpi\n      mload(0x40)\n      0x08c379a000000000000000000000000000000000000000000000000000000000\n      dup2\n      mstore\n      0x04\n      add\n      tag_241\n      swap1\n      tag_196\n      jump\t// in\n    tag_241:\n      mload(0x40)\n      dup1\n      swap2\n      sub\n      swap1\n      revert\n    tag_240:\n        /* \"contracts/GymMembership.sol\":5505:5526  Member storage member */\n      0x00\n        /* \"contracts/GymMembership.sol\":5529:5536  members */\n      dup1\n        /* \"contracts/GymMembership.sol\":5529:5548  members[msg.sender] */\n      0x00\n        /* \"contracts/GymMembership.sol\":5537:5547  msg.sender */\n      caller\n        /* \"contracts/GymMembership.sol\":5529:5548  members[msg.sender] */\n      0xffffffffffffffffffffffffffffffffffffffff\n      and\n      0xffffffffffffffffffffffffffffffffffffffff\n      and\n      dup2\n      mstore\n      0x20\n      add\n      swap1\n      dup2\n      mstore\n      0x20\n      add\n      0x00\n      keccak256\n        /* \"contracts/GymMembership.sol\":5505:5548  Member storage member = members[msg.sender] */\n      swap1\n      pop\n        /* \"contracts/GymMembership.sol\":5600:5650  Exercise(_machine, _weightLifted, block.timestamp) */\n      mload(0x40)\n      dup1\n      0x60\n      add\n      0x40\n      mstore\n      dup1\n        /* \"contracts/GymMembership.sol\":5609:5617  _machine */\n      dup5\n        /* \"contracts/GymMembership.sol\":5600:5650  Exercise(_machine, _weightLifted, block.timestamp) */\n      dup2\n      mstore\n      0x20\n      add\n        /* \"contracts/GymMembership.sol\":5619:5632  _weightLifted */\n      dup4\n        /* \"contracts/GymMembership.sol\":5600:5650  Exercise(_machine, _weightLifted, block.timestamp) */\n      dup2\n      mstore\n      0x20\n      add\n        /* \"contracts/GymMembership.sol\":5634:5649  block.timestamp */\n      timestamp\n        /* \"contracts/GymMembership.sol\":5600:5650  Exercise(_machine, _weightLifted, block.timestamp) */\n      dup2\n      mstore\n      pop\n        /* \"contracts/GymMembership.sol\":5559:5565  member */\n      dup2\n        /* \"contracts/GymMembership.sol\":5559:5575  member.exercises */\n      0x07\n      add\n        /* \"contracts/GymMembership.sol\":5559:5597  member.exercises[member.exerciseCount] */\n      0x00\n        /* \"contracts/GymMembership.sol\":5576:5582  member */\n      dup4\n        /* \"contracts/GymMembership.sol\":5576:5596  member.exerciseCount */\n      0x04\n      add\n      sload\n        /* \"contracts/GymMembership.sol\":5559:5597  member.exercises[member.exerciseCount] */\n      dup2\n      mstore\n      0x20\n      add\n      swap1\n      dup2\n      mstore\n      0x20\n      add\n      0x00\n      keccak256\n        /* \"contracts/GymMembership.sol\":5559:5650  member.exercises[member.exerciseCount] = Exercise(_machine, _weightLifted, block.timestamp) */\n      0x00\n      dup3\n      add\n      mload\n      dup2\n      0x00\n      add\n      swap1\n      dup2\n      tag_243\n      swap2\n      swap1\n      tag_235\n      jump\t// in\n    tag_243:\n      pop\n      0x20\n      dup3\n      add\n      mload\n      dup2\n      0x01\n      add\n      sstore\n      0x40\n      dup3\n      add\n      mload\n      dup2\n      0x02\n      add\n      sstore\n      swap1\n      pop\n      pop\n        /* \"contracts/GymMembership.sol\":5661:5667  member */\n      dup1\n        /* \"contracts/GymMembership.sol\":5661:5681  member.exerciseCount */\n      0x04\n      add\n      0x00\n        /* \"contracts/GymMembership.sol\":5661:5683  member.exerciseCount++ */\n      dup2\n      sload\n      dup1\n      swap3\n      swap2\n      swap1\n      tag_244\n      swap1\n      tag_161\n      jump\t// in\n    tag_244:\n      swap2\n      swap1\n      pop\n      sstore\n      pop\n        /* \"contracts/GymMembership.sol\":5494:5691  {... */\n      pop\n        /* \"contracts/GymMembership.sol\":5411:5691  function addExercise(string memory _machine, uint _weightLifted) public onlyMember {... */\n      pop\n      pop\n      jump\t// out\n        /* \"contracts/GymMembership.sol\":8898:9663  function getActiveMembers() public view onlyGym returns (string[] memory, uint[] memory) {... */\n    tag_63:\n        /* \"contracts/GymMembership.sol\":8955:8970  string[] memory */\n      0x60\n        /* \"contracts/GymMembership.sol\":8972:8985  uint[] memory */\n      dup1\n        /* \"contracts/GymMembership.sol\":2070:2075  isGym */\n      0x03\n        /* \"contracts/GymMembership.sol\":2070:2087  isGym[msg.sender] */\n      0x00\n        /* \"contracts/GymMembership.sol\":2076:2086  msg.sender */\n      caller\n        /* \"contracts/GymMembership.sol\":2070:2087  isGym[msg.sender] */\n      0xffffffffffffffffffffffffffffffffffffffff\n      and\n      0xffffffffffffffffffffffffffffffffffffffff\n      and\n      dup2\n      mstore\n      0x20\n      add\n      swap1\n      dup2\n      mstore\n      0x20\n      add\n      0x00\n      keccak256\n      0x00\n      swap1\n      sload\n      swap1\n      0x0100\n      exp\n      swap1\n      div\n      0xff\n      and\n        /* \"contracts/GymMembership.sol\":2062:2124  require(isGym[msg.sender], \"Only gyms can call this function\") */\n      tag_246\n      jumpi\n      mload(0x40)\n      0x08c379a000000000000000000000000000000000000000000000000000000000\n      dup2\n      mstore\n      0x04\n      add\n      tag_247\n      swap1\n      tag_248\n      jump\t// in\n    tag_247:\n      mload(0x40)\n      dup1\n      swap2\n      sub\n      swap1\n      revert\n    tag_246:\n        /* \"contracts/GymMembership.sol\":8998:9013  Gym storage gym */\n      0x00\n        /* \"contracts/GymMembership.sol\":9016:9020  gyms */\n      0x02\n        /* \"contracts/GymMembership.sol\":9016:9032  gyms[msg.sender] */\n      0x00\n        /* \"contracts/GymMembership.sol\":9021:9031  msg.sender */\n      caller\n        /* \"contracts/GymMembership.sol\":9016:9032  gyms[msg.sender] */\n      0xffffffffffffffffffffffffffffffffffffffff\n      and\n      0xffffffffffffffffffffffffffffffffffffffff\n      and\n      dup2\n      mstore\n      0x20\n      add\n      swap1\n      dup2\n      mstore\n      0x20\n      add\n      0x00\n      keccak256\n        /* \"contracts/GymMembership.sol\":8998:9032  Gym storage gym = gyms[msg.sender] */\n      swap1\n      pop\n        /* \"contracts/GymMembership.sol\":9043:9059  uint memberCount */\n      0x00\n        /* \"contracts/GymMembership.sol\":9062:9065  gym */\n      dup2\n        /* \"contracts/GymMembership.sol\":9062:9081  gym.memberAddresses */\n      0x0d\n      add\n        /* \"contracts/GymMembership.sol\":9062:9088  gym.memberAddresses.length */\n      dup1\n      sload\n      swap1\n      pop\n        /* \"contracts/GymMembership.sol\":9043:9088  uint memberCount = gym.memberAddresses.length */\n      swap1\n      pop\n        /* \"contracts/GymMembership.sol\":9099:9126  string[] memory memberNames */\n      0x00\n        /* \"contracts/GymMembership.sol\":9142:9153  memberCount */\n      dup2\n        /* \"contracts/GymMembership.sol\":9129:9154  new string[](memberCount) */\n      0xffffffffffffffff\n      dup2\n      gt\n      iszero\n      tag_250\n      jumpi\n      tag_251\n      tag_164\n      jump\t// in\n    tag_251:\n    tag_250:\n      mload(0x40)\n      swap1\n      dup1\n      dup3\n      mstore\n      dup1\n      0x20\n      mul\n      0x20\n      add\n      dup3\n      add\n      0x40\n      mstore\n      dup1\n      iszero\n      tag_252\n      jumpi\n      dup2\n      0x20\n      add\n    tag_253:\n      0x60\n      dup2\n      mstore\n      0x20\n      add\n      swap1\n      0x01\n      swap1\n      sub\n      swap1\n      dup2\n      tag_253\n      jumpi\n      swap1\n      pop\n    tag_252:\n      pop\n        /* \"contracts/GymMembership.sol\":9099:9154  string[] memory memberNames = new string[](memberCount) */\n      swap1\n      pop\n        /* \"contracts/GymMembership.sol\":9165:9187  uint[] memory endDates */\n      0x00\n        /* \"contracts/GymMembership.sol\":9201:9212  memberCount */\n      dup3\n        /* \"contracts/GymMembership.sol\":9190:9213  new uint[](memberCount) */\n      0xffffffffffffffff\n      dup2\n      gt\n      iszero\n      tag_254\n      jumpi\n      tag_255\n      tag_164\n      jump\t// in\n    tag_255:\n    tag_254:\n      mload(0x40)\n      swap1\n      dup1\n      dup3\n      mstore\n      dup1\n      0x20\n      mul\n      0x20\n      add\n      dup3\n      add\n      0x40\n      mstore\n      dup1\n      iszero\n      tag_256\n      jumpi\n      dup2\n      0x20\n      add\n      0x20\n      dup3\n      mul\n      dup1\n      calldatasize\n      dup4\n      calldatacopy\n      dup1\n      dup3\n      add\n      swap2\n      pop\n      pop\n      swap1\n      pop\n    tag_256:\n      pop\n        /* \"contracts/GymMembership.sol\":9165:9213  uint[] memory endDates = new uint[](memberCount) */\n      swap1\n      pop\n        /* \"contracts/GymMembership.sol\":9239:9245  uint i */\n      0x00\n        /* \"contracts/GymMembership.sol\":9234:9605  for (uint i = 0; i < memberCount; i++) {... */\n    tag_257:\n        /* \"contracts/GymMembership.sol\":9255:9266  memberCount */\n      dup4\n        /* \"contracts/GymMembership.sol\":9251:9252  i */\n      dup2\n        /* \"contracts/GymMembership.sol\":9251:9266  i < memberCount */\n      lt\n        /* \"contracts/GymMembership.sol\":9234:9605  for (uint i = 0; i < memberCount; i++) {... */\n      iszero\n      tag_258\n      jumpi\n        /* \"contracts/GymMembership.sol\":9288:9309  address memberAddress */\n      0x00\n        /* \"contracts/GymMembership.sol\":9312:9315  gym */\n      dup6\n        /* \"contracts/GymMembership.sol\":9312:9331  gym.memberAddresses */\n      0x0d\n      add\n        /* \"contracts/GymMembership.sol\":9332:9333  i */\n      dup3\n        /* \"contracts/GymMembership.sol\":9312:9334  gym.memberAddresses[i] */\n      dup2\n      sload\n      dup2\n      lt\n      tag_260\n      jumpi\n      tag_261\n      tag_157\n      jump\t// in\n    tag_261:\n    tag_260:\n      swap1\n      0x00\n      mstore\n      keccak256(0x00, 0x20)\n      add\n      0x00\n      swap1\n      sload\n      swap1\n      0x0100\n      exp\n      swap1\n      div\n      0xffffffffffffffffffffffffffffffffffffffff\n      and\n        /* \"contracts/GymMembership.sol\":9288:9334  address memberAddress = gym.memberAddresses[i] */\n      swap1\n      pop\n        /* \"contracts/GymMembership.sol\":9349:9370  Member storage member */\n      0x00\n        /* \"contracts/GymMembership.sol\":9373:9380  members */\n      dup1\n        /* \"contracts/GymMembership.sol\":9373:9395  members[memberAddress] */\n      0x00\n        /* \"contracts/GymMembership.sol\":9381:9394  memberAddress */\n      dup4\n        /* \"contracts/GymMembership.sol\":9373:9395  members[memberAddress] */\n      0xffffffffffffffffffffffffffffffffffffffff\n      and\n      0xffffffffffffffffffffffffffffffffffffffff\n      and\n      dup2\n      mstore\n      0x20\n      add\n      swap1\n      dup2\n      mstore\n      0x20\n      add\n      0x00\n      keccak256\n        /* \"contracts/GymMembership.sol\":9349:9395  Member storage member = members[memberAddress] */\n      swap1\n      pop\n        /* \"contracts/GymMembership.sol\":9449:9464  block.timestamp */\n      timestamp\n        /* \"contracts/GymMembership.sol\":9414:9417  gym */\n      dup8\n        /* \"contracts/GymMembership.sol\":9414:9431  gym.activeMembers */\n      0x0e\n      add\n        /* \"contracts/GymMembership.sol\":9414:9446  gym.activeMembers[memberAddress] */\n      0x00\n        /* \"contracts/GymMembership.sol\":9432:9445  memberAddress */\n      dup5\n        /* \"contracts/GymMembership.sol\":9414:9446  gym.activeMembers[memberAddress] */\n      0xffffffffffffffffffffffffffffffffffffffff\n      and\n      0xffffffffffffffffffffffffffffffffffffffff\n      and\n      dup2\n      mstore\n      0x20\n      add\n      swap1\n      dup2\n      mstore\n      0x20\n      add\n      0x00\n      keccak256\n      sload\n        /* \"contracts/GymMembership.sol\":9414:9464  gym.activeMembers[memberAddress] > block.timestamp */\n      gt\n        /* \"contracts/GymMembership.sol\":9410:9594  if (gym.activeMembers[memberAddress] > block.timestamp) {... */\n      iszero\n      tag_263\n      jumpi\n        /* \"contracts/GymMembership.sol\":9502:9508  member */\n      dup1\n        /* \"contracts/GymMembership.sol\":9502:9513  member.name */\n      0x00\n      add\n        /* \"contracts/GymMembership.sol\":9485:9513  memberNames[i] = member.name */\n      dup1\n      sload\n      tag_264\n      swap1\n      tag_188\n      jump\t// in\n    tag_264:\n      dup1\n      0x1f\n      add\n      0x20\n      dup1\n      swap2\n      div\n      mul\n      0x20\n      add\n      mload(0x40)\n      swap1\n      dup2\n      add\n      0x40\n      mstore\n      dup1\n      swap3\n      swap2\n      swap1\n      dup2\n      dup2\n      mstore\n      0x20\n      add\n      dup3\n      dup1\n      sload\n      tag_265\n      swap1\n      tag_188\n      jump\t// in\n    tag_265:\n      dup1\n      iszero\n      tag_266\n      jumpi\n      dup1\n      0x1f\n      lt\n      tag_267\n      jumpi\n      0x0100\n      dup1\n      dup4\n      sload\n      div\n      mul\n      dup4\n      mstore\n      swap2\n      0x20\n      add\n      swap2\n      jump(tag_266)\n    tag_267:\n      dup3\n      add\n      swap2\n      swap1\n      0x00\n      mstore\n      keccak256(0x00, 0x20)\n      swap1\n    tag_268:\n      dup2\n      sload\n      dup2\n      mstore\n      swap1\n      0x01\n      add\n      swap1\n      0x20\n      add\n      dup1\n      dup4\n      gt\n      tag_268\n      jumpi\n      dup3\n      swap1\n      sub\n      0x1f\n      and\n      dup3\n      add\n      swap2\n    tag_266:\n      pop\n      pop\n      pop\n      pop\n      pop\n        /* \"contracts/GymMembership.sol\":9485:9496  memberNames */\n      dup6\n        /* \"contracts/GymMembership.sol\":9497:9498  i */\n      dup5\n        /* \"contracts/GymMembership.sol\":9485:9499  memberNames[i] */\n      dup2\n      mload\n      dup2\n      lt\n      tag_269\n      jumpi\n      tag_270\n      tag_157\n      jump\t// in\n    tag_270:\n    tag_269:\n      0x20\n      mul\n      0x20\n      add\n      add\n        /* \"contracts/GymMembership.sol\":9485:9513  memberNames[i] = member.name */\n      dup2\n      swap1\n      mstore\n      pop\n        /* \"contracts/GymMembership.sol\":9546:9549  gym */\n      dup7\n        /* \"contracts/GymMembership.sol\":9546:9563  gym.activeMembers */\n      0x0e\n      add\n        /* \"contracts/GymMembership.sol\":9546:9578  gym.activeMembers[memberAddress] */\n      0x00\n        /* \"contracts/GymMembership.sol\":9564:9577  memberAddress */\n      dup4\n        /* \"contracts/GymMembership.sol\":9546:9578  gym.activeMembers[memberAddress] */\n      0xffffffffffffffffffffffffffffffffffffffff\n      and\n      0xffffffffffffffffffffffffffffffffffffffff\n      and\n      dup2\n      mstore\n      0x20\n      add\n      swap1\n      dup2\n      mstore\n      0x20\n      add\n      0x00\n      keccak256\n      sload\n        /* \"contracts/GymMembership.sol\":9532:9540  endDates */\n      dup5\n        /* \"contracts/GymMembership.sol\":9541:9542  i */\n      dup5\n        /* \"contracts/GymMembership.sol\":9532:9543  endDates[i] */\n      dup2\n      mload\n      dup2\n      lt\n      tag_271\n      jumpi\n      tag_272\n      tag_157\n      jump\t// in\n    tag_272:\n    tag_271:\n      0x20\n      mul\n      0x20\n      add\n      add\n        /* \"contracts/GymMembership.sol\":9532:9578  endDates[i] = gym.activeMembers[memberAddress] */\n      dup2\n      dup2\n      mstore\n      pop\n      pop\n        /* \"contracts/GymMembership.sol\":9410:9594  if (gym.activeMembers[memberAddress] > block.timestamp) {... */\n    tag_263:\n        /* \"contracts/GymMembership.sol\":9273:9605  {... */\n      pop\n      pop\n        /* \"contracts/GymMembership.sol\":9268:9271  i++ */\n      dup1\n      dup1\n      0x01\n      add\n      swap2\n      pop\n      pop\n        /* \"contracts/GymMembership.sol\":9234:9605  for (uint i = 0; i < memberCount; i++) {... */\n      jump(tag_257)\n    tag_258:\n      pop\n        /* \"contracts/GymMembership.sol\":9633:9644  memberNames */\n      dup2\n        /* \"contracts/GymMembership.sol\":9646:9654  endDates */\n      dup2\n        /* \"contracts/GymMembership.sol\":9625:9655  return (memberNames, endDates) */\n      swap6\n      pop\n      swap6\n      pop\n      pop\n      pop\n      pop\n      pop\n        /* \"contracts/GymMembership.sol\":8898:9663  function getActiveMembers() public view onlyGym returns (string[] memory, uint[] memory) {... */\n      swap1\n      swap2\n      jump\t// out\n        /* \"contracts/GymMembership.sol\":1569:1606  mapping(address => bool) public isGym */\n    tag_69:\n      mstore(0x20, 0x03)\n      dup1\n      0x00\n      mstore\n      keccak256(0x00, 0x40)\n      0x00\n      swap2\n      pop\n      sload\n      swap1\n      0x0100\n      exp\n      swap1\n      div\n      0xff\n      and\n      dup2\n      jump\t// out\n        /* \"contracts/GymMembership.sol\":7880:8193  function getMemberInfo(address _member) public view onlyMember returns (string memory, uint, uint, uint, bool) {... */\n    tag_75:\n        /* \"contracts/GymMembership.sol\":7952:7965  string memory */\n      0x60\n        /* \"contracts/GymMembership.sol\":7967:7971  uint */\n      0x00\n        /* \"contracts/GymMembership.sol\":7973:7977  uint */\n      dup1\n        /* \"contracts/GymMembership.sol\":7979:7983  uint */\n      0x00\n        /* \"contracts/GymMembership.sol\":7985:7989  bool */\n      dup1\n        /* \"contracts/GymMembership.sol\":1944:1952  isMember */\n      0x01\n        /* \"contracts/GymMembership.sol\":1944:1964  isMember[msg.sender] */\n      0x00\n        /* \"contracts/GymMembership.sol\":1953:1963  msg.sender */\n      caller\n        /* \"contracts/GymMembership.sol\":1944:1964  isMember[msg.sender] */\n      0xffffffffffffffffffffffffffffffffffffffff\n      and\n      0xffffffffffffffffffffffffffffffffffffffff\n      and\n      dup2\n      mstore\n      0x20\n      add\n      swap1\n      dup2\n      mstore\n      0x20\n      add\n      0x00\n      keccak256\n      0x00\n      swap1\n      sload\n      swap1\n      0x0100\n      exp\n      swap1\n      div\n      0xff\n      and\n        /* \"contracts/GymMembership.sol\":1936:2004  require(isMember[msg.sender], \"Only members can call this function\") */\n      tag_274\n      jumpi\n      mload(0x40)\n      0x08c379a000000000000000000000000000000000000000000000000000000000\n      dup2\n      mstore\n      0x04\n      add\n      tag_275\n      swap1\n      tag_196\n      jump\t// in\n    tag_275:\n      mload(0x40)\n      dup1\n      swap2\n      sub\n      swap1\n      revert\n    tag_274:\n        /* \"contracts/GymMembership.sol\":8010:8018  isMember */\n      0x01\n        /* \"contracts/GymMembership.sol\":8010:8027  isMember[_member] */\n      0x00\n        /* \"contracts/GymMembership.sol\":8019:8026  _member */\n      dup8\n        /* \"contracts/GymMembership.sol\":8010:8027  isMember[_member] */\n      0xffffffffffffffffffffffffffffffffffffffff\n      and\n      0xffffffffffffffffffffffffffffffffffffffff\n      and\n      dup2\n      mstore\n      0x20\n      add\n      swap1\n      dup2\n      mstore\n      0x20\n      add\n      0x00\n      keccak256\n      0x00\n      swap1\n      sload\n      swap1\n      0x0100\n      exp\n      swap1\n      div\n      0xff\n      and\n        /* \"contracts/GymMembership.sol\":8002:8044  require(isMember[_member], \"Not a member\") */\n      tag_277\n      jumpi\n      mload(0x40)\n      0x08c379a000000000000000000000000000000000000000000000000000000000\n      dup2\n      mstore\n      0x04\n      add\n      tag_278\n      swap1\n      tag_279\n      jump\t// in\n    tag_278:\n      mload(0x40)\n      dup1\n      swap2\n      sub\n      swap1\n      revert\n    tag_277:\n        /* \"contracts/GymMembership.sol\":8055:8076  Member storage member */\n      0x00\n        /* \"contracts/GymMembership.sol\":8079:8086  members */\n      dup1\n        /* \"contracts/GymMembership.sol\":8079:8095  members[_member] */\n      0x00\n        /* \"contracts/GymMembership.sol\":8087:8094  _member */\n      dup9\n        /* \"contracts/GymMembership.sol\":8079:8095  members[_member] */\n      0xffffffffffffffffffffffffffffffffffffffff\n      and\n      0xffffffffffffffffffffffffffffffffffffffff\n      and\n      dup2\n      mstore\n      0x20\n      add\n      swap1\n      dup2\n      mstore\n      0x20\n      add\n      0x00\n      keccak256\n        /* \"contracts/GymMembership.sol\":8055:8095  Member storage member = members[_member] */\n      swap1\n      pop\n        /* \"contracts/GymMembership.sol\":8114:8120  member */\n      dup1\n        /* \"contracts/GymMembership.sol\":8114:8125  member.name */\n      0x00\n      add\n        /* \"contracts/GymMembership.sol\":8127:8133  member */\n      dup2\n        /* \"contracts/GymMembership.sol\":8127:8137  member.age */\n      0x01\n      add\n      sload\n        /* \"contracts/GymMembership.sol\":8139:8145  member */\n      dup3\n        /* \"contracts/GymMembership.sol\":8139:8152  member.weight */\n      0x02\n      add\n      sload\n        /* \"contracts/GymMembership.sol\":8154:8160  member */\n      dup4\n        /* \"contracts/GymMembership.sol\":8154:8167  member.height */\n      0x03\n      add\n      sload\n        /* \"contracts/GymMembership.sol\":8169:8175  member */\n      dup5\n        /* \"contracts/GymMembership.sol\":8169:8184  member.isManual */\n      0x06\n      add\n      0x00\n      swap1\n      sload\n      swap1\n      0x0100\n      exp\n      swap1\n      div\n      0xff\n      and\n        /* \"contracts/GymMembership.sol\":8106:8185  return (member.name, member.age, member.weight, member.height, member.isManual) */\n      dup5\n      dup1\n      sload\n      tag_280\n      swap1\n      tag_188\n      jump\t// in\n    tag_280:\n      dup1\n      0x1f\n      add\n      0x20\n      dup1\n      swap2\n      div\n      mul\n      0x20\n      add\n      mload(0x40)\n      swap1\n      dup2\n      add\n      0x40\n      mstore\n      dup1\n      swap3\n      swap2\n      swap1\n      dup2\n      dup2\n      mstore\n      0x20\n      add\n      dup3\n      dup1\n      sload\n      tag_281\n      swap1\n      tag_188\n      jump\t// in\n    tag_281:\n      dup1\n      iszero\n      tag_282\n      jumpi\n      dup1\n      0x1f\n      lt\n      tag_283\n      jumpi\n      0x0100\n      dup1\n      dup4\n      sload\n      div\n      mul\n      dup4\n      mstore\n      swap2\n      0x20\n      add\n      swap2\n      jump(tag_282)\n    tag_283:\n      dup3\n      add\n      swap2\n      swap1\n      0x00\n      mstore\n      keccak256(0x00, 0x20)\n      swap1\n    tag_284:\n      dup2\n      sload\n      dup2\n      mstore\n      swap1\n      0x01\n      add\n      swap1\n      0x20\n      add\n      dup1\n      dup4\n      gt\n      tag_284\n      jumpi\n      dup3\n      swap1\n      sub\n      0x1f\n      and\n      dup3\n      add\n      swap2\n    tag_282:\n      pop\n      pop\n      pop\n      pop\n      pop\n      swap5\n      pop\n      swap6\n      pop\n      swap6\n      pop\n      swap6\n      pop\n      swap6\n      pop\n      swap6\n      pop\n      pop\n        /* \"contracts/GymMembership.sol\":7880:8193  function getMemberInfo(address _member) public view onlyMember returns (string memory, uint, uint, uint, bool) {... */\n      swap2\n      swap4\n      swap6\n      swap1\n      swap3\n      swap5\n      pop\n      jump\t// out\n        /* \"contracts/GymMembership.sol\":1527:1562  mapping(address => Gym) public gyms */\n    tag_81:\n      mstore(0x20, 0x02)\n      dup1\n      0x00\n      mstore\n      keccak256(0x00, 0x40)\n      0x00\n      swap2\n      pop\n      swap1\n      pop\n      dup1\n      0x00\n      add\n      dup1\n      sload\n      tag_285\n      swap1\n      tag_188\n      jump\t// in\n    tag_285:\n      dup1\n      0x1f\n      add\n      0x20\n      dup1\n      swap2\n      div\n      mul\n      0x20\n      add\n      mload(0x40)\n      swap1\n      dup2\n      add\n      0x40\n      mstore\n      dup1\n      swap3\n      swap2\n      swap1\n      dup2\n      dup2\n      mstore\n      0x20\n      add\n      dup3\n      dup1\n      sload\n      tag_286\n      swap1\n      tag_188\n      jump\t// in\n    tag_286:\n      dup1\n      iszero\n      tag_287\n      jumpi\n      dup1\n      0x1f\n      lt\n      tag_288\n      jumpi\n      0x0100\n      dup1\n      dup4\n      sload\n      div\n      mul\n      dup4\n      mstore\n      swap2\n      0x20\n      add\n      swap2\n      jump(tag_287)\n    tag_288:\n      dup3\n      add\n      swap2\n      swap1\n      0x00\n      mstore\n      keccak256(0x00, 0x20)\n      swap1\n    tag_289:\n      dup2\n      sload\n      dup2\n      mstore\n      swap1\n      0x01\n      add\n      swap1\n      0x20\n      add\n      dup1\n      dup4\n      gt\n      tag_289\n      jumpi\n      dup3\n      swap1\n      sub\n      0x1f\n      and\n      dup3\n      add\n      swap2\n    tag_287:\n      pop\n      pop\n      pop\n      pop\n      pop\n      swap1\n      dup1\n      0x01\n      add\n      mload(0x40)\n      dup1\n      0xc0\n      add\n      0x40\n      mstore\n      swap1\n      dup2\n      0x00\n      dup3\n      add\n      sload\n      dup2\n      mstore\n      0x20\n      add\n      0x01\n      dup3\n      add\n      sload\n      dup2\n      mstore\n      0x20\n      add\n      0x02\n      dup3\n      add\n      sload\n      dup2\n      mstore\n      0x20\n      add\n      0x03\n      dup3\n      add\n      sload\n      dup2\n      mstore\n      0x20\n      add\n      0x04\n      dup3\n      add\n      sload\n      dup2\n      mstore\n      0x20\n      add\n      0x05\n      dup3\n      add\n      sload\n      dup2\n      mstore\n      pop\n      pop\n      swap1\n      dup1\n      0x07\n      add\n      sload\n      swap1\n      dup1\n      0x08\n      add\n      sload\n      swap1\n      dup1\n      0x09\n      add\n      sload\n      swap1\n      dup1\n      0x0a\n      add\n      sload\n      swap1\n      dup1\n      0x0b\n      add\n      mload(0x40)\n      dup1\n      0x40\n      add\n      0x40\n      mstore\n      swap1\n      dup2\n      0x00\n      dup3\n      add\n      dup1\n      sload\n      tag_290\n      swap1\n      tag_188\n      jump\t// in\n    tag_290:\n      dup1\n      0x1f\n      add\n      0x20\n      dup1\n      swap2\n      div\n      mul\n      0x20\n      add\n      mload(0x40)\n      swap1\n      dup2\n      add\n      0x40\n      mstore\n      dup1\n      swap3\n      swap2\n      swap1\n      dup2\n      dup2\n      mstore\n      0x20\n      add\n      dup3\n      dup1\n      sload\n      tag_291\n      swap1\n      tag_188\n      jump\t// in\n    tag_291:\n      dup1\n      iszero\n      tag_292\n      jumpi\n      dup1\n      0x1f\n      lt\n      tag_293\n      jumpi\n      0x0100\n      dup1\n      dup4\n      sload\n      div\n      mul\n      dup4\n      mstore\n      swap2\n      0x20\n      add\n      swap2\n      jump(tag_292)\n    tag_293:\n      dup3\n      add\n      swap2\n      swap1\n      0x00\n      mstore\n      keccak256(0x00, 0x20)\n      swap1\n    tag_294:\n      dup2\n      sload\n      dup2\n      mstore\n      swap1\n      0x01\n      add\n      swap1\n      0x20\n      add\n      dup1\n      dup4\n      gt\n      tag_294\n      jumpi\n      dup3\n      swap1\n      sub\n      0x1f\n      and\n      dup3\n      add\n      swap2\n    tag_292:\n      pop\n      pop\n      pop\n      pop\n      pop\n      dup2\n      mstore\n      0x20\n      add\n      0x01\n      dup3\n      add\n      dup1\n      sload\n      tag_295\n      swap1\n      tag_188\n      jump\t// in\n    tag_295:\n      dup1\n      0x1f\n      add\n      0x20\n      dup1\n      swap2\n      div\n      mul\n      0x20\n      add\n      mload(0x40)\n      swap1\n      dup2\n      add\n      0x40\n      mstore\n      dup1\n      swap3\n      swap2\n      swap1\n      dup2\n      dup2\n      mstore\n      0x20\n      add\n      dup3\n      dup1\n      sload\n      tag_296\n      swap1\n      tag_188\n      jump\t// in\n    tag_296:\n      dup1\n      iszero\n      tag_297\n      jumpi\n      dup1\n      0x1f\n      lt\n      tag_298\n      jumpi\n      0x0100\n      dup1\n      dup4\n      sload\n      div\n      mul\n      dup4\n      mstore\n      swap2\n      0x20\n      add\n      swap2\n      jump(tag_297)\n    tag_298:\n      dup3\n      add\n      swap2\n      swap1\n      0x00\n      mstore\n      keccak256(0x00, 0x20)\n      swap1\n    tag_299:\n      dup2\n      sload\n      dup2\n      mstore\n      swap1\n      0x01\n      add\n      swap1\n      0x20\n      add\n      dup1\n      dup4\n      gt\n      tag_299\n      jumpi\n      dup3\n      swap1\n      sub\n      0x1f\n      and\n      dup3\n      add\n      swap2\n    tag_297:\n      pop\n      pop\n      pop\n      pop\n      pop\n      dup2\n      mstore\n      pop\n      pop\n      swap1\n      pop\n      dup8\n      jump\t// out\n        /* \"contracts/GymMembership.sol\":9796:9911  function getAllMembers() public view onlyOwner returns (address[] memory) {... */\n    tag_86:\n        /* \"contracts/GymMembership.sol\":9852:9868  address[] memory */\n      0x60\n        /* \"contracts/GymMembership.sol\":1832:1837  owner */\n      0x06\n      0x00\n      swap1\n      sload\n      swap1\n      0x0100\n      exp\n      swap1\n      div\n      0xffffffffffffffffffffffffffffffffffffffff\n      and\n        /* \"contracts/GymMembership.sol\":1818:1837  msg.sender == owner */\n      0xffffffffffffffffffffffffffffffffffffffff\n      and\n        /* \"contracts/GymMembership.sol\":1818:1828  msg.sender */\n      caller\n        /* \"contracts/GymMembership.sol\":1818:1837  msg.sender == owner */\n      0xffffffffffffffffffffffffffffffffffffffff\n      and\n      eq\n        /* \"contracts/GymMembership.sol\":1810:1875  require(msg.sender == owner, \"Only owner can call this function\") */\n      tag_301\n      jumpi\n      mload(0x40)\n      0x08c379a000000000000000000000000000000000000000000000000000000000\n      dup2\n      mstore\n      0x04\n      add\n      tag_302\n      swap1\n      tag_150\n      jump\t// in\n    tag_302:\n      mload(0x40)\n      dup1\n      swap2\n      sub\n      swap1\n      revert\n    tag_301:\n        /* \"contracts/GymMembership.sol\":9888:9903  memberAddresses */\n      0x04\n        /* \"contracts/GymMembership.sol\":9881:9903  return memberAddresses */\n      dup1\n      sload\n      dup1\n      0x20\n      mul\n      0x20\n      add\n      mload(0x40)\n      swap1\n      dup2\n      add\n      0x40\n      mstore\n      dup1\n      swap3\n      swap2\n      swap1\n      dup2\n      dup2\n      mstore\n      0x20\n      add\n      dup3\n      dup1\n      sload\n      dup1\n      iszero\n      tag_304\n      jumpi\n      0x20\n      mul\n      dup3\n      add\n      swap2\n      swap1\n      0x00\n      mstore\n      keccak256(0x00, 0x20)\n      swap1\n    tag_305:\n      dup2\n      0x00\n      swap1\n      sload\n      swap1\n      0x0100\n      exp\n      swap1\n      div\n      0xffffffffffffffffffffffffffffffffffffffff\n      and\n      0xffffffffffffffffffffffffffffffffffffffff\n      and\n      dup2\n      mstore\n      0x20\n      add\n      swap1\n      0x01\n      add\n      swap1\n      dup1\n      dup4\n      gt\n      tag_305\n      jumpi\n    tag_304:\n      pop\n      pop\n      pop\n      pop\n      pop\n      swap1\n      pop\n        /* \"contracts/GymMembership.sol\":9796:9911  function getAllMembers() public view onlyOwner returns (address[] memory) {... */\n      swap1\n      jump\t// out\n        /* \"contracts/GymMembership.sol\":8201:8565  function getExercise(address _member, uint _index) public view onlyMember returns (string memory, uint, uint) {... */\n    tag_92:\n        /* \"contracts/GymMembership.sol\":8284:8297  string memory */\n      0x60\n        /* \"contracts/GymMembership.sol\":8299:8303  uint */\n      0x00\n        /* \"contracts/GymMembership.sol\":8305:8309  uint */\n      dup1\n        /* \"contracts/GymMembership.sol\":1944:1952  isMember */\n      0x01\n        /* \"contracts/GymMembership.sol\":1944:1964  isMember[msg.sender] */\n      0x00\n        /* \"contracts/GymMembership.sol\":1953:1963  msg.sender */\n      caller\n        /* \"contracts/GymMembership.sol\":1944:1964  isMember[msg.sender] */\n      0xffffffffffffffffffffffffffffffffffffffff\n      and\n      0xffffffffffffffffffffffffffffffffffffffff\n      and\n      dup2\n      mstore\n      0x20\n      add\n      swap1\n      dup2\n      mstore\n      0x20\n      add\n      0x00\n      keccak256\n      0x00\n      swap1\n      sload\n      swap1\n      0x0100\n      exp\n      swap1\n      div\n      0xff\n      and\n        /* \"contracts/GymMembership.sol\":1936:2004  require(isMember[msg.sender], \"Only members can call this function\") */\n      tag_307\n      jumpi\n      mload(0x40)\n      0x08c379a000000000000000000000000000000000000000000000000000000000\n      dup2\n      mstore\n      0x04\n      add\n      tag_308\n      swap1\n      tag_196\n      jump\t// in\n    tag_308:\n      mload(0x40)\n      dup1\n      swap2\n      sub\n      swap1\n      revert\n    tag_307:\n        /* \"contracts/GymMembership.sol\":8330:8338  isMember */\n      0x01\n        /* \"contracts/GymMembership.sol\":8330:8347  isMember[_member] */\n      0x00\n        /* \"contracts/GymMembership.sol\":8339:8346  _member */\n      dup7\n        /* \"contracts/GymMembership.sol\":8330:8347  isMember[_member] */\n      0xffffffffffffffffffffffffffffffffffffffff\n      and\n      0xffffffffffffffffffffffffffffffffffffffff\n      and\n      dup2\n      mstore\n      0x20\n      add\n      swap1\n      dup2\n      mstore\n      0x20\n      add\n      0x00\n      keccak256\n      0x00\n      swap1\n      sload\n      swap1\n      0x0100\n      exp\n      swap1\n      div\n      0xff\n      and\n        /* \"contracts/GymMembership.sol\":8322:8364  require(isMember[_member], \"Not a member\") */\n      tag_310\n      jumpi\n      mload(0x40)\n      0x08c379a000000000000000000000000000000000000000000000000000000000\n      dup2\n      mstore\n      0x04\n      add\n      tag_311\n      swap1\n      tag_279\n      jump\t// in\n    tag_311:\n      mload(0x40)\n      dup1\n      swap2\n      sub\n      swap1\n      revert\n    tag_310:\n        /* \"contracts/GymMembership.sol\":8375:8396  Member storage member */\n      0x00\n        /* \"contracts/GymMembership.sol\":8399:8406  members */\n      dup1\n        /* \"contracts/GymMembership.sol\":8399:8415  members[_member] */\n      0x00\n        /* \"contracts/GymMembership.sol\":8407:8414  _member */\n      dup8\n        /* \"contracts/GymMembership.sol\":8399:8415  members[_member] */\n      0xffffffffffffffffffffffffffffffffffffffff\n      and\n      0xffffffffffffffffffffffffffffffffffffffff\n      and\n      dup2\n      mstore\n      0x20\n      add\n      swap1\n      dup2\n      mstore\n      0x20\n      add\n      0x00\n      keccak256\n        /* \"contracts/GymMembership.sol\":8375:8415  Member storage member = members[_member] */\n      swap1\n      pop\n        /* \"contracts/GymMembership.sol\":8426:8451  Exercise storage exercise */\n      0x00\n        /* \"contracts/GymMembership.sol\":8454:8460  member */\n      dup2\n        /* \"contracts/GymMembership.sol\":8454:8470  member.exercises */\n      0x07\n      add\n        /* \"contracts/GymMembership.sol\":8454:8478  member.exercises[_index] */\n      0x00\n        /* \"contracts/GymMembership.sol\":8471:8477  _index */\n      dup8\n        /* \"contracts/GymMembership.sol\":8454:8478  member.exercises[_index] */\n      dup2\n      mstore\n      0x20\n      add\n      swap1\n      dup2\n      mstore\n      0x20\n      add\n      0x00\n      keccak256\n        /* \"contracts/GymMembership.sol\":8426:8478  Exercise storage exercise = member.exercises[_index] */\n      swap1\n      pop\n        /* \"contracts/GymMembership.sol\":8497:8505  exercise */\n      dup1\n        /* \"contracts/GymMembership.sol\":8497:8513  exercise.machine */\n      0x00\n      add\n        /* \"contracts/GymMembership.sol\":8515:8523  exercise */\n      dup2\n        /* \"contracts/GymMembership.sol\":8515:8536  exercise.weightLifted */\n      0x01\n      add\n      sload\n        /* \"contracts/GymMembership.sol\":8538:8546  exercise */\n      dup3\n        /* \"contracts/GymMembership.sol\":8538:8556  exercise.timestamp */\n      0x02\n      add\n      sload\n        /* \"contracts/GymMembership.sol\":8489:8557  return (exercise.machine, exercise.weightLifted, exercise.timestamp) */\n      dup3\n      dup1\n      sload\n      tag_312\n      swap1\n      tag_188\n      jump\t// in\n    tag_312:\n      dup1\n      0x1f\n      add\n      0x20\n      dup1\n      swap2\n      div\n      mul\n      0x20\n      add\n      mload(0x40)\n      swap1\n      dup2\n      add\n      0x40\n      mstore\n      dup1\n      swap3\n      swap2\n      swap1\n      dup2\n      dup2\n      mstore\n      0x20\n      add\n      dup3\n      dup1\n      sload\n      tag_313\n      swap1\n      tag_188\n      jump\t// in\n    tag_313:\n      dup1\n      iszero\n      tag_314\n      jumpi\n      dup1\n      0x1f\n      lt\n      tag_315\n      jumpi\n      0x0100\n      dup1\n      dup4\n      sload\n      div\n      mul\n      dup4\n      mstore\n      swap2\n      0x20\n      add\n      swap2\n      jump(tag_314)\n    tag_315:\n      dup3\n      add\n      swap2\n      swap1\n      0x00\n      mstore\n      keccak256(0x00, 0x20)\n      swap1\n    tag_316:\n      dup2\n      sload\n      dup2\n      mstore\n      swap1\n      0x01\n      add\n      swap1\n      0x20\n      add\n      dup1\n      dup4\n      gt\n      tag_316\n      jumpi\n      dup3\n      swap1\n      sub\n      0x1f\n      and\n      dup3\n      add\n      swap2\n    tag_314:\n      pop\n      pop\n      pop\n      pop\n      pop\n      swap3\n      pop\n      swap5\n      pop\n      swap5\n      pop\n      swap5\n      pop\n      pop\n      pop\n        /* \"contracts/GymMembership.sol\":8201:8565  function getExercise(address _member, uint _index) public view onlyMember returns (string memory, uint, uint) {... */\n      swap3\n      pop\n      swap3\n      pop\n      swap3\n      jump\t// out\n        /* \"contracts/GymMembership.sol\":4818:5403  function subscribeGym(address gymAddress, uint duration) public payable onlyMember {... */\n    tag_97:\n        /* \"contracts/GymMembership.sol\":1944:1952  isMember */\n      0x01\n        /* \"contracts/GymMembership.sol\":1944:1964  isMember[msg.sender] */\n      0x00\n        /* \"contracts/GymMembership.sol\":1953:1963  msg.sender */\n      caller\n        /* \"contracts/GymMembership.sol\":1944:1964  isMember[msg.sender] */\n      0xffffffffffffffffffffffffffffffffffffffff\n      and\n      0xffffffffffffffffffffffffffffffffffffffff\n      and\n      dup2\n      mstore\n      0x20\n      add\n      swap1\n      dup2\n      mstore\n      0x20\n      add\n      0x00\n      keccak256\n      0x00\n      swap1\n      sload\n      swap1\n      0x0100\n      exp\n      swap1\n      div\n      0xff\n      and\n        /* \"contracts/GymMembership.sol\":1936:2004  require(isMember[msg.sender], \"Only members can call this function\") */\n      tag_318\n      jumpi\n      mload(0x40)\n      0x08c379a000000000000000000000000000000000000000000000000000000000\n      dup2\n      mstore\n      0x04\n      add\n      tag_319\n      swap1\n      tag_196\n      jump\t// in\n    tag_319:\n      mload(0x40)\n      dup1\n      swap2\n      sub\n      swap1\n      revert\n    tag_318:\n        /* \"contracts/GymMembership.sol\":4920:4925  isGym */\n      0x03\n        /* \"contracts/GymMembership.sol\":4920:4937  isGym[gymAddress] */\n      0x00\n        /* \"contracts/GymMembership.sol\":4926:4936  gymAddress */\n      dup4\n        /* \"contracts/GymMembership.sol\":4920:4937  isGym[gymAddress] */\n      0xffffffffffffffffffffffffffffffffffffffff\n      and\n      0xffffffffffffffffffffffffffffffffffffffff\n      and\n      dup2\n      mstore\n      0x20\n      add\n      swap1\n      dup2\n      mstore\n      0x20\n      add\n      0x00\n      keccak256\n      0x00\n      swap1\n      sload\n      swap1\n      0x0100\n      exp\n      swap1\n      div\n      0xff\n      and\n        /* \"contracts/GymMembership.sol\":4912:4953  require(isGym[gymAddress], \"Invalid gym\") */\n      tag_321\n      jumpi\n      mload(0x40)\n      0x08c379a000000000000000000000000000000000000000000000000000000000\n      dup2\n      mstore\n      0x04\n      add\n      tag_322\n      swap1\n      tag_200\n      jump\t// in\n    tag_322:\n      mload(0x40)\n      dup1\n      swap2\n      sub\n      swap1\n      revert\n    tag_321:\n        /* \"contracts/GymMembership.sol\":4964:4979  Gym storage gym */\n      0x00\n        /* \"contracts/GymMembership.sol\":4982:4986  gyms */\n      0x02\n        /* \"contracts/GymMembership.sol\":4982:4998  gyms[gymAddress] */\n      0x00\n        /* \"contracts/GymMembership.sol\":4987:4997  gymAddress */\n      dup5\n        /* \"contracts/GymMembership.sol\":4982:4998  gyms[gymAddress] */\n      0xffffffffffffffffffffffffffffffffffffffff\n      and\n      0xffffffffffffffffffffffffffffffffffffffff\n      and\n      dup2\n      mstore\n      0x20\n      add\n      swap1\n      dup2\n      mstore\n      0x20\n      add\n      0x00\n      keccak256\n        /* \"contracts/GymMembership.sol\":4964:4998  Gym storage gym = gyms[gymAddress] */\n      swap1\n      pop\n        /* \"contracts/GymMembership.sol\":5009:5017  uint fee */\n      0x00\n        /* \"contracts/GymMembership.sol\":5020:5047  determineFee(gym, duration) */\n      tag_323\n        /* \"contracts/GymMembership.sol\":5033:5036  gym */\n      dup3\n        /* \"contracts/GymMembership.sol\":5038:5046  duration */\n      dup5\n        /* \"contracts/GymMembership.sol\":5020:5032  determineFee */\n      tag_324\n        /* \"contracts/GymMembership.sol\":5020:5047  determineFee(gym, duration) */\n      jump\t// in\n    tag_323:\n        /* \"contracts/GymMembership.sol\":5009:5047  uint fee = determineFee(gym, duration) */\n      swap1\n      pop\n        /* \"contracts/GymMembership.sol\":5081:5084  fee */\n      dup1\n        /* \"contracts/GymMembership.sol\":5068:5077  msg.value */\n      callvalue\n        /* \"contracts/GymMembership.sol\":5068:5084  msg.value == fee */\n      eq\n        /* \"contracts/GymMembership.sol\":5060:5102  require(msg.value == fee, \"Incorrect fee\") */\n      tag_325\n      jumpi\n      mload(0x40)\n      0x08c379a000000000000000000000000000000000000000000000000000000000\n      dup2\n      mstore\n      0x04\n      add\n      tag_326\n      swap1\n      tag_327\n      jump\t// in\n    tag_326:\n      mload(0x40)\n      dup1\n      swap2\n      sub\n      swap1\n      revert\n    tag_325:\n        /* \"contracts/GymMembership.sol\":5115:5118  gym */\n      dup2\n        /* \"contracts/GymMembership.sol\":5115:5129  gym.totalUsers */\n      0x07\n      add\n      0x00\n        /* \"contracts/GymMembership.sol\":5115:5131  gym.totalUsers++ */\n      dup2\n      sload\n      dup1\n      swap3\n      swap2\n      swap1\n      tag_328\n      swap1\n      tag_161\n      jump\t// in\n    tag_328:\n      swap2\n      swap1\n      pop\n      sstore\n      pop\n        /* \"contracts/GymMembership.sol\":5157:5166  msg.value */\n      callvalue\n        /* \"contracts/GymMembership.sol\":5142:5145  gym */\n      dup3\n        /* \"contracts/GymMembership.sol\":5142:5153  gym.balance */\n      0x0a\n      add\n      0x00\n        /* \"contracts/GymMembership.sol\":5142:5166  gym.balance += msg.value */\n      dup3\n      dup3\n      sload\n      tag_329\n      swap2\n      swap1\n      tag_206\n      jump\t// in\n    tag_329:\n      swap3\n      pop\n      pop\n      dup2\n      swap1\n      sstore\n      pop\n        /* \"contracts/GymMembership.sol\":5177:5189  uint endDate */\n      0x00\n        /* \"contracts/GymMembership.sol\":5222:5228  1 days */\n      0x015180\n        /* \"contracts/GymMembership.sol\":5211:5219  duration */\n      dup5\n        /* \"contracts/GymMembership.sol\":5211:5228  duration * 1 days */\n      tag_330\n      swap2\n      swap1\n      tag_216\n      jump\t// in\n    tag_330:\n        /* \"contracts/GymMembership.sol\":5192:5207  block.timestamp */\n      timestamp\n        /* \"contracts/GymMembership.sol\":5192:5229  block.timestamp + (duration * 1 days) */\n      tag_331\n      swap2\n      swap1\n      tag_206\n      jump\t// in\n    tag_331:\n        /* \"contracts/GymMembership.sol\":5177:5229  uint endDate = block.timestamp + (duration * 1 days) */\n      swap1\n      pop\n        /* \"contracts/GymMembership.sol\":5291:5298  endDate */\n      dup1\n        /* \"contracts/GymMembership.sol\":5240:5247  members */\n      0x00\n        /* \"contracts/GymMembership.sol\":5240:5259  members[msg.sender] */\n      dup1\n        /* \"contracts/GymMembership.sol\":5248:5258  msg.sender */\n      caller\n        /* \"contracts/GymMembership.sol\":5240:5259  members[msg.sender] */\n      0xffffffffffffffffffffffffffffffffffffffff\n      and\n      0xffffffffffffffffffffffffffffffffffffffff\n      and\n      dup2\n      mstore\n      0x20\n      add\n      swap1\n      dup2\n      mstore\n      0x20\n      add\n      0x00\n      keccak256\n        /* \"contracts/GymMembership.sol\":5240:5276  members[msg.sender].gymSubscriptions */\n      0x09\n      add\n        /* \"contracts/GymMembership.sol\":5240:5288  members[msg.sender].gymSubscriptions[gymAddress] */\n      0x00\n        /* \"contracts/GymMembership.sol\":5277:5287  gymAddress */\n      dup8\n        /* \"contracts/GymMembership.sol\":5240:5288  members[msg.sender].gymSubscriptions[gymAddress] */\n      0xffffffffffffffffffffffffffffffffffffffff\n      and\n      0xffffffffffffffffffffffffffffffffffffffff\n      and\n      dup2\n      mstore\n      0x20\n      add\n      swap1\n      dup2\n      mstore\n      0x20\n      add\n      0x00\n      keccak256\n        /* \"contracts/GymMembership.sol\":5240:5298  members[msg.sender].gymSubscriptions[gymAddress] = endDate */\n      dup2\n      swap1\n      sstore\n      pop\n        /* \"contracts/GymMembership.sol\":5309:5312  gym */\n      dup3\n        /* \"contracts/GymMembership.sol\":5309:5328  gym.memberAddresses */\n      0x0d\n      add\n        /* \"contracts/GymMembership.sol\":5334:5344  msg.sender */\n      caller\n        /* \"contracts/GymMembership.sol\":5309:5345  gym.memberAddresses.push(msg.sender) */\n      swap1\n      dup1\n      0x01\n      dup2\n      sload\n      add\n      dup1\n      dup3\n      sstore\n      dup1\n      swap2\n      pop\n      pop\n      0x01\n      swap1\n      sub\n      swap1\n      0x00\n      mstore\n      keccak256(0x00, 0x20)\n      add\n      0x00\n      swap1\n      swap2\n      swap1\n      swap2\n      swap1\n      swap2\n      0x0100\n      exp\n      dup2\n      sload\n      dup2\n      0xffffffffffffffffffffffffffffffffffffffff\n      mul\n      not\n      and\n      swap1\n      dup4\n      0xffffffffffffffffffffffffffffffffffffffff\n      and\n      mul\n      or\n      swap1\n      sstore\n      pop\n        /* \"contracts/GymMembership.sol\":5388:5395  endDate */\n      dup1\n        /* \"contracts/GymMembership.sol\":5356:5359  gym */\n      dup4\n        /* \"contracts/GymMembership.sol\":5356:5373  gym.activeMembers */\n      0x0e\n      add\n        /* \"contracts/GymMembership.sol\":5356:5385  gym.activeMembers[msg.sender] */\n      0x00\n        /* \"contracts/GymMembership.sol\":5374:5384  msg.sender */\n      caller\n        /* \"contracts/GymMembership.sol\":5356:5385  gym.activeMembers[msg.sender] */\n      0xffffffffffffffffffffffffffffffffffffffff\n      and\n      0xffffffffffffffffffffffffffffffffffffffff\n      and\n      dup2\n      mstore\n      0x20\n      add\n      swap1\n      dup2\n      mstore\n      0x20\n      add\n      0x00\n      keccak256\n        /* \"contracts/GymMembership.sol\":5356:5395  gym.activeMembers[msg.sender] = endDate */\n      dup2\n      swap1\n      sstore\n      pop\n        /* \"contracts/GymMembership.sol\":4901:5403  {... */\n      pop\n      pop\n      pop\n        /* \"contracts/GymMembership.sol\":4818:5403  function subscribeGym(address gymAddress, uint duration) public payable onlyMember {... */\n      pop\n      pop\n      jump\t// out\n        /* \"contracts/GymMembership.sol\":1690:1710  address public owner */\n    tag_100:\n      0x06\n      0x00\n      swap1\n      sload\n      swap1\n      0x0100\n      exp\n      swap1\n      div\n      0xffffffffffffffffffffffffffffffffffffffff\n      and\n      dup2\n      jump\t// out\n        /* \"contracts/GymMembership.sol\":2152:2770  function registerMember(string memory _name, uint _age, uint _weight, uint _height) public {... */\n    tag_107:\n        /* \"contracts/GymMembership.sol\":2263:2271  isMember */\n      0x01\n        /* \"contracts/GymMembership.sol\":2263:2283  isMember[msg.sender] */\n      0x00\n        /* \"contracts/GymMembership.sol\":2272:2282  msg.sender */\n      caller\n        /* \"contracts/GymMembership.sol\":2263:2283  isMember[msg.sender] */\n      0xffffffffffffffffffffffffffffffffffffffff\n      and\n      0xffffffffffffffffffffffffffffffffffffffff\n      and\n      dup2\n      mstore\n      0x20\n      add\n      swap1\n      dup2\n      mstore\n      0x20\n      add\n      0x00\n      keccak256\n      0x00\n      swap1\n      sload\n      swap1\n      0x0100\n      exp\n      swap1\n      div\n      0xff\n      and\n        /* \"contracts/GymMembership.sol\":2262:2283  !isMember[msg.sender] */\n      iszero\n        /* \"contracts/GymMembership.sol\":2254:2304  require(!isMember[msg.sender], \"Already a member\") */\n      tag_334\n      jumpi\n      mload(0x40)\n      0x08c379a000000000000000000000000000000000000000000000000000000000\n      dup2\n      mstore\n      0x04\n      add\n      tag_335\n      swap1\n      tag_336\n      jump\t// in\n    tag_335:\n      mload(0x40)\n      dup1\n      swap2\n      sub\n      swap1\n      revert\n    tag_334:\n        /* \"contracts/GymMembership.sol\":2324:2329  isGym */\n      0x03\n        /* \"contracts/GymMembership.sol\":2324:2341  isGym[msg.sender] */\n      0x00\n        /* \"contracts/GymMembership.sol\":2330:2340  msg.sender */\n      caller\n        /* \"contracts/GymMembership.sol\":2324:2341  isGym[msg.sender] */\n      0xffffffffffffffffffffffffffffffffffffffff\n      and\n      0xffffffffffffffffffffffffffffffffffffffff\n      and\n      dup2\n      mstore\n      0x20\n      add\n      swap1\n      dup2\n      mstore\n      0x20\n      add\n      0x00\n      keccak256\n      0x00\n      swap1\n      sload\n      swap1\n      0x0100\n      exp\n      swap1\n      div\n      0xff\n      and\n        /* \"contracts/GymMembership.sol\":2323:2341  !isGym[msg.sender] */\n      iszero\n        /* \"contracts/GymMembership.sol\":2315:2376  require(!isGym[msg.sender], \"Address is registered as a gym\") */\n      tag_337\n      jumpi\n      mload(0x40)\n      0x08c379a000000000000000000000000000000000000000000000000000000000\n      dup2\n      mstore\n      0x04\n      add\n      tag_338\n      swap1\n      tag_339\n      jump\t// in\n    tag_338:\n      mload(0x40)\n      dup1\n      swap2\n      sub\n      swap1\n      revert\n    tag_337:\n        /* \"contracts/GymMembership.sol\":2387:2411  Member storage newMember */\n      0x00\n        /* \"contracts/GymMembership.sol\":2414:2421  members */\n      dup1\n        /* \"contracts/GymMembership.sol\":2414:2433  members[msg.sender] */\n      0x00\n        /* \"contracts/GymMembership.sol\":2422:2432  msg.sender */\n      caller\n        /* \"contracts/GymMembership.sol\":2414:2433  members[msg.sender] */\n      0xffffffffffffffffffffffffffffffffffffffff\n      and\n      0xffffffffffffffffffffffffffffffffffffffff\n      and\n      dup2\n      mstore\n      0x20\n      add\n      swap1\n      dup2\n      mstore\n      0x20\n      add\n      0x00\n      keccak256\n        /* \"contracts/GymMembership.sol\":2387:2433  Member storage newMember = members[msg.sender] */\n      swap1\n      pop\n        /* \"contracts/GymMembership.sol\":2461:2466  _name */\n      dup5\n        /* \"contracts/GymMembership.sol\":2444:2453  newMember */\n      dup2\n        /* \"contracts/GymMembership.sol\":2444:2458  newMember.name */\n      0x00\n      add\n        /* \"contracts/GymMembership.sol\":2444:2466  newMember.name = _name */\n      swap1\n      dup2\n      tag_340\n      swap2\n      swap1\n      tag_235\n      jump\t// in\n    tag_340:\n      pop\n        /* \"contracts/GymMembership.sol\":2493:2497  _age */\n      dup4\n        /* \"contracts/GymMembership.sol\":2477:2486  newMember */\n      dup2\n        /* \"contracts/GymMembership.sol\":2477:2490  newMember.age */\n      0x01\n      add\n        /* \"contracts/GymMembership.sol\":2477:2497  newMember.age = _age */\n      dup2\n      swap1\n      sstore\n      pop\n        /* \"contracts/GymMembership.sol\":2527:2534  _weight */\n      dup3\n        /* \"contracts/GymMembership.sol\":2508:2517  newMember */\n      dup2\n        /* \"contracts/GymMembership.sol\":2508:2524  newMember.weight */\n      0x02\n      add\n        /* \"contracts/GymMembership.sol\":2508:2534  newMember.weight = _weight */\n      dup2\n      swap1\n      sstore\n      pop\n        /* \"contracts/GymMembership.sol\":2564:2571  _height */\n      dup2\n        /* \"contracts/GymMembership.sol\":2545:2554  newMember */\n      dup2\n        /* \"contracts/GymMembership.sol\":2545:2561  newMember.height */\n      0x03\n      add\n        /* \"contracts/GymMembership.sol\":2545:2571  newMember.height = _height */\n      dup2\n      swap1\n      sstore\n      pop\n        /* \"contracts/GymMembership.sol\":2608:2609  0 */\n      0x00\n        /* \"contracts/GymMembership.sol\":2582:2591  newMember */\n      dup2\n        /* \"contracts/GymMembership.sol\":2582:2605  newMember.exerciseCount */\n      0x04\n      add\n        /* \"contracts/GymMembership.sol\":2582:2609  newMember.exerciseCount = 0 */\n      dup2\n      swap1\n      sstore\n      pop\n        /* \"contracts/GymMembership.sol\":2643:2644  0 */\n      0x00\n        /* \"contracts/GymMembership.sol\":2620:2629  newMember */\n      dup2\n        /* \"contracts/GymMembership.sol\":2620:2640  newMember.visitCount */\n      0x05\n      add\n        /* \"contracts/GymMembership.sol\":2620:2644  newMember.visitCount = 0 */\n      dup2\n      swap1\n      sstore\n      pop\n        /* \"contracts/GymMembership.sol\":2676:2681  false */\n      0x00\n        /* \"contracts/GymMembership.sol\":2655:2664  newMember */\n      dup2\n        /* \"contracts/GymMembership.sol\":2655:2673  newMember.isManual */\n      0x06\n      add\n      0x00\n        /* \"contracts/GymMembership.sol\":2655:2681  newMember.isManual = false */\n      0x0100\n      exp\n      dup2\n      sload\n      dup2\n      0xff\n      mul\n      not\n      and\n      swap1\n      dup4\n      iszero\n      iszero\n      mul\n      or\n      swap1\n      sstore\n      pop\n        /* \"contracts/GymMembership.sol\":2715:2719  true */\n      0x01\n        /* \"contracts/GymMembership.sol\":2692:2700  isMember */\n      dup1\n        /* \"contracts/GymMembership.sol\":2692:2712  isMember[msg.sender] */\n      0x00\n        /* \"contracts/GymMembership.sol\":2701:2711  msg.sender */\n      caller\n        /* \"contracts/GymMembership.sol\":2692:2712  isMember[msg.sender] */\n      0xffffffffffffffffffffffffffffffffffffffff\n      and\n      0xffffffffffffffffffffffffffffffffffffffff\n      and\n      dup2\n      mstore\n      0x20\n      add\n      swap1\n      dup2\n      mstore\n      0x20\n      add\n      0x00\n      keccak256\n      0x00\n        /* \"contracts/GymMembership.sol\":2692:2719  isMember[msg.sender] = true */\n      0x0100\n      exp\n      dup2\n      sload\n      dup2\n      0xff\n      mul\n      not\n      and\n      swap1\n      dup4\n      iszero\n      iszero\n      mul\n      or\n      swap1\n      sstore\n      pop\n        /* \"contracts/GymMembership.sol\":2730:2745  memberAddresses */\n      0x04\n        /* \"contracts/GymMembership.sol\":2751:2761  msg.sender */\n      caller\n        /* \"contracts/GymMembership.sol\":2730:2762  memberAddresses.push(msg.sender) */\n      swap1\n      dup1\n      0x01\n      dup2\n      sload\n      add\n      dup1\n      dup3\n      sstore\n      dup1\n      swap2\n      pop\n      pop\n      0x01\n      swap1\n      sub\n      swap1\n      0x00\n      mstore\n      keccak256(0x00, 0x20)\n      add\n      0x00\n      swap1\n      swap2\n      swap1\n      swap2\n      swap1\n      swap2\n      0x0100\n      exp\n      dup2\n      sload\n      dup2\n      0xffffffffffffffffffffffffffffffffffffffff\n      mul\n      not\n      and\n      swap1\n      dup4\n      0xffffffffffffffffffffffffffffffffffffffff\n      and\n      mul\n      or\n      swap1\n      sstore\n      pop\n        /* \"contracts/GymMembership.sol\":2243:2770  {... */\n      pop\n        /* \"contracts/GymMembership.sol\":2152:2770  function registerMember(string memory _name, uint _age, uint _weight, uint _height) public {... */\n      pop\n      pop\n      pop\n      pop\n      jump\t// out\n        /* \"contracts/GymMembership.sol\":1480:1520  mapping(address => bool) public isMember */\n    tag_111:\n      mstore(0x20, 0x01)\n      dup1\n      0x00\n      mstore\n      keccak256(0x00, 0x40)\n      0x00\n      swap2\n      pop\n      sload\n      swap1\n      0x0100\n      exp\n      swap1\n      div\n      0xff\n      and\n      dup2\n      jump\t// out\n        /* \"contracts/GymMembership.sol\":6847:7109  function withdrawEarnings() public onlyGym {... */\n    tag_115:\n        /* \"contracts/GymMembership.sol\":2070:2075  isGym */\n      0x03\n        /* \"contracts/GymMembership.sol\":2070:2087  isGym[msg.sender] */\n      0x00\n        /* \"contracts/GymMembership.sol\":2076:2086  msg.sender */\n      caller\n        /* \"contracts/GymMembership.sol\":2070:2087  isGym[msg.sender] */\n      0xffffffffffffffffffffffffffffffffffffffff\n      and\n      0xffffffffffffffffffffffffffffffffffffffff\n      and\n      dup2\n      mstore\n      0x20\n      add\n      swap1\n      dup2\n      mstore\n      0x20\n      add\n      0x00\n      keccak256\n      0x00\n      swap1\n      sload\n      swap1\n      0x0100\n      exp\n      swap1\n      div\n      0xff\n      and\n        /* \"contracts/GymMembership.sol\":2062:2124  require(isGym[msg.sender], \"Only gyms can call this function\") */\n      tag_343\n      jumpi\n      mload(0x40)\n      0x08c379a000000000000000000000000000000000000000000000000000000000\n      dup2\n      mstore\n      0x04\n      add\n      tag_344\n      swap1\n      tag_248\n      jump\t// in\n    tag_344:\n      mload(0x40)\n      dup1\n      swap2\n      sub\n      swap1\n      revert\n    tag_343:\n        /* \"contracts/GymMembership.sol\":6901:6916  Gym storage gym */\n      0x00\n        /* \"contracts/GymMembership.sol\":6919:6923  gyms */\n      0x02\n        /* \"contracts/GymMembership.sol\":6919:6935  gyms[msg.sender] */\n      0x00\n        /* \"contracts/GymMembership.sol\":6924:6934  msg.sender */\n      caller\n        /* \"contracts/GymMembership.sol\":6919:6935  gyms[msg.sender] */\n      0xffffffffffffffffffffffffffffffffffffffff\n      and\n      0xffffffffffffffffffffffffffffffffffffffff\n      and\n      dup2\n      mstore\n      0x20\n      add\n      swap1\n      dup2\n      mstore\n      0x20\n      add\n      0x00\n      keccak256\n        /* \"contracts/GymMembership.sol\":6901:6935  Gym storage gym = gyms[msg.sender] */\n      swap1\n      pop\n        /* \"contracts/GymMembership.sol\":6946:6957  uint amount */\n      0x00\n        /* \"contracts/GymMembership.sol\":6960:6963  gym */\n      dup2\n        /* \"contracts/GymMembership.sol\":6960:6971  gym.balance */\n      0x0a\n      add\n      sload\n        /* \"contracts/GymMembership.sol\":6946:6971  uint amount = gym.balance */\n      swap1\n      pop\n        /* \"contracts/GymMembership.sol\":6999:7000  0 */\n      0x00\n        /* \"contracts/GymMembership.sol\":6990:6996  amount */\n      dup2\n        /* \"contracts/GymMembership.sol\":6990:7000  amount > 0 */\n      gt\n        /* \"contracts/GymMembership.sol\":6982:7028  require(amount > 0, \"No earnings to withdraw\") */\n      tag_346\n      jumpi\n      mload(0x40)\n      0x08c379a000000000000000000000000000000000000000000000000000000000\n      dup2\n      mstore\n      0x04\n      add\n      tag_347\n      swap1\n      tag_348\n      jump\t// in\n    tag_347:\n      mload(0x40)\n      dup1\n      swap2\n      sub\n      swap1\n      revert\n    tag_346:\n        /* \"contracts/GymMembership.sol\":7053:7054  0 */\n      0x00\n        /* \"contracts/GymMembership.sol\":7039:7042  gym */\n      dup3\n        /* \"contracts/GymMembership.sol\":7039:7050  gym.balance */\n      0x0a\n      add\n        /* \"contracts/GymMembership.sol\":7039:7054  gym.balance = 0 */\n      dup2\n      swap1\n      sstore\n      pop\n        /* \"contracts/GymMembership.sol\":7073:7083  msg.sender */\n      caller\n        /* \"contracts/GymMembership.sol\":7065:7093  payable(msg.sender).transfer */\n      0xffffffffffffffffffffffffffffffffffffffff\n      and\n        /* \"contracts/GymMembership.sol\":7065:7101  payable(msg.sender).transfer(amount) */\n      0x08fc\n        /* \"contracts/GymMembership.sol\":7094:7100  amount */\n      dup3\n        /* \"contracts/GymMembership.sol\":7065:7101  payable(msg.sender).transfer(amount) */\n      swap1\n      dup2\n      iszero\n      mul\n      swap1\n      mload(0x40)\n      0x00\n      mload(0x40)\n      dup1\n      dup4\n      sub\n      dup2\n      dup6\n      dup9\n      dup9\n      call\n      swap4\n      pop\n      pop\n      pop\n      pop\n      iszero\n      dup1\n      iszero\n      tag_350\n      jumpi\n      returndatasize\n      0x00\n      dup1\n      returndatacopy\n      revert(0x00, returndatasize)\n    tag_350:\n      pop\n        /* \"contracts/GymMembership.sol\":6890:7109  {... */\n      pop\n      pop\n        /* \"contracts/GymMembership.sol\":6847:7109  function withdrawEarnings() public onlyGym {... */\n      jump\t// out\n        /* \"contracts/GymMembership.sol\":1652:1681  address[] public gymAddresses */\n    tag_120:\n      0x05\n      dup2\n      dup2\n      sload\n      dup2\n      lt\n      tag_351\n      jumpi\n      0x00\n      dup1\n      revert\n    tag_351:\n      swap1\n      0x00\n      mstore\n      keccak256(0x00, 0x20)\n      add\n      0x00\n      swap2\n      pop\n      sload\n      swap1\n      0x0100\n      exp\n      swap1\n      div\n      0xffffffffffffffffffffffffffffffffffffffff\n      and\n      dup2\n      jump\t// out\n        /* \"contracts/GymMembership.sol\":1613:1645  address[] public memberAddresses */\n    tag_125:\n      0x04\n      dup2\n      dup2\n      sload\n      dup2\n      lt\n      tag_353\n      jumpi\n      0x00\n      dup1\n      revert\n    tag_353:\n      swap1\n      0x00\n      mstore\n      keccak256(0x00, 0x20)\n      add\n      0x00\n      swap2\n      pop\n      sload\n      swap1\n      0x0100\n      exp\n      swap1\n      div\n      0xffffffffffffffffffffffffffffffffffffffff\n      and\n      dup2\n      jump\t// out\n        /* \"contracts/GymMembership.sol\":9675:9784  function getAllGyms() public view onlyOwner returns (address[] memory) {... */\n    tag_129:\n        /* \"contracts/GymMembership.sol\":9728:9744  address[] memory */\n      0x60\n        /* \"contracts/GymMembership.sol\":1832:1837  owner */\n      0x06\n      0x00\n      swap1\n      sload\n      swap1\n      0x0100\n      exp\n      swap1\n      div\n      0xffffffffffffffffffffffffffffffffffffffff\n      and\n        /* \"contracts/GymMembership.sol\":1818:1837  msg.sender == owner */\n      0xffffffffffffffffffffffffffffffffffffffff\n      and\n        /* \"contracts/GymMembership.sol\":1818:1828  msg.sender */\n      caller\n        /* \"contracts/GymMembership.sol\":1818:1837  msg.sender == owner */\n      0xffffffffffffffffffffffffffffffffffffffff\n      and\n      eq\n        /* \"contracts/GymMembership.sol\":1810:1875  require(msg.sender == owner, \"Only owner can call this function\") */\n      tag_356\n      jumpi\n      mload(0x40)\n      0x08c379a000000000000000000000000000000000000000000000000000000000\n      dup2\n      mstore\n      0x04\n      add\n      tag_357\n      swap1\n      tag_150\n      jump\t// in\n    tag_357:\n      mload(0x40)\n      dup1\n      swap2\n      sub\n      swap1\n      revert\n    tag_356:\n        /* \"contracts/GymMembership.sol\":9764:9776  gymAddresses */\n      0x05\n        /* \"contracts/GymMembership.sol\":9757:9776  return gymAddresses */\n      dup1\n      sload\n      dup1\n      0x20\n      mul\n      0x20\n      add\n      mload(0x40)\n      swap1\n      dup2\n      add\n      0x40\n      mstore\n      dup1\n      swap3\n      swap2\n      swap1\n      dup2\n      dup2\n      mstore\n      0x20\n      add\n      dup3\n      dup1\n      sload\n      dup1\n      iszero\n      tag_359\n      jumpi\n      0x20\n      mul\n      dup3\n      add\n      swap2\n      swap1\n      0x00\n      mstore\n      keccak256(0x00, 0x20)\n      swap1\n    tag_360:\n      dup2\n      0x00\n      swap1\n      sload\n      swap1\n      0x0100\n      exp\n      swap1\n      div\n      0xffffffffffffffffffffffffffffffffffffffff\n      and\n      0xffffffffffffffffffffffffffffffffffffffff\n      and\n      dup2\n      mstore\n      0x20\n      add\n      swap1\n      0x01\n      add\n      swap1\n      dup1\n      dup4\n      gt\n      tag_360\n      jumpi\n    tag_359:\n      pop\n      pop\n      pop\n      pop\n      pop\n      swap1\n      pop\n        /* \"contracts/GymMembership.sol\":9675:9784  function getAllGyms() public view onlyOwner returns (address[] memory) {... */\n      swap1\n      jump\t// out\n        /* \"contracts/GymMembership.sol\":3431:4173  function registerGym(... */\n    tag_135:\n        /* \"contracts/GymMembership.sol\":3739:3744  isGym */\n      0x03\n        /* \"contracts/GymMembership.sol\":3739:3756  isGym[msg.sender] */\n      0x00\n        /* \"contracts/GymMembership.sol\":3745:3755  msg.sender */\n      caller\n        /* \"contracts/GymMembership.sol\":3739:3756  isGym[msg.sender] */\n      0xffffffffffffffffffffffffffffffffffffffff\n      and\n      0xffffffffffffffffffffffffffffffffffffffff\n      and\n      dup2\n      mstore\n      0x20\n      add\n      swap1\n      dup2\n      mstore\n      0x20\n      add\n      0x00\n      keccak256\n      0x00\n      swap1\n      sload\n      swap1\n      0x0100\n      exp\n      swap1\n      div\n      0xff\n      and\n        /* \"contracts/GymMembership.sol\":3738:3756  !isGym[msg.sender] */\n      iszero\n        /* \"contracts/GymMembership.sol\":3730:3774  require(!isGym[msg.sender], \"Already a gym\") */\n      tag_362\n      jumpi\n      mload(0x40)\n      0x08c379a000000000000000000000000000000000000000000000000000000000\n      dup2\n      mstore\n      0x04\n      add\n      tag_363\n      swap1\n      tag_364\n      jump\t// in\n    tag_363:\n      mload(0x40)\n      dup1\n      swap2\n      sub\n      swap1\n      revert\n    tag_362:\n        /* \"contracts/GymMembership.sol\":3794:3802  isMember */\n      0x01\n        /* \"contracts/GymMembership.sol\":3794:3814  isMember[msg.sender] */\n      0x00\n        /* \"contracts/GymMembership.sol\":3803:3813  msg.sender */\n      caller\n        /* \"contracts/GymMembership.sol\":3794:3814  isMember[msg.sender] */\n      0xffffffffffffffffffffffffffffffffffffffff\n      and\n      0xffffffffffffffffffffffffffffffffffffffff\n      and\n      dup2\n      mstore\n      0x20\n      add\n      swap1\n      dup2\n      mstore\n      0x20\n      add\n      0x00\n      keccak256\n      0x00\n      swap1\n      sload\n      swap1\n      0x0100\n      exp\n      swap1\n      div\n      0xff\n      and\n        /* \"contracts/GymMembership.sol\":3793:3814  !isMember[msg.sender] */\n      iszero\n        /* \"contracts/GymMembership.sol\":3785:3852  require(!isMember[msg.sender], \"Address is registered as a member\") */\n      tag_365\n      jumpi\n      mload(0x40)\n      0x08c379a000000000000000000000000000000000000000000000000000000000\n      dup2\n      mstore\n      0x04\n      add\n      tag_366\n      swap1\n      tag_367\n      jump\t// in\n    tag_366:\n      mload(0x40)\n      dup1\n      swap2\n      sub\n      swap1\n      revert\n    tag_365:\n        /* \"contracts/GymMembership.sol\":3863:3888  GymDetails memory details */\n      0x00\n        /* \"contracts/GymMembership.sol\":3891:4001  GymDetails(name, dailyFee, weeklyFee, monthlyFee, quarterlyFee, semiAnnualFee, annualFee, latitude, longitude) */\n      mload(0x40)\n      dup1\n      0x0120\n      add\n      0x40\n      mstore\n      dup1\n        /* \"contracts/GymMembership.sol\":3902:3906  name */\n      dup12\n        /* \"contracts/GymMembership.sol\":3891:4001  GymDetails(name, dailyFee, weeklyFee, monthlyFee, quarterlyFee, semiAnnualFee, annualFee, latitude, longitude) */\n      dup2\n      mstore\n      0x20\n      add\n        /* \"contracts/GymMembership.sol\":3908:3916  dailyFee */\n      dup11\n        /* \"contracts/GymMembership.sol\":3891:4001  GymDetails(name, dailyFee, weeklyFee, monthlyFee, quarterlyFee, semiAnnualFee, annualFee, latitude, longitude) */\n      dup2\n      mstore\n      0x20\n      add\n        /* \"contracts/GymMembership.sol\":3918:3927  weeklyFee */\n      dup10\n        /* \"contracts/GymMembership.sol\":3891:4001  GymDetails(name, dailyFee, weeklyFee, monthlyFee, quarterlyFee, semiAnnualFee, annualFee, latitude, longitude) */\n      dup2\n      mstore\n      0x20\n      add\n        /* \"contracts/GymMembership.sol\":3929:3939  monthlyFee */\n      dup9\n        /* \"contracts/GymMembership.sol\":3891:4001  GymDetails(name, dailyFee, weeklyFee, monthlyFee, quarterlyFee, semiAnnualFee, annualFee, latitude, longitude) */\n      dup2\n      mstore\n      0x20\n      add\n        /* \"contracts/GymMembership.sol\":3941:3953  quarterlyFee */\n      dup8\n        /* \"contracts/GymMembership.sol\":3891:4001  GymDetails(name, dailyFee, weeklyFee, monthlyFee, quarterlyFee, semiAnnualFee, annualFee, latitude, longitude) */\n      dup2\n      mstore\n      0x20\n      add\n        /* \"contracts/GymMembership.sol\":3955:3968  semiAnnualFee */\n      dup7\n        /* \"contracts/GymMembership.sol\":3891:4001  GymDetails(name, dailyFee, weeklyFee, monthlyFee, quarterlyFee, semiAnnualFee, annualFee, latitude, longitude) */\n      dup2\n      mstore\n      0x20\n      add\n        /* \"contracts/GymMembership.sol\":3970:3979  annualFee */\n      dup6\n        /* \"contracts/GymMembership.sol\":3891:4001  GymDetails(name, dailyFee, weeklyFee, monthlyFee, quarterlyFee, semiAnnualFee, annualFee, latitude, longitude) */\n      dup2\n      mstore\n      0x20\n      add\n        /* \"contracts/GymMembership.sol\":3981:3989  latitude */\n      dup5\n        /* \"contracts/GymMembership.sol\":3891:4001  GymDetails(name, dailyFee, weeklyFee, monthlyFee, quarterlyFee, semiAnnualFee, annualFee, latitude, longitude) */\n      dup2\n      mstore\n      0x20\n      add\n        /* \"contracts/GymMembership.sol\":3991:4000  longitude */\n      dup4\n        /* \"contracts/GymMembership.sol\":3891:4001  GymDetails(name, dailyFee, weeklyFee, monthlyFee, quarterlyFee, semiAnnualFee, annualFee, latitude, longitude) */\n      dup2\n      mstore\n      pop\n        /* \"contracts/GymMembership.sol\":3863:4001  GymDetails memory details = GymDetails(name, dailyFee, weeklyFee, monthlyFee, quarterlyFee, semiAnnualFee, annualFee, latitude, longitude) */\n      swap1\n      pop\n        /* \"contracts/GymMembership.sol\":4012:4030  Gym storage newGym */\n      0x00\n        /* \"contracts/GymMembership.sol\":4033:4037  gyms */\n      0x02\n        /* \"contracts/GymMembership.sol\":4033:4049  gyms[msg.sender] */\n      0x00\n        /* \"contracts/GymMembership.sol\":4038:4048  msg.sender */\n      caller\n        /* \"contracts/GymMembership.sol\":4033:4049  gyms[msg.sender] */\n      0xffffffffffffffffffffffffffffffffffffffff\n      and\n      0xffffffffffffffffffffffffffffffffffffffff\n      and\n      dup2\n      mstore\n      0x20\n      add\n      swap1\n      dup2\n      mstore\n      0x20\n      add\n      0x00\n      keccak256\n        /* \"contracts/GymMembership.sol\":4012:4049  Gym storage newGym = gyms[msg.sender] */\n      swap1\n      pop\n        /* \"contracts/GymMembership.sol\":4060:4090  setGymDetails(newGym, details) */\n      tag_368\n        /* \"contracts/GymMembership.sol\":4074:4080  newGym */\n      dup2\n        /* \"contracts/GymMembership.sol\":4082:4089  details */\n      dup4\n        /* \"contracts/GymMembership.sol\":4060:4073  setGymDetails */\n      tag_369\n        /* \"contracts/GymMembership.sol\":4060:4090  setGymDetails(newGym, details) */\n      jump\t// in\n    tag_368:\n        /* \"contracts/GymMembership.sol\":4121:4125  true */\n      0x01\n        /* \"contracts/GymMembership.sol\":4101:4106  isGym */\n      0x03\n        /* \"contracts/GymMembership.sol\":4101:4118  isGym[msg.sender] */\n      0x00\n        /* \"contracts/GymMembership.sol\":4107:4117  msg.sender */\n      caller\n        /* \"contracts/GymMembership.sol\":4101:4118  isGym[msg.sender] */\n      0xffffffffffffffffffffffffffffffffffffffff\n      and\n      0xffffffffffffffffffffffffffffffffffffffff\n      and\n      dup2\n      mstore\n      0x20\n      add\n      swap1\n      dup2\n      mstore\n      0x20\n      add\n      0x00\n      keccak256\n      0x00\n        /* \"contracts/GymMembership.sol\":4101:4125  isGym[msg.sender] = true */\n      0x0100\n      exp\n      dup2\n      sload\n      dup2\n      0xff\n      mul\n      not\n      and\n      swap1\n      dup4\n      iszero\n      iszero\n      mul\n      or\n      swap1\n      sstore\n      pop\n        /* \"contracts/GymMembership.sol\":4136:4148  gymAddresses */\n      0x05\n        /* \"contracts/GymMembership.sol\":4154:4164  msg.sender */\n      caller\n        /* \"contracts/GymMembership.sol\":4136:4165  gymAddresses.push(msg.sender) */\n      swap1\n      dup1\n      0x01\n      dup2\n      sload\n      add\n      dup1\n      dup3\n      sstore\n      dup1\n      swap2\n      pop\n      pop\n      0x01\n      swap1\n      sub\n      swap1\n      0x00\n      mstore\n      keccak256(0x00, 0x20)\n      add\n      0x00\n      swap1\n      swap2\n      swap1\n      swap2\n      swap1\n      swap2\n      0x0100\n      exp\n      dup2\n      sload\n      dup2\n      0xffffffffffffffffffffffffffffffffffffffff\n      mul\n      not\n      and\n      swap1\n      dup4\n      0xffffffffffffffffffffffffffffffffffffffff\n      and\n      mul\n      or\n      swap1\n      sstore\n      pop\n        /* \"contracts/GymMembership.sol\":3719:4173  {... */\n      pop\n      pop\n        /* \"contracts/GymMembership.sol\":3431:4173  function registerGym(... */\n      pop\n      pop\n      pop\n      pop\n      pop\n      pop\n      pop\n      pop\n      pop\n      jump\t// out\n        /* \"contracts/GymMembership.sol\":7117:7872  function manualAddMember(address _member, string memory _name, uint _age, uint _weight, uint _height) public onlyGym {... */\n    tag_140:\n        /* \"contracts/GymMembership.sol\":2070:2075  isGym */\n      0x03\n        /* \"contracts/GymMembership.sol\":2070:2087  isGym[msg.sender] */\n      0x00\n        /* \"contracts/GymMembership.sol\":2076:2086  msg.sender */\n      caller\n        /* \"contracts/GymMembership.sol\":2070:2087  isGym[msg.sender] */\n      0xffffffffffffffffffffffffffffffffffffffff\n      and\n      0xffffffffffffffffffffffffffffffffffffffff\n      and\n      dup2\n      mstore\n      0x20\n      add\n      swap1\n      dup2\n      mstore\n      0x20\n      add\n      0x00\n      keccak256\n      0x00\n      swap1\n      sload\n      swap1\n      0x0100\n      exp\n      swap1\n      div\n      0xff\n      and\n        /* \"contracts/GymMembership.sol\":2062:2124  require(isGym[msg.sender], \"Only gyms can call this function\") */\n      tag_372\n      jumpi\n      mload(0x40)\n      0x08c379a000000000000000000000000000000000000000000000000000000000\n      dup2\n      mstore\n      0x04\n      add\n      tag_373\n      swap1\n      tag_248\n      jump\t// in\n    tag_373:\n      mload(0x40)\n      dup1\n      swap2\n      sub\n      swap1\n      revert\n    tag_372:\n        /* \"contracts/GymMembership.sol\":7254:7262  isMember */\n      0x01\n        /* \"contracts/GymMembership.sol\":7254:7271  isMember[_member] */\n      0x00\n        /* \"contracts/GymMembership.sol\":7263:7270  _member */\n      dup7\n        /* \"contracts/GymMembership.sol\":7254:7271  isMember[_member] */\n      0xffffffffffffffffffffffffffffffffffffffff\n      and\n      0xffffffffffffffffffffffffffffffffffffffff\n      and\n      dup2\n      mstore\n      0x20\n      add\n      swap1\n      dup2\n      mstore\n      0x20\n      add\n      0x00\n      keccak256\n      0x00\n      swap1\n      sload\n      swap1\n      0x0100\n      exp\n      swap1\n      div\n      0xff\n      and\n        /* \"contracts/GymMembership.sol\":7253:7271  !isMember[_member] */\n      iszero\n        /* \"contracts/GymMembership.sol\":7245:7292  require(!isMember[_member], \"Already a member\") */\n      tag_375\n      jumpi\n      mload(0x40)\n      0x08c379a000000000000000000000000000000000000000000000000000000000\n      dup2\n      mstore\n      0x04\n      add\n      tag_376\n      swap1\n      tag_336\n      jump\t// in\n    tag_376:\n      mload(0x40)\n      dup1\n      swap2\n      sub\n      swap1\n      revert\n    tag_375:\n        /* \"contracts/GymMembership.sol\":7303:7327  Member storage newMember */\n      0x00\n        /* \"contracts/GymMembership.sol\":7330:7337  members */\n      dup1\n        /* \"contracts/GymMembership.sol\":7330:7346  members[_member] */\n      0x00\n        /* \"contracts/GymMembership.sol\":7338:7345  _member */\n      dup8\n        /* \"contracts/GymMembership.sol\":7330:7346  members[_member] */\n      0xffffffffffffffffffffffffffffffffffffffff\n      and\n      0xffffffffffffffffffffffffffffffffffffffff\n      and\n      dup2\n      mstore\n      0x20\n      add\n      swap1\n      dup2\n      mstore\n      0x20\n      add\n      0x00\n      keccak256\n        /* \"contracts/GymMembership.sol\":7303:7346  Member storage newMember = members[_member] */\n      swap1\n      pop\n        /* \"contracts/GymMembership.sol\":7374:7379  _name */\n      dup5\n        /* \"contracts/GymMembership.sol\":7357:7366  newMember */\n      dup2\n        /* \"contracts/GymMembership.sol\":7357:7371  newMember.name */\n      0x00\n      add\n        /* \"contracts/GymMembership.sol\":7357:7379  newMember.name = _name */\n      swap1\n      dup2\n      tag_377\n      swap2\n      swap1\n      tag_235\n      jump\t// in\n    tag_377:\n      pop\n        /* \"contracts/GymMembership.sol\":7406:7410  _age */\n      dup4\n        /* \"contracts/GymMembership.sol\":7390:7399  newMember */\n      dup2\n        /* \"contracts/GymMembership.sol\":7390:7403  newMember.age */\n      0x01\n      add\n        /* \"contracts/GymMembership.sol\":7390:7410  newMember.age = _age */\n      dup2\n      swap1\n      sstore\n      pop\n        /* \"contracts/GymMembership.sol\":7440:7447  _weight */\n      dup3\n        /* \"contracts/GymMembership.sol\":7421:7430  newMember */\n      dup2\n        /* \"contracts/GymMembership.sol\":7421:7437  newMember.weight */\n      0x02\n      add\n        /* \"contracts/GymMembership.sol\":7421:7447  newMember.weight = _weight */\n      dup2\n      swap1\n      sstore\n      pop\n        /* \"contracts/GymMembership.sol\":7477:7484  _height */\n      dup2\n        /* \"contracts/GymMembership.sol\":7458:7467  newMember */\n      dup2\n        /* \"contracts/GymMembership.sol\":7458:7474  newMember.height */\n      0x03\n      add\n        /* \"contracts/GymMembership.sol\":7458:7484  newMember.height = _height */\n      dup2\n      swap1\n      sstore\n      pop\n        /* \"contracts/GymMembership.sol\":7521:7522  0 */\n      0x00\n        /* \"contracts/GymMembership.sol\":7495:7504  newMember */\n      dup2\n        /* \"contracts/GymMembership.sol\":7495:7518  newMember.exerciseCount */\n      0x04\n      add\n        /* \"contracts/GymMembership.sol\":7495:7522  newMember.exerciseCount = 0 */\n      dup2\n      swap1\n      sstore\n      pop\n        /* \"contracts/GymMembership.sol\":7556:7557  0 */\n      0x00\n        /* \"contracts/GymMembership.sol\":7533:7542  newMember */\n      dup2\n        /* \"contracts/GymMembership.sol\":7533:7553  newMember.visitCount */\n      0x05\n      add\n        /* \"contracts/GymMembership.sol\":7533:7557  newMember.visitCount = 0 */\n      dup2\n      swap1\n      sstore\n      pop\n        /* \"contracts/GymMembership.sol\":7589:7593  true */\n      0x01\n        /* \"contracts/GymMembership.sol\":7568:7577  newMember */\n      dup2\n        /* \"contracts/GymMembership.sol\":7568:7586  newMember.isManual */\n      0x06\n      add\n      0x00\n        /* \"contracts/GymMembership.sol\":7568:7593  newMember.isManual = true */\n      0x0100\n      exp\n      dup2\n      sload\n      dup2\n      0xff\n      mul\n      not\n      and\n      swap1\n      dup4\n      iszero\n      iszero\n      mul\n      or\n      swap1\n      sstore\n      pop\n        /* \"contracts/GymMembership.sol\":7624:7628  true */\n      0x01\n        /* \"contracts/GymMembership.sol\":7604:7612  isMember */\n      dup1\n        /* \"contracts/GymMembership.sol\":7604:7621  isMember[_member] */\n      0x00\n        /* \"contracts/GymMembership.sol\":7613:7620  _member */\n      dup9\n        /* \"contracts/GymMembership.sol\":7604:7621  isMember[_member] */\n      0xffffffffffffffffffffffffffffffffffffffff\n      and\n      0xffffffffffffffffffffffffffffffffffffffff\n      and\n      dup2\n      mstore\n      0x20\n      add\n      swap1\n      dup2\n      mstore\n      0x20\n      add\n      0x00\n      keccak256\n      0x00\n        /* \"contracts/GymMembership.sol\":7604:7628  isMember[_member] = true */\n      0x0100\n      exp\n      dup2\n      sload\n      dup2\n      0xff\n      mul\n      not\n      and\n      swap1\n      dup4\n      iszero\n      iszero\n      mul\n      or\n      swap1\n      sstore\n      pop\n        /* \"contracts/GymMembership.sol\":7639:7654  memberAddresses */\n      0x04\n        /* \"contracts/GymMembership.sol\":7660:7667  _member */\n      dup7\n        /* \"contracts/GymMembership.sol\":7639:7668  memberAddresses.push(_member) */\n      swap1\n      dup1\n      0x01\n      dup2\n      sload\n      add\n      dup1\n      dup3\n      sstore\n      dup1\n      swap2\n      pop\n      pop\n      0x01\n      swap1\n      sub\n      swap1\n      0x00\n      mstore\n      keccak256(0x00, 0x20)\n      add\n      0x00\n      swap1\n      swap2\n      swap1\n      swap2\n      swap1\n      swap2\n      0x0100\n      exp\n      dup2\n      sload\n      dup2\n      0xffffffffffffffffffffffffffffffffffffffff\n      mul\n      not\n      and\n      swap1\n      dup4\n      0xffffffffffffffffffffffffffffffffffffffff\n      and\n      mul\n      or\n      swap1\n      sstore\n      pop\n        /* \"contracts/GymMembership.sol\":7679:7683  gyms */\n      0x02\n        /* \"contracts/GymMembership.sol\":7679:7695  gyms[msg.sender] */\n      0x00\n        /* \"contracts/GymMembership.sol\":7684:7694  msg.sender */\n      caller\n        /* \"contracts/GymMembership.sol\":7679:7695  gyms[msg.sender] */\n      0xffffffffffffffffffffffffffffffffffffffff\n      and\n      0xffffffffffffffffffffffffffffffffffffffff\n      and\n      dup2\n      mstore\n      0x20\n      add\n      swap1\n      dup2\n      mstore\n      0x20\n      add\n      0x00\n      keccak256\n        /* \"contracts/GymMembership.sol\":7679:7711  gyms[msg.sender].memberAddresses */\n      0x0d\n      add\n        /* \"contracts/GymMembership.sol\":7717:7724  _member */\n      dup7\n        /* \"contracts/GymMembership.sol\":7679:7725  gyms[msg.sender].memberAddresses.push(_member) */\n      swap1\n      dup1\n      0x01\n      dup2\n      sload\n      add\n      dup1\n      dup3\n      sstore\n      dup1\n      swap2\n      pop\n      pop\n      0x01\n      swap1\n      sub\n      swap1\n      0x00\n      mstore\n      keccak256(0x00, 0x20)\n      add\n      0x00\n      swap1\n      swap2\n      swap1\n      swap2\n      swap1\n      swap2\n      0x0100\n      exp\n      dup2\n      sload\n      dup2\n      0xffffffffffffffffffffffffffffffffffffffff\n      mul\n      not\n      and\n      swap1\n      dup4\n      0xffffffffffffffffffffffffffffffffffffffff\n      and\n      mul\n      or\n      swap1\n      sstore\n      pop\n        /* \"contracts/GymMembership.sol\":7796:7804  365 days */\n      0x01e13380\n        /* \"contracts/GymMembership.sol\":7778:7793  block.timestamp */\n      timestamp\n        /* \"contracts/GymMembership.sol\":7778:7804  block.timestamp + 365 days */\n      tag_380\n      swap2\n      swap1\n      tag_206\n      jump\t// in\n    tag_380:\n        /* \"contracts/GymMembership.sol\":7736:7740  gyms */\n      0x02\n        /* \"contracts/GymMembership.sol\":7736:7752  gyms[msg.sender] */\n      0x00\n        /* \"contracts/GymMembership.sol\":7741:7751  msg.sender */\n      caller\n        /* \"contracts/GymMembership.sol\":7736:7752  gyms[msg.sender] */\n      0xffffffffffffffffffffffffffffffffffffffff\n      and\n      0xffffffffffffffffffffffffffffffffffffffff\n      and\n      dup2\n      mstore\n      0x20\n      add\n      swap1\n      dup2\n      mstore\n      0x20\n      add\n      0x00\n      keccak256\n        /* \"contracts/GymMembership.sol\":7736:7766  gyms[msg.sender].activeMembers */\n      0x0e\n      add\n        /* \"contracts/GymMembership.sol\":7736:7775  gyms[msg.sender].activeMembers[_member] */\n      0x00\n        /* \"contracts/GymMembership.sol\":7767:7774  _member */\n      dup9\n        /* \"contracts/GymMembership.sol\":7736:7775  gyms[msg.sender].activeMembers[_member] */\n      0xffffffffffffffffffffffffffffffffffffffff\n      and\n      0xffffffffffffffffffffffffffffffffffffffff\n      and\n      dup2\n      mstore\n      0x20\n      add\n      swap1\n      dup2\n      mstore\n      0x20\n      add\n      0x00\n      keccak256\n        /* \"contracts/GymMembership.sol\":7736:7804  gyms[msg.sender].activeMembers[_member] = block.timestamp + 365 days */\n      dup2\n      swap1\n      sstore\n      pop\n        /* \"contracts/GymMembership.sol\":7234:7872  {... */\n      pop\n        /* \"contracts/GymMembership.sol\":7117:7872  function manualAddMember(address _member, string memory _name, uint _age, uint _weight, uint _height) public onlyGym {... */\n      pop\n      pop\n      pop\n      pop\n      pop\n      jump\t// out\n        /* \"contracts/GymMembership.sol\":8573:8890  function getVisit(address _member, uint _index) public view onlyMember returns (string memory, uint) {... */\n    tag_144:\n        /* \"contracts/GymMembership.sol\":8653:8666  string memory */\n      0x60\n        /* \"contracts/GymMembership.sol\":8668:8672  uint */\n      0x00\n        /* \"contracts/GymMembership.sol\":1944:1952  isMember */\n      0x01\n        /* \"contracts/GymMembership.sol\":1944:1964  isMember[msg.sender] */\n      0x00\n        /* \"contracts/GymMembership.sol\":1953:1963  msg.sender */\n      caller\n        /* \"contracts/GymMembership.sol\":1944:1964  isMember[msg.sender] */\n      0xffffffffffffffffffffffffffffffffffffffff\n      and\n      0xffffffffffffffffffffffffffffffffffffffff\n      and\n      dup2\n      mstore\n      0x20\n      add\n      swap1\n      dup2\n      mstore\n      0x20\n      add\n      0x00\n      keccak256\n      0x00\n      swap1\n      sload\n      swap1\n      0x0100\n      exp\n      swap1\n      div\n      0xff\n      and\n        /* \"contracts/GymMembership.sol\":1936:2004  require(isMember[msg.sender], \"Only members can call this function\") */\n      tag_382\n      jumpi\n      mload(0x40)\n      0x08c379a000000000000000000000000000000000000000000000000000000000\n      dup2\n      mstore\n      0x04\n      add\n      tag_383\n      swap1\n      tag_196\n      jump\t// in\n    tag_383:\n      mload(0x40)\n      dup1\n      swap2\n      sub\n      swap1\n      revert\n    tag_382:\n        /* \"contracts/GymMembership.sol\":8693:8701  isMember */\n      0x01\n        /* \"contracts/GymMembership.sol\":8693:8710  isMember[_member] */\n      0x00\n        /* \"contracts/GymMembership.sol\":8702:8709  _member */\n      dup6\n        /* \"contracts/GymMembership.sol\":8693:8710  isMember[_member] */\n      0xffffffffffffffffffffffffffffffffffffffff\n      and\n      0xffffffffffffffffffffffffffffffffffffffff\n      and\n      dup2\n      mstore\n      0x20\n      add\n      swap1\n      dup2\n      mstore\n      0x20\n      add\n      0x00\n      keccak256\n      0x00\n      swap1\n      sload\n      swap1\n      0x0100\n      exp\n      swap1\n      div\n      0xff\n      and\n        /* \"contracts/GymMembership.sol\":8685:8727  require(isMember[_member], \"Not a member\") */\n      tag_385\n      jumpi\n      mload(0x40)\n      0x08c379a000000000000000000000000000000000000000000000000000000000\n      dup2\n      mstore\n      0x04\n      add\n      tag_386\n      swap1\n      tag_279\n      jump\t// in\n    tag_386:\n      mload(0x40)\n      dup1\n      swap2\n      sub\n      swap1\n      revert\n    tag_385:\n        /* \"contracts/GymMembership.sol\":8738:8759  Member storage member */\n      0x00\n        /* \"contracts/GymMembership.sol\":8762:8769  members */\n      dup1\n        /* \"contracts/GymMembership.sol\":8762:8778  members[_member] */\n      0x00\n        /* \"contracts/GymMembership.sol\":8770:8777  _member */\n      dup7\n        /* \"contracts/GymMembership.sol\":8762:8778  members[_member] */\n      0xffffffffffffffffffffffffffffffffffffffff\n      and\n      0xffffffffffffffffffffffffffffffffffffffff\n      and\n      dup2\n      mstore\n      0x20\n      add\n      swap1\n      dup2\n      mstore\n      0x20\n      add\n      0x00\n      keccak256\n        /* \"contracts/GymMembership.sol\":8738:8778  Member storage member = members[_member] */\n      swap1\n      pop\n        /* \"contracts/GymMembership.sol\":8789:8808  Visit storage visit */\n      0x00\n        /* \"contracts/GymMembership.sol\":8811:8817  member */\n      dup2\n        /* \"contracts/GymMembership.sol\":8811:8824  member.visits */\n      0x08\n      add\n        /* \"contracts/GymMembership.sol\":8811:8832  member.visits[_index] */\n      0x00\n        /* \"contracts/GymMembership.sol\":8825:8831  _index */\n      dup7\n        /* \"contracts/GymMembership.sol\":8811:8832  member.visits[_index] */\n      dup2\n      mstore\n      0x20\n      add\n      swap1\n      dup2\n      mstore\n      0x20\n      add\n      0x00\n      keccak256\n        /* \"contracts/GymMembership.sol\":8789:8832  Visit storage visit = member.visits[_index] */\n      swap1\n      pop\n        /* \"contracts/GymMembership.sol\":8851:8856  visit */\n      dup1\n        /* \"contracts/GymMembership.sol\":8851:8864  visit.gymName */\n      0x00\n      add\n        /* \"contracts/GymMembership.sol\":8866:8871  visit */\n      dup2\n        /* \"contracts/GymMembership.sol\":8866:8881  visit.timestamp */\n      0x01\n      add\n      sload\n        /* \"contracts/GymMembership.sol\":8843:8882  return (visit.gymName, visit.timestamp) */\n      dup2\n      dup1\n      sload\n      tag_387\n      swap1\n      tag_188\n      jump\t// in\n    tag_387:\n      dup1\n      0x1f\n      add\n      0x20\n      dup1\n      swap2\n      div\n      mul\n      0x20\n      add\n      mload(0x40)\n      swap1\n      dup2\n      add\n      0x40\n      mstore\n      dup1\n      swap3\n      swap2\n      swap1\n      dup2\n      dup2\n      mstore\n      0x20\n      add\n      dup3\n      dup1\n      sload\n      tag_388\n      swap1\n      tag_188\n      jump\t// in\n    tag_388:\n      dup1\n      iszero\n      tag_389\n      jumpi\n      dup1\n      0x1f\n      lt\n      tag_390\n      jumpi\n      0x0100\n      dup1\n      dup4\n      sload\n      div\n      mul\n      dup4\n      mstore\n      swap2\n      0x20\n      add\n      swap2\n      jump(tag_389)\n    tag_390:\n      dup3\n      add\n      swap2\n      swap1\n      0x00\n      mstore\n      keccak256(0x00, 0x20)\n      swap1\n    tag_391:\n      dup2\n      sload\n      dup2\n      mstore\n      swap1\n      0x01\n      add\n      swap1\n      0x20\n      add\n      dup1\n      dup4\n      gt\n      tag_391\n      jumpi\n      dup3\n      swap1\n      sub\n      0x1f\n      and\n      dup3\n      add\n      swap2\n    tag_389:\n      pop\n      pop\n      pop\n      pop\n      pop\n      swap2\n      pop\n      swap4\n      pop\n      swap4\n      pop\n      pop\n      pop\n        /* \"contracts/GymMembership.sol\":8573:8890  function getVisit(address _member, uint _index) public view onlyMember returns (string memory, uint) {... */\n      swap3\n      pop\n      swap3\n      swap1\n      pop\n      jump\t// out\n        /* \"contracts/GymMembership.sol\":4181:4810  function determineFee(Gym storage gym, uint duration) internal view returns (uint) {... */\n    tag_324:\n        /* \"contracts/GymMembership.sol\":4258:4262  uint */\n      0x00\n        /* \"contracts/GymMembership.sol\":4291:4292  1 */\n      0x01\n        /* \"contracts/GymMembership.sol\":4279:4287  duration */\n      dup3\n        /* \"contracts/GymMembership.sol\":4279:4292  duration == 1 */\n      sub\n        /* \"contracts/GymMembership.sol\":4275:4803  if (duration == 1) {... */\n      tag_393\n      jumpi\n        /* \"contracts/GymMembership.sol\":4316:4319  gym */\n      dup3\n        /* \"contracts/GymMembership.sol\":4316:4324  gym.fees */\n      0x01\n      add\n        /* \"contracts/GymMembership.sol\":4316:4333  gym.fees.dailyFee */\n      0x00\n      add\n      sload\n        /* \"contracts/GymMembership.sol\":4309:4333  return gym.fees.dailyFee */\n      swap1\n      pop\n      jump(tag_392)\n        /* \"contracts/GymMembership.sol\":4275:4803  if (duration == 1) {... */\n    tag_393:\n        /* \"contracts/GymMembership.sol\":4367:4368  7 */\n      0x07\n        /* \"contracts/GymMembership.sol\":4355:4363  duration */\n      dup3\n        /* \"contracts/GymMembership.sol\":4355:4368  duration == 7 */\n      sub\n        /* \"contracts/GymMembership.sol\":4351:4803  if (duration == 7) {... */\n      tag_395\n      jumpi\n        /* \"contracts/GymMembership.sol\":4392:4395  gym */\n      dup3\n        /* \"contracts/GymMembership.sol\":4392:4400  gym.fees */\n      0x01\n      add\n        /* \"contracts/GymMembership.sol\":4392:4410  gym.fees.weeklyFee */\n      0x01\n      add\n      sload\n        /* \"contracts/GymMembership.sol\":4385:4410  return gym.fees.weeklyFee */\n      swap1\n      pop\n      jump(tag_392)\n        /* \"contracts/GymMembership.sol\":4351:4803  if (duration == 7) {... */\n    tag_395:\n        /* \"contracts/GymMembership.sol\":4444:4446  30 */\n      0x1e\n        /* \"contracts/GymMembership.sol\":4432:4440  duration */\n      dup3\n        /* \"contracts/GymMembership.sol\":4432:4446  duration == 30 */\n      sub\n        /* \"contracts/GymMembership.sol\":4428:4803  if (duration == 30) {... */\n      tag_397\n      jumpi\n        /* \"contracts/GymMembership.sol\":4470:4473  gym */\n      dup3\n        /* \"contracts/GymMembership.sol\":4470:4478  gym.fees */\n      0x01\n      add\n        /* \"contracts/GymMembership.sol\":4470:4489  gym.fees.monthlyFee */\n      0x02\n      add\n      sload\n        /* \"contracts/GymMembership.sol\":4463:4489  return gym.fees.monthlyFee */\n      swap1\n      pop\n      jump(tag_392)\n        /* \"contracts/GymMembership.sol\":4428:4803  if (duration == 30) {... */\n    tag_397:\n        /* \"contracts/GymMembership.sol\":4523:4525  90 */\n      0x5a\n        /* \"contracts/GymMembership.sol\":4511:4519  duration */\n      dup3\n        /* \"contracts/GymMembership.sol\":4511:4525  duration == 90 */\n      sub\n        /* \"contracts/GymMembership.sol\":4507:4803  if (duration == 90) {... */\n      tag_399\n      jumpi\n        /* \"contracts/GymMembership.sol\":4549:4552  gym */\n      dup3\n        /* \"contracts/GymMembership.sol\":4549:4557  gym.fees */\n      0x01\n      add\n        /* \"contracts/GymMembership.sol\":4549:4570  gym.fees.quarterlyFee */\n      0x03\n      add\n      sload\n        /* \"contracts/GymMembership.sol\":4542:4570  return gym.fees.quarterlyFee */\n      swap1\n      pop\n      jump(tag_392)\n        /* \"contracts/GymMembership.sol\":4507:4803  if (duration == 90) {... */\n    tag_399:\n        /* \"contracts/GymMembership.sol\":4604:4607  180 */\n      0xb4\n        /* \"contracts/GymMembership.sol\":4592:4600  duration */\n      dup3\n        /* \"contracts/GymMembership.sol\":4592:4607  duration == 180 */\n      sub\n        /* \"contracts/GymMembership.sol\":4588:4803  if (duration == 180) {... */\n      tag_401\n      jumpi\n        /* \"contracts/GymMembership.sol\":4631:4634  gym */\n      dup3\n        /* \"contracts/GymMembership.sol\":4631:4639  gym.fees */\n      0x01\n      add\n        /* \"contracts/GymMembership.sol\":4631:4653  gym.fees.semiAnnualFee */\n      0x04\n      add\n      sload\n        /* \"contracts/GymMembership.sol\":4624:4653  return gym.fees.semiAnnualFee */\n      swap1\n      pop\n      jump(tag_392)\n        /* \"contracts/GymMembership.sol\":4588:4803  if (duration == 180) {... */\n    tag_401:\n        /* \"contracts/GymMembership.sol\":4687:4690  365 */\n      0x016d\n        /* \"contracts/GymMembership.sol\":4675:4683  duration */\n      dup3\n        /* \"contracts/GymMembership.sol\":4675:4690  duration == 365 */\n      sub\n        /* \"contracts/GymMembership.sol\":4671:4803  if (duration == 365) {... */\n      tag_403\n      jumpi\n        /* \"contracts/GymMembership.sol\":4714:4717  gym */\n      dup3\n        /* \"contracts/GymMembership.sol\":4714:4722  gym.fees */\n      0x01\n      add\n        /* \"contracts/GymMembership.sol\":4714:4732  gym.fees.annualFee */\n      0x05\n      add\n      sload\n        /* \"contracts/GymMembership.sol\":4707:4732  return gym.fees.annualFee */\n      swap1\n      pop\n      jump(tag_392)\n        /* \"contracts/GymMembership.sol\":4671:4803  if (duration == 365) {... */\n    tag_403:\n        /* \"contracts/GymMembership.sol\":4765:4791  revert(\"Invalid duration\") */\n      mload(0x40)\n      0x08c379a000000000000000000000000000000000000000000000000000000000\n      dup2\n      mstore\n      0x04\n      add\n      tag_405\n      swap1\n      tag_406\n      jump\t// in\n    tag_405:\n      mload(0x40)\n      dup1\n      swap2\n      sub\n      swap1\n      revert\n        /* \"contracts/GymMembership.sol\":4181:4810  function determineFee(Gym storage gym, uint duration) internal view returns (uint) {... */\n    tag_392:\n      swap3\n      swap2\n      pop\n      pop\n      jump\t// out\n        /* \"contracts/GymMembership.sol\":2778:3423  function setGymDetails(Gym storage gym, GymDetails memory details) internal {... */\n    tag_369:\n        /* \"contracts/GymMembership.sol\":2876:2883  details */\n      dup1\n        /* \"contracts/GymMembership.sol\":2876:2888  details.name */\n      0x00\n      add\n      mload\n        /* \"contracts/GymMembership.sol\":2865:2868  gym */\n      dup3\n        /* \"contracts/GymMembership.sol\":2865:2873  gym.name */\n      0x00\n      add\n        /* \"contracts/GymMembership.sol\":2865:2888  gym.name = details.name */\n      swap1\n      dup2\n      tag_408\n      swap2\n      swap1\n      tag_235\n      jump\t// in\n    tag_408:\n      pop\n        /* \"contracts/GymMembership.sol\":2919:2926  details */\n      dup1\n        /* \"contracts/GymMembership.sol\":2919:2935  details.dailyFee */\n      0x20\n      add\n      mload\n        /* \"contracts/GymMembership.sol\":2899:2902  gym */\n      dup3\n        /* \"contracts/GymMembership.sol\":2899:2907  gym.fees */\n      0x01\n      add\n        /* \"contracts/GymMembership.sol\":2899:2916  gym.fees.dailyFee */\n      0x00\n      add\n        /* \"contracts/GymMembership.sol\":2899:2935  gym.fees.dailyFee = details.dailyFee */\n      dup2\n      swap1\n      sstore\n      pop\n        /* \"contracts/GymMembership.sol\":2967:2974  details */\n      dup1\n        /* \"contracts/GymMembership.sol\":2967:2984  details.weeklyFee */\n      0x40\n      add\n      mload\n        /* \"contracts/GymMembership.sol\":2946:2949  gym */\n      dup3\n        /* \"contracts/GymMembership.sol\":2946:2954  gym.fees */\n      0x01\n      add\n        /* \"contracts/GymMembership.sol\":2946:2964  gym.fees.weeklyFee */\n      0x01\n      add\n        /* \"contracts/GymMembership.sol\":2946:2984  gym.fees.weeklyFee = details.weeklyFee */\n      dup2\n      swap1\n      sstore\n      pop\n        /* \"contracts/GymMembership.sol\":3017:3024  details */\n      dup1\n        /* \"contracts/GymMembership.sol\":3017:3035  details.monthlyFee */\n      0x60\n      add\n      mload\n        /* \"contracts/GymMembership.sol\":2995:2998  gym */\n      dup3\n        /* \"contracts/GymMembership.sol\":2995:3003  gym.fees */\n      0x01\n      add\n        /* \"contracts/GymMembership.sol\":2995:3014  gym.fees.monthlyFee */\n      0x02\n      add\n        /* \"contracts/GymMembership.sol\":2995:3035  gym.fees.monthlyFee = details.monthlyFee */\n      dup2\n      swap1\n      sstore\n      pop\n        /* \"contracts/GymMembership.sol\":3070:3077  details */\n      dup1\n        /* \"contracts/GymMembership.sol\":3070:3090  details.quarterlyFee */\n      0x80\n      add\n      mload\n        /* \"contracts/GymMembership.sol\":3046:3049  gym */\n      dup3\n        /* \"contracts/GymMembership.sol\":3046:3054  gym.fees */\n      0x01\n      add\n        /* \"contracts/GymMembership.sol\":3046:3067  gym.fees.quarterlyFee */\n      0x03\n      add\n        /* \"contracts/GymMembership.sol\":3046:3090  gym.fees.quarterlyFee = details.quarterlyFee */\n      dup2\n      swap1\n      sstore\n      pop\n        /* \"contracts/GymMembership.sol\":3126:3133  details */\n      dup1\n        /* \"contracts/GymMembership.sol\":3126:3147  details.semiAnnualFee */\n      0xa0\n      add\n      mload\n        /* \"contracts/GymMembership.sol\":3101:3104  gym */\n      dup3\n        /* \"contracts/GymMembership.sol\":3101:3109  gym.fees */\n      0x01\n      add\n        /* \"contracts/GymMembership.sol\":3101:3123  gym.fees.semiAnnualFee */\n      0x04\n      add\n        /* \"contracts/GymMembership.sol\":3101:3147  gym.fees.semiAnnualFee = details.semiAnnualFee */\n      dup2\n      swap1\n      sstore\n      pop\n        /* \"contracts/GymMembership.sol\":3179:3186  details */\n      dup1\n        /* \"contracts/GymMembership.sol\":3179:3196  details.annualFee */\n      0xc0\n      add\n      mload\n        /* \"contracts/GymMembership.sol\":3158:3161  gym */\n      dup3\n        /* \"contracts/GymMembership.sol\":3158:3166  gym.fees */\n      0x01\n      add\n        /* \"contracts/GymMembership.sol\":3158:3176  gym.fees.annualFee */\n      0x05\n      add\n        /* \"contracts/GymMembership.sol\":3158:3196  gym.fees.annualFee = details.annualFee */\n      dup2\n      swap1\n      sstore\n      pop\n        /* \"contracts/GymMembership.sol\":3224:3225  0 */\n      0x00\n        /* \"contracts/GymMembership.sol\":3207:3210  gym */\n      dup3\n        /* \"contracts/GymMembership.sol\":3207:3221  gym.totalUsers */\n      0x07\n      add\n        /* \"contracts/GymMembership.sol\":3207:3225  gym.totalUsers = 0 */\n      dup2\n      swap1\n      sstore\n      pop\n        /* \"contracts/GymMembership.sol\":3254:3255  0 */\n      0x00\n        /* \"contracts/GymMembership.sol\":3236:3239  gym */\n      dup3\n        /* \"contracts/GymMembership.sol\":3236:3251  gym.totalRating */\n      0x08\n      add\n        /* \"contracts/GymMembership.sol\":3236:3255  gym.totalRating = 0 */\n      dup2\n      swap1\n      sstore\n      pop\n        /* \"contracts/GymMembership.sol\":3284:3285  0 */\n      0x00\n        /* \"contracts/GymMembership.sol\":3266:3269  gym */\n      dup3\n        /* \"contracts/GymMembership.sol\":3266:3281  gym.reviewCount */\n      0x09\n      add\n        /* \"contracts/GymMembership.sol\":3266:3285  gym.reviewCount = 0 */\n      dup2\n      swap1\n      sstore\n      pop\n        /* \"contracts/GymMembership.sol\":3310:3311  0 */\n      0x00\n        /* \"contracts/GymMembership.sol\":3296:3299  gym */\n      dup3\n        /* \"contracts/GymMembership.sol\":3296:3307  gym.balance */\n      0x0a\n      add\n        /* \"contracts/GymMembership.sol\":3296:3311  gym.balance = 0 */\n      dup2\n      swap1\n      sstore\n      pop\n        /* \"contracts/GymMembership.sol\":3346:3353  details */\n      dup1\n        /* \"contracts/GymMembership.sol\":3346:3362  details.latitude */\n      0xe0\n      add\n      mload\n        /* \"contracts/GymMembership.sol\":3322:3325  gym */\n      dup3\n        /* \"contracts/GymMembership.sol\":3322:3334  gym.location */\n      0x0b\n      add\n        /* \"contracts/GymMembership.sol\":3322:3343  gym.location.latitude */\n      0x00\n      add\n        /* \"contracts/GymMembership.sol\":3322:3362  gym.location.latitude = details.latitude */\n      swap1\n      dup2\n      tag_409\n      swap2\n      swap1\n      tag_235\n      jump\t// in\n    tag_409:\n      pop\n        /* \"contracts/GymMembership.sol\":3398:3405  details */\n      dup1\n        /* \"contracts/GymMembership.sol\":3398:3415  details.longitude */\n      0x0100\n      add\n      mload\n        /* \"contracts/GymMembership.sol\":3373:3376  gym */\n      dup3\n        /* \"contracts/GymMembership.sol\":3373:3385  gym.location */\n      0x0b\n      add\n        /* \"contracts/GymMembership.sol\":3373:3395  gym.location.longitude */\n      0x01\n      add\n        /* \"contracts/GymMembership.sol\":3373:3415  gym.location.longitude = details.longitude */\n      swap1\n      dup2\n      tag_410\n      swap2\n      swap1\n      tag_235\n      jump\t// in\n    tag_410:\n      pop\n        /* \"contracts/GymMembership.sol\":2778:3423  function setGymDetails(Gym storage gym, GymDetails memory details) internal {... */\n      pop\n      pop\n      jump\t// out\n        /* \"#utility.yul\":7:82   */\n    tag_411:\n        /* \"#utility.yul\":40:46   */\n      0x00\n        /* \"#utility.yul\":73:75   */\n      0x40\n        /* \"#utility.yul\":67:76   */\n      mload\n        /* \"#utility.yul\":57:76   */\n      swap1\n      pop\n        /* \"#utility.yul\":7:82   */\n      swap1\n      jump\t// out\n        /* \"#utility.yul\":88:205   */\n    tag_412:\n        /* \"#utility.yul\":197:198   */\n      0x00\n        /* \"#utility.yul\":194:195   */\n      dup1\n        /* \"#utility.yul\":187:199   */\n      revert\n        /* \"#utility.yul\":211:328   */\n    tag_413:\n        /* \"#utility.yul\":320:321   */\n      0x00\n        /* \"#utility.yul\":317:318   */\n      dup1\n        /* \"#utility.yul\":310:322   */\n      revert\n        /* \"#utility.yul\":334:460   */\n    tag_414:\n        /* \"#utility.yul\":371:378   */\n      0x00\n        /* \"#utility.yul\":411:453   */\n      0xffffffffffffffffffffffffffffffffffffffff\n        /* \"#utility.yul\":404:409   */\n      dup3\n        /* \"#utility.yul\":400:454   */\n      and\n        /* \"#utility.yul\":389:454   */\n      swap1\n      pop\n        /* \"#utility.yul\":334:460   */\n      swap2\n      swap1\n      pop\n      jump\t// out\n        /* \"#utility.yul\":466:562   */\n    tag_415:\n        /* \"#utility.yul\":503:510   */\n      0x00\n        /* \"#utility.yul\":532:556   */\n      tag_514\n        /* \"#utility.yul\":550:555   */\n      dup3\n        /* \"#utility.yul\":532:556   */\n      tag_414\n      jump\t// in\n    tag_514:\n        /* \"#utility.yul\":521:556   */\n      swap1\n      pop\n        /* \"#utility.yul\":466:562   */\n      swap2\n      swap1\n      pop\n      jump\t// out\n        /* \"#utility.yul\":568:690   */\n    tag_416:\n        /* \"#utility.yul\":641:665   */\n      tag_516\n        /* \"#utility.yul\":659:664   */\n      dup2\n        /* \"#utility.yul\":641:665   */\n      tag_415\n      jump\t// in\n    tag_516:\n        /* \"#utility.yul\":634:639   */\n      dup2\n        /* \"#utility.yul\":631:666   */\n      eq\n        /* \"#utility.yul\":621:684   */\n      tag_517\n      jumpi\n        /* \"#utility.yul\":680:681   */\n      0x00\n        /* \"#utility.yul\":677:678   */\n      dup1\n        /* \"#utility.yul\":670:682   */\n      revert\n        /* \"#utility.yul\":621:684   */\n    tag_517:\n        /* \"#utility.yul\":568:690   */\n      pop\n      jump\t// out\n        /* \"#utility.yul\":696:835   */\n    tag_417:\n        /* \"#utility.yul\":742:747   */\n      0x00\n        /* \"#utility.yul\":780:786   */\n      dup2\n        /* \"#utility.yul\":767:787   */\n      calldataload\n        /* \"#utility.yul\":758:787   */\n      swap1\n      pop\n        /* \"#utility.yul\":796:829   */\n      tag_519\n        /* \"#utility.yul\":823:828   */\n      dup2\n        /* \"#utility.yul\":796:829   */\n      tag_416\n      jump\t// in\n    tag_519:\n        /* \"#utility.yul\":696:835   */\n      swap3\n      swap2\n      pop\n      pop\n      jump\t// out\n        /* \"#utility.yul\":841:1170   */\n    tag_31:\n        /* \"#utility.yul\":900:906   */\n      0x00\n        /* \"#utility.yul\":949:951   */\n      0x20\n        /* \"#utility.yul\":937:946   */\n      dup3\n        /* \"#utility.yul\":928:935   */\n      dup5\n        /* \"#utility.yul\":924:947   */\n      sub\n        /* \"#utility.yul\":920:952   */\n      slt\n        /* \"#utility.yul\":917:1036   */\n      iszero\n      tag_521\n      jumpi\n        /* \"#utility.yul\":955:1034   */\n      tag_522\n      tag_412\n      jump\t// in\n    tag_522:\n        /* \"#utility.yul\":917:1036   */\n    tag_521:\n        /* \"#utility.yul\":1075:1076   */\n      0x00\n        /* \"#utility.yul\":1100:1153   */\n      tag_523\n        /* \"#utility.yul\":1145:1152   */\n      dup5\n        /* \"#utility.yul\":1136:1142   */\n      dup3\n        /* \"#utility.yul\":1125:1134   */\n      dup6\n        /* \"#utility.yul\":1121:1143   */\n      add\n        /* \"#utility.yul\":1100:1153   */\n      tag_417\n      jump\t// in\n    tag_523:\n        /* \"#utility.yul\":1090:1153   */\n      swap2\n      pop\n        /* \"#utility.yul\":1046:1163   */\n      pop\n        /* \"#utility.yul\":841:1170   */\n      swap3\n      swap2\n      pop\n      pop\n      jump\t// out\n        /* \"#utility.yul\":1176:1290   */\n    tag_418:\n        /* \"#utility.yul\":1243:1249   */\n      0x00\n        /* \"#utility.yul\":1277:1282   */\n      dup2\n        /* \"#utility.yul\":1271:1283   */\n      mload\n        /* \"#utility.yul\":1261:1283   */\n      swap1\n      pop\n        /* \"#utility.yul\":1176:1290   */\n      swap2\n      swap1\n      pop\n      jump\t// out\n        /* \"#utility.yul\":1296:1480   */\n    tag_419:\n        /* \"#utility.yul\":1395:1406   */\n      0x00\n        /* \"#utility.yul\":1429:1435   */\n      dup3\n        /* \"#utility.yul\":1424:1427   */\n      dup3\n        /* \"#utility.yul\":1417:1436   */\n      mstore\n        /* \"#utility.yul\":1469:1473   */\n      0x20\n        /* \"#utility.yul\":1464:1467   */\n      dup3\n        /* \"#utility.yul\":1460:1474   */\n      add\n        /* \"#utility.yul\":1445:1474   */\n      swap1\n      pop\n        /* \"#utility.yul\":1296:1480   */\n      swap3\n      swap2\n      pop\n      pop\n      jump\t// out\n        /* \"#utility.yul\":1486:1618   */\n    tag_420:\n        /* \"#utility.yul\":1553:1557   */\n      0x00\n        /* \"#utility.yul\":1576:1579   */\n      dup2\n        /* \"#utility.yul\":1568:1579   */\n      swap1\n      pop\n        /* \"#utility.yul\":1606:1610   */\n      0x20\n        /* \"#utility.yul\":1601:1604   */\n      dup3\n        /* \"#utility.yul\":1597:1611   */\n      add\n        /* \"#utility.yul\":1589:1611   */\n      swap1\n      pop\n        /* \"#utility.yul\":1486:1618   */\n      swap2\n      swap1\n      pop\n      jump\t// out\n        /* \"#utility.yul\":1624:1732   */\n    tag_421:\n        /* \"#utility.yul\":1701:1725   */\n      tag_528\n        /* \"#utility.yul\":1719:1724   */\n      dup2\n        /* \"#utility.yul\":1701:1725   */\n      tag_415\n      jump\t// in\n    tag_528:\n        /* \"#utility.yul\":1696:1699   */\n      dup3\n        /* \"#utility.yul\":1689:1726   */\n      mstore\n        /* \"#utility.yul\":1624:1732   */\n      pop\n      pop\n      jump\t// out\n        /* \"#utility.yul\":1738:1917   */\n    tag_422:\n        /* \"#utility.yul\":1807:1817   */\n      0x00\n        /* \"#utility.yul\":1828:1874   */\n      tag_530\n        /* \"#utility.yul\":1870:1873   */\n      dup4\n        /* \"#utility.yul\":1862:1868   */\n      dup4\n        /* \"#utility.yul\":1828:1874   */\n      tag_421\n      jump\t// in\n    tag_530:\n        /* \"#utility.yul\":1906:1910   */\n      0x20\n        /* \"#utility.yul\":1901:1904   */\n      dup4\n        /* \"#utility.yul\":1897:1911   */\n      add\n        /* \"#utility.yul\":1883:1911   */\n      swap1\n      pop\n        /* \"#utility.yul\":1738:1917   */\n      swap3\n      swap2\n      pop\n      pop\n      jump\t// out\n        /* \"#utility.yul\":1923:2036   */\n    tag_423:\n        /* \"#utility.yul\":1993:1997   */\n      0x00\n        /* \"#utility.yul\":2025:2029   */\n      0x20\n        /* \"#utility.yul\":2020:2023   */\n      dup3\n        /* \"#utility.yul\":2016:2030   */\n      add\n        /* \"#utility.yul\":2008:2030   */\n      swap1\n      pop\n        /* \"#utility.yul\":1923:2036   */\n      swap2\n      swap1\n      pop\n      jump\t// out\n        /* \"#utility.yul\":2072:2804   */\n    tag_424:\n        /* \"#utility.yul\":2191:2194   */\n      0x00\n        /* \"#utility.yul\":2220:2274   */\n      tag_533\n        /* \"#utility.yul\":2268:2273   */\n      dup3\n        /* \"#utility.yul\":2220:2274   */\n      tag_418\n      jump\t// in\n    tag_533:\n        /* \"#utility.yul\":2290:2376   */\n      tag_534\n        /* \"#utility.yul\":2369:2375   */\n      dup2\n        /* \"#utility.yul\":2364:2367   */\n      dup6\n        /* \"#utility.yul\":2290:2376   */\n      tag_419\n      jump\t// in\n    tag_534:\n        /* \"#utility.yul\":2283:2376   */\n      swap4\n      pop\n        /* \"#utility.yul\":2400:2456   */\n      tag_535\n        /* \"#utility.yul\":2450:2455   */\n      dup4\n        /* \"#utility.yul\":2400:2456   */\n      tag_420\n      jump\t// in\n    tag_535:\n        /* \"#utility.yul\":2479:2486   */\n      dup1\n        /* \"#utility.yul\":2510:2511   */\n      0x00\n        /* \"#utility.yul\":2495:2779   */\n    tag_536:\n        /* \"#utility.yul\":2520:2526   */\n      dup4\n        /* \"#utility.yul\":2517:2518   */\n      dup2\n        /* \"#utility.yul\":2514:2527   */\n      lt\n        /* \"#utility.yul\":2495:2779   */\n      iszero\n      tag_538\n      jumpi\n        /* \"#utility.yul\":2596:2602   */\n      dup2\n        /* \"#utility.yul\":2590:2603   */\n      mload\n        /* \"#utility.yul\":2623:2686   */\n      tag_539\n        /* \"#utility.yul\":2682:2685   */\n      dup9\n        /* \"#utility.yul\":2667:2680   */\n      dup3\n        /* \"#utility.yul\":2623:2686   */\n      tag_422\n      jump\t// in\n    tag_539:\n        /* \"#utility.yul\":2616:2686   */\n      swap8\n      pop\n        /* \"#utility.yul\":2709:2769   */\n      tag_540\n        /* \"#utility.yul\":2762:2768   */\n      dup4\n        /* \"#utility.yul\":2709:2769   */\n      tag_423\n      jump\t// in\n    tag_540:\n        /* \"#utility.yul\":2699:2769   */\n      swap3\n      pop\n        /* \"#utility.yul\":2555:2779   */\n      pop\n        /* \"#utility.yul\":2542:2543   */\n      0x01\n        /* \"#utility.yul\":2539:2540   */\n      dup2\n        /* \"#utility.yul\":2535:2544   */\n      add\n        /* \"#utility.yul\":2530:2544   */\n      swap1\n      pop\n        /* \"#utility.yul\":2495:2779   */\n      jump(tag_536)\n    tag_538:\n        /* \"#utility.yul\":2499:2513   */\n      pop\n        /* \"#utility.yul\":2795:2798   */\n      dup6\n        /* \"#utility.yul\":2788:2798   */\n      swap4\n      pop\n        /* \"#utility.yul\":2196:2804   */\n      pop\n      pop\n      pop\n        /* \"#utility.yul\":2072:2804   */\n      swap3\n      swap2\n      pop\n      pop\n      jump\t// out\n        /* \"#utility.yul\":2810:2924   */\n    tag_425:\n        /* \"#utility.yul\":2877:2883   */\n      0x00\n        /* \"#utility.yul\":2911:2916   */\n      dup2\n        /* \"#utility.yul\":2905:2917   */\n      mload\n        /* \"#utility.yul\":2895:2917   */\n      swap1\n      pop\n        /* \"#utility.yul\":2810:2924   */\n      swap2\n      swap1\n      pop\n      jump\t// out\n        /* \"#utility.yul\":2930:3114   */\n    tag_426:\n        /* \"#utility.yul\":3029:3040   */\n      0x00\n        /* \"#utility.yul\":3063:3069   */\n      dup3\n        /* \"#utility.yul\":3058:3061   */\n      dup3\n        /* \"#utility.yul\":3051:3070   */\n      mstore\n        /* \"#utility.yul\":3103:3107   */\n      0x20\n        /* \"#utility.yul\":3098:3101   */\n      dup3\n        /* \"#utility.yul\":3094:3108   */\n      add\n        /* \"#utility.yul\":3079:3108   */\n      swap1\n      pop\n        /* \"#utility.yul\":2930:3114   */\n      swap3\n      swap2\n      pop\n      pop\n      jump\t// out\n        /* \"#utility.yul\":3120:3252   */\n    tag_427:\n        /* \"#utility.yul\":3187:3191   */\n      0x00\n        /* \"#utility.yul\":3210:3213   */\n      dup2\n        /* \"#utility.yul\":3202:3213   */\n      swap1\n      pop\n        /* \"#utility.yul\":3240:3244   */\n      0x20\n        /* \"#utility.yul\":3235:3238   */\n      dup3\n        /* \"#utility.yul\":3231:3245   */\n      add\n        /* \"#utility.yul\":3223:3245   */\n      swap1\n      pop\n        /* \"#utility.yul\":3120:3252   */\n      swap2\n      swap1\n      pop\n      jump\t// out\n        /* \"#utility.yul\":3258:3335   */\n    tag_428:\n        /* \"#utility.yul\":3295:3302   */\n      0x00\n        /* \"#utility.yul\":3324:3329   */\n      dup2\n        /* \"#utility.yul\":3313:3329   */\n      swap1\n      pop\n        /* \"#utility.yul\":3258:3335   */\n      swap2\n      swap1\n      pop\n      jump\t// out\n        /* \"#utility.yul\":3341:3449   */\n    tag_429:\n        /* \"#utility.yul\":3418:3442   */\n      tag_546\n        /* \"#utility.yul\":3436:3441   */\n      dup2\n        /* \"#utility.yul\":3418:3442   */\n      tag_428\n      jump\t// in\n    tag_546:\n        /* \"#utility.yul\":3413:3416   */\n      dup3\n        /* \"#utility.yul\":3406:3443   */\n      mstore\n        /* \"#utility.yul\":3341:3449   */\n      pop\n      pop\n      jump\t// out\n        /* \"#utility.yul\":3455:3634   */\n    tag_430:\n        /* \"#utility.yul\":3524:3534   */\n      0x00\n        /* \"#utility.yul\":3545:3591   */\n      tag_548\n        /* \"#utility.yul\":3587:3590   */\n      dup4\n        /* \"#utility.yul\":3579:3585   */\n      dup4\n        /* \"#utility.yul\":3545:3591   */\n      tag_429\n      jump\t// in\n    tag_548:\n        /* \"#utility.yul\":3623:3627   */\n      0x20\n        /* \"#utility.yul\":3618:3621   */\n      dup4\n        /* \"#utility.yul\":3614:3628   */\n      add\n        /* \"#utility.yul\":3600:3628   */\n      swap1\n      pop\n        /* \"#utility.yul\":3455:3634   */\n      swap3\n      swap2\n      pop\n      pop\n      jump\t// out\n        /* \"#utility.yul\":3640:3753   */\n    tag_431:\n        /* \"#utility.yul\":3710:3714   */\n      0x00\n        /* \"#utility.yul\":3742:3746   */\n      0x20\n        /* \"#utility.yul\":3737:3740   */\n      dup3\n        /* \"#utility.yul\":3733:3747   */\n      add\n        /* \"#utility.yul\":3725:3747   */\n      swap1\n      pop\n        /* \"#utility.yul\":3640:3753   */\n      swap2\n      swap1\n      pop\n      jump\t// out\n        /* \"#utility.yul\":3789:4521   */\n    tag_432:\n        /* \"#utility.yul\":3908:3911   */\n      0x00\n        /* \"#utility.yul\":3937:3991   */\n      tag_551\n        /* \"#utility.yul\":3985:3990   */\n      dup3\n        /* \"#utility.yul\":3937:3991   */\n      tag_425\n      jump\t// in\n    tag_551:\n        /* \"#utility.yul\":4007:4093   */\n      tag_552\n        /* \"#utility.yul\":4086:4092   */\n      dup2\n        /* \"#utility.yul\":4081:4084   */\n      dup6\n        /* \"#utility.yul\":4007:4093   */\n      tag_426\n      jump\t// in\n    tag_552:\n        /* \"#utility.yul\":4000:4093   */\n      swap4\n      pop\n        /* \"#utility.yul\":4117:4173   */\n      tag_553\n        /* \"#utility.yul\":4167:4172   */\n      dup4\n        /* \"#utility.yul\":4117:4173   */\n      tag_427\n      jump\t// in\n    tag_553:\n        /* \"#utility.yul\":4196:4203   */\n      dup1\n        /* \"#utility.yul\":4227:4228   */\n      0x00\n        /* \"#utility.yul\":4212:4496   */\n    tag_554:\n        /* \"#utility.yul\":4237:4243   */\n      dup4\n        /* \"#utility.yul\":4234:4235   */\n      dup2\n        /* \"#utility.yul\":4231:4244   */\n      lt\n        /* \"#utility.yul\":4212:4496   */\n      iszero\n      tag_556\n      jumpi\n        /* \"#utility.yul\":4313:4319   */\n      dup2\n        /* \"#utility.yul\":4307:4320   */\n      mload\n        /* \"#utility.yul\":4340:4403   */\n      tag_557\n        /* \"#utility.yul\":4399:4402   */\n      dup9\n        /* \"#utility.yul\":4384:4397   */\n      dup3\n        /* \"#utility.yul\":4340:4403   */\n      tag_430\n      jump\t// in\n    tag_557:\n        /* \"#utility.yul\":4333:4403   */\n      swap8\n      pop\n        /* \"#utility.yul\":4426:4486   */\n      tag_558\n        /* \"#utility.yul\":4479:4485   */\n      dup4\n        /* \"#utility.yul\":4426:4486   */\n      tag_431\n      jump\t// in\n    tag_558:\n        /* \"#utility.yul\":4416:4486   */\n      swap3\n      pop\n        /* \"#utility.yul\":4272:4496   */\n      pop\n        /* \"#utility.yul\":4259:4260   */\n      0x01\n        /* \"#utility.yul\":4256:4257   */\n      dup2\n        /* \"#utility.yul\":4252:4261   */\n      add\n        /* \"#utility.yul\":4247:4261   */\n      swap1\n      pop\n        /* \"#utility.yul\":4212:4496   */\n      jump(tag_554)\n    tag_556:\n        /* \"#utility.yul\":4216:4230   */\n      pop\n        /* \"#utility.yul\":4512:4515   */\n      dup6\n        /* \"#utility.yul\":4505:4515   */\n      swap4\n      pop\n        /* \"#utility.yul\":3913:4521   */\n      pop\n      pop\n      pop\n        /* \"#utility.yul\":3789:4521   */\n      swap3\n      swap2\n      pop\n      pop\n      jump\t// out\n        /* \"#utility.yul\":4527:5161   */\n    tag_34:\n        /* \"#utility.yul\":4748:4752   */\n      0x00\n        /* \"#utility.yul\":4786:4788   */\n      0x40\n        /* \"#utility.yul\":4775:4784   */\n      dup3\n        /* \"#utility.yul\":4771:4789   */\n      add\n        /* \"#utility.yul\":4763:4789   */\n      swap1\n      pop\n        /* \"#utility.yul\":4835:4844   */\n      dup2\n        /* \"#utility.yul\":4829:4833   */\n      dup2\n        /* \"#utility.yul\":4825:4845   */\n      sub\n        /* \"#utility.yul\":4821:4822   */\n      0x00\n        /* \"#utility.yul\":4810:4819   */\n      dup4\n        /* \"#utility.yul\":4806:4823   */\n      add\n        /* \"#utility.yul\":4799:4846   */\n      mstore\n        /* \"#utility.yul\":4863:4971   */\n      tag_560\n        /* \"#utility.yul\":4966:4970   */\n      dup2\n        /* \"#utility.yul\":4957:4963   */\n      dup6\n        /* \"#utility.yul\":4863:4971   */\n      tag_424\n      jump\t// in\n    tag_560:\n        /* \"#utility.yul\":4855:4971   */\n      swap1\n      pop\n        /* \"#utility.yul\":5018:5027   */\n      dup2\n        /* \"#utility.yul\":5012:5016   */\n      dup2\n        /* \"#utility.yul\":5008:5028   */\n      sub\n        /* \"#utility.yul\":5003:5005   */\n      0x20\n        /* \"#utility.yul\":4992:5001   */\n      dup4\n        /* \"#utility.yul\":4988:5006   */\n      add\n        /* \"#utility.yul\":4981:5029   */\n      mstore\n        /* \"#utility.yul\":5046:5154   */\n      tag_561\n        /* \"#utility.yul\":5149:5153   */\n      dup2\n        /* \"#utility.yul\":5140:5146   */\n      dup5\n        /* \"#utility.yul\":5046:5154   */\n      tag_432\n      jump\t// in\n    tag_561:\n        /* \"#utility.yul\":5038:5154   */\n      swap1\n      pop\n        /* \"#utility.yul\":4527:5161   */\n      swap4\n      swap3\n      pop\n      pop\n      pop\n      jump\t// out\n        /* \"#utility.yul\":5167:5266   */\n    tag_433:\n        /* \"#utility.yul\":5219:5225   */\n      0x00\n        /* \"#utility.yul\":5253:5258   */\n      dup2\n        /* \"#utility.yul\":5247:5259   */\n      mload\n        /* \"#utility.yul\":5237:5259   */\n      swap1\n      pop\n        /* \"#utility.yul\":5167:5266   */\n      swap2\n      swap1\n      pop\n      jump\t// out\n        /* \"#utility.yul\":5272:5441   */\n    tag_434:\n        /* \"#utility.yul\":5356:5367   */\n      0x00\n        /* \"#utility.yul\":5390:5396   */\n      dup3\n        /* \"#utility.yul\":5385:5388   */\n      dup3\n        /* \"#utility.yul\":5378:5397   */\n      mstore\n        /* \"#utility.yul\":5430:5434   */\n      0x20\n        /* \"#utility.yul\":5425:5428   */\n      dup3\n        /* \"#utility.yul\":5421:5435   */\n      add\n        /* \"#utility.yul\":5406:5435   */\n      swap1\n      pop\n        /* \"#utility.yul\":5272:5441   */\n      swap3\n      swap2\n      pop\n      pop\n      jump\t// out\n        /* \"#utility.yul\":5447:5586   */\n    tag_435:\n        /* \"#utility.yul\":5536:5542   */\n      dup3\n        /* \"#utility.yul\":5531:5534   */\n      dup2\n        /* \"#utility.yul\":5526:5529   */\n      dup4\n        /* \"#utility.yul\":5520:5543   */\n      mcopy\n        /* \"#utility.yul\":5577:5578   */\n      0x00\n        /* \"#utility.yul\":5568:5574   */\n      dup4\n        /* \"#utility.yul\":5563:5566   */\n      dup4\n        /* \"#utility.yul\":5559:5575   */\n      add\n        /* \"#utility.yul\":5552:5579   */\n      mstore\n        /* \"#utility.yul\":5447:5586   */\n      pop\n      pop\n      pop\n      jump\t// out\n        /* \"#utility.yul\":5592:5694   */\n    tag_436:\n        /* \"#utility.yul\":5633:5639   */\n      0x00\n        /* \"#utility.yul\":5684:5686   */\n      0x1f\n        /* \"#utility.yul\":5680:5687   */\n      not\n        /* \"#utility.yul\":5675:5677   */\n      0x1f\n        /* \"#utility.yul\":5668:5673   */\n      dup4\n        /* \"#utility.yul\":5664:5678   */\n      add\n        /* \"#utility.yul\":5660:5688   */\n      and\n        /* \"#utility.yul\":5650:5688   */\n      swap1\n      pop\n        /* \"#utility.yul\":5592:5694   */\n      swap2\n      swap1\n      pop\n      jump\t// out\n        /* \"#utility.yul\":5700:6077   */\n    tag_437:\n        /* \"#utility.yul\":5788:5791   */\n      0x00\n        /* \"#utility.yul\":5816:5855   */\n      tag_567\n        /* \"#utility.yul\":5849:5854   */\n      dup3\n        /* \"#utility.yul\":5816:5855   */\n      tag_433\n      jump\t// in\n    tag_567:\n        /* \"#utility.yul\":5871:5942   */\n      tag_568\n        /* \"#utility.yul\":5935:5941   */\n      dup2\n        /* \"#utility.yul\":5930:5933   */\n      dup6\n        /* \"#utility.yul\":5871:5942   */\n      tag_434\n      jump\t// in\n    tag_568:\n        /* \"#utility.yul\":5864:5942   */\n      swap4\n      pop\n        /* \"#utility.yul\":5951:6016   */\n      tag_569\n        /* \"#utility.yul\":6009:6015   */\n      dup2\n        /* \"#utility.yul\":6004:6007   */\n      dup6\n        /* \"#utility.yul\":5997:6001   */\n      0x20\n        /* \"#utility.yul\":5990:5995   */\n      dup7\n        /* \"#utility.yul\":5986:6002   */\n      add\n        /* \"#utility.yul\":5951:6016   */\n      tag_435\n      jump\t// in\n    tag_569:\n        /* \"#utility.yul\":6041:6070   */\n      tag_570\n        /* \"#utility.yul\":6063:6069   */\n      dup2\n        /* \"#utility.yul\":6041:6070   */\n      tag_436\n      jump\t// in\n    tag_570:\n        /* \"#utility.yul\":6036:6039   */\n      dup5\n        /* \"#utility.yul\":6032:6071   */\n      add\n        /* \"#utility.yul\":6025:6071   */\n      swap2\n      pop\n        /* \"#utility.yul\":5792:6077   */\n      pop\n        /* \"#utility.yul\":5700:6077   */\n      swap3\n      swap2\n      pop\n      pop\n      jump\t// out\n        /* \"#utility.yul\":6083:6201   */\n    tag_438:\n        /* \"#utility.yul\":6170:6194   */\n      tag_572\n        /* \"#utility.yul\":6188:6193   */\n      dup2\n        /* \"#utility.yul\":6170:6194   */\n      tag_428\n      jump\t// in\n    tag_572:\n        /* \"#utility.yul\":6165:6168   */\n      dup3\n        /* \"#utility.yul\":6158:6195   */\n      mstore\n        /* \"#utility.yul\":6083:6201   */\n      pop\n      pop\n      jump\t// out\n        /* \"#utility.yul\":6207:6297   */\n    tag_439:\n        /* \"#utility.yul\":6241:6248   */\n      0x00\n        /* \"#utility.yul\":6284:6289   */\n      dup2\n        /* \"#utility.yul\":6277:6290   */\n      iszero\n        /* \"#utility.yul\":6270:6291   */\n      iszero\n        /* \"#utility.yul\":6259:6291   */\n      swap1\n      pop\n        /* \"#utility.yul\":6207:6297   */\n      swap2\n      swap1\n      pop\n      jump\t// out\n        /* \"#utility.yul\":6303:6412   */\n    tag_440:\n        /* \"#utility.yul\":6384:6405   */\n      tag_575\n        /* \"#utility.yul\":6399:6404   */\n      dup2\n        /* \"#utility.yul\":6384:6405   */\n      tag_439\n      jump\t// in\n    tag_575:\n        /* \"#utility.yul\":6379:6382   */\n      dup3\n        /* \"#utility.yul\":6372:6406   */\n      mstore\n        /* \"#utility.yul\":6303:6412   */\n      pop\n      pop\n      jump\t// out\n        /* \"#utility.yul\":6418:7383   */\n    tag_40:\n        /* \"#utility.yul\":6693:6697   */\n      0x00\n        /* \"#utility.yul\":6731:6734   */\n      0xe0\n        /* \"#utility.yul\":6720:6729   */\n      dup3\n        /* \"#utility.yul\":6716:6735   */\n      add\n        /* \"#utility.yul\":6708:6735   */\n      swap1\n      pop\n        /* \"#utility.yul\":6781:6790   */\n      dup2\n        /* \"#utility.yul\":6775:6779   */\n      dup2\n        /* \"#utility.yul\":6771:6791   */\n      sub\n        /* \"#utility.yul\":6767:6768   */\n      0x00\n        /* \"#utility.yul\":6756:6765   */\n      dup4\n        /* \"#utility.yul\":6752:6769   */\n      add\n        /* \"#utility.yul\":6745:6792   */\n      mstore\n        /* \"#utility.yul\":6809:6887   */\n      tag_577\n        /* \"#utility.yul\":6882:6886   */\n      dup2\n        /* \"#utility.yul\":6873:6879   */\n      dup11\n        /* \"#utility.yul\":6809:6887   */\n      tag_437\n      jump\t// in\n    tag_577:\n        /* \"#utility.yul\":6801:6887   */\n      swap1\n      pop\n        /* \"#utility.yul\":6897:6969   */\n      tag_578\n        /* \"#utility.yul\":6965:6967   */\n      0x20\n        /* \"#utility.yul\":6954:6963   */\n      dup4\n        /* \"#utility.yul\":6950:6968   */\n      add\n        /* \"#utility.yul\":6941:6947   */\n      dup10\n        /* \"#utility.yul\":6897:6969   */\n      tag_438\n      jump\t// in\n    tag_578:\n        /* \"#utility.yul\":6979:7051   */\n      tag_579\n        /* \"#utility.yul\":7047:7049   */\n      0x40\n        /* \"#utility.yul\":7036:7045   */\n      dup4\n        /* \"#utility.yul\":7032:7050   */\n      add\n        /* \"#utility.yul\":7023:7029   */\n      dup9\n        /* \"#utility.yul\":6979:7051   */\n      tag_438\n      jump\t// in\n    tag_579:\n        /* \"#utility.yul\":7061:7133   */\n      tag_580\n        /* \"#utility.yul\":7129:7131   */\n      0x60\n        /* \"#utility.yul\":7118:7127   */\n      dup4\n        /* \"#utility.yul\":7114:7132   */\n      add\n        /* \"#utility.yul\":7105:7111   */\n      dup8\n        /* \"#utility.yul\":7061:7133   */\n      tag_438\n      jump\t// in\n    tag_580:\n        /* \"#utility.yul\":7143:7216   */\n      tag_581\n        /* \"#utility.yul\":7211:7214   */\n      0x80\n        /* \"#utility.yul\":7200:7209   */\n      dup4\n        /* \"#utility.yul\":7196:7215   */\n      add\n        /* \"#utility.yul\":7187:7193   */\n      dup7\n        /* \"#utility.yul\":7143:7216   */\n      tag_438\n      jump\t// in\n    tag_581:\n        /* \"#utility.yul\":7226:7299   */\n      tag_582\n        /* \"#utility.yul\":7294:7297   */\n      0xa0\n        /* \"#utility.yul\":7283:7292   */\n      dup4\n        /* \"#utility.yul\":7279:7298   */\n      add\n        /* \"#utility.yul\":7270:7276   */\n      dup6\n        /* \"#utility.yul\":7226:7299   */\n      tag_438\n      jump\t// in\n    tag_582:\n        /* \"#utility.yul\":7309:7376   */\n      tag_583\n        /* \"#utility.yul\":7371:7374   */\n      0xc0\n        /* \"#utility.yul\":7360:7369   */\n      dup4\n        /* \"#utility.yul\":7356:7375   */\n      add\n        /* \"#utility.yul\":7347:7353   */\n      dup5\n        /* \"#utility.yul\":7309:7376   */\n      tag_440\n      jump\t// in\n    tag_583:\n        /* \"#utility.yul\":6418:7383   */\n      swap9\n      swap8\n      pop\n      pop\n      pop\n      pop\n      pop\n      pop\n      pop\n      pop\n      jump\t// out\n        /* \"#utility.yul\":7389:7511   */\n    tag_441:\n        /* \"#utility.yul\":7462:7486   */\n      tag_585\n        /* \"#utility.yul\":7480:7485   */\n      dup2\n        /* \"#utility.yul\":7462:7486   */\n      tag_428\n      jump\t// in\n    tag_585:\n        /* \"#utility.yul\":7455:7460   */\n      dup2\n        /* \"#utility.yul\":7452:7487   */\n      eq\n        /* \"#utility.yul\":7442:7505   */\n      tag_586\n      jumpi\n        /* \"#utility.yul\":7501:7502   */\n      0x00\n        /* \"#utility.yul\":7498:7499   */\n      dup1\n        /* \"#utility.yul\":7491:7503   */\n      revert\n        /* \"#utility.yul\":7442:7505   */\n    tag_586:\n        /* \"#utility.yul\":7389:7511   */\n      pop\n      jump\t// out\n        /* \"#utility.yul\":7517:7656   */\n    tag_442:\n        /* \"#utility.yul\":7563:7568   */\n      0x00\n        /* \"#utility.yul\":7601:7607   */\n      dup2\n        /* \"#utility.yul\":7588:7608   */\n      calldataload\n        /* \"#utility.yul\":7579:7608   */\n      swap1\n      pop\n        /* \"#utility.yul\":7617:7650   */\n      tag_588\n        /* \"#utility.yul\":7644:7649   */\n      dup2\n        /* \"#utility.yul\":7617:7650   */\n      tag_441\n      jump\t// in\n    tag_588:\n        /* \"#utility.yul\":7517:7656   */\n      swap3\n      swap2\n      pop\n      pop\n      jump\t// out\n        /* \"#utility.yul\":7662:8136   */\n    tag_44:\n        /* \"#utility.yul\":7730:7736   */\n      0x00\n        /* \"#utility.yul\":7738:7744   */\n      dup1\n        /* \"#utility.yul\":7787:7789   */\n      0x40\n        /* \"#utility.yul\":7775:7784   */\n      dup4\n        /* \"#utility.yul\":7766:7773   */\n      dup6\n        /* \"#utility.yul\":7762:7785   */\n      sub\n        /* \"#utility.yul\":7758:7790   */\n      slt\n        /* \"#utility.yul\":7755:7874   */\n      iszero\n      tag_590\n      jumpi\n        /* \"#utility.yul\":7793:7872   */\n      tag_591\n      tag_412\n      jump\t// in\n    tag_591:\n        /* \"#utility.yul\":7755:7874   */\n    tag_590:\n        /* \"#utility.yul\":7913:7914   */\n      0x00\n        /* \"#utility.yul\":7938:7991   */\n      tag_592\n        /* \"#utility.yul\":7983:7990   */\n      dup6\n        /* \"#utility.yul\":7974:7980   */\n      dup3\n        /* \"#utility.yul\":7963:7972   */\n      dup7\n        /* \"#utility.yul\":7959:7981   */\n      add\n        /* \"#utility.yul\":7938:7991   */\n      tag_417\n      jump\t// in\n    tag_592:\n        /* \"#utility.yul\":7928:7991   */\n      swap3\n      pop\n        /* \"#utility.yul\":7884:8001   */\n      pop\n        /* \"#utility.yul\":8040:8042   */\n      0x20\n        /* \"#utility.yul\":8066:8119   */\n      tag_593\n        /* \"#utility.yul\":8111:8118   */\n      dup6\n        /* \"#utility.yul\":8102:8108   */\n      dup3\n        /* \"#utility.yul\":8091:8100   */\n      dup7\n        /* \"#utility.yul\":8087:8109   */\n      add\n        /* \"#utility.yul\":8066:8119   */\n      tag_442\n      jump\t// in\n    tag_593:\n        /* \"#utility.yul\":8056:8119   */\n      swap2\n      pop\n        /* \"#utility.yul\":8011:8129   */\n      pop\n        /* \"#utility.yul\":7662:8136   */\n      swap3\n      pop\n      swap3\n      swap1\n      pop\n      jump\t// out\n        /* \"#utility.yul\":8142:8364   */\n    tag_51:\n        /* \"#utility.yul\":8235:8239   */\n      0x00\n        /* \"#utility.yul\":8273:8275   */\n      0x20\n        /* \"#utility.yul\":8262:8271   */\n      dup3\n        /* \"#utility.yul\":8258:8276   */\n      add\n        /* \"#utility.yul\":8250:8276   */\n      swap1\n      pop\n        /* \"#utility.yul\":8286:8357   */\n      tag_595\n        /* \"#utility.yul\":8354:8355   */\n      0x00\n        /* \"#utility.yul\":8343:8352   */\n      dup4\n        /* \"#utility.yul\":8339:8356   */\n      add\n        /* \"#utility.yul\":8330:8336   */\n      dup5\n        /* \"#utility.yul\":8286:8357   */\n      tag_438\n      jump\t// in\n    tag_595:\n        /* \"#utility.yul\":8142:8364   */\n      swap3\n      swap2\n      pop\n      pop\n      jump\t// out\n        /* \"#utility.yul\":8370:8487   */\n    tag_443:\n        /* \"#utility.yul\":8479:8480   */\n      0x00\n        /* \"#utility.yul\":8476:8477   */\n      dup1\n        /* \"#utility.yul\":8469:8481   */\n      revert\n        /* \"#utility.yul\":8493:8610   */\n    tag_444:\n        /* \"#utility.yul\":8602:8603   */\n      0x00\n        /* \"#utility.yul\":8599:8600   */\n      dup1\n        /* \"#utility.yul\":8592:8604   */\n      revert\n        /* \"#utility.yul\":8616:8796   */\n    tag_164:\n        /* \"#utility.yul\":8664:8741   */\n      0x4e487b7100000000000000000000000000000000000000000000000000000000\n        /* \"#utility.yul\":8661:8662   */\n      0x00\n        /* \"#utility.yul\":8654:8742   */\n      mstore\n        /* \"#utility.yul\":8761:8765   */\n      0x41\n        /* \"#utility.yul\":8758:8759   */\n      0x04\n        /* \"#utility.yul\":8751:8766   */\n      mstore\n        /* \"#utility.yul\":8785:8789   */\n      0x24\n        /* \"#utility.yul\":8782:8783   */\n      0x00\n        /* \"#utility.yul\":8775:8790   */\n      revert\n        /* \"#utility.yul\":8802:9083   */\n    tag_445:\n        /* \"#utility.yul\":8885:8912   */\n      tag_600\n        /* \"#utility.yul\":8907:8911   */\n      dup3\n        /* \"#utility.yul\":8885:8912   */\n      tag_436\n      jump\t// in\n    tag_600:\n        /* \"#utility.yul\":8877:8883   */\n      dup2\n        /* \"#utility.yul\":8873:8913   */\n      add\n        /* \"#utility.yul\":9015:9021   */\n      dup2\n        /* \"#utility.yul\":9003:9013   */\n      dup2\n        /* \"#utility.yul\":9000:9022   */\n      lt\n        /* \"#utility.yul\":8979:8997   */\n      0xffffffffffffffff\n        /* \"#utility.yul\":8967:8977   */\n      dup3\n        /* \"#utility.yul\":8964:8998   */\n      gt\n        /* \"#utility.yul\":8961:9023   */\n      or\n        /* \"#utility.yul\":8958:9046   */\n      iszero\n      tag_601\n      jumpi\n        /* \"#utility.yul\":9026:9044   */\n      tag_602\n      tag_164\n      jump\t// in\n    tag_602:\n        /* \"#utility.yul\":8958:9046   */\n    tag_601:\n        /* \"#utility.yul\":9066:9076   */\n      dup1\n        /* \"#utility.yul\":9062:9064   */\n      0x40\n        /* \"#utility.yul\":9055:9077   */\n      mstore\n        /* \"#utility.yul\":8845:9083   */\n      pop\n        /* \"#utility.yul\":8802:9083   */\n      pop\n      pop\n      jump\t// out\n        /* \"#utility.yul\":9089:9218   */\n    tag_446:\n        /* \"#utility.yul\":9123:9129   */\n      0x00\n        /* \"#utility.yul\":9150:9170   */\n      tag_604\n      tag_411\n      jump\t// in\n    tag_604:\n        /* \"#utility.yul\":9140:9170   */\n      swap1\n      pop\n        /* \"#utility.yul\":9179:9212   */\n      tag_605\n        /* \"#utility.yul\":9207:9211   */\n      dup3\n        /* \"#utility.yul\":9199:9205   */\n      dup3\n        /* \"#utility.yul\":9179:9212   */\n      tag_445\n      jump\t// in\n    tag_605:\n        /* \"#utility.yul\":9089:9218   */\n      swap2\n      swap1\n      pop\n      jump\t// out\n        /* \"#utility.yul\":9224:9532   */\n    tag_447:\n        /* \"#utility.yul\":9286:9290   */\n      0x00\n        /* \"#utility.yul\":9376:9394   */\n      0xffffffffffffffff\n        /* \"#utility.yul\":9368:9374   */\n      dup3\n        /* \"#utility.yul\":9365:9395   */\n      gt\n        /* \"#utility.yul\":9362:9418   */\n      iszero\n      tag_607\n      jumpi\n        /* \"#utility.yul\":9398:9416   */\n      tag_608\n      tag_164\n      jump\t// in\n    tag_608:\n        /* \"#utility.yul\":9362:9418   */\n    tag_607:\n        /* \"#utility.yul\":9436:9465   */\n      tag_609\n        /* \"#utility.yul\":9458:9464   */\n      dup3\n        /* \"#utility.yul\":9436:9465   */\n      tag_436\n      jump\t// in\n    tag_609:\n        /* \"#utility.yul\":9428:9465   */\n      swap1\n      pop\n        /* \"#utility.yul\":9520:9524   */\n      0x20\n        /* \"#utility.yul\":9514:9518   */\n      dup2\n        /* \"#utility.yul\":9510:9525   */\n      add\n        /* \"#utility.yul\":9502:9525   */\n      swap1\n      pop\n        /* \"#utility.yul\":9224:9532   */\n      swap2\n      swap1\n      pop\n      jump\t// out\n        /* \"#utility.yul\":9538:9686   */\n    tag_448:\n        /* \"#utility.yul\":9636:9642   */\n      dup3\n        /* \"#utility.yul\":9631:9634   */\n      dup2\n        /* \"#utility.yul\":9626:9629   */\n      dup4\n        /* \"#utility.yul\":9613:9643   */\n      calldatacopy\n        /* \"#utility.yul\":9677:9678   */\n      0x00\n        /* \"#utility.yul\":9668:9674   */\n      dup4\n        /* \"#utility.yul\":9663:9666   */\n      dup4\n        /* \"#utility.yul\":9659:9675   */\n      add\n        /* \"#utility.yul\":9652:9679   */\n      mstore\n        /* \"#utility.yul\":9538:9686   */\n      pop\n      pop\n      pop\n      jump\t// out\n        /* \"#utility.yul\":9692:10117   */\n    tag_449:\n        /* \"#utility.yul\":9770:9775   */\n      0x00\n        /* \"#utility.yul\":9795:9861   */\n      tag_612\n        /* \"#utility.yul\":9811:9860   */\n      tag_613\n        /* \"#utility.yul\":9853:9859   */\n      dup5\n        /* \"#utility.yul\":9811:9860   */\n      tag_447\n      jump\t// in\n    tag_613:\n        /* \"#utility.yul\":9795:9861   */\n      tag_446\n      jump\t// in\n    tag_612:\n        /* \"#utility.yul\":9786:9861   */\n      swap1\n      pop\n        /* \"#utility.yul\":9884:9890   */\n      dup3\n        /* \"#utility.yul\":9877:9882   */\n      dup2\n        /* \"#utility.yul\":9870:9891   */\n      mstore\n        /* \"#utility.yul\":9922:9926   */\n      0x20\n        /* \"#utility.yul\":9915:9920   */\n      dup2\n        /* \"#utility.yul\":9911:9927   */\n      add\n        /* \"#utility.yul\":9960:9963   */\n      dup5\n        /* \"#utility.yul\":9951:9957   */\n      dup5\n        /* \"#utility.yul\":9946:9949   */\n      dup5\n        /* \"#utility.yul\":9942:9958   */\n      add\n        /* \"#utility.yul\":9939:9964   */\n      gt\n        /* \"#utility.yul\":9936:10048   */\n      iszero\n      tag_614\n      jumpi\n        /* \"#utility.yul\":9967:10046   */\n      tag_615\n      tag_444\n      jump\t// in\n    tag_615:\n        /* \"#utility.yul\":9936:10048   */\n    tag_614:\n        /* \"#utility.yul\":10057:10111   */\n      tag_616\n        /* \"#utility.yul\":10104:10110   */\n      dup5\n        /* \"#utility.yul\":10099:10102   */\n      dup3\n        /* \"#utility.yul\":10094:10097   */\n      dup6\n        /* \"#utility.yul\":10057:10111   */\n      tag_448\n      jump\t// in\n    tag_616:\n        /* \"#utility.yul\":9776:10117   */\n      pop\n        /* \"#utility.yul\":9692:10117   */\n      swap4\n      swap3\n      pop\n      pop\n      pop\n      jump\t// out\n        /* \"#utility.yul\":10137:10477   */\n    tag_450:\n        /* \"#utility.yul\":10193:10198   */\n      0x00\n        /* \"#utility.yul\":10242:10245   */\n      dup3\n        /* \"#utility.yul\":10235:10239   */\n      0x1f\n        /* \"#utility.yul\":10227:10233   */\n      dup4\n        /* \"#utility.yul\":10223:10240   */\n      add\n        /* \"#utility.yul\":10219:10246   */\n      slt\n        /* \"#utility.yul\":10209:10331   */\n      tag_618\n      jumpi\n        /* \"#utility.yul\":10250:10329   */\n      tag_619\n      tag_443\n      jump\t// in\n    tag_619:\n        /* \"#utility.yul\":10209:10331   */\n    tag_618:\n        /* \"#utility.yul\":10367:10373   */\n      dup2\n        /* \"#utility.yul\":10354:10374   */\n      calldataload\n        /* \"#utility.yul\":10392:10471   */\n      tag_620\n        /* \"#utility.yul\":10467:10470   */\n      dup5\n        /* \"#utility.yul\":10459:10465   */\n      dup3\n        /* \"#utility.yul\":10452:10456   */\n      0x20\n        /* \"#utility.yul\":10444:10450   */\n      dup7\n        /* \"#utility.yul\":10440:10457   */\n      add\n        /* \"#utility.yul\":10392:10471   */\n      tag_449\n      jump\t// in\n    tag_620:\n        /* \"#utility.yul\":10383:10471   */\n      swap2\n      pop\n        /* \"#utility.yul\":10199:10477   */\n      pop\n        /* \"#utility.yul\":10137:10477   */\n      swap3\n      swap2\n      pop\n      pop\n      jump\t// out\n        /* \"#utility.yul\":10483:11137   */\n    tag_59:\n        /* \"#utility.yul\":10561:10567   */\n      0x00\n        /* \"#utility.yul\":10569:10575   */\n      dup1\n        /* \"#utility.yul\":10618:10620   */\n      0x40\n        /* \"#utility.yul\":10606:10615   */\n      dup4\n        /* \"#utility.yul\":10597:10604   */\n      dup6\n        /* \"#utility.yul\":10593:10616   */\n      sub\n        /* \"#utility.yul\":10589:10621   */\n      slt\n        /* \"#utility.yul\":10586:10705   */\n      iszero\n      tag_622\n      jumpi\n        /* \"#utility.yul\":10624:10703   */\n      tag_623\n      tag_412\n      jump\t// in\n    tag_623:\n        /* \"#utility.yul\":10586:10705   */\n    tag_622:\n        /* \"#utility.yul\":10772:10773   */\n      0x00\n        /* \"#utility.yul\":10761:10770   */\n      dup4\n        /* \"#utility.yul\":10757:10774   */\n      add\n        /* \"#utility.yul\":10744:10775   */\n      calldataload\n        /* \"#utility.yul\":10802:10820   */\n      0xffffffffffffffff\n        /* \"#utility.yul\":10794:10800   */\n      dup2\n        /* \"#utility.yul\":10791:10821   */\n      gt\n        /* \"#utility.yul\":10788:10905   */\n      iszero\n      tag_624\n      jumpi\n        /* \"#utility.yul\":10824:10903   */\n      tag_625\n      tag_413\n      jump\t// in\n    tag_625:\n        /* \"#utility.yul\":10788:10905   */\n    tag_624:\n        /* \"#utility.yul\":10929:10992   */\n      tag_626\n        /* \"#utility.yul\":10984:10991   */\n      dup6\n        /* \"#utility.yul\":10975:10981   */\n      dup3\n        /* \"#utility.yul\":10964:10973   */\n      dup7\n        /* \"#utility.yul\":10960:10982   */\n      add\n        /* \"#utility.yul\":10929:10992   */\n      tag_450\n      jump\t// in\n    tag_626:\n        /* \"#utility.yul\":10919:10992   */\n      swap3\n      pop\n        /* \"#utility.yul\":10715:11002   */\n      pop\n        /* \"#utility.yul\":11041:11043   */\n      0x20\n        /* \"#utility.yul\":11067:11120   */\n      tag_627\n        /* \"#utility.yul\":11112:11119   */\n      dup6\n        /* \"#utility.yul\":11103:11109   */\n      dup3\n        /* \"#utility.yul\":11092:11101   */\n      dup7\n        /* \"#utility.yul\":11088:11110   */\n      add\n        /* \"#utility.yul\":11067:11120   */\n      tag_442\n      jump\t// in\n    tag_627:\n        /* \"#utility.yul\":11057:11120   */\n      swap2\n      pop\n        /* \"#utility.yul\":11012:11130   */\n      pop\n        /* \"#utility.yul\":10483:11137   */\n      swap3\n      pop\n      swap3\n      swap1\n      pop\n      jump\t// out\n        /* \"#utility.yul\":11143:11267   */\n    tag_451:\n        /* \"#utility.yul\":11220:11226   */\n      0x00\n        /* \"#utility.yul\":11254:11259   */\n      dup2\n        /* \"#utility.yul\":11248:11260   */\n      mload\n        /* \"#utility.yul\":11238:11260   */\n      swap1\n      pop\n        /* \"#utility.yul\":11143:11267   */\n      swap2\n      swap1\n      pop\n      jump\t// out\n        /* \"#utility.yul\":11273:11467   */\n    tag_452:\n        /* \"#utility.yul\":11382:11393   */\n      0x00\n        /* \"#utility.yul\":11416:11422   */\n      dup3\n        /* \"#utility.yul\":11411:11414   */\n      dup3\n        /* \"#utility.yul\":11404:11423   */\n      mstore\n        /* \"#utility.yul\":11456:11460   */\n      0x20\n        /* \"#utility.yul\":11451:11454   */\n      dup3\n        /* \"#utility.yul\":11447:11461   */\n      add\n        /* \"#utility.yul\":11432:11461   */\n      swap1\n      pop\n        /* \"#utility.yul\":11273:11467   */\n      swap3\n      swap2\n      pop\n      pop\n      jump\t// out\n        /* \"#utility.yul\":11473:11615   */\n    tag_453:\n        /* \"#utility.yul\":11550:11554   */\n      0x00\n        /* \"#utility.yul\":11573:11576   */\n      dup2\n        /* \"#utility.yul\":11565:11576   */\n      swap1\n      pop\n        /* \"#utility.yul\":11603:11607   */\n      0x20\n        /* \"#utility.yul\":11598:11601   */\n      dup3\n        /* \"#utility.yul\":11594:11608   */\n      add\n        /* \"#utility.yul\":11586:11608   */\n      swap1\n      pop\n        /* \"#utility.yul\":11473:11615   */\n      swap2\n      swap1\n      pop\n      jump\t// out\n        /* \"#utility.yul\":11621:11780   */\n    tag_454:\n        /* \"#utility.yul\":11695:11706   */\n      0x00\n        /* \"#utility.yul\":11729:11735   */\n      dup3\n        /* \"#utility.yul\":11724:11727   */\n      dup3\n        /* \"#utility.yul\":11717:11736   */\n      mstore\n        /* \"#utility.yul\":11769:11773   */\n      0x20\n        /* \"#utility.yul\":11764:11767   */\n      dup3\n        /* \"#utility.yul\":11760:11774   */\n      add\n        /* \"#utility.yul\":11745:11774   */\n      swap1\n      pop\n        /* \"#utility.yul\":11621:11780   */\n      swap3\n      swap2\n      pop\n      pop\n      jump\t// out\n        /* \"#utility.yul\":11786:12143   */\n    tag_455:\n        /* \"#utility.yul\":11864:11867   */\n      0x00\n        /* \"#utility.yul\":11892:11931   */\n      tag_633\n        /* \"#utility.yul\":11925:11930   */\n      dup3\n        /* \"#utility.yul\":11892:11931   */\n      tag_433\n      jump\t// in\n    tag_633:\n        /* \"#utility.yul\":11947:12008   */\n      tag_634\n        /* \"#utility.yul\":12001:12007   */\n      dup2\n        /* \"#utility.yul\":11996:11999   */\n      dup6\n        /* \"#utility.yul\":11947:12008   */\n      tag_454\n      jump\t// in\n    tag_634:\n        /* \"#utility.yul\":11940:12008   */\n      swap4\n      pop\n        /* \"#utility.yul\":12017:12082   */\n      tag_635\n        /* \"#utility.yul\":12075:12081   */\n      dup2\n        /* \"#utility.yul\":12070:12073   */\n      dup6\n        /* \"#utility.yul\":12063:12067   */\n      0x20\n        /* \"#utility.yul\":12056:12061   */\n      dup7\n        /* \"#utility.yul\":12052:12068   */\n      add\n        /* \"#utility.yul\":12017:12082   */\n      tag_435\n      jump\t// in\n    tag_635:\n        /* \"#utility.yul\":12107:12136   */\n      tag_636\n        /* \"#utility.yul\":12129:12135   */\n      dup2\n        /* \"#utility.yul\":12107:12136   */\n      tag_436\n      jump\t// in\n    tag_636:\n        /* \"#utility.yul\":12102:12105   */\n      dup5\n        /* \"#utility.yul\":12098:12137   */\n      add\n        /* \"#utility.yul\":12091:12137   */\n      swap2\n      pop\n        /* \"#utility.yul\":11868:12143   */\n      pop\n        /* \"#utility.yul\":11786:12143   */\n      swap3\n      swap2\n      pop\n      pop\n      jump\t// out\n        /* \"#utility.yul\":12149:12345   */\n    tag_456:\n        /* \"#utility.yul\":12238:12248   */\n      0x00\n        /* \"#utility.yul\":12273:12339   */\n      tag_638\n        /* \"#utility.yul\":12335:12338   */\n      dup4\n        /* \"#utility.yul\":12327:12333   */\n      dup4\n        /* \"#utility.yul\":12273:12339   */\n      tag_455\n      jump\t// in\n    tag_638:\n        /* \"#utility.yul\":12259:12339   */\n      swap1\n      pop\n        /* \"#utility.yul\":12149:12345   */\n      swap3\n      swap2\n      pop\n      pop\n      jump\t// out\n        /* \"#utility.yul\":12351:12474   */\n    tag_457:\n        /* \"#utility.yul\":12431:12435   */\n      0x00\n        /* \"#utility.yul\":12463:12467   */\n      0x20\n        /* \"#utility.yul\":12458:12461   */\n      dup3\n        /* \"#utility.yul\":12454:12468   */\n      add\n        /* \"#utility.yul\":12446:12468   */\n      swap1\n      pop\n        /* \"#utility.yul\":12351:12474   */\n      swap2\n      swap1\n      pop\n      jump\t// out\n        /* \"#utility.yul\":12508:13499   */\n    tag_458:\n        /* \"#utility.yul\":12647:12650   */\n      0x00\n        /* \"#utility.yul\":12676:12740   */\n      tag_641\n        /* \"#utility.yul\":12734:12739   */\n      dup3\n        /* \"#utility.yul\":12676:12740   */\n      tag_451\n      jump\t// in\n    tag_641:\n        /* \"#utility.yul\":12756:12852   */\n      tag_642\n        /* \"#utility.yul\":12845:12851   */\n      dup2\n        /* \"#utility.yul\":12840:12843   */\n      dup6\n        /* \"#utility.yul\":12756:12852   */\n      tag_452\n      jump\t// in\n    tag_642:\n        /* \"#utility.yul\":12749:12852   */\n      swap4\n      pop\n        /* \"#utility.yul\":12878:12881   */\n      dup4\n        /* \"#utility.yul\":12923:12927   */\n      0x20\n        /* \"#utility.yul\":12915:12921   */\n      dup3\n        /* \"#utility.yul\":12911:12928   */\n      mul\n        /* \"#utility.yul\":12906:12909   */\n      dup6\n        /* \"#utility.yul\":12902:12929   */\n      add\n        /* \"#utility.yul\":12953:13019   */\n      tag_643\n        /* \"#utility.yul\":13013:13018   */\n      dup6\n        /* \"#utility.yul\":12953:13019   */\n      tag_453\n      jump\t// in\n    tag_643:\n        /* \"#utility.yul\":13042:13049   */\n      dup1\n        /* \"#utility.yul\":13073:13074   */\n      0x00\n        /* \"#utility.yul\":13058:13454   */\n    tag_644:\n        /* \"#utility.yul\":13083:13089   */\n      dup6\n        /* \"#utility.yul\":13080:13081   */\n      dup2\n        /* \"#utility.yul\":13077:13090   */\n      lt\n        /* \"#utility.yul\":13058:13454   */\n      iszero\n      tag_646\n      jumpi\n        /* \"#utility.yul\":13154:13163   */\n      dup5\n        /* \"#utility.yul\":13148:13152   */\n      dup5\n        /* \"#utility.yul\":13144:13164   */\n      sub\n        /* \"#utility.yul\":13139:13142   */\n      dup10\n        /* \"#utility.yul\":13132:13165   */\n      mstore\n        /* \"#utility.yul\":13205:13211   */\n      dup2\n        /* \"#utility.yul\":13199:13212   */\n      mload\n        /* \"#utility.yul\":13233:13317   */\n      tag_647\n        /* \"#utility.yul\":13312:13316   */\n      dup6\n        /* \"#utility.yul\":13297:13310   */\n      dup3\n        /* \"#utility.yul\":13233:13317   */\n      tag_456\n      jump\t// in\n    tag_647:\n        /* \"#utility.yul\":13225:13317   */\n      swap5\n      pop\n        /* \"#utility.yul\":13340:13410   */\n      tag_648\n        /* \"#utility.yul\":13403:13409   */\n      dup4\n        /* \"#utility.yul\":13340:13410   */\n      tag_457\n      jump\t// in\n    tag_648:\n        /* \"#utility.yul\":13330:13410   */\n      swap3\n      pop\n        /* \"#utility.yul\":13439:13443   */\n      0x20\n        /* \"#utility.yul\":13434:13437   */\n      dup11\n        /* \"#utility.yul\":13430:13444   */\n      add\n        /* \"#utility.yul\":13423:13444   */\n      swap10\n      pop\n        /* \"#utility.yul\":13118:13454   */\n      pop\n        /* \"#utility.yul\":13105:13106   */\n      0x01\n        /* \"#utility.yul\":13102:13103   */\n      dup2\n        /* \"#utility.yul\":13098:13107   */\n      add\n        /* \"#utility.yul\":13093:13107   */\n      swap1\n      pop\n        /* \"#utility.yul\":13058:13454   */\n      jump(tag_644)\n    tag_646:\n        /* \"#utility.yul\":13062:13076   */\n      pop\n        /* \"#utility.yul\":13470:13474   */\n      dup3\n        /* \"#utility.yul\":13463:13474   */\n      swap8\n      pop\n        /* \"#utility.yul\":13490:13493   */\n      dup8\n        /* \"#utility.yul\":13483:13493   */\n      swap6\n      pop\n        /* \"#utility.yul\":12652:13499   */\n      pop\n      pop\n      pop\n      pop\n      pop\n        /* \"#utility.yul\":12508:13499   */\n      swap3\n      swap2\n      pop\n      pop\n      jump\t// out\n        /* \"#utility.yul\":13505:14179   */\n    tag_65:\n        /* \"#utility.yul\":13746:13750   */\n      0x00\n        /* \"#utility.yul\":13784:13786   */\n      0x40\n        /* \"#utility.yul\":13773:13782   */\n      dup3\n        /* \"#utility.yul\":13769:13787   */\n      add\n        /* \"#utility.yul\":13761:13787   */\n      swap1\n      pop\n        /* \"#utility.yul\":13833:13842   */\n      dup2\n        /* \"#utility.yul\":13827:13831   */\n      dup2\n        /* \"#utility.yul\":13823:13843   */\n      sub\n        /* \"#utility.yul\":13819:13820   */\n      0x00\n        /* \"#utility.yul\":13808:13817   */\n      dup4\n        /* \"#utility.yul\":13804:13821   */\n      add\n        /* \"#utility.yul\":13797:13844   */\n      mstore\n        /* \"#utility.yul\":13861:13989   */\n      tag_650\n        /* \"#utility.yul\":13984:13988   */\n      dup2\n        /* \"#utility.yul\":13975:13981   */\n      dup6\n        /* \"#utility.yul\":13861:13989   */\n      tag_458\n      jump\t// in\n    tag_650:\n        /* \"#utility.yul\":13853:13989   */\n      swap1\n      pop\n        /* \"#utility.yul\":14036:14045   */\n      dup2\n        /* \"#utility.yul\":14030:14034   */\n      dup2\n        /* \"#utility.yul\":14026:14046   */\n      sub\n        /* \"#utility.yul\":14021:14023   */\n      0x20\n        /* \"#utility.yul\":14010:14019   */\n      dup4\n        /* \"#utility.yul\":14006:14024   */\n      add\n        /* \"#utility.yul\":13999:14047   */\n      mstore\n        /* \"#utility.yul\":14064:14172   */\n      tag_651\n        /* \"#utility.yul\":14167:14171   */\n      dup2\n        /* \"#utility.yul\":14158:14164   */\n      dup5\n        /* \"#utility.yul\":14064:14172   */\n      tag_432\n      jump\t// in\n    tag_651:\n        /* \"#utility.yul\":14056:14172   */\n      swap1\n      pop\n        /* \"#utility.yul\":13505:14179   */\n      swap4\n      swap3\n      pop\n      pop\n      pop\n      jump\t// out\n        /* \"#utility.yul\":14185:14395   */\n    tag_71:\n        /* \"#utility.yul\":14272:14276   */\n      0x00\n        /* \"#utility.yul\":14310:14312   */\n      0x20\n        /* \"#utility.yul\":14299:14308   */\n      dup3\n        /* \"#utility.yul\":14295:14313   */\n      add\n        /* \"#utility.yul\":14287:14313   */\n      swap1\n      pop\n        /* \"#utility.yul\":14323:14388   */\n      tag_653\n        /* \"#utility.yul\":14385:14386   */\n      0x00\n        /* \"#utility.yul\":14374:14383   */\n      dup4\n        /* \"#utility.yul\":14370:14387   */\n      add\n        /* \"#utility.yul\":14361:14367   */\n      dup5\n        /* \"#utility.yul\":14323:14388   */\n      tag_440\n      jump\t// in\n    tag_653:\n        /* \"#utility.yul\":14185:14395   */\n      swap3\n      swap2\n      pop\n      pop\n      jump\t// out\n        /* \"#utility.yul\":14401:15144   */\n    tag_77:\n        /* \"#utility.yul\":14620:14624   */\n      0x00\n        /* \"#utility.yul\":14658:14661   */\n      0xa0\n        /* \"#utility.yul\":14647:14656   */\n      dup3\n        /* \"#utility.yul\":14643:14662   */\n      add\n        /* \"#utility.yul\":14635:14662   */\n      swap1\n      pop\n        /* \"#utility.yul\":14708:14717   */\n      dup2\n        /* \"#utility.yul\":14702:14706   */\n      dup2\n        /* \"#utility.yul\":14698:14718   */\n      sub\n        /* \"#utility.yul\":14694:14695   */\n      0x00\n        /* \"#utility.yul\":14683:14692   */\n      dup4\n        /* \"#utility.yul\":14679:14696   */\n      add\n        /* \"#utility.yul\":14672:14719   */\n      mstore\n        /* \"#utility.yul\":14736:14814   */\n      tag_655\n        /* \"#utility.yul\":14809:14813   */\n      dup2\n        /* \"#utility.yul\":14800:14806   */\n      dup9\n        /* \"#utility.yul\":14736:14814   */\n      tag_437\n      jump\t// in\n    tag_655:\n        /* \"#utility.yul\":14728:14814   */\n      swap1\n      pop\n        /* \"#utility.yul\":14824:14896   */\n      tag_656\n        /* \"#utility.yul\":14892:14894   */\n      0x20\n        /* \"#utility.yul\":14881:14890   */\n      dup4\n        /* \"#utility.yul\":14877:14895   */\n      add\n        /* \"#utility.yul\":14868:14874   */\n      dup8\n        /* \"#utility.yul\":14824:14896   */\n      tag_438\n      jump\t// in\n    tag_656:\n        /* \"#utility.yul\":14906:14978   */\n      tag_657\n        /* \"#utility.yul\":14974:14976   */\n      0x40\n        /* \"#utility.yul\":14963:14972   */\n      dup4\n        /* \"#utility.yul\":14959:14977   */\n      add\n        /* \"#utility.yul\":14950:14956   */\n      dup7\n        /* \"#utility.yul\":14906:14978   */\n      tag_438\n      jump\t// in\n    tag_657:\n        /* \"#utility.yul\":14988:15060   */\n      tag_658\n        /* \"#utility.yul\":15056:15058   */\n      0x60\n        /* \"#utility.yul\":15045:15054   */\n      dup4\n        /* \"#utility.yul\":15041:15059   */\n      add\n        /* \"#utility.yul\":15032:15038   */\n      dup6\n        /* \"#utility.yul\":14988:15060   */\n      tag_438\n      jump\t// in\n    tag_658:\n        /* \"#utility.yul\":15070:15137   */\n      tag_659\n        /* \"#utility.yul\":15132:15135   */\n      0x80\n        /* \"#utility.yul\":15121:15130   */\n      dup4\n        /* \"#utility.yul\":15117:15136   */\n      add\n        /* \"#utility.yul\":15108:15114   */\n      dup5\n        /* \"#utility.yul\":15070:15137   */\n      tag_440\n      jump\t// in\n    tag_659:\n        /* \"#utility.yul\":14401:15144   */\n      swap7\n      swap6\n      pop\n      pop\n      pop\n      pop\n      pop\n      pop\n      jump\t// out\n        /* \"#utility.yul\":15210:16438   */\n    tag_459:\n        /* \"#utility.yul\":15345:15349   */\n      0xc0\n        /* \"#utility.yul\":15340:15343   */\n      dup3\n        /* \"#utility.yul\":15336:15350   */\n      add\n        /* \"#utility.yul\":15436:15440   */\n      0x00\n        /* \"#utility.yul\":15429:15434   */\n      dup3\n        /* \"#utility.yul\":15425:15441   */\n      add\n        /* \"#utility.yul\":15419:15442   */\n      mload\n        /* \"#utility.yul\":15455:15518   */\n      tag_661\n        /* \"#utility.yul\":15512:15516   */\n      0x00\n        /* \"#utility.yul\":15507:15510   */\n      dup6\n        /* \"#utility.yul\":15503:15517   */\n      add\n        /* \"#utility.yul\":15489:15501   */\n      dup3\n        /* \"#utility.yul\":15455:15518   */\n      tag_429\n      jump\t// in\n    tag_661:\n        /* \"#utility.yul\":15360:15528   */\n      pop\n        /* \"#utility.yul\":15615:15619   */\n      0x20\n        /* \"#utility.yul\":15608:15613   */\n      dup3\n        /* \"#utility.yul\":15604:15620   */\n      add\n        /* \"#utility.yul\":15598:15621   */\n      mload\n        /* \"#utility.yul\":15634:15697   */\n      tag_662\n        /* \"#utility.yul\":15691:15695   */\n      0x20\n        /* \"#utility.yul\":15686:15689   */\n      dup6\n        /* \"#utility.yul\":15682:15696   */\n      add\n        /* \"#utility.yul\":15668:15680   */\n      dup3\n        /* \"#utility.yul\":15634:15697   */\n      tag_429\n      jump\t// in\n    tag_662:\n        /* \"#utility.yul\":15538:15707   */\n      pop\n        /* \"#utility.yul\":15795:15799   */\n      0x40\n        /* \"#utility.yul\":15788:15793   */\n      dup3\n        /* \"#utility.yul\":15784:15800   */\n      add\n        /* \"#utility.yul\":15778:15801   */\n      mload\n        /* \"#utility.yul\":15814:15877   */\n      tag_663\n        /* \"#utility.yul\":15871:15875   */\n      0x40\n        /* \"#utility.yul\":15866:15869   */\n      dup6\n        /* \"#utility.yul\":15862:15876   */\n      add\n        /* \"#utility.yul\":15848:15860   */\n      dup3\n        /* \"#utility.yul\":15814:15877   */\n      tag_429\n      jump\t// in\n    tag_663:\n        /* \"#utility.yul\":15717:15887   */\n      pop\n        /* \"#utility.yul\":15977:15981   */\n      0x60\n        /* \"#utility.yul\":15970:15975   */\n      dup3\n        /* \"#utility.yul\":15966:15982   */\n      add\n        /* \"#utility.yul\":15960:15983   */\n      mload\n        /* \"#utility.yul\":15996:16059   */\n      tag_664\n        /* \"#utility.yul\":16053:16057   */\n      0x60\n        /* \"#utility.yul\":16048:16051   */\n      dup6\n        /* \"#utility.yul\":16044:16058   */\n      add\n        /* \"#utility.yul\":16030:16042   */\n      dup3\n        /* \"#utility.yul\":15996:16059   */\n      tag_429\n      jump\t// in\n    tag_664:\n        /* \"#utility.yul\":15897:16069   */\n      pop\n        /* \"#utility.yul\":16160:16164   */\n      0x80\n        /* \"#utility.yul\":16153:16158   */\n      dup3\n        /* \"#utility.yul\":16149:16165   */\n      add\n        /* \"#utility.yul\":16143:16166   */\n      mload\n        /* \"#utility.yul\":16179:16242   */\n      tag_665\n        /* \"#utility.yul\":16236:16240   */\n      0x80\n        /* \"#utility.yul\":16231:16234   */\n      dup6\n        /* \"#utility.yul\":16227:16241   */\n      add\n        /* \"#utility.yul\":16213:16225   */\n      dup3\n        /* \"#utility.yul\":16179:16242   */\n      tag_429\n      jump\t// in\n    tag_665:\n        /* \"#utility.yul\":16079:16252   */\n      pop\n        /* \"#utility.yul\":16339:16343   */\n      0xa0\n        /* \"#utility.yul\":16332:16337   */\n      dup3\n        /* \"#utility.yul\":16328:16344   */\n      add\n        /* \"#utility.yul\":16322:16345   */\n      mload\n        /* \"#utility.yul\":16358:16421   */\n      tag_666\n        /* \"#utility.yul\":16415:16419   */\n      0xa0\n        /* \"#utility.yul\":16410:16413   */\n      dup6\n        /* \"#utility.yul\":16406:16420   */\n      add\n        /* \"#utility.yul\":16392:16404   */\n      dup3\n        /* \"#utility.yul\":16358:16421   */\n      tag_429\n      jump\t// in\n    tag_666:\n        /* \"#utility.yul\":16262:16431   */\n      pop\n        /* \"#utility.yul\":15314:16438   */\n      pop\n        /* \"#utility.yul\":15210:16438   */\n      pop\n      pop\n      jump\t// out\n        /* \"#utility.yul\":16514:17198   */\n    tag_460:\n        /* \"#utility.yul\":16631:16634   */\n      0x00\n        /* \"#utility.yul\":16667:16671   */\n      0x40\n        /* \"#utility.yul\":16662:16665   */\n      dup4\n        /* \"#utility.yul\":16658:16672   */\n      add\n        /* \"#utility.yul\":16758:16762   */\n      0x00\n        /* \"#utility.yul\":16751:16756   */\n      dup4\n        /* \"#utility.yul\":16747:16763   */\n      add\n        /* \"#utility.yul\":16741:16764   */\n      mload\n        /* \"#utility.yul\":16811:16814   */\n      dup5\n        /* \"#utility.yul\":16805:16809   */\n      dup3\n        /* \"#utility.yul\":16801:16815   */\n      sub\n        /* \"#utility.yul\":16794:16798   */\n      0x00\n        /* \"#utility.yul\":16789:16792   */\n      dup7\n        /* \"#utility.yul\":16785:16799   */\n      add\n        /* \"#utility.yul\":16778:16816   */\n      mstore\n        /* \"#utility.yul\":16837:16910   */\n      tag_668\n        /* \"#utility.yul\":16905:16909   */\n      dup3\n        /* \"#utility.yul\":16891:16903   */\n      dup3\n        /* \"#utility.yul\":16837:16910   */\n      tag_455\n      jump\t// in\n    tag_668:\n        /* \"#utility.yul\":16829:16910   */\n      swap2\n      pop\n        /* \"#utility.yul\":16682:16921   */\n      pop\n        /* \"#utility.yul\":17008:17012   */\n      0x20\n        /* \"#utility.yul\":17001:17006   */\n      dup4\n        /* \"#utility.yul\":16997:17013   */\n      add\n        /* \"#utility.yul\":16991:17014   */\n      mload\n        /* \"#utility.yul\":17061:17064   */\n      dup5\n        /* \"#utility.yul\":17055:17059   */\n      dup3\n        /* \"#utility.yul\":17051:17065   */\n      sub\n        /* \"#utility.yul\":17044:17048   */\n      0x20\n        /* \"#utility.yul\":17039:17042   */\n      dup7\n        /* \"#utility.yul\":17035:17049   */\n      add\n        /* \"#utility.yul\":17028:17066   */\n      mstore\n        /* \"#utility.yul\":17087:17160   */\n      tag_669\n        /* \"#utility.yul\":17155:17159   */\n      dup3\n        /* \"#utility.yul\":17141:17153   */\n      dup3\n        /* \"#utility.yul\":17087:17160   */\n      tag_455\n      jump\t// in\n    tag_669:\n        /* \"#utility.yul\":17079:17160   */\n      swap2\n      pop\n        /* \"#utility.yul\":16931:17171   */\n      pop\n        /* \"#utility.yul\":17188:17192   */\n      dup1\n        /* \"#utility.yul\":17181:17192   */\n      swap2\n      pop\n        /* \"#utility.yul\":16636:17198   */\n      pop\n        /* \"#utility.yul\":16514:17198   */\n      swap3\n      swap2\n      pop\n      pop\n      jump\t// out\n        /* \"#utility.yul\":17204:18406   */\n    tag_83:\n        /* \"#utility.yul\":17571:17575   */\n      0x00\n        /* \"#utility.yul\":17609:17612   */\n      0x0180\n        /* \"#utility.yul\":17598:17607   */\n      dup3\n        /* \"#utility.yul\":17594:17613   */\n      add\n        /* \"#utility.yul\":17586:17613   */\n      swap1\n      pop\n        /* \"#utility.yul\":17659:17668   */\n      dup2\n        /* \"#utility.yul\":17653:17657   */\n      dup2\n        /* \"#utility.yul\":17649:17669   */\n      sub\n        /* \"#utility.yul\":17645:17646   */\n      0x00\n        /* \"#utility.yul\":17634:17643   */\n      dup4\n        /* \"#utility.yul\":17630:17647   */\n      add\n        /* \"#utility.yul\":17623:17670   */\n      mstore\n        /* \"#utility.yul\":17687:17765   */\n      tag_671\n        /* \"#utility.yul\":17760:17764   */\n      dup2\n        /* \"#utility.yul\":17751:17757   */\n      dup11\n        /* \"#utility.yul\":17687:17765   */\n      tag_437\n      jump\t// in\n    tag_671:\n        /* \"#utility.yul\":17679:17765   */\n      swap1\n      pop\n        /* \"#utility.yul\":17775:17885   */\n      tag_672\n        /* \"#utility.yul\":17881:17883   */\n      0x20\n        /* \"#utility.yul\":17870:17879   */\n      dup4\n        /* \"#utility.yul\":17866:17884   */\n      add\n        /* \"#utility.yul\":17857:17863   */\n      dup10\n        /* \"#utility.yul\":17775:17885   */\n      tag_459\n      jump\t// in\n    tag_672:\n        /* \"#utility.yul\":17895:17968   */\n      tag_673\n        /* \"#utility.yul\":17963:17966   */\n      0xe0\n        /* \"#utility.yul\":17952:17961   */\n      dup4\n        /* \"#utility.yul\":17948:17967   */\n      add\n        /* \"#utility.yul\":17939:17945   */\n      dup9\n        /* \"#utility.yul\":17895:17968   */\n      tag_438\n      jump\t// in\n    tag_673:\n        /* \"#utility.yul\":17978:18051   */\n      tag_674\n        /* \"#utility.yul\":18046:18049   */\n      0x0100\n        /* \"#utility.yul\":18035:18044   */\n      dup4\n        /* \"#utility.yul\":18031:18050   */\n      add\n        /* \"#utility.yul\":18022:18028   */\n      dup8\n        /* \"#utility.yul\":17978:18051   */\n      tag_438\n      jump\t// in\n    tag_674:\n        /* \"#utility.yul\":18061:18134   */\n      tag_675\n        /* \"#utility.yul\":18129:18132   */\n      0x0120\n        /* \"#utility.yul\":18118:18127   */\n      dup4\n        /* \"#utility.yul\":18114:18133   */\n      add\n        /* \"#utility.yul\":18105:18111   */\n      dup7\n        /* \"#utility.yul\":18061:18134   */\n      tag_438\n      jump\t// in\n    tag_675:\n        /* \"#utility.yul\":18144:18217   */\n      tag_676\n        /* \"#utility.yul\":18212:18215   */\n      0x0140\n        /* \"#utility.yul\":18201:18210   */\n      dup4\n        /* \"#utility.yul\":18197:18216   */\n      add\n        /* \"#utility.yul\":18188:18194   */\n      dup6\n        /* \"#utility.yul\":18144:18217   */\n      tag_438\n      jump\t// in\n    tag_676:\n        /* \"#utility.yul\":18265:18274   */\n      dup2\n        /* \"#utility.yul\":18259:18263   */\n      dup2\n        /* \"#utility.yul\":18255:18275   */\n      sub\n        /* \"#utility.yul\":18249:18252   */\n      0x0160\n        /* \"#utility.yul\":18238:18247   */\n      dup4\n        /* \"#utility.yul\":18234:18253   */\n      add\n        /* \"#utility.yul\":18227:18276   */\n      mstore\n        /* \"#utility.yul\":18293:18399   */\n      tag_677\n        /* \"#utility.yul\":18394:18398   */\n      dup2\n        /* \"#utility.yul\":18385:18391   */\n      dup5\n        /* \"#utility.yul\":18293:18399   */\n      tag_460\n      jump\t// in\n    tag_677:\n        /* \"#utility.yul\":18285:18399   */\n      swap1\n      pop\n        /* \"#utility.yul\":17204:18406   */\n      swap9\n      swap8\n      pop\n      pop\n      pop\n      pop\n      pop\n      pop\n      pop\n      pop\n      jump\t// out\n        /* \"#utility.yul\":18412:18785   */\n    tag_88:\n        /* \"#utility.yul\":18555:18559   */\n      0x00\n        /* \"#utility.yul\":18593:18595   */\n      0x20\n        /* \"#utility.yul\":18582:18591   */\n      dup3\n        /* \"#utility.yul\":18578:18596   */\n      add\n        /* \"#utility.yul\":18570:18596   */\n      swap1\n      pop\n        /* \"#utility.yul\":18642:18651   */\n      dup2\n        /* \"#utility.yul\":18636:18640   */\n      dup2\n        /* \"#utility.yul\":18632:18652   */\n      sub\n        /* \"#utility.yul\":18628:18629   */\n      0x00\n        /* \"#utility.yul\":18617:18626   */\n      dup4\n        /* \"#utility.yul\":18613:18630   */\n      add\n        /* \"#utility.yul\":18606:18653   */\n      mstore\n        /* \"#utility.yul\":18670:18778   */\n      tag_679\n        /* \"#utility.yul\":18773:18777   */\n      dup2\n        /* \"#utility.yul\":18764:18770   */\n      dup5\n        /* \"#utility.yul\":18670:18778   */\n      tag_424\n      jump\t// in\n    tag_679:\n        /* \"#utility.yul\":18662:18778   */\n      swap1\n      pop\n        /* \"#utility.yul\":18412:18785   */\n      swap3\n      swap2\n      pop\n      pop\n      jump\t// out\n        /* \"#utility.yul\":18791:19324   */\n    tag_94:\n        /* \"#utility.yul\":18960:18964   */\n      0x00\n        /* \"#utility.yul\":18998:19000   */\n      0x60\n        /* \"#utility.yul\":18987:18996   */\n      dup3\n        /* \"#utility.yul\":18983:19001   */\n      add\n        /* \"#utility.yul\":18975:19001   */\n      swap1\n      pop\n        /* \"#utility.yul\":19047:19056   */\n      dup2\n        /* \"#utility.yul\":19041:19045   */\n      dup2\n        /* \"#utility.yul\":19037:19057   */\n      sub\n        /* \"#utility.yul\":19033:19034   */\n      0x00\n        /* \"#utility.yul\":19022:19031   */\n      dup4\n        /* \"#utility.yul\":19018:19035   */\n      add\n        /* \"#utility.yul\":19011:19058   */\n      mstore\n        /* \"#utility.yul\":19075:19153   */\n      tag_681\n        /* \"#utility.yul\":19148:19152   */\n      dup2\n        /* \"#utility.yul\":19139:19145   */\n      dup7\n        /* \"#utility.yul\":19075:19153   */\n      tag_437\n      jump\t// in\n    tag_681:\n        /* \"#utility.yul\":19067:19153   */\n      swap1\n      pop\n        /* \"#utility.yul\":19163:19235   */\n      tag_682\n        /* \"#utility.yul\":19231:19233   */\n      0x20\n        /* \"#utility.yul\":19220:19229   */\n      dup4\n        /* \"#utility.yul\":19216:19234   */\n      add\n        /* \"#utility.yul\":19207:19213   */\n      dup6\n        /* \"#utility.yul\":19163:19235   */\n      tag_438\n      jump\t// in\n    tag_682:\n        /* \"#utility.yul\":19245:19317   */\n      tag_683\n        /* \"#utility.yul\":19313:19315   */\n      0x40\n        /* \"#utility.yul\":19302:19311   */\n      dup4\n        /* \"#utility.yul\":19298:19316   */\n      add\n        /* \"#utility.yul\":19289:19295   */\n      dup5\n        /* \"#utility.yul\":19245:19317   */\n      tag_438\n      jump\t// in\n    tag_683:\n        /* \"#utility.yul\":18791:19324   */\n      swap5\n      swap4\n      pop\n      pop\n      pop\n      pop\n      jump\t// out\n        /* \"#utility.yul\":19330:19448   */\n    tag_461:\n        /* \"#utility.yul\":19417:19441   */\n      tag_685\n        /* \"#utility.yul\":19435:19440   */\n      dup2\n        /* \"#utility.yul\":19417:19441   */\n      tag_415\n      jump\t// in\n    tag_685:\n        /* \"#utility.yul\":19412:19415   */\n      dup3\n        /* \"#utility.yul\":19405:19442   */\n      mstore\n        /* \"#utility.yul\":19330:19448   */\n      pop\n      pop\n      jump\t// out\n        /* \"#utility.yul\":19454:19676   */\n    tag_102:\n        /* \"#utility.yul\":19547:19551   */\n      0x00\n        /* \"#utility.yul\":19585:19587   */\n      0x20\n        /* \"#utility.yul\":19574:19583   */\n      dup3\n        /* \"#utility.yul\":19570:19588   */\n      add\n        /* \"#utility.yul\":19562:19588   */\n      swap1\n      pop\n        /* \"#utility.yul\":19598:19669   */\n      tag_687\n        /* \"#utility.yul\":19666:19667   */\n      0x00\n        /* \"#utility.yul\":19655:19664   */\n      dup4\n        /* \"#utility.yul\":19651:19668   */\n      add\n        /* \"#utility.yul\":19642:19648   */\n      dup5\n        /* \"#utility.yul\":19598:19669   */\n      tag_461\n      jump\t// in\n    tag_687:\n        /* \"#utility.yul\":19454:19676   */\n      swap3\n      swap2\n      pop\n      pop\n      jump\t// out\n        /* \"#utility.yul\":19682:20627   */\n    tag_106:\n        /* \"#utility.yul\":19778:19784   */\n      0x00\n        /* \"#utility.yul\":19786:19792   */\n      dup1\n        /* \"#utility.yul\":19794:19800   */\n      0x00\n        /* \"#utility.yul\":19802:19808   */\n      dup1\n        /* \"#utility.yul\":19851:19854   */\n      0x80\n        /* \"#utility.yul\":19839:19848   */\n      dup6\n        /* \"#utility.yul\":19830:19837   */\n      dup8\n        /* \"#utility.yul\":19826:19849   */\n      sub\n        /* \"#utility.yul\":19822:19855   */\n      slt\n        /* \"#utility.yul\":19819:19939   */\n      iszero\n      tag_689\n      jumpi\n        /* \"#utility.yul\":19858:19937   */\n      tag_690\n      tag_412\n      jump\t// in\n    tag_690:\n        /* \"#utility.yul\":19819:19939   */\n    tag_689:\n        /* \"#utility.yul\":20006:20007   */\n      0x00\n        /* \"#utility.yul\":19995:20004   */\n      dup6\n        /* \"#utility.yul\":19991:20008   */\n      add\n        /* \"#utility.yul\":19978:20009   */\n      calldataload\n        /* \"#utility.yul\":20036:20054   */\n      0xffffffffffffffff\n        /* \"#utility.yul\":20028:20034   */\n      dup2\n        /* \"#utility.yul\":20025:20055   */\n      gt\n        /* \"#utility.yul\":20022:20139   */\n      iszero\n      tag_691\n      jumpi\n        /* \"#utility.yul\":20058:20137   */\n      tag_692\n      tag_413\n      jump\t// in\n    tag_692:\n        /* \"#utility.yul\":20022:20139   */\n    tag_691:\n        /* \"#utility.yul\":20163:20226   */\n      tag_693\n        /* \"#utility.yul\":20218:20225   */\n      dup8\n        /* \"#utility.yul\":20209:20215   */\n      dup3\n        /* \"#utility.yul\":20198:20207   */\n      dup9\n        /* \"#utility.yul\":20194:20216   */\n      add\n        /* \"#utility.yul\":20163:20226   */\n      tag_450\n      jump\t// in\n    tag_693:\n        /* \"#utility.yul\":20153:20226   */\n      swap5\n      pop\n        /* \"#utility.yul\":19949:20236   */\n      pop\n        /* \"#utility.yul\":20275:20277   */\n      0x20\n        /* \"#utility.yul\":20301:20354   */\n      tag_694\n        /* \"#utility.yul\":20346:20353   */\n      dup8\n        /* \"#utility.yul\":20337:20343   */\n      dup3\n        /* \"#utility.yul\":20326:20335   */\n      dup9\n        /* \"#utility.yul\":20322:20344   */\n      add\n        /* \"#utility.yul\":20301:20354   */\n      tag_442\n      jump\t// in\n    tag_694:\n        /* \"#utility.yul\":20291:20354   */\n      swap4\n      pop\n        /* \"#utility.yul\":20246:20364   */\n      pop\n        /* \"#utility.yul\":20403:20405   */\n      0x40\n        /* \"#utility.yul\":20429:20482   */\n      tag_695\n        /* \"#utility.yul\":20474:20481   */\n      dup8\n        /* \"#utility.yul\":20465:20471   */\n      dup3\n        /* \"#utility.yul\":20454:20463   */\n      dup9\n        /* \"#utility.yul\":20450:20472   */\n      add\n        /* \"#utility.yul\":20429:20482   */\n      tag_442\n      jump\t// in\n    tag_695:\n        /* \"#utility.yul\":20419:20482   */\n      swap3\n      pop\n        /* \"#utility.yul\":20374:20492   */\n      pop\n        /* \"#utility.yul\":20531:20533   */\n      0x60\n        /* \"#utility.yul\":20557:20610   */\n      tag_696\n        /* \"#utility.yul\":20602:20609   */\n      dup8\n        /* \"#utility.yul\":20593:20599   */\n      dup3\n        /* \"#utility.yul\":20582:20591   */\n      dup9\n        /* \"#utility.yul\":20578:20600   */\n      add\n        /* \"#utility.yul\":20557:20610   */\n      tag_442\n      jump\t// in\n    tag_696:\n        /* \"#utility.yul\":20547:20610   */\n      swap2\n      pop\n        /* \"#utility.yul\":20502:20620   */\n      pop\n        /* \"#utility.yul\":19682:20627   */\n      swap3\n      swap6\n      swap2\n      swap5\n      pop\n      swap3\n      pop\n      jump\t// out\n        /* \"#utility.yul\":20633:20962   */\n    tag_119:\n        /* \"#utility.yul\":20692:20698   */\n      0x00\n        /* \"#utility.yul\":20741:20743   */\n      0x20\n        /* \"#utility.yul\":20729:20738   */\n      dup3\n        /* \"#utility.yul\":20720:20727   */\n      dup5\n        /* \"#utility.yul\":20716:20739   */\n      sub\n        /* \"#utility.yul\":20712:20744   */\n      slt\n        /* \"#utility.yul\":20709:20828   */\n      iszero\n      tag_698\n      jumpi\n        /* \"#utility.yul\":20747:20826   */\n      tag_699\n      tag_412\n      jump\t// in\n    tag_699:\n        /* \"#utility.yul\":20709:20828   */\n    tag_698:\n        /* \"#utility.yul\":20867:20868   */\n      0x00\n        /* \"#utility.yul\":20892:20945   */\n      tag_700\n        /* \"#utility.yul\":20937:20944   */\n      dup5\n        /* \"#utility.yul\":20928:20934   */\n      dup3\n        /* \"#utility.yul\":20917:20926   */\n      dup6\n        /* \"#utility.yul\":20913:20935   */\n      add\n        /* \"#utility.yul\":20892:20945   */\n      tag_442\n      jump\t// in\n    tag_700:\n        /* \"#utility.yul\":20882:20945   */\n      swap2\n      pop\n        /* \"#utility.yul\":20838:20955   */\n      pop\n        /* \"#utility.yul\":20633:20962   */\n      swap3\n      swap2\n      pop\n      pop\n      jump\t// out\n        /* \"#utility.yul\":20968:23003   */\n    tag_134:\n        /* \"#utility.yul\":21129:21135   */\n      0x00\n        /* \"#utility.yul\":21137:21143   */\n      dup1\n        /* \"#utility.yul\":21145:21151   */\n      0x00\n        /* \"#utility.yul\":21153:21159   */\n      dup1\n        /* \"#utility.yul\":21161:21167   */\n      0x00\n        /* \"#utility.yul\":21169:21175   */\n      dup1\n        /* \"#utility.yul\":21177:21183   */\n      0x00\n        /* \"#utility.yul\":21185:21191   */\n      dup1\n        /* \"#utility.yul\":21193:21199   */\n      0x00\n        /* \"#utility.yul\":21242:21245   */\n      0x0120\n        /* \"#utility.yul\":21230:21239   */\n      dup11\n        /* \"#utility.yul\":21221:21228   */\n      dup13\n        /* \"#utility.yul\":21217:21240   */\n      sub\n        /* \"#utility.yul\":21213:21246   */\n      slt\n        /* \"#utility.yul\":21210:21330   */\n      iszero\n      tag_702\n      jumpi\n        /* \"#utility.yul\":21249:21328   */\n      tag_703\n      tag_412\n      jump\t// in\n    tag_703:\n        /* \"#utility.yul\":21210:21330   */\n    tag_702:\n        /* \"#utility.yul\":21397:21398   */\n      0x00\n        /* \"#utility.yul\":21386:21395   */\n      dup11\n        /* \"#utility.yul\":21382:21399   */\n      add\n        /* \"#utility.yul\":21369:21400   */\n      calldataload\n        /* \"#utility.yul\":21427:21445   */\n      0xffffffffffffffff\n        /* \"#utility.yul\":21419:21425   */\n      dup2\n        /* \"#utility.yul\":21416:21446   */\n      gt\n        /* \"#utility.yul\":21413:21530   */\n      iszero\n      tag_704\n      jumpi\n        /* \"#utility.yul\":21449:21528   */\n      tag_705\n      tag_413\n      jump\t// in\n    tag_705:\n        /* \"#utility.yul\":21413:21530   */\n    tag_704:\n        /* \"#utility.yul\":21554:21617   */\n      tag_706\n        /* \"#utility.yul\":21609:21616   */\n      dup13\n        /* \"#utility.yul\":21600:21606   */\n      dup3\n        /* \"#utility.yul\":21589:21598   */\n      dup14\n        /* \"#utility.yul\":21585:21607   */\n      add\n        /* \"#utility.yul\":21554:21617   */\n      tag_450\n      jump\t// in\n    tag_706:\n        /* \"#utility.yul\":21544:21617   */\n      swap10\n      pop\n        /* \"#utility.yul\":21340:21627   */\n      pop\n        /* \"#utility.yul\":21666:21668   */\n      0x20\n        /* \"#utility.yul\":21692:21745   */\n      tag_707\n        /* \"#utility.yul\":21737:21744   */\n      dup13\n        /* \"#utility.yul\":21728:21734   */\n      dup3\n        /* \"#utility.yul\":21717:21726   */\n      dup14\n        /* \"#utility.yul\":21713:21735   */\n      add\n        /* \"#utility.yul\":21692:21745   */\n      tag_442\n      jump\t// in\n    tag_707:\n        /* \"#utility.yul\":21682:21745   */\n      swap9\n      pop\n        /* \"#utility.yul\":21637:21755   */\n      pop\n        /* \"#utility.yul\":21794:21796   */\n      0x40\n        /* \"#utility.yul\":21820:21873   */\n      tag_708\n        /* \"#utility.yul\":21865:21872   */\n      dup13\n        /* \"#utility.yul\":21856:21862   */\n      dup3\n        /* \"#utility.yul\":21845:21854   */\n      dup14\n        /* \"#utility.yul\":21841:21863   */\n      add\n        /* \"#utility.yul\":21820:21873   */\n      tag_442\n      jump\t// in\n    tag_708:\n        /* \"#utility.yul\":21810:21873   */\n      swap8\n      pop\n        /* \"#utility.yul\":21765:21883   */\n      pop\n        /* \"#utility.yul\":21922:21924   */\n      0x60\n        /* \"#utility.yul\":21948:22001   */\n      tag_709\n        /* \"#utility.yul\":21993:22000   */\n      dup13\n        /* \"#utility.yul\":21984:21990   */\n      dup3\n        /* \"#utility.yul\":21973:21982   */\n      dup14\n        /* \"#utility.yul\":21969:21991   */\n      add\n        /* \"#utility.yul\":21948:22001   */\n      tag_442\n      jump\t// in\n    tag_709:\n        /* \"#utility.yul\":21938:22001   */\n      swap7\n      pop\n        /* \"#utility.yul\":21893:22011   */\n      pop\n        /* \"#utility.yul\":22050:22053   */\n      0x80\n        /* \"#utility.yul\":22077:22130   */\n      tag_710\n        /* \"#utility.yul\":22122:22129   */\n      dup13\n        /* \"#utility.yul\":22113:22119   */\n      dup3\n        /* \"#utility.yul\":22102:22111   */\n      dup14\n        /* \"#utility.yul\":22098:22120   */\n      add\n        /* \"#utility.yul\":22077:22130   */\n      tag_442\n      jump\t// in\n    tag_710:\n        /* \"#utility.yul\":22067:22130   */\n      swap6\n      pop\n        /* \"#utility.yul\":22021:22140   */\n      pop\n        /* \"#utility.yul\":22179:22182   */\n      0xa0\n        /* \"#utility.yul\":22206:22259   */\n      tag_711\n        /* \"#utility.yul\":22251:22258   */\n      dup13\n        /* \"#utility.yul\":22242:22248   */\n      dup3\n        /* \"#utility.yul\":22231:22240   */\n      dup14\n        /* \"#utility.yul\":22227:22249   */\n      add\n        /* \"#utility.yul\":22206:22259   */\n      tag_442\n      jump\t// in\n    tag_711:\n        /* \"#utility.yul\":22196:22259   */\n      swap5\n      pop\n        /* \"#utility.yul\":22150:22269   */\n      pop\n        /* \"#utility.yul\":22308:22311   */\n      0xc0\n        /* \"#utility.yul\":22335:22388   */\n      tag_712\n        /* \"#utility.yul\":22380:22387   */\n      dup13\n        /* \"#utility.yul\":22371:22377   */\n      dup3\n        /* \"#utility.yul\":22360:22369   */\n      dup14\n        /* \"#utility.yul\":22356:22378   */\n      add\n        /* \"#utility.yul\":22335:22388   */\n      tag_442\n      jump\t// in\n    tag_712:\n        /* \"#utility.yul\":22325:22388   */\n      swap4\n      pop\n        /* \"#utility.yul\":22279:22398   */\n      pop\n        /* \"#utility.yul\":22465:22468   */\n      0xe0\n        /* \"#utility.yul\":22454:22463   */\n      dup11\n        /* \"#utility.yul\":22450:22469   */\n      add\n        /* \"#utility.yul\":22437:22470   */\n      calldataload\n        /* \"#utility.yul\":22497:22515   */\n      0xffffffffffffffff\n        /* \"#utility.yul\":22489:22495   */\n      dup2\n        /* \"#utility.yul\":22486:22516   */\n      gt\n        /* \"#utility.yul\":22483:22600   */\n      iszero\n      tag_713\n      jumpi\n        /* \"#utility.yul\":22519:22598   */\n      tag_714\n      tag_413\n      jump\t// in\n    tag_714:\n        /* \"#utility.yul\":22483:22600   */\n    tag_713:\n        /* \"#utility.yul\":22624:22687   */\n      tag_715\n        /* \"#utility.yul\":22679:22686   */\n      dup13\n        /* \"#utility.yul\":22670:22676   */\n      dup3\n        /* \"#utility.yul\":22659:22668   */\n      dup14\n        /* \"#utility.yul\":22655:22677   */\n      add\n        /* \"#utility.yul\":22624:22687   */\n      tag_450\n      jump\t// in\n    tag_715:\n        /* \"#utility.yul\":22614:22687   */\n      swap3\n      pop\n        /* \"#utility.yul\":22408:22697   */\n      pop\n        /* \"#utility.yul\":22764:22767   */\n      0x0100\n        /* \"#utility.yul\":22753:22762   */\n      dup11\n        /* \"#utility.yul\":22749:22768   */\n      add\n        /* \"#utility.yul\":22736:22769   */\n      calldataload\n        /* \"#utility.yul\":22796:22814   */\n      0xffffffffffffffff\n        /* \"#utility.yul\":22788:22794   */\n      dup2\n        /* \"#utility.yul\":22785:22815   */\n      gt\n        /* \"#utility.yul\":22782:22899   */\n      iszero\n      tag_716\n      jumpi\n        /* \"#utility.yul\":22818:22897   */\n      tag_717\n      tag_413\n      jump\t// in\n    tag_717:\n        /* \"#utility.yul\":22782:22899   */\n    tag_716:\n        /* \"#utility.yul\":22923:22986   */\n      tag_718\n        /* \"#utility.yul\":22978:22985   */\n      dup13\n        /* \"#utility.yul\":22969:22975   */\n      dup3\n        /* \"#utility.yul\":22958:22967   */\n      dup14\n        /* \"#utility.yul\":22954:22976   */\n      add\n        /* \"#utility.yul\":22923:22986   */\n      tag_450\n      jump\t// in\n    tag_718:\n        /* \"#utility.yul\":22913:22986   */\n      swap2\n      pop\n        /* \"#utility.yul\":22707:22996   */\n      pop\n        /* \"#utility.yul\":20968:23003   */\n      swap3\n      swap6\n      swap9\n      pop\n      swap3\n      swap6\n      swap9\n      pop\n      swap3\n      swap6\n      swap9\n      jump\t// out\n        /* \"#utility.yul\":23009:24100   */\n    tag_139:\n        /* \"#utility.yul\":23114:23120   */\n      0x00\n        /* \"#utility.yul\":23122:23128   */\n      dup1\n        /* \"#utility.yul\":23130:23136   */\n      0x00\n        /* \"#utility.yul\":23138:23144   */\n      dup1\n        /* \"#utility.yul\":23146:23152   */\n      0x00\n        /* \"#utility.yul\":23195:23198   */\n      0xa0\n        /* \"#utility.yul\":23183:23192   */\n      dup7\n        /* \"#utility.yul\":23174:23181   */\n      dup9\n        /* \"#utility.yul\":23170:23193   */\n      sub\n        /* \"#utility.yul\":23166:23199   */\n      slt\n        /* \"#utility.yul\":23163:23283   */\n      iszero\n      tag_720\n      jumpi\n        /* \"#utility.yul\":23202:23281   */\n      tag_721\n      tag_412\n      jump\t// in\n    tag_721:\n        /* \"#utility.yul\":23163:23283   */\n    tag_720:\n        /* \"#utility.yul\":23322:23323   */\n      0x00\n        /* \"#utility.yul\":23347:23400   */\n      tag_722\n        /* \"#utility.yul\":23392:23399   */\n      dup9\n        /* \"#utility.yul\":23383:23389   */\n      dup3\n        /* \"#utility.yul\":23372:23381   */\n      dup10\n        /* \"#utility.yul\":23368:23390   */\n      add\n        /* \"#utility.yul\":23347:23400   */\n      tag_417\n      jump\t// in\n    tag_722:\n        /* \"#utility.yul\":23337:23400   */\n      swap6\n      pop\n        /* \"#utility.yul\":23293:23410   */\n      pop\n        /* \"#utility.yul\":23477:23479   */\n      0x20\n        /* \"#utility.yul\":23466:23475   */\n      dup7\n        /* \"#utility.yul\":23462:23480   */\n      add\n        /* \"#utility.yul\":23449:23481   */\n      calldataload\n        /* \"#utility.yul\":23508:23526   */\n      0xffffffffffffffff\n        /* \"#utility.yul\":23500:23506   */\n      dup2\n        /* \"#utility.yul\":23497:23527   */\n      gt\n        /* \"#utility.yul\":23494:23611   */\n      iszero\n      tag_723\n      jumpi\n        /* \"#utility.yul\":23530:23609   */\n      tag_724\n      tag_413\n      jump\t// in\n    tag_724:\n        /* \"#utility.yul\":23494:23611   */\n    tag_723:\n        /* \"#utility.yul\":23635:23698   */\n      tag_725\n        /* \"#utility.yul\":23690:23697   */\n      dup9\n        /* \"#utility.yul\":23681:23687   */\n      dup3\n        /* \"#utility.yul\":23670:23679   */\n      dup10\n        /* \"#utility.yul\":23666:23688   */\n      add\n        /* \"#utility.yul\":23635:23698   */\n      tag_450\n      jump\t// in\n    tag_725:\n        /* \"#utility.yul\":23625:23698   */\n      swap5\n      pop\n        /* \"#utility.yul\":23420:23708   */\n      pop\n        /* \"#utility.yul\":23747:23749   */\n      0x40\n        /* \"#utility.yul\":23773:23826   */\n      tag_726\n        /* \"#utility.yul\":23818:23825   */\n      dup9\n        /* \"#utility.yul\":23809:23815   */\n      dup3\n        /* \"#utility.yul\":23798:23807   */\n      dup10\n        /* \"#utility.yul\":23794:23816   */\n      add\n        /* \"#utility.yul\":23773:23826   */\n      tag_442\n      jump\t// in\n    tag_726:\n        /* \"#utility.yul\":23763:23826   */\n      swap4\n      pop\n        /* \"#utility.yul\":23718:23836   */\n      pop\n        /* \"#utility.yul\":23875:23877   */\n      0x60\n        /* \"#utility.yul\":23901:23954   */\n      tag_727\n        /* \"#utility.yul\":23946:23953   */\n      dup9\n        /* \"#utility.yul\":23937:23943   */\n      dup3\n        /* \"#utility.yul\":23926:23935   */\n      dup10\n        /* \"#utility.yul\":23922:23944   */\n      add\n        /* \"#utility.yul\":23901:23954   */\n      tag_442\n      jump\t// in\n    tag_727:\n        /* \"#utility.yul\":23891:23954   */\n      swap3\n      pop\n        /* \"#utility.yul\":23846:23964   */\n      pop\n        /* \"#utility.yul\":24003:24006   */\n      0x80\n        /* \"#utility.yul\":24030:24083   */\n      tag_728\n        /* \"#utility.yul\":24075:24082   */\n      dup9\n        /* \"#utility.yul\":24066:24072   */\n      dup3\n        /* \"#utility.yul\":24055:24064   */\n      dup10\n        /* \"#utility.yul\":24051:24073   */\n      add\n        /* \"#utility.yul\":24030:24083   */\n      tag_442\n      jump\t// in\n    tag_728:\n        /* \"#utility.yul\":24020:24083   */\n      swap2\n      pop\n        /* \"#utility.yul\":23974:24093   */\n      pop\n        /* \"#utility.yul\":23009:24100   */\n      swap3\n      swap6\n      pop\n      swap3\n      swap6\n      swap1\n      swap4\n      pop\n      jump\t// out\n        /* \"#utility.yul\":24106:24529   */\n    tag_146:\n        /* \"#utility.yul\":24247:24251   */\n      0x00\n        /* \"#utility.yul\":24285:24287   */\n      0x40\n        /* \"#utility.yul\":24274:24283   */\n      dup3\n        /* \"#utility.yul\":24270:24288   */\n      add\n        /* \"#utility.yul\":24262:24288   */\n      swap1\n      pop\n        /* \"#utility.yul\":24334:24343   */\n      dup2\n        /* \"#utility.yul\":24328:24332   */\n      dup2\n        /* \"#utility.yul\":24324:24344   */\n      sub\n        /* \"#utility.yul\":24320:24321   */\n      0x00\n        /* \"#utility.yul\":24309:24318   */\n      dup4\n        /* \"#utility.yul\":24305:24322   */\n      add\n        /* \"#utility.yul\":24298:24345   */\n      mstore\n        /* \"#utility.yul\":24362:24440   */\n      tag_730\n        /* \"#utility.yul\":24435:24439   */\n      dup2\n        /* \"#utility.yul\":24426:24432   */\n      dup6\n        /* \"#utility.yul\":24362:24440   */\n      tag_437\n      jump\t// in\n    tag_730:\n        /* \"#utility.yul\":24354:24440   */\n      swap1\n      pop\n        /* \"#utility.yul\":24450:24522   */\n      tag_731\n        /* \"#utility.yul\":24518:24520   */\n      0x20\n        /* \"#utility.yul\":24507:24516   */\n      dup4\n        /* \"#utility.yul\":24503:24521   */\n      add\n        /* \"#utility.yul\":24494:24500   */\n      dup5\n        /* \"#utility.yul\":24450:24522   */\n      tag_438\n      jump\t// in\n    tag_731:\n        /* \"#utility.yul\":24106:24529   */\n      swap4\n      swap3\n      pop\n      pop\n      pop\n      jump\t// out\n        /* \"#utility.yul\":24535:24755   */\n    tag_462:\n        /* \"#utility.yul\":24675:24709   */\n      0x4f6e6c79206f776e65722063616e2063616c6c20746869732066756e6374696f\n        /* \"#utility.yul\":24671:24672   */\n      0x00\n        /* \"#utility.yul\":24663:24669   */\n      dup3\n        /* \"#utility.yul\":24659:24673   */\n      add\n        /* \"#utility.yul\":24652:24710   */\n      mstore\n        /* \"#utility.yul\":24744:24747   */\n      0x6e00000000000000000000000000000000000000000000000000000000000000\n        /* \"#utility.yul\":24739:24741   */\n      0x20\n        /* \"#utility.yul\":24731:24737   */\n      dup3\n        /* \"#utility.yul\":24727:24742   */\n      add\n        /* \"#utility.yul\":24720:24748   */\n      mstore\n        /* \"#utility.yul\":24535:24755   */\n      pop\n      jump\t// out\n        /* \"#utility.yul\":24761:25127   */\n    tag_463:\n        /* \"#utility.yul\":24903:24906   */\n      0x00\n        /* \"#utility.yul\":24924:24991   */\n      tag_734\n        /* \"#utility.yul\":24988:24990   */\n      0x21\n        /* \"#utility.yul\":24983:24986   */\n      dup4\n        /* \"#utility.yul\":24924:24991   */\n      tag_434\n      jump\t// in\n    tag_734:\n        /* \"#utility.yul\":24917:24991   */\n      swap2\n      pop\n        /* \"#utility.yul\":25000:25093   */\n      tag_735\n        /* \"#utility.yul\":25089:25092   */\n      dup3\n        /* \"#utility.yul\":25000:25093   */\n      tag_462\n      jump\t// in\n    tag_735:\n        /* \"#utility.yul\":25118:25120   */\n      0x40\n        /* \"#utility.yul\":25113:25116   */\n      dup3\n        /* \"#utility.yul\":25109:25121   */\n      add\n        /* \"#utility.yul\":25102:25121   */\n      swap1\n      pop\n        /* \"#utility.yul\":24761:25127   */\n      swap2\n      swap1\n      pop\n      jump\t// out\n        /* \"#utility.yul\":25133:25552   */\n    tag_150:\n        /* \"#utility.yul\":25299:25303   */\n      0x00\n        /* \"#utility.yul\":25337:25339   */\n      0x20\n        /* \"#utility.yul\":25326:25335   */\n      dup3\n        /* \"#utility.yul\":25322:25340   */\n      add\n        /* \"#utility.yul\":25314:25340   */\n      swap1\n      pop\n        /* \"#utility.yul\":25386:25395   */\n      dup2\n        /* \"#utility.yul\":25380:25384   */\n      dup2\n        /* \"#utility.yul\":25376:25396   */\n      sub\n        /* \"#utility.yul\":25372:25373   */\n      0x00\n        /* \"#utility.yul\":25361:25370   */\n      dup4\n        /* \"#utility.yul\":25357:25374   */\n      add\n        /* \"#utility.yul\":25350:25397   */\n      mstore\n        /* \"#utility.yul\":25414:25545   */\n      tag_737\n        /* \"#utility.yul\":25540:25544   */\n      dup2\n        /* \"#utility.yul\":25414:25545   */\n      tag_463\n      jump\t// in\n    tag_737:\n        /* \"#utility.yul\":25406:25545   */\n      swap1\n      pop\n        /* \"#utility.yul\":25133:25552   */\n      swap2\n      swap1\n      pop\n      jump\t// out\n        /* \"#utility.yul\":25558:25738   */\n    tag_157:\n        /* \"#utility.yul\":25606:25683   */\n      0x4e487b7100000000000000000000000000000000000000000000000000000000\n        /* \"#utility.yul\":25603:25604   */\n      0x00\n        /* \"#utility.yul\":25596:25684   */\n      mstore\n        /* \"#utility.yul\":25703:25707   */\n      0x32\n        /* \"#utility.yul\":25700:25701   */\n      0x04\n        /* \"#utility.yul\":25693:25708   */\n      mstore\n        /* \"#utility.yul\":25727:25731   */\n      0x24\n        /* \"#utility.yul\":25724:25725   */\n      0x00\n        /* \"#utility.yul\":25717:25732   */\n      revert\n        /* \"#utility.yul\":25744:25924   */\n    tag_464:\n        /* \"#utility.yul\":25792:25869   */\n      0x4e487b7100000000000000000000000000000000000000000000000000000000\n        /* \"#utility.yul\":25789:25790   */\n      0x00\n        /* \"#utility.yul\":25782:25870   */\n      mstore\n        /* \"#utility.yul\":25889:25893   */\n      0x11\n        /* \"#utility.yul\":25886:25887   */\n      0x04\n        /* \"#utility.yul\":25879:25894   */\n      mstore\n        /* \"#utility.yul\":25913:25917   */\n      0x24\n        /* \"#utility.yul\":25910:25911   */\n      0x00\n        /* \"#utility.yul\":25903:25918   */\n      revert\n        /* \"#utility.yul\":25930:26163   */\n    tag_161:\n        /* \"#utility.yul\":25969:25972   */\n      0x00\n        /* \"#utility.yul\":25992:26016   */\n      tag_741\n        /* \"#utility.yul\":26010:26015   */\n      dup3\n        /* \"#utility.yul\":25992:26016   */\n      tag_428\n      jump\t// in\n    tag_741:\n        /* \"#utility.yul\":25983:26016   */\n      swap2\n      pop\n        /* \"#utility.yul\":26038:26104   */\n      0xffffffffffffffffffffffffffffffffffffffffffffffffffffffffffffffff\n        /* \"#utility.yul\":26031:26036   */\n      dup3\n        /* \"#utility.yul\":26028:26105   */\n      sub\n        /* \"#utility.yul\":26025:26128   */\n      tag_742\n      jumpi\n        /* \"#utility.yul\":26108:26126   */\n      tag_743\n      tag_464\n      jump\t// in\n    tag_743:\n        /* \"#utility.yul\":26025:26128   */\n    tag_742:\n        /* \"#utility.yul\":26155:26156   */\n      0x01\n        /* \"#utility.yul\":26148:26153   */\n      dup3\n        /* \"#utility.yul\":26144:26157   */\n      add\n        /* \"#utility.yul\":26137:26157   */\n      swap1\n      pop\n        /* \"#utility.yul\":25930:26163   */\n      swap2\n      swap1\n      pop\n      jump\t// out\n        /* \"#utility.yul\":26169:26349   */\n    tag_465:\n        /* \"#utility.yul\":26217:26294   */\n      0x4e487b7100000000000000000000000000000000000000000000000000000000\n        /* \"#utility.yul\":26214:26215   */\n      0x00\n        /* \"#utility.yul\":26207:26295   */\n      mstore\n        /* \"#utility.yul\":26314:26318   */\n      0x22\n        /* \"#utility.yul\":26311:26312   */\n      0x04\n        /* \"#utility.yul\":26304:26319   */\n      mstore\n        /* \"#utility.yul\":26338:26342   */\n      0x24\n        /* \"#utility.yul\":26335:26336   */\n      0x00\n        /* \"#utility.yul\":26328:26343   */\n      revert\n        /* \"#utility.yul\":26355:26675   */\n    tag_188:\n        /* \"#utility.yul\":26399:26405   */\n      0x00\n        /* \"#utility.yul\":26436:26437   */\n      0x02\n        /* \"#utility.yul\":26430:26434   */\n      dup3\n        /* \"#utility.yul\":26426:26438   */\n      div\n        /* \"#utility.yul\":26416:26438   */\n      swap1\n      pop\n        /* \"#utility.yul\":26483:26484   */\n      0x01\n        /* \"#utility.yul\":26477:26481   */\n      dup3\n        /* \"#utility.yul\":26473:26485   */\n      and\n        /* \"#utility.yul\":26504:26522   */\n      dup1\n        /* \"#utility.yul\":26494:26575   */\n      tag_746\n      jumpi\n        /* \"#utility.yul\":26560:26564   */\n      0x7f\n        /* \"#utility.yul\":26552:26558   */\n      dup3\n        /* \"#utility.yul\":26548:26565   */\n      and\n        /* \"#utility.yul\":26538:26565   */\n      swap2\n      pop\n        /* \"#utility.yul\":26494:26575   */\n    tag_746:\n        /* \"#utility.yul\":26622:26624   */\n      0x20\n        /* \"#utility.yul\":26614:26620   */\n      dup3\n        /* \"#utility.yul\":26611:26625   */\n      lt\n        /* \"#utility.yul\":26591:26609   */\n      dup2\n        /* \"#utility.yul\":26588:26626   */\n      sub\n        /* \"#utility.yul\":26585:26669   */\n      tag_747\n      jumpi\n        /* \"#utility.yul\":26641:26659   */\n      tag_748\n      tag_465\n      jump\t// in\n    tag_748:\n        /* \"#utility.yul\":26585:26669   */\n    tag_747:\n        /* \"#utility.yul\":26406:26675   */\n      pop\n        /* \"#utility.yul\":26355:26675   */\n      swap2\n      swap1\n      pop\n      jump\t// out\n        /* \"#utility.yul\":26681:26903   */\n    tag_466:\n        /* \"#utility.yul\":26821:26855   */\n      0x4f6e6c79206d656d626572732063616e2063616c6c20746869732066756e6374\n        /* \"#utility.yul\":26817:26818   */\n      0x00\n        /* \"#utility.yul\":26809:26815   */\n      dup3\n        /* \"#utility.yul\":26805:26819   */\n      add\n        /* \"#utility.yul\":26798:26856   */\n      mstore\n        /* \"#utility.yul\":26890:26895   */\n      0x696f6e0000000000000000000000000000000000000000000000000000000000\n        /* \"#utility.yul\":26885:26887   */\n      0x20\n        /* \"#utility.yul\":26877:26883   */\n      dup3\n        /* \"#utility.yul\":26873:26888   */\n      add\n        /* \"#utility.yul\":26866:26896   */\n      mstore\n        /* \"#utility.yul\":26681:26903   */\n      pop\n      jump\t// out\n        /* \"#utility.yul\":26909:27275   */\n    tag_467:\n        /* \"#utility.yul\":27051:27054   */\n      0x00\n        /* \"#utility.yul\":27072:27139   */\n      tag_751\n        /* \"#utility.yul\":27136:27138   */\n      0x23\n        /* \"#utility.yul\":27131:27134   */\n      dup4\n        /* \"#utility.yul\":27072:27139   */\n      tag_434\n      jump\t// in\n    tag_751:\n        /* \"#utility.yul\":27065:27139   */\n      swap2\n      pop\n        /* \"#utility.yul\":27148:27241   */\n      tag_752\n        /* \"#utility.yul\":27237:27240   */\n      dup3\n        /* \"#utility.yul\":27148:27241   */\n      tag_466\n      jump\t// in\n    tag_752:\n        /* \"#utility.yul\":27266:27268   */\n      0x40\n        /* \"#utility.yul\":27261:27264   */\n      dup3\n        /* \"#utility.yul\":27257:27269   */\n      add\n        /* \"#utility.yul\":27250:27269   */\n      swap1\n      pop\n        /* \"#utility.yul\":26909:27275   */\n      swap2\n      swap1\n      pop\n      jump\t// out\n        /* \"#utility.yul\":27281:27700   */\n    tag_196:\n        /* \"#utility.yul\":27447:27451   */\n      0x00\n        /* \"#utility.yul\":27485:27487   */\n      0x20\n        /* \"#utility.yul\":27474:27483   */\n      dup3\n        /* \"#utility.yul\":27470:27488   */\n      add\n        /* \"#utility.yul\":27462:27488   */\n      swap1\n      pop\n        /* \"#utility.yul\":27534:27543   */\n      dup2\n        /* \"#utility.yul\":27528:27532   */\n      dup2\n        /* \"#utility.yul\":27524:27544   */\n      sub\n        /* \"#utility.yul\":27520:27521   */\n      0x00\n        /* \"#utility.yul\":27509:27518   */\n      dup4\n        /* \"#utility.yul\":27505:27522   */\n      add\n        /* \"#utility.yul\":27498:27545   */\n      mstore\n        /* \"#utility.yul\":27562:27693   */\n      tag_754\n        /* \"#utility.yul\":27688:27692   */\n      dup2\n        /* \"#utility.yul\":27562:27693   */\n      tag_467\n      jump\t// in\n    tag_754:\n        /* \"#utility.yul\":27554:27693   */\n      swap1\n      pop\n        /* \"#utility.yul\":27281:27700   */\n      swap2\n      swap1\n      pop\n      jump\t// out\n        /* \"#utility.yul\":27706:27867   */\n    tag_468:\n        /* \"#utility.yul\":27846:27859   */\n      0x496e76616c69642067796d000000000000000000000000000000000000000000\n        /* \"#utility.yul\":27842:27843   */\n      0x00\n        /* \"#utility.yul\":27834:27840   */\n      dup3\n        /* \"#utility.yul\":27830:27844   */\n      add\n        /* \"#utility.yul\":27823:27860   */\n      mstore\n        /* \"#utility.yul\":27706:27867   */\n      pop\n      jump\t// out\n        /* \"#utility.yul\":27873:28239   */\n    tag_469:\n        /* \"#utility.yul\":28015:28018   */\n      0x00\n        /* \"#utility.yul\":28036:28103   */\n      tag_757\n        /* \"#utility.yul\":28100:28102   */\n      0x0b\n        /* \"#utility.yul\":28095:28098   */\n      dup4\n        /* \"#utility.yul\":28036:28103   */\n      tag_434\n      jump\t// in\n    tag_757:\n        /* \"#utility.yul\":28029:28103   */\n      swap2\n      pop\n        /* \"#utility.yul\":28112:28205   */\n      tag_758\n        /* \"#utility.yul\":28201:28204   */\n      dup3\n        /* \"#utility.yul\":28112:28205   */\n      tag_468\n      jump\t// in\n    tag_758:\n        /* \"#utility.yul\":28230:28232   */\n      0x20\n        /* \"#utility.yul\":28225:28228   */\n      dup3\n        /* \"#utility.yul\":28221:28233   */\n      add\n        /* \"#utility.yul\":28214:28233   */\n      swap1\n      pop\n        /* \"#utility.yul\":27873:28239   */\n      swap2\n      swap1\n      pop\n      jump\t// out\n        /* \"#utility.yul\":28245:28664   */\n    tag_200:\n        /* \"#utility.yul\":28411:28415   */\n      0x00\n        /* \"#utility.yul\":28449:28451   */\n      0x20\n        /* \"#utility.yul\":28438:28447   */\n      dup3\n        /* \"#utility.yul\":28434:28452   */\n      add\n        /* \"#utility.yul\":28426:28452   */\n      swap1\n      pop\n        /* \"#utility.yul\":28498:28507   */\n      dup2\n        /* \"#utility.yul\":28492:28496   */\n      dup2\n        /* \"#utility.yul\":28488:28508   */\n      sub\n        /* \"#utility.yul\":28484:28485   */\n      0x00\n        /* \"#utility.yul\":28473:28482   */\n      dup4\n        /* \"#utility.yul\":28469:28486   */\n      add\n        /* \"#utility.yul\":28462:28509   */\n      mstore\n        /* \"#utility.yul\":28526:28657   */\n      tag_760\n        /* \"#utility.yul\":28652:28656   */\n      dup2\n        /* \"#utility.yul\":28526:28657   */\n      tag_469\n      jump\t// in\n    tag_760:\n        /* \"#utility.yul\":28518:28657   */\n      swap1\n      pop\n        /* \"#utility.yul\":28245:28664   */\n      swap2\n      swap1\n      pop\n      jump\t// out\n        /* \"#utility.yul\":28670:28834   */\n    tag_470:\n        /* \"#utility.yul\":28810:28826   */\n      0x496e76616c696420726174696e67000000000000000000000000000000000000\n        /* \"#utility.yul\":28806:28807   */\n      0x00\n        /* \"#utility.yul\":28798:28804   */\n      dup3\n        /* \"#utility.yul\":28794:28808   */\n      add\n        /* \"#utility.yul\":28787:28827   */\n      mstore\n        /* \"#utility.yul\":28670:28834   */\n      pop\n      jump\t// out\n        /* \"#utility.yul\":28840:29206   */\n    tag_471:\n        /* \"#utility.yul\":28982:28985   */\n      0x00\n        /* \"#utility.yul\":29003:29070   */\n      tag_763\n        /* \"#utility.yul\":29067:29069   */\n      0x0e\n        /* \"#utility.yul\":29062:29065   */\n      dup4\n        /* \"#utility.yul\":29003:29070   */\n      tag_434\n      jump\t// in\n    tag_763:\n        /* \"#utility.yul\":28996:29070   */\n      swap2\n      pop\n        /* \"#utility.yul\":29079:29172   */\n      tag_764\n        /* \"#utility.yul\":29168:29171   */\n      dup3\n        /* \"#utility.yul\":29079:29172   */\n      tag_470\n      jump\t// in\n    tag_764:\n        /* \"#utility.yul\":29197:29199   */\n      0x20\n        /* \"#utility.yul\":29192:29195   */\n      dup3\n        /* \"#utility.yul\":29188:29200   */\n      add\n        /* \"#utility.yul\":29181:29200   */\n      swap1\n      pop\n        /* \"#utility.yul\":28840:29206   */\n      swap2\n      swap1\n      pop\n      jump\t// out\n        /* \"#utility.yul\":29212:29631   */\n    tag_204:\n        /* \"#utility.yul\":29378:29382   */\n      0x00\n        /* \"#utility.yul\":29416:29418   */\n      0x20\n        /* \"#utility.yul\":29405:29414   */\n      dup3\n        /* \"#utility.yul\":29401:29419   */\n      add\n        /* \"#utility.yul\":29393:29419   */\n      swap1\n      pop\n        /* \"#utility.yul\":29465:29474   */\n      dup2\n        /* \"#utility.yul\":29459:29463   */\n      dup2\n        /* \"#utility.yul\":29455:29475   */\n      sub\n        /* \"#utility.yul\":29451:29452   */\n      0x00\n        /* \"#utility.yul\":29440:29449   */\n      dup4\n        /* \"#utility.yul\":29436:29453   */\n      add\n        /* \"#utility.yul\":29429:29476   */\n      mstore\n        /* \"#utility.yul\":29493:29624   */\n      tag_766\n        /* \"#utility.yul\":29619:29623   */\n      dup2\n        /* \"#utility.yul\":29493:29624   */\n      tag_471\n      jump\t// in\n    tag_766:\n        /* \"#utility.yul\":29485:29624   */\n      swap1\n      pop\n        /* \"#utility.yul\":29212:29631   */\n      swap2\n      swap1\n      pop\n      jump\t// out\n        /* \"#utility.yul\":29637:29828   */\n    tag_206:\n        /* \"#utility.yul\":29677:29680   */\n      0x00\n        /* \"#utility.yul\":29696:29716   */\n      tag_768\n        /* \"#utility.yul\":29714:29715   */\n      dup3\n        /* \"#utility.yul\":29696:29716   */\n      tag_428\n      jump\t// in\n    tag_768:\n        /* \"#utility.yul\":29691:29716   */\n      swap2\n      pop\n        /* \"#utility.yul\":29730:29750   */\n      tag_769\n        /* \"#utility.yul\":29748:29749   */\n      dup4\n        /* \"#utility.yul\":29730:29750   */\n      tag_428\n      jump\t// in\n    tag_769:\n        /* \"#utility.yul\":29725:29750   */\n      swap3\n      pop\n        /* \"#utility.yul\":29773:29774   */\n      dup3\n        /* \"#utility.yul\":29770:29771   */\n      dup3\n        /* \"#utility.yul\":29766:29775   */\n      add\n        /* \"#utility.yul\":29759:29775   */\n      swap1\n      pop\n        /* \"#utility.yul\":29794:29797   */\n      dup1\n        /* \"#utility.yul\":29791:29792   */\n      dup3\n        /* \"#utility.yul\":29788:29798   */\n      gt\n        /* \"#utility.yul\":29785:29821   */\n      iszero\n      tag_770\n      jumpi\n        /* \"#utility.yul\":29801:29819   */\n      tag_771\n      tag_464\n      jump\t// in\n    tag_771:\n        /* \"#utility.yul\":29785:29821   */\n    tag_770:\n        /* \"#utility.yul\":29637:29828   */\n      swap3\n      swap2\n      pop\n      pop\n      jump\t// out\n        /* \"#utility.yul\":29834:30244   */\n    tag_216:\n        /* \"#utility.yul\":29874:29881   */\n      0x00\n        /* \"#utility.yul\":29897:29917   */\n      tag_773\n        /* \"#utility.yul\":29915:29916   */\n      dup3\n        /* \"#utility.yul\":29897:29917   */\n      tag_428\n      jump\t// in\n    tag_773:\n        /* \"#utility.yul\":29892:29917   */\n      swap2\n      pop\n        /* \"#utility.yul\":29931:29951   */\n      tag_774\n        /* \"#utility.yul\":29949:29950   */\n      dup4\n        /* \"#utility.yul\":29931:29951   */\n      tag_428\n      jump\t// in\n    tag_774:\n        /* \"#utility.yul\":29926:29951   */\n      swap3\n      pop\n        /* \"#utility.yul\":29986:29987   */\n      dup3\n        /* \"#utility.yul\":29983:29984   */\n      dup3\n        /* \"#utility.yul\":29979:29988   */\n      mul\n        /* \"#utility.yul\":30008:30038   */\n      tag_775\n        /* \"#utility.yul\":30026:30037   */\n      dup2\n        /* \"#utility.yul\":30008:30038   */\n      tag_428\n      jump\t// in\n    tag_775:\n        /* \"#utility.yul\":29997:30038   */\n      swap2\n      pop\n        /* \"#utility.yul\":30187:30188   */\n      dup3\n        /* \"#utility.yul\":30178:30185   */\n      dup3\n        /* \"#utility.yul\":30174:30189   */\n      div\n        /* \"#utility.yul\":30171:30172   */\n      dup5\n        /* \"#utility.yul\":30168:30190   */\n      eq\n        /* \"#utility.yul\":30148:30149   */\n      dup4\n        /* \"#utility.yul\":30141:30150   */\n      iszero\n        /* \"#utility.yul\":30121:30204   */\n      or\n        /* \"#utility.yul\":30098:30237   */\n      tag_776\n      jumpi\n        /* \"#utility.yul\":30217:30235   */\n      tag_777\n      tag_464\n      jump\t// in\n    tag_777:\n        /* \"#utility.yul\":30098:30237   */\n    tag_776:\n        /* \"#utility.yul\":29882:30244   */\n      pop\n        /* \"#utility.yul\":29834:30244   */\n      swap3\n      swap2\n      pop\n      pop\n      jump\t// out\n        /* \"#utility.yul\":30250:30430   */\n    tag_472:\n        /* \"#utility.yul\":30298:30375   */\n      0x4e487b7100000000000000000000000000000000000000000000000000000000\n        /* \"#utility.yul\":30295:30296   */\n      0x00\n        /* \"#utility.yul\":30288:30376   */\n      mstore\n        /* \"#utility.yul\":30395:30399   */\n      0x12\n        /* \"#utility.yul\":30392:30393   */\n      0x04\n        /* \"#utility.yul\":30385:30400   */\n      mstore\n        /* \"#utility.yul\":30419:30423   */\n      0x24\n        /* \"#utility.yul\":30416:30417   */\n      0x00\n        /* \"#utility.yul\":30409:30424   */\n      revert\n        /* \"#utility.yul\":30436:30621   */\n    tag_218:\n        /* \"#utility.yul\":30476:30477   */\n      0x00\n        /* \"#utility.yul\":30493:30513   */\n      tag_780\n        /* \"#utility.yul\":30511:30512   */\n      dup3\n        /* \"#utility.yul\":30493:30513   */\n      tag_428\n      jump\t// in\n    tag_780:\n        /* \"#utility.yul\":30488:30513   */\n      swap2\n      pop\n        /* \"#utility.yul\":30527:30547   */\n      tag_781\n        /* \"#utility.yul\":30545:30546   */\n      dup4\n        /* \"#utility.yul\":30527:30547   */\n      tag_428\n      jump\t// in\n    tag_781:\n        /* \"#utility.yul\":30522:30547   */\n      swap3\n      pop\n        /* \"#utility.yul\":30566:30567   */\n      dup3\n        /* \"#utility.yul\":30556:30591   */\n      tag_782\n      jumpi\n        /* \"#utility.yul\":30571:30589   */\n      tag_783\n      tag_472\n      jump\t// in\n    tag_783:\n        /* \"#utility.yul\":30556:30591   */\n    tag_782:\n        /* \"#utility.yul\":30613:30614   */\n      dup3\n        /* \"#utility.yul\":30610:30611   */\n      dup3\n        /* \"#utility.yul\":30606:30615   */\n      div\n        /* \"#utility.yul\":30601:30615   */\n      swap1\n      pop\n        /* \"#utility.yul\":30436:30621   */\n      swap3\n      swap2\n      pop\n      pop\n      jump\t// out\n        /* \"#utility.yul\":30627:30797   */\n    tag_473:\n        /* \"#utility.yul\":30767:30789   */\n      0x537562736372697074696f6e2065787069726564000000000000000000000000\n        /* \"#utility.yul\":30763:30764   */\n      0x00\n        /* \"#utility.yul\":30755:30761   */\n      dup3\n        /* \"#utility.yul\":30751:30765   */\n      add\n        /* \"#utility.yul\":30744:30790   */\n      mstore\n        /* \"#utility.yul\":30627:30797   */\n      pop\n      jump\t// out\n        /* \"#utility.yul\":30803:31169   */\n    tag_474:\n        /* \"#utility.yul\":30945:30948   */\n      0x00\n        /* \"#utility.yul\":30966:31033   */\n      tag_786\n        /* \"#utility.yul\":31030:31032   */\n      0x14\n        /* \"#utility.yul\":31025:31028   */\n      dup4\n        /* \"#utility.yul\":30966:31033   */\n      tag_434\n      jump\t// in\n    tag_786:\n        /* \"#utility.yul\":30959:31033   */\n      swap2\n      pop\n        /* \"#utility.yul\":31042:31135   */\n      tag_787\n        /* \"#utility.yul\":31131:31134   */\n      dup3\n        /* \"#utility.yul\":31042:31135   */\n      tag_473\n      jump\t// in\n    tag_787:\n        /* \"#utility.yul\":31160:31162   */\n      0x20\n        /* \"#utility.yul\":31155:31158   */\n      dup3\n        /* \"#utility.yul\":31151:31163   */\n      add\n        /* \"#utility.yul\":31144:31163   */\n      swap1\n      pop\n        /* \"#utility.yul\":30803:31169   */\n      swap2\n      swap1\n      pop\n      jump\t// out\n        /* \"#utility.yul\":31175:31594   */\n    tag_228:\n        /* \"#utility.yul\":31341:31345   */\n      0x00\n        /* \"#utility.yul\":31379:31381   */\n      0x20\n        /* \"#utility.yul\":31368:31377   */\n      dup3\n        /* \"#utility.yul\":31364:31382   */\n      add\n        /* \"#utility.yul\":31356:31382   */\n      swap1\n      pop\n        /* \"#utility.yul\":31428:31437   */\n      dup2\n        /* \"#utility.yul\":31422:31426   */\n      dup2\n        /* \"#utility.yul\":31418:31438   */\n      sub\n        /* \"#utility.yul\":31414:31415   */\n      0x00\n        /* \"#utility.yul\":31403:31412   */\n      dup4\n        /* \"#utility.yul\":31399:31416   */\n      add\n        /* \"#utility.yul\":31392:31439   */\n      mstore\n        /* \"#utility.yul\":31456:31587   */\n      tag_789\n        /* \"#utility.yul\":31582:31586   */\n      dup2\n        /* \"#utility.yul\":31456:31587   */\n      tag_474\n      jump\t// in\n    tag_789:\n        /* \"#utility.yul\":31448:31587   */\n      swap1\n      pop\n        /* \"#utility.yul\":31175:31594   */\n      swap2\n      swap1\n      pop\n      jump\t// out\n        /* \"#utility.yul\":31600:31741   */\n    tag_475:\n        /* \"#utility.yul\":31649:31653   */\n      0x00\n        /* \"#utility.yul\":31672:31675   */\n      dup2\n        /* \"#utility.yul\":31664:31675   */\n      swap1\n      pop\n        /* \"#utility.yul\":31695:31698   */\n      dup2\n        /* \"#utility.yul\":31692:31693   */\n      0x00\n        /* \"#utility.yul\":31685:31699   */\n      mstore\n        /* \"#utility.yul\":31729:31733   */\n      0x20\n        /* \"#utility.yul\":31726:31727   */\n      0x00\n        /* \"#utility.yul\":31716:31734   */\n      keccak256\n        /* \"#utility.yul\":31708:31734   */\n      swap1\n      pop\n        /* \"#utility.yul\":31600:31741   */\n      swap2\n      swap1\n      pop\n      jump\t// out\n        /* \"#utility.yul\":31747:31840   */\n    tag_476:\n        /* \"#utility.yul\":31784:31790   */\n      0x00\n        /* \"#utility.yul\":31831:31833   */\n      0x20\n        /* \"#utility.yul\":31826:31828   */\n      0x1f\n        /* \"#utility.yul\":31819:31824   */\n      dup4\n        /* \"#utility.yul\":31815:31829   */\n      add\n        /* \"#utility.yul\":31811:31834   */\n      div\n        /* \"#utility.yul\":31801:31834   */\n      swap1\n      pop\n        /* \"#utility.yul\":31747:31840   */\n      swap2\n      swap1\n      pop\n      jump\t// out\n        /* \"#utility.yul\":31846:31953   */\n    tag_477:\n        /* \"#utility.yul\":31890:31898   */\n      0x00\n        /* \"#utility.yul\":31940:31945   */\n      dup3\n        /* \"#utility.yul\":31934:31938   */\n      dup3\n        /* \"#utility.yul\":31930:31946   */\n      shl\n        /* \"#utility.yul\":31909:31946   */\n      swap1\n      pop\n        /* \"#utility.yul\":31846:31953   */\n      swap3\n      swap2\n      pop\n      pop\n      jump\t// out\n        /* \"#utility.yul\":31959:32352   */\n    tag_478:\n        /* \"#utility.yul\":32028:32034   */\n      0x00\n        /* \"#utility.yul\":32078:32079   */\n      0x08\n        /* \"#utility.yul\":32066:32076   */\n      dup4\n        /* \"#utility.yul\":32062:32080   */\n      mul\n        /* \"#utility.yul\":32101:32198   */\n      tag_794\n        /* \"#utility.yul\":32131:32197   */\n      0xffffffffffffffffffffffffffffffffffffffffffffffffffffffffffffffff\n        /* \"#utility.yul\":32120:32129   */\n      dup3\n        /* \"#utility.yul\":32101:32198   */\n      tag_477\n      jump\t// in\n    tag_794:\n        /* \"#utility.yul\":32219:32258   */\n      tag_795\n        /* \"#utility.yul\":32249:32257   */\n      dup7\n        /* \"#utility.yul\":32238:32247   */\n      dup4\n        /* \"#utility.yul\":32219:32258   */\n      tag_477\n      jump\t// in\n    tag_795:\n        /* \"#utility.yul\":32207:32258   */\n      swap6\n      pop\n        /* \"#utility.yul\":32291:32295   */\n      dup1\n        /* \"#utility.yul\":32287:32296   */\n      not\n        /* \"#utility.yul\":32280:32285   */\n      dup5\n        /* \"#utility.yul\":32276:32297   */\n      and\n        /* \"#utility.yul\":32267:32297   */\n      swap4\n      pop\n        /* \"#utility.yul\":32340:32344   */\n      dup1\n        /* \"#utility.yul\":32330:32338   */\n      dup7\n        /* \"#utility.yul\":32326:32345   */\n      and\n        /* \"#utility.yul\":32319:32324   */\n      dup5\n        /* \"#utility.yul\":32316:32346   */\n      or\n        /* \"#utility.yul\":32306:32346   */\n      swap3\n      pop\n        /* \"#utility.yul\":32035:32352   */\n      pop\n      pop\n        /* \"#utility.yul\":31959:32352   */\n      swap4\n      swap3\n      pop\n      pop\n      pop\n      jump\t// out\n        /* \"#utility.yul\":32358:32418   */\n    tag_479:\n        /* \"#utility.yul\":32386:32389   */\n      0x00\n        /* \"#utility.yul\":32407:32412   */\n      dup2\n        /* \"#utility.yul\":32400:32412   */\n      swap1\n      pop\n        /* \"#utility.yul\":32358:32418   */\n      swap2\n      swap1\n      pop\n      jump\t// out\n        /* \"#utility.yul\":32424:32566   */\n    tag_480:\n        /* \"#utility.yul\":32474:32483   */\n      0x00\n        /* \"#utility.yul\":32507:32560   */\n      tag_798\n        /* \"#utility.yul\":32525:32559   */\n      tag_799\n        /* \"#utility.yul\":32534:32558   */\n      tag_800\n        /* \"#utility.yul\":32552:32557   */\n      dup5\n        /* \"#utility.yul\":32534:32558   */\n      tag_428\n      jump\t// in\n    tag_800:\n        /* \"#utility.yul\":32525:32559   */\n      tag_479\n      jump\t// in\n    tag_799:\n        /* \"#utility.yul\":32507:32560   */\n      tag_428\n      jump\t// in\n    tag_798:\n        /* \"#utility.yul\":32494:32560   */\n      swap1\n      pop\n        /* \"#utility.yul\":32424:32566   */\n      swap2\n      swap1\n      pop\n      jump\t// out\n        /* \"#utility.yul\":32572:32647   */\n    tag_481:\n        /* \"#utility.yul\":32615:32618   */\n      0x00\n        /* \"#utility.yul\":32636:32641   */\n      dup2\n        /* \"#utility.yul\":32629:32641   */\n      swap1\n      pop\n        /* \"#utility.yul\":32572:32647   */\n      swap2\n      swap1\n      pop\n      jump\t// out\n        /* \"#utility.yul\":32653:32922   */\n    tag_482:\n        /* \"#utility.yul\":32763:32802   */\n      tag_803\n        /* \"#utility.yul\":32794:32801   */\n      dup4\n        /* \"#utility.yul\":32763:32802   */\n      tag_480\n      jump\t// in\n    tag_803:\n        /* \"#utility.yul\":32824:32915   */\n      tag_804\n        /* \"#utility.yul\":32873:32914   */\n      tag_805\n        /* \"#utility.yul\":32897:32913   */\n      dup3\n        /* \"#utility.yul\":32873:32914   */\n      tag_481\n      jump\t// in\n    tag_805:\n        /* \"#utility.yul\":32865:32871   */\n      dup5\n        /* \"#utility.yul\":32858:32862   */\n      dup5\n        /* \"#utility.yul\":32852:32863   */\n      sload\n        /* \"#utility.yul\":32824:32915   */\n      tag_478\n      jump\t// in\n    tag_804:\n        /* \"#utility.yul\":32818:32822   */\n      dup3\n        /* \"#utility.yul\":32811:32916   */\n      sstore\n        /* \"#utility.yul\":32729:32922   */\n      pop\n        /* \"#utility.yul\":32653:32922   */\n      pop\n      pop\n      pop\n      jump\t// out\n        /* \"#utility.yul\":32928:33001   */\n    tag_483:\n        /* \"#utility.yul\":32973:32976   */\n      0x00\n        /* \"#utility.yul\":32928:33001   */\n      swap1\n      jump\t// out\n        /* \"#utility.yul\":33007:33196   */\n    tag_484:\n        /* \"#utility.yul\":33084:33116   */\n      tag_808\n      tag_483\n      jump\t// in\n    tag_808:\n        /* \"#utility.yul\":33125:33190   */\n      tag_809\n        /* \"#utility.yul\":33183:33189   */\n      dup2\n        /* \"#utility.yul\":33175:33181   */\n      dup5\n        /* \"#utility.yul\":33169:33173   */\n      dup5\n        /* \"#utility.yul\":33125:33190   */\n      tag_482\n      jump\t// in\n    tag_809:\n        /* \"#utility.yul\":33060:33196   */\n      pop\n        /* \"#utility.yul\":33007:33196   */\n      pop\n      pop\n      jump\t// out\n        /* \"#utility.yul\":33202:33388   */\n    tag_485:\n        /* \"#utility.yul\":33262:33382   */\n    tag_811:\n        /* \"#utility.yul\":33279:33282   */\n      dup2\n        /* \"#utility.yul\":33272:33277   */\n      dup2\n        /* \"#utility.yul\":33269:33283   */\n      lt\n        /* \"#utility.yul\":33262:33382   */\n      iszero\n      tag_813\n      jumpi\n        /* \"#utility.yul\":33333:33372   */\n      tag_814\n        /* \"#utility.yul\":33370:33371   */\n      0x00\n        /* \"#utility.yul\":33363:33368   */\n      dup3\n        /* \"#utility.yul\":33333:33372   */\n      tag_484\n      jump\t// in\n    tag_814:\n        /* \"#utility.yul\":33306:33307   */\n      0x01\n        /* \"#utility.yul\":33299:33304   */\n      dup2\n        /* \"#utility.yul\":33295:33308   */\n      add\n        /* \"#utility.yul\":33286:33308   */\n      swap1\n      pop\n        /* \"#utility.yul\":33262:33382   */\n      jump(tag_811)\n    tag_813:\n        /* \"#utility.yul\":33202:33388   */\n      pop\n      pop\n      jump\t// out\n        /* \"#utility.yul\":33394:33937   */\n    tag_486:\n        /* \"#utility.yul\":33495:33497   */\n      0x1f\n        /* \"#utility.yul\":33490:33493   */\n      dup3\n        /* \"#utility.yul\":33487:33498   */\n      gt\n        /* \"#utility.yul\":33484:33930   */\n      iszero\n      tag_816\n      jumpi\n        /* \"#utility.yul\":33529:33567   */\n      tag_817\n        /* \"#utility.yul\":33561:33566   */\n      dup2\n        /* \"#utility.yul\":33529:33567   */\n      tag_475\n      jump\t// in\n    tag_817:\n        /* \"#utility.yul\":33613:33642   */\n      tag_818\n        /* \"#utility.yul\":33631:33641   */\n      dup5\n        /* \"#utility.yul\":33613:33642   */\n      tag_476\n      jump\t// in\n    tag_818:\n        /* \"#utility.yul\":33603:33611   */\n      dup2\n        /* \"#utility.yul\":33599:33643   */\n      add\n        /* \"#utility.yul\":33796:33798   */\n      0x20\n        /* \"#utility.yul\":33784:33794   */\n      dup6\n        /* \"#utility.yul\":33781:33799   */\n      lt\n        /* \"#utility.yul\":33778:33827   */\n      iszero\n      tag_819\n      jumpi\n        /* \"#utility.yul\":33817:33825   */\n      dup2\n        /* \"#utility.yul\":33802:33825   */\n      swap1\n      pop\n        /* \"#utility.yul\":33778:33827   */\n    tag_819:\n        /* \"#utility.yul\":33840:33920   */\n      tag_820\n        /* \"#utility.yul\":33896:33918   */\n      tag_821\n        /* \"#utility.yul\":33914:33917   */\n      dup6\n        /* \"#utility.yul\":33896:33918   */\n      tag_476\n      jump\t// in\n    tag_821:\n        /* \"#utility.yul\":33886:33894   */\n      dup4\n        /* \"#utility.yul\":33882:33919   */\n      add\n        /* \"#utility.yul\":33869:33880   */\n      dup3\n        /* \"#utility.yul\":33840:33920   */\n      tag_485\n      jump\t// in\n    tag_820:\n        /* \"#utility.yul\":33499:33930   */\n      pop\n      pop\n        /* \"#utility.yul\":33484:33930   */\n    tag_816:\n        /* \"#utility.yul\":33394:33937   */\n      pop\n      pop\n      pop\n      jump\t// out\n        /* \"#utility.yul\":33943:34060   */\n    tag_487:\n        /* \"#utility.yul\":33997:34005   */\n      0x00\n        /* \"#utility.yul\":34047:34052   */\n      dup3\n        /* \"#utility.yul\":34041:34045   */\n      dup3\n        /* \"#utility.yul\":34037:34053   */\n      shr\n        /* \"#utility.yul\":34016:34053   */\n      swap1\n      pop\n        /* \"#utility.yul\":33943:34060   */\n      swap3\n      swap2\n      pop\n      pop\n      jump\t// out\n        /* \"#utility.yul\":34066:34235   */\n    tag_488:\n        /* \"#utility.yul\":34110:34116   */\n      0x00\n        /* \"#utility.yul\":34143:34194   */\n      tag_824\n        /* \"#utility.yul\":34191:34192   */\n      0x00\n        /* \"#utility.yul\":34187:34193   */\n      not\n        /* \"#utility.yul\":34179:34184   */\n      dup5\n        /* \"#utility.yul\":34176:34177   */\n      0x08\n        /* \"#utility.yul\":34172:34185   */\n      mul\n        /* \"#utility.yul\":34143:34194   */\n      tag_487\n      jump\t// in\n    tag_824:\n        /* \"#utility.yul\":34139:34195   */\n      not\n        /* \"#utility.yul\":34224:34228   */\n      dup1\n        /* \"#utility.yul\":34218:34222   */\n      dup4\n        /* \"#utility.yul\":34214:34229   */\n      and\n        /* \"#utility.yul\":34204:34229   */\n      swap2\n      pop\n        /* \"#utility.yul\":34117:34235   */\n      pop\n        /* \"#utility.yul\":34066:34235   */\n      swap3\n      swap2\n      pop\n      pop\n      jump\t// out\n        /* \"#utility.yul\":34240:34535   */\n    tag_489:\n        /* \"#utility.yul\":34316:34320   */\n      0x00\n        /* \"#utility.yul\":34462:34491   */\n      tag_826\n        /* \"#utility.yul\":34487:34490   */\n      dup4\n        /* \"#utility.yul\":34481:34485   */\n      dup4\n        /* \"#utility.yul\":34462:34491   */\n      tag_488\n      jump\t// in\n    tag_826:\n        /* \"#utility.yul\":34454:34491   */\n      swap2\n      pop\n        /* \"#utility.yul\":34524:34527   */\n      dup3\n        /* \"#utility.yul\":34521:34522   */\n      0x02\n        /* \"#utility.yul\":34517:34528   */\n      mul\n        /* \"#utility.yul\":34511:34515   */\n      dup3\n        /* \"#utility.yul\":34508:34529   */\n      or\n        /* \"#utility.yul\":34500:34529   */\n      swap1\n      pop\n        /* \"#utility.yul\":34240:34535   */\n      swap3\n      swap2\n      pop\n      pop\n      jump\t// out\n        /* \"#utility.yul\":34540:35935   */\n    tag_235:\n        /* \"#utility.yul\":34657:34694   */\n      tag_828\n        /* \"#utility.yul\":34690:34693   */\n      dup3\n        /* \"#utility.yul\":34657:34694   */\n      tag_433\n      jump\t// in\n    tag_828:\n        /* \"#utility.yul\":34759:34777   */\n      0xffffffffffffffff\n        /* \"#utility.yul\":34751:34757   */\n      dup2\n        /* \"#utility.yul\":34748:34778   */\n      gt\n        /* \"#utility.yul\":34745:34801   */\n      iszero\n      tag_829\n      jumpi\n        /* \"#utility.yul\":34781:34799   */\n      tag_830\n      tag_164\n      jump\t// in\n    tag_830:\n        /* \"#utility.yul\":34745:34801   */\n    tag_829:\n        /* \"#utility.yul\":34825:34863   */\n      tag_831\n        /* \"#utility.yul\":34857:34861   */\n      dup3\n        /* \"#utility.yul\":34851:34862   */\n      sload\n        /* \"#utility.yul\":34825:34863   */\n      tag_188\n      jump\t// in\n    tag_831:\n        /* \"#utility.yul\":34910:34977   */\n      tag_832\n        /* \"#utility.yul\":34970:34976   */\n      dup3\n        /* \"#utility.yul\":34962:34968   */\n      dup3\n        /* \"#utility.yul\":34956:34960   */\n      dup6\n        /* \"#utility.yul\":34910:34977   */\n      tag_486\n      jump\t// in\n    tag_832:\n        /* \"#utility.yul\":35004:35005   */\n      0x00\n        /* \"#utility.yul\":35028:35032   */\n      0x20\n        /* \"#utility.yul\":35015:35032   */\n      swap1\n      pop\n        /* \"#utility.yul\":35060:35062   */\n      0x1f\n        /* \"#utility.yul\":35052:35058   */\n      dup4\n        /* \"#utility.yul\":35049:35063   */\n      gt\n        /* \"#utility.yul\":35077:35078   */\n      0x01\n        /* \"#utility.yul\":35072:35690   */\n      dup2\n      eq\n      tag_834\n      jumpi\n        /* \"#utility.yul\":35734:35735   */\n      0x00\n        /* \"#utility.yul\":35751:35757   */\n      dup5\n        /* \"#utility.yul\":35748:35825   */\n      iszero\n      tag_835\n      jumpi\n        /* \"#utility.yul\":35800:35809   */\n      dup3\n        /* \"#utility.yul\":35795:35798   */\n      dup8\n        /* \"#utility.yul\":35791:35810   */\n      add\n        /* \"#utility.yul\":35785:35811   */\n      mload\n        /* \"#utility.yul\":35776:35811   */\n      swap1\n      pop\n        /* \"#utility.yul\":35748:35825   */\n    tag_835:\n        /* \"#utility.yul\":35851:35918   */\n      tag_836\n        /* \"#utility.yul\":35911:35917   */\n      dup6\n        /* \"#utility.yul\":35904:35909   */\n      dup3\n        /* \"#utility.yul\":35851:35918   */\n      tag_489\n      jump\t// in\n    tag_836:\n        /* \"#utility.yul\":35845:35849   */\n      dup7\n        /* \"#utility.yul\":35838:35919   */\n      sstore\n        /* \"#utility.yul\":35707:35929   */\n      pop\n        /* \"#utility.yul\":35042:35929   */\n      jump(tag_833)\n        /* \"#utility.yul\":35072:35690   */\n    tag_834:\n        /* \"#utility.yul\":35124:35128   */\n      0x1f\n        /* \"#utility.yul\":35120:35129   */\n      not\n        /* \"#utility.yul\":35112:35118   */\n      dup5\n        /* \"#utility.yul\":35108:35130   */\n      and\n        /* \"#utility.yul\":35158:35195   */\n      tag_837\n        /* \"#utility.yul\":35190:35194   */\n      dup7\n        /* \"#utility.yul\":35158:35195   */\n      tag_475\n      jump\t// in\n    tag_837:\n        /* \"#utility.yul\":35217:35218   */\n      0x00\n        /* \"#utility.yul\":35231:35439   */\n    tag_838:\n        /* \"#utility.yul\":35245:35252   */\n      dup3\n        /* \"#utility.yul\":35242:35243   */\n      dup2\n        /* \"#utility.yul\":35239:35253   */\n      lt\n        /* \"#utility.yul\":35231:35439   */\n      iszero\n      tag_840\n      jumpi\n        /* \"#utility.yul\":35324:35333   */\n      dup5\n        /* \"#utility.yul\":35319:35322   */\n      dup10\n        /* \"#utility.yul\":35315:35334   */\n      add\n        /* \"#utility.yul\":35309:35335   */\n      mload\n        /* \"#utility.yul\":35301:35307   */\n      dup3\n        /* \"#utility.yul\":35294:35336   */\n      sstore\n        /* \"#utility.yul\":35375:35376   */\n      0x01\n        /* \"#utility.yul\":35367:35373   */\n      dup3\n        /* \"#utility.yul\":35363:35377   */\n      add\n        /* \"#utility.yul\":35353:35377   */\n      swap2\n      pop\n        /* \"#utility.yul\":35422:35424   */\n      0x20\n        /* \"#utility.yul\":35411:35420   */\n      dup6\n        /* \"#utility.yul\":35407:35425   */\n      add\n        /* \"#utility.yul\":35394:35425   */\n      swap5\n      pop\n        /* \"#utility.yul\":35268:35272   */\n      0x20\n        /* \"#utility.yul\":35265:35266   */\n      dup2\n        /* \"#utility.yul\":35261:35273   */\n      add\n        /* \"#utility.yul\":35256:35273   */\n      swap1\n      pop\n        /* \"#utility.yul\":35231:35439   */\n      jump(tag_838)\n    tag_840:\n        /* \"#utility.yul\":35467:35473   */\n      dup7\n        /* \"#utility.yul\":35458:35465   */\n      dup4\n        /* \"#utility.yul\":35455:35474   */\n      lt\n        /* \"#utility.yul\":35452:35631   */\n      iszero\n      tag_841\n      jumpi\n        /* \"#utility.yul\":35525:35534   */\n      dup5\n        /* \"#utility.yul\":35520:35523   */\n      dup10\n        /* \"#utility.yul\":35516:35535   */\n      add\n        /* \"#utility.yul\":35510:35536   */\n      mload\n        /* \"#utility.yul\":35568:35616   */\n      tag_842\n        /* \"#utility.yul\":35610:35614   */\n      0x1f\n        /* \"#utility.yul\":35602:35608   */\n      dup10\n        /* \"#utility.yul\":35598:35615   */\n      and\n        /* \"#utility.yul\":35587:35596   */\n      dup3\n        /* \"#utility.yul\":35568:35616   */\n      tag_488\n      jump\t// in\n    tag_842:\n        /* \"#utility.yul\":35560:35566   */\n      dup4\n        /* \"#utility.yul\":35553:35617   */\n      sstore\n        /* \"#utility.yul\":35475:35631   */\n      pop\n        /* \"#utility.yul\":35452:35631   */\n    tag_841:\n        /* \"#utility.yul\":35677:35678   */\n      0x01\n        /* \"#utility.yul\":35673:35674   */\n      0x02\n        /* \"#utility.yul\":35665:35671   */\n      dup9\n        /* \"#utility.yul\":35661:35675   */\n      mul\n        /* \"#utility.yul\":35657:35679   */\n      add\n        /* \"#utility.yul\":35651:35655   */\n      dup9\n        /* \"#utility.yul\":35644:35680   */\n      sstore\n        /* \"#utility.yul\":35079:35690   */\n      pop\n      pop\n      pop\n        /* \"#utility.yul\":35042:35929   */\n    tag_833:\n      pop\n        /* \"#utility.yul\":34632:35935   */\n      pop\n      pop\n      pop\n        /* \"#utility.yul\":34540:35935   */\n      pop\n      pop\n      jump\t// out\n        /* \"#utility.yul\":35941:36123   */\n    tag_490:\n        /* \"#utility.yul\":36081:36115   */\n      0x4f6e6c792067796d732063616e2063616c6c20746869732066756e6374696f6e\n        /* \"#utility.yul\":36077:36078   */\n      0x00\n        /* \"#utility.yul\":36069:36075   */\n      dup3\n        /* \"#utility.yul\":36065:36079   */\n      add\n        /* \"#utility.yul\":36058:36116   */\n      mstore\n        /* \"#utility.yul\":35941:36123   */\n      pop\n      jump\t// out\n        /* \"#utility.yul\":36129:36495   */\n    tag_491:\n        /* \"#utility.yul\":36271:36274   */\n      0x00\n        /* \"#utility.yul\":36292:36359   */\n      tag_845\n        /* \"#utility.yul\":36356:36358   */\n      0x20\n        /* \"#utility.yul\":36351:36354   */\n      dup4\n        /* \"#utility.yul\":36292:36359   */\n      tag_434\n      jump\t// in\n    tag_845:\n        /* \"#utility.yul\":36285:36359   */\n      swap2\n      pop\n        /* \"#utility.yul\":36368:36461   */\n      tag_846\n        /* \"#utility.yul\":36457:36460   */\n      dup3\n        /* \"#utility.yul\":36368:36461   */\n      tag_490\n      jump\t// in\n    tag_846:\n        /* \"#utility.yul\":36486:36488   */\n      0x20\n        /* \"#utility.yul\":36481:36484   */\n      dup3\n        /* \"#utility.yul\":36477:36489   */\n      add\n        /* \"#utility.yul\":36470:36489   */\n      swap1\n      pop\n        /* \"#utility.yul\":36129:36495   */\n      swap2\n      swap1\n      pop\n      jump\t// out\n        /* \"#utility.yul\":36501:36920   */\n    tag_248:\n        /* \"#utility.yul\":36667:36671   */\n      0x00\n        /* \"#utility.yul\":36705:36707   */\n      0x20\n        /* \"#utility.yul\":36694:36703   */\n      dup3\n        /* \"#utility.yul\":36690:36708   */\n      add\n        /* \"#utility.yul\":36682:36708   */\n      swap1\n      pop\n        /* \"#utility.yul\":36754:36763   */\n      dup2\n        /* \"#utility.yul\":36748:36752   */\n      dup2\n        /* \"#utility.yul\":36744:36764   */\n      sub\n        /* \"#utility.yul\":36740:36741   */\n      0x00\n        /* \"#utility.yul\":36729:36738   */\n      dup4\n        /* \"#utility.yul\":36725:36742   */\n      add\n        /* \"#utility.yul\":36718:36765   */\n      mstore\n        /* \"#utility.yul\":36782:36913   */\n      tag_848\n        /* \"#utility.yul\":36908:36912   */\n      dup2\n        /* \"#utility.yul\":36782:36913   */\n      tag_491\n      jump\t// in\n    tag_848:\n        /* \"#utility.yul\":36774:36913   */\n      swap1\n      pop\n        /* \"#utility.yul\":36501:36920   */\n      swap2\n      swap1\n      pop\n      jump\t// out\n        /* \"#utility.yul\":36926:37088   */\n    tag_492:\n        /* \"#utility.yul\":37066:37080   */\n      0x4e6f742061206d656d6265720000000000000000000000000000000000000000\n        /* \"#utility.yul\":37062:37063   */\n      0x00\n        /* \"#utility.yul\":37054:37060   */\n      dup3\n        /* \"#utility.yul\":37050:37064   */\n      add\n        /* \"#utility.yul\":37043:37081   */\n      mstore\n        /* \"#utility.yul\":36926:37088   */\n      pop\n      jump\t// out\n        /* \"#utility.yul\":37094:37460   */\n    tag_493:\n        /* \"#utility.yul\":37236:37239   */\n      0x00\n        /* \"#utility.yul\":37257:37324   */\n      tag_851\n        /* \"#utility.yul\":37321:37323   */\n      0x0c\n        /* \"#utility.yul\":37316:37319   */\n      dup4\n        /* \"#utility.yul\":37257:37324   */\n      tag_434\n      jump\t// in\n    tag_851:\n        /* \"#utility.yul\":37250:37324   */\n      swap2\n      pop\n        /* \"#utility.yul\":37333:37426   */\n      tag_852\n        /* \"#utility.yul\":37422:37425   */\n      dup3\n        /* \"#utility.yul\":37333:37426   */\n      tag_492\n      jump\t// in\n    tag_852:\n        /* \"#utility.yul\":37451:37453   */\n      0x20\n        /* \"#utility.yul\":37446:37449   */\n      dup3\n        /* \"#utility.yul\":37442:37454   */\n      add\n        /* \"#utility.yul\":37435:37454   */\n      swap1\n      pop\n        /* \"#utility.yul\":37094:37460   */\n      swap2\n      swap1\n      pop\n      jump\t// out\n        /* \"#utility.yul\":37466:37885   */\n    tag_279:\n        /* \"#utility.yul\":37632:37636   */\n      0x00\n        /* \"#utility.yul\":37670:37672   */\n      0x20\n        /* \"#utility.yul\":37659:37668   */\n      dup3\n        /* \"#utility.yul\":37655:37673   */\n      add\n        /* \"#utility.yul\":37647:37673   */\n      swap1\n      pop\n        /* \"#utility.yul\":37719:37728   */\n      dup2\n        /* \"#utility.yul\":37713:37717   */\n      dup2\n        /* \"#utility.yul\":37709:37729   */\n      sub\n        /* \"#utility.yul\":37705:37706   */\n      0x00\n        /* \"#utility.yul\":37694:37703   */\n      dup4\n        /* \"#utility.yul\":37690:37707   */\n      add\n        /* \"#utility.yul\":37683:37730   */\n      mstore\n        /* \"#utility.yul\":37747:37878   */\n      tag_854\n        /* \"#utility.yul\":37873:37877   */\n      dup2\n        /* \"#utility.yul\":37747:37878   */\n      tag_493\n      jump\t// in\n    tag_854:\n        /* \"#utility.yul\":37739:37878   */\n      swap1\n      pop\n        /* \"#utility.yul\":37466:37885   */\n      swap2\n      swap1\n      pop\n      jump\t// out\n        /* \"#utility.yul\":37891:38054   */\n    tag_494:\n        /* \"#utility.yul\":38031:38046   */\n      0x496e636f72726563742066656500000000000000000000000000000000000000\n        /* \"#utility.yul\":38027:38028   */\n      0x00\n        /* \"#utility.yul\":38019:38025   */\n      dup3\n        /* \"#utility.yul\":38015:38029   */\n      add\n        /* \"#utility.yul\":38008:38047   */\n      mstore\n        /* \"#utility.yul\":37891:38054   */\n      pop\n      jump\t// out\n        /* \"#utility.yul\":38060:38426   */\n    tag_495:\n        /* \"#utility.yul\":38202:38205   */\n      0x00\n        /* \"#utility.yul\":38223:38290   */\n      tag_857\n        /* \"#utility.yul\":38287:38289   */\n      0x0d\n        /* \"#utility.yul\":38282:38285   */\n      dup4\n        /* \"#utility.yul\":38223:38290   */\n      tag_434\n      jump\t// in\n    tag_857:\n        /* \"#utility.yul\":38216:38290   */\n      swap2\n      pop\n        /* \"#utility.yul\":38299:38392   */\n      tag_858\n        /* \"#utility.yul\":38388:38391   */\n      dup3\n        /* \"#utility.yul\":38299:38392   */\n      tag_494\n      jump\t// in\n    tag_858:\n        /* \"#utility.yul\":38417:38419   */\n      0x20\n        /* \"#utility.yul\":38412:38415   */\n      dup3\n        /* \"#utility.yul\":38408:38420   */\n      add\n        /* \"#utility.yul\":38401:38420   */\n      swap1\n      pop\n        /* \"#utility.yul\":38060:38426   */\n      swap2\n      swap1\n      pop\n      jump\t// out\n        /* \"#utility.yul\":38432:38851   */\n    tag_327:\n        /* \"#utility.yul\":38598:38602   */\n      0x00\n        /* \"#utility.yul\":38636:38638   */\n      0x20\n        /* \"#utility.yul\":38625:38634   */\n      dup3\n        /* \"#utility.yul\":38621:38639   */\n      add\n        /* \"#utility.yul\":38613:38639   */\n      swap1\n      pop\n        /* \"#utility.yul\":38685:38694   */\n      dup2\n        /* \"#utility.yul\":38679:38683   */\n      dup2\n        /* \"#utility.yul\":38675:38695   */\n      sub\n        /* \"#utility.yul\":38671:38672   */\n      0x00\n        /* \"#utility.yul\":38660:38669   */\n      dup4\n        /* \"#utility.yul\":38656:38673   */\n      add\n        /* \"#utility.yul\":38649:38696   */\n      mstore\n        /* \"#utility.yul\":38713:38844   */\n      tag_860\n        /* \"#utility.yul\":38839:38843   */\n      dup2\n        /* \"#utility.yul\":38713:38844   */\n      tag_495\n      jump\t// in\n    tag_860:\n        /* \"#utility.yul\":38705:38844   */\n      swap1\n      pop\n        /* \"#utility.yul\":38432:38851   */\n      swap2\n      swap1\n      pop\n      jump\t// out\n        /* \"#utility.yul\":38857:39023   */\n    tag_496:\n        /* \"#utility.yul\":38997:39015   */\n      0x416c72656164792061206d656d62657200000000000000000000000000000000\n        /* \"#utility.yul\":38993:38994   */\n      0x00\n        /* \"#utility.yul\":38985:38991   */\n      dup3\n        /* \"#utility.yul\":38981:38995   */\n      add\n        /* \"#utility.yul\":38974:39016   */\n      mstore\n        /* \"#utility.yul\":38857:39023   */\n      pop\n      jump\t// out\n        /* \"#utility.yul\":39029:39395   */\n    tag_497:\n        /* \"#utility.yul\":39171:39174   */\n      0x00\n        /* \"#utility.yul\":39192:39259   */\n      tag_863\n        /* \"#utility.yul\":39256:39258   */\n      0x10\n        /* \"#utility.yul\":39251:39254   */\n      dup4\n        /* \"#utility.yul\":39192:39259   */\n      tag_434\n      jump\t// in\n    tag_863:\n        /* \"#utility.yul\":39185:39259   */\n      swap2\n      pop\n        /* \"#utility.yul\":39268:39361   */\n      tag_864\n        /* \"#utility.yul\":39357:39360   */\n      dup3\n        /* \"#utility.yul\":39268:39361   */\n      tag_496\n      jump\t// in\n    tag_864:\n        /* \"#utility.yul\":39386:39388   */\n      0x20\n        /* \"#utility.yul\":39381:39384   */\n      dup3\n        /* \"#utility.yul\":39377:39389   */\n      add\n        /* \"#utility.yul\":39370:39389   */\n      swap1\n      pop\n        /* \"#utility.yul\":39029:39395   */\n      swap2\n      swap1\n      pop\n      jump\t// out\n        /* \"#utility.yul\":39401:39820   */\n    tag_336:\n        /* \"#utility.yul\":39567:39571   */\n      0x00\n        /* \"#utility.yul\":39605:39607   */\n      0x20\n        /* \"#utility.yul\":39594:39603   */\n      dup3\n        /* \"#utility.yul\":39590:39608   */\n      add\n        /* \"#utility.yul\":39582:39608   */\n      swap1\n      pop\n        /* \"#utility.yul\":39654:39663   */\n      dup2\n        /* \"#utility.yul\":39648:39652   */\n      dup2\n        /* \"#utility.yul\":39644:39664   */\n      sub\n        /* \"#utility.yul\":39640:39641   */\n      0x00\n        /* \"#utility.yul\":39629:39638   */\n      dup4\n        /* \"#utility.yul\":39625:39642   */\n      add\n        /* \"#utility.yul\":39618:39665   */\n      mstore\n        /* \"#utility.yul\":39682:39813   */\n      tag_866\n        /* \"#utility.yul\":39808:39812   */\n      dup2\n        /* \"#utility.yul\":39682:39813   */\n      tag_497\n      jump\t// in\n    tag_866:\n        /* \"#utility.yul\":39674:39813   */\n      swap1\n      pop\n        /* \"#utility.yul\":39401:39820   */\n      swap2\n      swap1\n      pop\n      jump\t// out\n        /* \"#utility.yul\":39826:40006   */\n    tag_498:\n        /* \"#utility.yul\":39966:39998   */\n      0x41646472657373206973207265676973746572656420617320612067796d0000\n        /* \"#utility.yul\":39962:39963   */\n      0x00\n        /* \"#utility.yul\":39954:39960   */\n      dup3\n        /* \"#utility.yul\":39950:39964   */\n      add\n        /* \"#utility.yul\":39943:39999   */\n      mstore\n        /* \"#utility.yul\":39826:40006   */\n      pop\n      jump\t// out\n        /* \"#utility.yul\":40012:40378   */\n    tag_499:\n        /* \"#utility.yul\":40154:40157   */\n      0x00\n        /* \"#utility.yul\":40175:40242   */\n      tag_869\n        /* \"#utility.yul\":40239:40241   */\n      0x1e\n        /* \"#utility.yul\":40234:40237   */\n      dup4\n        /* \"#utility.yul\":40175:40242   */\n      tag_434\n      jump\t// in\n    tag_869:\n        /* \"#utility.yul\":40168:40242   */\n      swap2\n      pop\n        /* \"#utility.yul\":40251:40344   */\n      tag_870\n        /* \"#utility.yul\":40340:40343   */\n      dup3\n        /* \"#utility.yul\":40251:40344   */\n      tag_498\n      jump\t// in\n    tag_870:\n        /* \"#utility.yul\":40369:40371   */\n      0x20\n        /* \"#utility.yul\":40364:40367   */\n      dup3\n        /* \"#utility.yul\":40360:40372   */\n      add\n        /* \"#utility.yul\":40353:40372   */\n      swap1\n      pop\n        /* \"#utility.yul\":40012:40378   */\n      swap2\n      swap1\n      pop\n      jump\t// out\n        /* \"#utility.yul\":40384:40803   */\n    tag_339:\n        /* \"#utility.yul\":40550:40554   */\n      0x00\n        /* \"#utility.yul\":40588:40590   */\n      0x20\n        /* \"#utility.yul\":40577:40586   */\n      dup3\n        /* \"#utility.yul\":40573:40591   */\n      add\n        /* \"#utility.yul\":40565:40591   */\n      swap1\n      pop\n        /* \"#utility.yul\":40637:40646   */\n      dup2\n        /* \"#utility.yul\":40631:40635   */\n      dup2\n        /* \"#utility.yul\":40627:40647   */\n      sub\n        /* \"#utility.yul\":40623:40624   */\n      0x00\n        /* \"#utility.yul\":40612:40621   */\n      dup4\n        /* \"#utility.yul\":40608:40625   */\n      add\n        /* \"#utility.yul\":40601:40648   */\n      mstore\n        /* \"#utility.yul\":40665:40796   */\n      tag_872\n        /* \"#utility.yul\":40791:40795   */\n      dup2\n        /* \"#utility.yul\":40665:40796   */\n      tag_499\n      jump\t// in\n    tag_872:\n        /* \"#utility.yul\":40657:40796   */\n      swap1\n      pop\n        /* \"#utility.yul\":40384:40803   */\n      swap2\n      swap1\n      pop\n      jump\t// out\n        /* \"#utility.yul\":40809:40982   */\n    tag_500:\n        /* \"#utility.yul\":40949:40974   */\n      0x4e6f206561726e696e677320746f207769746864726177000000000000000000\n        /* \"#utility.yul\":40945:40946   */\n      0x00\n        /* \"#utility.yul\":40937:40943   */\n      dup3\n        /* \"#utility.yul\":40933:40947   */\n      add\n        /* \"#utility.yul\":40926:40975   */\n      mstore\n        /* \"#utility.yul\":40809:40982   */\n      pop\n      jump\t// out\n        /* \"#utility.yul\":40988:41354   */\n    tag_501:\n        /* \"#utility.yul\":41130:41133   */\n      0x00\n        /* \"#utility.yul\":41151:41218   */\n      tag_875\n        /* \"#utility.yul\":41215:41217   */\n      0x17\n        /* \"#utility.yul\":41210:41213   */\n      dup4\n        /* \"#utility.yul\":41151:41218   */\n      tag_434\n      jump\t// in\n    tag_875:\n        /* \"#utility.yul\":41144:41218   */\n      swap2\n      pop\n        /* \"#utility.yul\":41227:41320   */\n      tag_876\n        /* \"#utility.yul\":41316:41319   */\n      dup3\n        /* \"#utility.yul\":41227:41320   */\n      tag_500\n      jump\t// in\n    tag_876:\n        /* \"#utility.yul\":41345:41347   */\n      0x20\n        /* \"#utility.yul\":41340:41343   */\n      dup3\n        /* \"#utility.yul\":41336:41348   */\n      add\n        /* \"#utility.yul\":41329:41348   */\n      swap1\n      pop\n        /* \"#utility.yul\":40988:41354   */\n      swap2\n      swap1\n      pop\n      jump\t// out\n        /* \"#utility.yul\":41360:41779   */\n    tag_348:\n        /* \"#utility.yul\":41526:41530   */\n      0x00\n        /* \"#utility.yul\":41564:41566   */\n      0x20\n        /* \"#utility.yul\":41553:41562   */\n      dup3\n        /* \"#utility.yul\":41549:41567   */\n      add\n        /* \"#utility.yul\":41541:41567   */\n      swap1\n      pop\n        /* \"#utility.yul\":41613:41622   */\n      dup2\n        /* \"#utility.yul\":41607:41611   */\n      dup2\n        /* \"#utility.yul\":41603:41623   */\n      sub\n        /* \"#utility.yul\":41599:41600   */\n      0x00\n        /* \"#utility.yul\":41588:41597   */\n      dup4\n        /* \"#utility.yul\":41584:41601   */\n      add\n        /* \"#utility.yul\":41577:41624   */\n      mstore\n        /* \"#utility.yul\":41641:41772   */\n      tag_878\n        /* \"#utility.yul\":41767:41771   */\n      dup2\n        /* \"#utility.yul\":41641:41772   */\n      tag_501\n      jump\t// in\n    tag_878:\n        /* \"#utility.yul\":41633:41772   */\n      swap1\n      pop\n        /* \"#utility.yul\":41360:41779   */\n      swap2\n      swap1\n      pop\n      jump\t// out\n        /* \"#utility.yul\":41785:41948   */\n    tag_502:\n        /* \"#utility.yul\":41925:41940   */\n      0x416c726561647920612067796d00000000000000000000000000000000000000\n        /* \"#utility.yul\":41921:41922   */\n      0x00\n        /* \"#utility.yul\":41913:41919   */\n      dup3\n        /* \"#utility.yul\":41909:41923   */\n      add\n        /* \"#utility.yul\":41902:41941   */\n      mstore\n        /* \"#utility.yul\":41785:41948   */\n      pop\n      jump\t// out\n        /* \"#utility.yul\":41954:42320   */\n    tag_503:\n        /* \"#utility.yul\":42096:42099   */\n      0x00\n        /* \"#utility.yul\":42117:42184   */\n      tag_881\n        /* \"#utility.yul\":42181:42183   */\n      0x0d\n        /* \"#utility.yul\":42176:42179   */\n      dup4\n        /* \"#utility.yul\":42117:42184   */\n      tag_434\n      jump\t// in\n    tag_881:\n        /* \"#utility.yul\":42110:42184   */\n      swap2\n      pop\n        /* \"#utility.yul\":42193:42286   */\n      tag_882\n        /* \"#utility.yul\":42282:42285   */\n      dup3\n        /* \"#utility.yul\":42193:42286   */\n      tag_502\n      jump\t// in\n    tag_882:\n        /* \"#utility.yul\":42311:42313   */\n      0x20\n        /* \"#utility.yul\":42306:42309   */\n      dup3\n        /* \"#utility.yul\":42302:42314   */\n      add\n        /* \"#utility.yul\":42295:42314   */\n      swap1\n      pop\n        /* \"#utility.yul\":41954:42320   */\n      swap2\n      swap1\n      pop\n      jump\t// out\n        /* \"#utility.yul\":42326:42745   */\n    tag_364:\n        /* \"#utility.yul\":42492:42496   */\n      0x00\n        /* \"#utility.yul\":42530:42532   */\n      0x20\n        /* \"#utility.yul\":42519:42528   */\n      dup3\n        /* \"#utility.yul\":42515:42533   */\n      add\n        /* \"#utility.yul\":42507:42533   */\n      swap1\n      pop\n        /* \"#utility.yul\":42579:42588   */\n      dup2\n        /* \"#utility.yul\":42573:42577   */\n      dup2\n        /* \"#utility.yul\":42569:42589   */\n      sub\n        /* \"#utility.yul\":42565:42566   */\n      0x00\n        /* \"#utility.yul\":42554:42563   */\n      dup4\n        /* \"#utility.yul\":42550:42567   */\n      add\n        /* \"#utility.yul\":42543:42590   */\n      mstore\n        /* \"#utility.yul\":42607:42738   */\n      tag_884\n        /* \"#utility.yul\":42733:42737   */\n      dup2\n        /* \"#utility.yul\":42607:42738   */\n      tag_503\n      jump\t// in\n    tag_884:\n        /* \"#utility.yul\":42599:42738   */\n      swap1\n      pop\n        /* \"#utility.yul\":42326:42745   */\n      swap2\n      swap1\n      pop\n      jump\t// out\n        /* \"#utility.yul\":42751:42971   */\n    tag_504:\n        /* \"#utility.yul\":42891:42925   */\n      0x4164647265737320697320726567697374657265642061732061206d656d6265\n        /* \"#utility.yul\":42887:42888   */\n      0x00\n        /* \"#utility.yul\":42879:42885   */\n      dup3\n        /* \"#utility.yul\":42875:42889   */\n      add\n        /* \"#utility.yul\":42868:42926   */\n      mstore\n        /* \"#utility.yul\":42960:42963   */\n      0x7200000000000000000000000000000000000000000000000000000000000000\n        /* \"#utility.yul\":42955:42957   */\n      0x20\n        /* \"#utility.yul\":42947:42953   */\n      dup3\n        /* \"#utility.yul\":42943:42958   */\n      add\n        /* \"#utility.yul\":42936:42964   */\n      mstore\n        /* \"#utility.yul\":42751:42971   */\n      pop\n      jump\t// out\n        /* \"#utility.yul\":42977:43343   */\n    tag_505:\n        /* \"#utility.yul\":43119:43122   */\n      0x00\n        /* \"#utility.yul\":43140:43207   */\n      tag_887\n        /* \"#utility.yul\":43204:43206   */\n      0x21\n        /* \"#utility.yul\":43199:43202   */\n      dup4\n        /* \"#utility.yul\":43140:43207   */\n      tag_434\n      jump\t// in\n    tag_887:\n        /* \"#utility.yul\":43133:43207   */\n      swap2\n      pop\n        /* \"#utility.yul\":43216:43309   */\n      tag_888\n        /* \"#utility.yul\":43305:43308   */\n      dup3\n        /* \"#utility.yul\":43216:43309   */\n      tag_504\n      jump\t// in\n    tag_888:\n        /* \"#utility.yul\":43334:43336   */\n      0x40\n        /* \"#utility.yul\":43329:43332   */\n      dup3\n        /* \"#utility.yul\":43325:43337   */\n      add\n        /* \"#utility.yul\":43318:43337   */\n      swap1\n      pop\n        /* \"#utility.yul\":42977:43343   */\n      swap2\n      swap1\n      pop\n      jump\t// out\n        /* \"#utility.yul\":43349:43768   */\n    tag_367:\n        /* \"#utility.yul\":43515:43519   */\n      0x00\n        /* \"#utility.yul\":43553:43555   */\n      0x20\n        /* \"#utility.yul\":43542:43551   */\n      dup3\n        /* \"#utility.yul\":43538:43556   */\n      add\n        /* \"#utility.yul\":43530:43556   */\n      swap1\n      pop\n        /* \"#utility.yul\":43602:43611   */\n      dup2\n        /* \"#utility.yul\":43596:43600   */\n      dup2\n        /* \"#utility.yul\":43592:43612   */\n      sub\n        /* \"#utility.yul\":43588:43589   */\n      0x00\n        /* \"#utility.yul\":43577:43586   */\n      dup4\n        /* \"#utility.yul\":43573:43590   */\n      add\n        /* \"#utility.yul\":43566:43613   */\n      mstore\n        /* \"#utility.yul\":43630:43761   */\n      tag_890\n        /* \"#utility.yul\":43756:43760   */\n      dup2\n        /* \"#utility.yul\":43630:43761   */\n      tag_505\n      jump\t// in\n    tag_890:\n        /* \"#utility.yul\":43622:43761   */\n      swap1\n      pop\n        /* \"#utility.yul\":43349:43768   */\n      swap2\n      swap1\n      pop\n      jump\t// out\n        /* \"#utility.yul\":43774:43940   */\n    tag_506:\n        /* \"#utility.yul\":43914:43932   */\n      0x496e76616c6964206475726174696f6e00000000000000000000000000000000\n        /* \"#utility.yul\":43910:43911   */\n      0x00\n        /* \"#utility.yul\":43902:43908   */\n      dup3\n        /* \"#utility.yul\":43898:43912   */\n      add\n        /* \"#utility.yul\":43891:43933   */\n      mstore\n        /* \"#utility.yul\":43774:43940   */\n      pop\n      jump\t// out\n        /* \"#utility.yul\":43946:44312   */\n    tag_507:\n        /* \"#utility.yul\":44088:44091   */\n      0x00\n        /* \"#utility.yul\":44109:44176   */\n      tag_893\n        /* \"#utility.yul\":44173:44175   */\n      0x10\n        /* \"#utility.yul\":44168:44171   */\n      dup4\n        /* \"#utility.yul\":44109:44176   */\n      tag_434\n      jump\t// in\n    tag_893:\n        /* \"#utility.yul\":44102:44176   */\n      swap2\n      pop\n        /* \"#utility.yul\":44185:44278   */\n      tag_894\n        /* \"#utility.yul\":44274:44277   */\n      dup3\n        /* \"#utility.yul\":44185:44278   */\n      tag_506\n      jump\t// in\n    tag_894:\n        /* \"#utility.yul\":44303:44305   */\n      0x20\n        /* \"#utility.yul\":44298:44301   */\n      dup3\n        /* \"#utility.yul\":44294:44306   */\n      add\n        /* \"#utility.yul\":44287:44306   */\n      swap1\n      pop\n        /* \"#utility.yul\":43946:44312   */\n      swap2\n      swap1\n      pop\n      jump\t// out\n        /* \"#utility.yul\":44318:44737   */\n    tag_406:\n        /* \"#utility.yul\":44484:44488   */\n      0x00\n        /* \"#utility.yul\":44522:44524   */\n      0x20\n        /* \"#utility.yul\":44511:44520   */\n      dup3\n        /* \"#utility.yul\":44507:44525   */\n      add\n        /* \"#utility.yul\":44499:44525   */\n      swap1\n      pop\n        /* \"#utility.yul\":44571:44580   */\n      dup2\n        /* \"#utility.yul\":44565:44569   */\n      dup2\n        /* \"#utility.yul\":44561:44581   */\n      sub\n        /* \"#utility.yul\":44557:44558   */\n      0x00\n        /* \"#utility.yul\":44546:44555   */\n      dup4\n        /* \"#utility.yul\":44542:44559   */\n      add\n        /* \"#utility.yul\":44535:44582   */\n      mstore\n        /* \"#utility.yul\":44599:44730   */\n      tag_896\n        /* \"#utility.yul\":44725:44729   */\n      dup2\n        /* \"#utility.yul\":44599:44730   */\n      tag_507\n      jump\t// in\n    tag_896:\n        /* \"#utility.yul\":44591:44730   */\n      swap1\n      pop\n        /* \"#utility.yul\":44318:44737   */\n      swap2\n      swap1\n      pop\n      jump\t// out\n\n    auxdata: 0xa26469706673582212201cec630da1c35b32d604ac173aa218eed8b779e93daa190fb137b1b5faecca3d64736f6c634300081a0033\n}\n",
				"bytecode": {
					"linkReferences": {},
					"object": "6080604052348015600e575f80fd5b503360065f6101000a81548173ffffffffffffffffffffffffffffffffffffffff021916908373ffffffffffffffffffffffffffffffffffffffff1602179055506145fb8061005c5f395ff3fe60806040526004361061013f575f3560e01c80637d4e1be3116100b5578063ca4cba8e1161006e578063ca4cba8e14610487578063cc4e6299146104c3578063da9f67fe146104ff578063dc1d918814610529578063dfd7307714610551578063f377b3c0146105795761013f565b80637d4e1be3146103895780638149f74c146103c75780638da5cb5b146103e35780639c6e3e321461040d578063a230c52414610435578063b73c6ce9146104715761013f565b80633433607711610107578063343360771461024e5780634876aebc146102765780635d762fb8146102a15780635f1231ea146102dd57806378f5fa0a1461031d5780637c0f6b351461035f5761013f565b806305d528121461014357806308ae4b0c1461018057806309d050f8146101c25780631dbe316b146101ea5780632b5dd63014610226575b5f80fd5b34801561014e575f80fd5b5061016960048036038101906101649190613092565b6105b6565b604051610177929190613234565b60405180910390f35b34801561018b575f80fd5b506101a660048036038101906101a19190613092565b6109b0565b6040516101b99796959493929190613302565b60405180910390f35b3480156101cd575f80fd5b506101e860048036038101906101e391906133a0565b610a7f565b005b3480156101f5575f80fd5b50610210600480360381019061020b9190613092565b610c5a565b60405161021d91906133de565b60405180910390f35b348015610231575f80fd5b5061024c60048036038101906102479190613092565b610e08565b005b348015610259575f80fd5b50610274600480360381019061026f9190613523565b611193565b005b348015610281575f80fd5b5061028a6112d6565b604051610298929190613680565b60405180910390f35b3480156102ac575f80fd5b506102c760048036038101906102c29190613092565b611641565b6040516102d491906136b5565b60405180910390f35b3480156102e8575f80fd5b5061030360048036038101906102fe9190613092565b61165e565b6040516103149594939291906136ce565b60405180910390f35b348015610328575f80fd5b50610343600480360381019061033e9190613092565b611876565b60405161035697969594939291906137e0565b60405180910390f35b34801561036a575f80fd5b50610373611aa8565b6040516103809190613860565b60405180910390f35b348015610394575f80fd5b506103af60048036038101906103aa91906133a0565b611bc2565b6040516103be93929190613880565b60405180910390f35b6103e160048036038101906103dc91906133a0565b611dd3565b005b3480156103ee575f80fd5b506103f76120f0565b60405161040491906138cb565b60405180910390f35b348015610418575f80fd5b50610433600480360381019061042e91906138e4565b612115565b005b348015610440575f80fd5b5061045b60048036038101906104569190613092565b61237c565b60405161046891906136b5565b60405180910390f35b34801561047c575f80fd5b50610485612399565b005b348015610492575f80fd5b506104ad60048036038101906104a89190613964565b6124fd565b6040516104ba91906138cb565b60405180910390f35b3480156104ce575f80fd5b506104e960048036038101906104e49190613964565b612538565b6040516104f691906138cb565b60405180910390f35b34801561050a575f80fd5b50610513612573565b6040516105209190613860565b60405180910390f35b348015610534575f80fd5b5061054f600480360381019061054a919061398f565b61268d565b005b34801561055c575f80fd5b5061057760048036038101906105729190613aa7565b6128f0565b005b348015610584575f80fd5b5061059f600480360381019061059a91906133a0565b612c85565b6040516105ad929190613b3a565b60405180910390f35b60608060065f9054906101000a900473ffffffffffffffffffffffffffffffffffffffff1673ffffffffffffffffffffffffffffffffffffffff163373ffffffffffffffffffffffffffffffffffffffff1614610648576040517f08c379a000000000000000000000000000000000000000000000000000000000815260040161063f90613bd8565b60405180910390fd5b5f805f8573ffffffffffffffffffffffffffffffffffffffff1673ffffffffffffffffffffffffffffffffffffffff1681526020019081526020015f2090505f805b6005805490508110156107355742836009015f600584815481106106b1576106b0613bf6565b5b905f5260205f20015f9054906101000a900473ffffffffffffffffffffffffffffffffffffffff1673ffffffffffffffffffffffffffffffffffffffff1673ffffffffffffffffffffffffffffffffffffffff1681526020019081526020015f2054111561072857818061072490613c50565b9250505b808060010191505061068a565b505f8167ffffffffffffffff811115610751576107506133ff565b5b60405190808252806020026020018201604052801561077f5781602001602082028036833780820191505090505b5090505f8267ffffffffffffffff81111561079d5761079c6133ff565b5b6040519080825280602002602001820160405280156107cb5781602001602082028036833780820191505090505b5090505f805b60058054905081101561099f5742866009015f600584815481106107f8576107f7613bf6565b5b905f5260205f20015f9054906101000a900473ffffffffffffffffffffffffffffffffffffffff1673ffffffffffffffffffffffffffffffffffffffff1673ffffffffffffffffffffffffffffffffffffffff1681526020019081526020015f20541115610992576005818154811061087457610873613bf6565b5b905f5260205f20015f9054906101000a900473ffffffffffffffffffffffffffffffffffffffff168483815181106108af576108ae613bf6565b5b602002602001019073ffffffffffffffffffffffffffffffffffffffff16908173ffffffffffffffffffffffffffffffffffffffff1681525050856009015f6005838154811061090257610901613bf6565b5b905f5260205f20015f9054906101000a900473ffffffffffffffffffffffffffffffffffffffff1673ffffffffffffffffffffffffffffffffffffffff1673ffffffffffffffffffffffffffffffffffffffff1681526020019081526020015f205483838151811061097757610976613bf6565b5b602002602001018181525050818061098e90613c50565b9250505b80806001019150506107d1565b508282965096505050505050915091565b5f602052805f5260405f205f91509050805f0180546109ce90613cc4565b80601f01602080910402602001604051908101604052809291908181526020018280546109fa90613cc4565b8015610a455780601f10610a1c57610100808354040283529160200191610a45565b820191905f5260205f20905b815481529060010190602001808311610a2857829003601f168201915b505050505090806001015490806002015490806003015490806004015490806005015490806006015f9054906101000a900460ff16905087565b60015f3373ffffffffffffffffffffffffffffffffffffffff1673ffffffffffffffffffffffffffffffffffffffff1681526020019081526020015f205f9054906101000a900460ff16610b08576040517f08c379a0000000000000000000000000000000000000000000000000000000008152600401610aff90613d64565b60405180910390fd5b60035f8373ffffffffffffffffffffffffffffffffffffffff1673ffffffffffffffffffffffffffffffffffffffff1681526020019081526020015f205f9054906101000a900460ff16610b91576040517f08c379a0000000000000000000000000000000000000000000000000000000008152600401610b8890613dcc565b60405180910390fd5b60018110158015610ba3575060058111155b610be2576040517f08c379a0000000000000000000000000000000000000000000000000000000008152600401610bd990613e34565b60405180910390fd5b5f60025f8473ffffffffffffffffffffffffffffffffffffffff1673ffffffffffffffffffffffffffffffffffffffff1681526020019081526020015f20905081816008015f828254610c359190613e52565b92505081905550806009015f815480929190610c5090613c50565b9190505550505050565b5f60065f9054906101000a900473ffffffffffffffffffffffffffffffffffffffff1673ffffffffffffffffffffffffffffffffffffffff163373ffffffffffffffffffffffffffffffffffffffff1614610cea576040517f08c379a0000000000000000000000000000000000000000000000000000000008152600401610ce190613bd8565b60405180910390fd5b60035f8373ffffffffffffffffffffffffffffffffffffffff1673ffffffffffffffffffffffffffffffffffffffff1681526020019081526020015f205f9054906101000a900460ff16610d73576040517f08c379a0000000000000000000000000000000000000000000000000000000008152600401610d6a90613dcc565b60405180910390fd5b5f60025f8473ffffffffffffffffffffffffffffffffffffffff1673ffffffffffffffffffffffffffffffffffffffff1681526020019081526020015f2090505f816009015403610dd75760018160070154610dcf9190613e85565b915050610e03565b5f81600901548260080154610dec9190613ef3565b9050808260070154610dfe9190613e85565b925050505b919050565b60015f3373ffffffffffffffffffffffffffffffffffffffff1673ffffffffffffffffffffffffffffffffffffffff1681526020019081526020015f205f9054906101000a900460ff16610e91576040517f08c379a0000000000000000000000000000000000000000000000000000000008152600401610e8890613d64565b60405180910390fd5b60035f8273ffffffffffffffffffffffffffffffffffffffff1673ffffffffffffffffffffffffffffffffffffffff1681526020019081526020015f205f9054906101000a900460ff16610f1a576040517f08c379a0000000000000000000000000000000000000000000000000000000008152600401610f1190613dcc565b60405180910390fd5b425f803373ffffffffffffffffffffffffffffffffffffffff1673ffffffffffffffffffffffffffffffffffffffff1681526020019081526020015f206009015f8373ffffffffffffffffffffffffffffffffffffffff1673ffffffffffffffffffffffffffffffffffffffff1681526020019081526020015f205411610fd6576040517f08c379a0000000000000000000000000000000000000000000000000000000008152600401610fcd90613f6d565b60405180910390fd5b5f805f3373ffffffffffffffffffffffffffffffffffffffff1673ffffffffffffffffffffffffffffffffffffffff1681526020019081526020015f2090505f60025f8473ffffffffffffffffffffffffffffffffffffffff1673ffffffffffffffffffffffffffffffffffffffff1681526020019081526020015f2090506040518060400160405280825f01805461106e90613cc4565b80601f016020809104026020016040519081016040528092919081815260200182805461109a90613cc4565b80156110e55780601f106110bc576101008083540402835291602001916110e5565b820191905f5260205f20905b8154815290600101906020018083116110c857829003601f168201915b5050505050815260200142815250826008015f846005015481526020019081526020015f205f820151815f01908161111d9190614128565b5060208201518160010155905050816005015f81548092919061113f90613c50565b91905055508273ffffffffffffffffffffffffffffffffffffffff166108fc826001015f015490811502906040515f60405180830381858888f1935050505015801561118d573d5f803e3d5ffd5b50505050565b60015f3373ffffffffffffffffffffffffffffffffffffffff1673ffffffffffffffffffffffffffffffffffffffff1681526020019081526020015f205f9054906101000a900460ff1661121c576040517f08c379a000000000000000000000000000000000000000000000000000000000815260040161121390613d64565b60405180910390fd5b5f805f3373ffffffffffffffffffffffffffffffffffffffff1673ffffffffffffffffffffffffffffffffffffffff1681526020019081526020015f209050604051806060016040528084815260200183815260200142815250816007015f836004015481526020019081526020015f205f820151815f0190816112a09190614128565b506020820151816001015560408201518160020155905050806004015f8154809291906112cc90613c50565b9190505550505050565b60608060035f3373ffffffffffffffffffffffffffffffffffffffff1673ffffffffffffffffffffffffffffffffffffffff1681526020019081526020015f205f9054906101000a900460ff16611362576040517f08c379a000000000000000000000000000000000000000000000000000000000815260040161135990614241565b60405180910390fd5b5f60025f3373ffffffffffffffffffffffffffffffffffffffff1673ffffffffffffffffffffffffffffffffffffffff1681526020019081526020015f2090505f81600d018054905090505f8167ffffffffffffffff8111156113c8576113c76133ff565b5b6040519080825280602002602001820160405280156113fb57816020015b60608152602001906001900390816113e65790505b5090505f8267ffffffffffffffff811115611419576114186133ff565b5b6040519080825280602002602001820160405280156114475781602001602082028036833780820191505090505b5090505f5b83811015611632575f85600d01828154811061146b5761146a613bf6565b5b905f5260205f20015f9054906101000a900473ffffffffffffffffffffffffffffffffffffffff1690505f805f8373ffffffffffffffffffffffffffffffffffffffff1673ffffffffffffffffffffffffffffffffffffffff1681526020019081526020015f2090504287600e015f8473ffffffffffffffffffffffffffffffffffffffff1673ffffffffffffffffffffffffffffffffffffffff1681526020019081526020015f2054111561162357805f01805461152990613cc4565b80601f016020809104026020016040519081016040528092919081815260200182805461155590613cc4565b80156115a05780601f10611577576101008083540402835291602001916115a0565b820191905f5260205f20905b81548152906001019060200180831161158357829003601f168201915b50505050508584815181106115b8576115b7613bf6565b5b602002602001018190525086600e015f8373ffffffffffffffffffffffffffffffffffffffff1673ffffffffffffffffffffffffffffffffffffffff1681526020019081526020015f205484848151811061161657611615613bf6565b5b6020026020010181815250505b5050808060010191505061144c565b50818195509550505050509091565b6003602052805f5260405f205f915054906101000a900460ff1681565b60605f805f8060015f3373ffffffffffffffffffffffffffffffffffffffff1673ffffffffffffffffffffffffffffffffffffffff1681526020019081526020015f205f9054906101000a900460ff166116ed576040517f08c379a00000000000000000000000000000000000000000000000000000000081526004016116e490613d64565b60405180910390fd5b60015f8773ffffffffffffffffffffffffffffffffffffffff1673ffffffffffffffffffffffffffffffffffffffff1681526020019081526020015f205f9054906101000a900460ff16611776576040517f08c379a000000000000000000000000000000000000000000000000000000000815260040161176d906142a9565b60405180910390fd5b5f805f8873ffffffffffffffffffffffffffffffffffffffff1673ffffffffffffffffffffffffffffffffffffffff1681526020019081526020015f209050805f01816001015482600201548360030154846006015f9054906101000a900460ff168480546117e490613cc4565b80601f016020809104026020016040519081016040528092919081815260200182805461181090613cc4565b801561185b5780601f106118325761010080835404028352916020019161185b565b820191905f5260205f20905b81548152906001019060200180831161183e57829003601f168201915b50505050509450955095509550955095505091939590929450565b6002602052805f5260405f205f91509050805f01805461189590613cc4565b80601f01602080910402602001604051908101604052809291908181526020018280546118c190613cc4565b801561190c5780601f106118e35761010080835404028352916020019161190c565b820191905f5260205f20905b8154815290600101906020018083116118ef57829003601f168201915b505050505090806001016040518060c00160405290815f8201548152602001600182015481526020016002820154815260200160038201548152602001600482015481526020016005820154815250509080600701549080600801549080600901549080600a01549080600b016040518060400160405290815f8201805461199390613cc4565b80601f01602080910402602001604051908101604052809291908181526020018280546119bf90613cc4565b8015611a0a5780601f106119e157610100808354040283529160200191611a0a565b820191905f5260205f20905b8154815290600101906020018083116119ed57829003601f168201915b50505050508152602001600182018054611a2390613cc4565b80601f0160208091040260200160405190810160405280929190818152602001828054611a4f90613cc4565b8015611a9a5780601f10611a7157610100808354040283529160200191611a9a565b820191905f5260205f20905b815481529060010190602001808311611a7d57829003601f168201915b505050505081525050905087565b606060065f9054906101000a900473ffffffffffffffffffffffffffffffffffffffff1673ffffffffffffffffffffffffffffffffffffffff163373ffffffffffffffffffffffffffffffffffffffff1614611b39576040517f08c379a0000000000000000000000000000000000000000000000000000000008152600401611b3090613bd8565b60405180910390fd5b6004805480602002602001604051908101604052809291908181526020018280548015611bb857602002820191905f5260205f20905b815f9054906101000a900473ffffffffffffffffffffffffffffffffffffffff1673ffffffffffffffffffffffffffffffffffffffff1681526020019060010190808311611b6f575b5050505050905090565b60605f8060015f3373ffffffffffffffffffffffffffffffffffffffff1673ffffffffffffffffffffffffffffffffffffffff1681526020019081526020015f205f9054906101000a900460ff16611c4f576040517f08c379a0000000000000000000000000000000000000000000000000000000008152600401611c4690613d64565b60405180910390fd5b60015f8673ffffffffffffffffffffffffffffffffffffffff1673ffffffffffffffffffffffffffffffffffffffff1681526020019081526020015f205f9054906101000a900460ff16611cd8576040517f08c379a0000000000000000000000000000000000000000000000000000000008152600401611ccf906142a9565b60405180910390fd5b5f805f8773ffffffffffffffffffffffffffffffffffffffff1673ffffffffffffffffffffffffffffffffffffffff1681526020019081526020015f2090505f816007015f8781526020019081526020015f209050805f0181600101548260020154828054611d4690613cc4565b80601f0160208091040260200160405190810160405280929190818152602001828054611d7290613cc4565b8015611dbd5780601f10611d9457610100808354040283529160200191611dbd565b820191905f5260205f20905b815481529060010190602001808311611da057829003601f168201915b5050505050925094509450945050509250925092565b60015f3373ffffffffffffffffffffffffffffffffffffffff1673ffffffffffffffffffffffffffffffffffffffff1681526020019081526020015f205f9054906101000a900460ff16611e5c576040517f08c379a0000000000000000000000000000000000000000000000000000000008152600401611e5390613d64565b60405180910390fd5b60035f8373ffffffffffffffffffffffffffffffffffffffff1673ffffffffffffffffffffffffffffffffffffffff1681526020019081526020015f205f9054906101000a900460ff16611ee5576040517f08c379a0000000000000000000000000000000000000000000000000000000008152600401611edc90613dcc565b60405180910390fd5b5f60025f8473ffffffffffffffffffffffffffffffffffffffff1673ffffffffffffffffffffffffffffffffffffffff1681526020019081526020015f2090505f611f308284612e8e565b9050803414611f74576040517f08c379a0000000000000000000000000000000000000000000000000000000008152600401611f6b90614311565b60405180910390fd5b816007015f815480929190611f8890613c50565b91905055503482600a015f828254611fa09190613e52565b925050819055505f6201518084611fb79190613e85565b42611fc29190613e52565b9050805f803373ffffffffffffffffffffffffffffffffffffffff1673ffffffffffffffffffffffffffffffffffffffff1681526020019081526020015f206009015f8773ffffffffffffffffffffffffffffffffffffffff1673ffffffffffffffffffffffffffffffffffffffff1681526020019081526020015f208190555082600d0133908060018154018082558091505060019003905f5260205f20015f9091909190916101000a81548173ffffffffffffffffffffffffffffffffffffffff021916908373ffffffffffffffffffffffffffffffffffffffff1602179055508083600e015f3373ffffffffffffffffffffffffffffffffffffffff1673ffffffffffffffffffffffffffffffffffffffff1681526020019081526020015f20819055505050505050565b60065f9054906101000a900473ffffffffffffffffffffffffffffffffffffffff1681565b60015f3373ffffffffffffffffffffffffffffffffffffffff1673ffffffffffffffffffffffffffffffffffffffff1681526020019081526020015f205f9054906101000a900460ff161561219f576040517f08c379a000000000000000000000000000000000000000000000000000000000815260040161219690614379565b60405180910390fd5b60035f3373ffffffffffffffffffffffffffffffffffffffff1673ffffffffffffffffffffffffffffffffffffffff1681526020019081526020015f205f9054906101000a900460ff1615612229576040517f08c379a0000000000000000000000000000000000000000000000000000000008152600401612220906143e1565b60405180910390fd5b5f805f3373ffffffffffffffffffffffffffffffffffffffff1673ffffffffffffffffffffffffffffffffffffffff1681526020019081526020015f20905084815f0190816122789190614128565b508381600101819055508281600201819055508181600301819055505f81600401819055505f81600501819055505f816006015f6101000a81548160ff0219169083151502179055506001805f3373ffffffffffffffffffffffffffffffffffffffff1673ffffffffffffffffffffffffffffffffffffffff1681526020019081526020015f205f6101000a81548160ff021916908315150217905550600433908060018154018082558091505060019003905f5260205f20015f9091909190916101000a81548173ffffffffffffffffffffffffffffffffffffffff021916908373ffffffffffffffffffffffffffffffffffffffff1602179055505050505050565b6001602052805f5260405f205f915054906101000a900460ff1681565b60035f3373ffffffffffffffffffffffffffffffffffffffff1673ffffffffffffffffffffffffffffffffffffffff1681526020019081526020015f205f9054906101000a900460ff16612422576040517f08c379a000000000000000000000000000000000000000000000000000000000815260040161241990614241565b60405180910390fd5b5f60025f3373ffffffffffffffffffffffffffffffffffffffff1673ffffffffffffffffffffffffffffffffffffffff1681526020019081526020015f2090505f81600a015490505f81116124ac576040517f08c379a00000000000000000000000000000000000000000000000000000000081526004016124a390614449565b60405180910390fd5b5f82600a01819055503373ffffffffffffffffffffffffffffffffffffffff166108fc8290811502906040515f60405180830381858888f193505050501580156124f8573d5f803e3d5ffd5b505050565b6005818154811061250c575f80fd5b905f5260205f20015f915054906101000a900473ffffffffffffffffffffffffffffffffffffffff1681565b60048181548110612547575f80fd5b905f5260205f20015f915054906101000a900473ffffffffffffffffffffffffffffffffffffffff1681565b606060065f9054906101000a900473ffffffffffffffffffffffffffffffffffffffff1673ffffffffffffffffffffffffffffffffffffffff163373ffffffffffffffffffffffffffffffffffffffff1614612604576040517f08c379a00000000000000000000000000000000000000000000000000000000081526004016125fb90613bd8565b60405180910390fd5b600580548060200260200160405190810160405280929190818152602001828054801561268357602002820191905f5260205f20905b815f9054906101000a900473ffffffffffffffffffffffffffffffffffffffff1673ffffffffffffffffffffffffffffffffffffffff168152602001906001019080831161263a575b5050505050905090565b60035f3373ffffffffffffffffffffffffffffffffffffffff1673ffffffffffffffffffffffffffffffffffffffff1681526020019081526020015f205f9054906101000a900460ff1615612717576040517f08c379a000000000000000000000000000000000000000000000000000000000815260040161270e906144b1565b60405180910390fd5b60015f3373ffffffffffffffffffffffffffffffffffffffff1673ffffffffffffffffffffffffffffffffffffffff1681526020019081526020015f205f9054906101000a900460ff16156127a1576040517f08c379a00000000000000000000000000000000000000000000000000000000081526004016127989061453f565b60405180910390fd5b5f6040518061012001604052808b81526020018a81526020018981526020018881526020018781526020018681526020018581526020018481526020018381525090505f60025f3373ffffffffffffffffffffffffffffffffffffffff1673ffffffffffffffffffffffffffffffffffffffff1681526020019081526020015f20905061282e8183612f5a565b600160035f3373ffffffffffffffffffffffffffffffffffffffff1673ffffffffffffffffffffffffffffffffffffffff1681526020019081526020015f205f6101000a81548160ff021916908315150217905550600533908060018154018082558091505060019003905f5260205f20015f9091909190916101000a81548173ffffffffffffffffffffffffffffffffffffffff021916908373ffffffffffffffffffffffffffffffffffffffff1602179055505050505050505050505050565b60035f3373ffffffffffffffffffffffffffffffffffffffff1673ffffffffffffffffffffffffffffffffffffffff1681526020019081526020015f205f9054906101000a900460ff16612979576040517f08c379a000000000000000000000000000000000000000000000000000000000815260040161297090614241565b60405180910390fd5b60015f8673ffffffffffffffffffffffffffffffffffffffff1673ffffffffffffffffffffffffffffffffffffffff1681526020019081526020015f205f9054906101000a900460ff1615612a03576040517f08c379a00000000000000000000000000000000000000000000000000000000081526004016129fa90614379565b60405180910390fd5b5f805f8773ffffffffffffffffffffffffffffffffffffffff1673ffffffffffffffffffffffffffffffffffffffff1681526020019081526020015f20905084815f019081612a529190614128565b508381600101819055508281600201819055508181600301819055505f81600401819055505f81600501819055506001816006015f6101000a81548160ff0219169083151502179055506001805f8873ffffffffffffffffffffffffffffffffffffffff1673ffffffffffffffffffffffffffffffffffffffff1681526020019081526020015f205f6101000a81548160ff021916908315150217905550600486908060018154018082558091505060019003905f5260205f20015f9091909190916101000a81548173ffffffffffffffffffffffffffffffffffffffff021916908373ffffffffffffffffffffffffffffffffffffffff16021790555060025f3373ffffffffffffffffffffffffffffffffffffffff1673ffffffffffffffffffffffffffffffffffffffff1681526020019081526020015f20600d0186908060018154018082558091505060019003905f5260205f20015f9091909190916101000a81548173ffffffffffffffffffffffffffffffffffffffff021916908373ffffffffffffffffffffffffffffffffffffffff1602179055506301e1338042612bfe9190613e52565b60025f3373ffffffffffffffffffffffffffffffffffffffff1673ffffffffffffffffffffffffffffffffffffffff1681526020019081526020015f20600e015f8873ffffffffffffffffffffffffffffffffffffffff1673ffffffffffffffffffffffffffffffffffffffff1681526020019081526020015f2081905550505050505050565b60605f60015f3373ffffffffffffffffffffffffffffffffffffffff1673ffffffffffffffffffffffffffffffffffffffff1681526020019081526020015f205f9054906101000a900460ff16612d11576040517f08c379a0000000000000000000000000000000000000000000000000000000008152600401612d0890613d64565b60405180910390fd5b60015f8573ffffffffffffffffffffffffffffffffffffffff1673ffffffffffffffffffffffffffffffffffffffff1681526020019081526020015f205f9054906101000a900460ff16612d9a576040517f08c379a0000000000000000000000000000000000000000000000000000000008152600401612d91906142a9565b60405180910390fd5b5f805f8673ffffffffffffffffffffffffffffffffffffffff1673ffffffffffffffffffffffffffffffffffffffff1681526020019081526020015f2090505f816008015f8681526020019081526020015f209050805f018160010154818054612e0390613cc4565b80601f0160208091040260200160405190810160405280929190818152602001828054612e2f90613cc4565b8015612e7a5780601f10612e5157610100808354040283529160200191612e7a565b820191905f5260205f20905b815481529060010190602001808311612e5d57829003601f168201915b505050505091509350935050509250929050565b5f60018203612ea557826001015f01549050612f54565b60078203612ebc5782600101600101549050612f54565b601e8203612ed35782600101600201549050612f54565b605a8203612eea5782600101600301549050612f54565b60b48203612f015782600101600401549050612f54565b61016d8203612f195782600101600501549050612f54565b6040517f08c379a0000000000000000000000000000000000000000000000000000000008152600401612f4b906145a7565b60405180910390fd5b92915050565b805f0151825f019081612f6d9190614128565b508060200151826001015f01819055508060400151826001016001018190555080606001518260010160020181905550806080015182600101600301819055508060a0015182600101600401819055508060c0015182600101600501819055505f82600701819055505f82600801819055505f82600901819055505f82600a01819055508060e0015182600b015f0190816130089190614128565b5080610100015182600b0160010190816130229190614128565b505050565b5f604051905090565b5f80fd5b5f80fd5b5f73ffffffffffffffffffffffffffffffffffffffff82169050919050565b5f61306182613038565b9050919050565b61307181613057565b811461307b575f80fd5b50565b5f8135905061308c81613068565b92915050565b5f602082840312156130a7576130a6613030565b5b5f6130b48482850161307e565b91505092915050565b5f81519050919050565b5f82825260208201905092915050565b5f819050602082019050919050565b6130ef81613057565b82525050565b5f61310083836130e6565b60208301905092915050565b5f602082019050919050565b5f613122826130bd565b61312c81856130c7565b9350613137836130d7565b805f5b8381101561316757815161314e88826130f5565b97506131598361310c565b92505060018101905061313a565b5085935050505092915050565b5f81519050919050565b5f82825260208201905092915050565b5f819050602082019050919050565b5f819050919050565b6131af8161319d565b82525050565b5f6131c083836131a6565b60208301905092915050565b5f602082019050919050565b5f6131e282613174565b6131ec818561317e565b93506131f78361318e565b805f5b8381101561322757815161320e88826131b5565b9750613219836131cc565b9250506001810190506131fa565b5085935050505092915050565b5f6040820190508181035f83015261324c8185613118565b9050818103602083015261326081846131d8565b90509392505050565b5f81519050919050565b5f82825260208201905092915050565b8281835e5f83830152505050565b5f601f19601f8301169050919050565b5f6132ab82613269565b6132b58185613273565b93506132c5818560208601613283565b6132ce81613291565b840191505092915050565b6132e28161319d565b82525050565b5f8115159050919050565b6132fc816132e8565b82525050565b5f60e0820190508181035f83015261331a818a6132a1565b905061332960208301896132d9565b61333660408301886132d9565b61334360608301876132d9565b61335060808301866132d9565b61335d60a08301856132d9565b61336a60c08301846132f3565b98975050505050505050565b61337f8161319d565b8114613389575f80fd5b50565b5f8135905061339a81613376565b92915050565b5f80604083850312156133b6576133b5613030565b5b5f6133c38582860161307e565b92505060206133d48582860161338c565b9150509250929050565b5f6020820190506133f15f8301846132d9565b92915050565b5f80fd5b5f80fd5b7f4e487b71000000000000000000000000000000000000000000000000000000005f52604160045260245ffd5b61343582613291565b810181811067ffffffffffffffff82111715613454576134536133ff565b5b80604052505050565b5f613466613027565b9050613472828261342c565b919050565b5f67ffffffffffffffff821115613491576134906133ff565b5b61349a82613291565b9050602081019050919050565b828183375f83830152505050565b5f6134c76134c284613477565b61345d565b9050828152602081018484840111156134e3576134e26133fb565b5b6134ee8482856134a7565b509392505050565b5f82601f83011261350a576135096133f7565b5b813561351a8482602086016134b5565b91505092915050565b5f806040838503121561353957613538613030565b5b5f83013567ffffffffffffffff81111561355657613555613034565b5b613562858286016134f6565b92505060206135738582860161338c565b9150509250929050565b5f81519050919050565b5f82825260208201905092915050565b5f819050602082019050919050565b5f82825260208201905092915050565b5f6135c082613269565b6135ca81856135a6565b93506135da818560208601613283565b6135e381613291565b840191505092915050565b5f6135f983836135b6565b905092915050565b5f602082019050919050565b5f6136178261357d565b6136218185613587565b93508360208202850161363385613597565b805f5b8581101561366e578484038952815161364f85826135ee565b945061365a83613601565b925060208a01995050600181019050613636565b50829750879550505050505092915050565b5f6040820190508181035f830152613698818561360d565b905081810360208301526136ac81846131d8565b90509392505050565b5f6020820190506136c85f8301846132f3565b92915050565b5f60a0820190508181035f8301526136e681886132a1565b90506136f560208301876132d9565b61370260408301866132d9565b61370f60608301856132d9565b61371c60808301846132f3565b9695505050505050565b60c082015f82015161373a5f8501826131a6565b50602082015161374d60208501826131a6565b50604082015161376060408501826131a6565b50606082015161377360608501826131a6565b50608082015161378660808501826131a6565b5060a082015161379960a08501826131a6565b50505050565b5f604083015f8301518482035f8601526137b982826135b6565b915050602083015184820360208601526137d382826135b6565b9150508091505092915050565b5f610180820190508181035f8301526137f9818a6132a1565b90506138086020830189613726565b61381560e08301886132d9565b6138236101008301876132d9565b6138316101208301866132d9565b61383f6101408301856132d9565b818103610160830152613852818461379f565b905098975050505050505050565b5f6020820190508181035f8301526138788184613118565b905092915050565b5f6060820190508181035f83015261389881866132a1565b90506138a760208301856132d9565b6138b460408301846132d9565b949350505050565b6138c581613057565b82525050565b5f6020820190506138de5f8301846138bc565b92915050565b5f805f80608085870312156138fc576138fb613030565b5b5f85013567ffffffffffffffff81111561391957613918613034565b5b613925878288016134f6565b94505060206139368782880161338c565b93505060406139478782880161338c565b92505060606139588782880161338c565b91505092959194509250565b5f6020828403121561397957613978613030565b5b5f6139868482850161338c565b91505092915050565b5f805f805f805f805f6101208a8c0312156139ad576139ac613030565b5b5f8a013567ffffffffffffffff8111156139ca576139c9613034565b5b6139d68c828d016134f6565b99505060206139e78c828d0161338c565b98505060406139f88c828d0161338c565b9750506060613a098c828d0161338c565b9650506080613a1a8c828d0161338c565b95505060a0613a2b8c828d0161338c565b94505060c0613a3c8c828d0161338c565b93505060e08a013567ffffffffffffffff811115613a5d57613a5c613034565b5b613a698c828d016134f6565b9250506101008a013567ffffffffffffffff811115613a8b57613a8a613034565b5b613a978c828d016134f6565b9150509295985092959850929598565b5f805f805f60a08688031215613ac057613abf613030565b5b5f613acd8882890161307e565b955050602086013567ffffffffffffffff811115613aee57613aed613034565b5b613afa888289016134f6565b9450506040613b0b8882890161338c565b9350506060613b1c8882890161338c565b9250506080613b2d8882890161338c565b9150509295509295909350565b5f6040820190508181035f830152613b5281856132a1565b9050613b6160208301846132d9565b9392505050565b7f4f6e6c79206f776e65722063616e2063616c6c20746869732066756e6374696f5f8201527f6e00000000000000000000000000000000000000000000000000000000000000602082015250565b5f613bc2602183613273565b9150613bcd82613b68565b604082019050919050565b5f6020820190508181035f830152613bef81613bb6565b9050919050565b7f4e487b71000000000000000000000000000000000000000000000000000000005f52603260045260245ffd5b7f4e487b71000000000000000000000000000000000000000000000000000000005f52601160045260245ffd5b5f613c5a8261319d565b91507fffffffffffffffffffffffffffffffffffffffffffffffffffffffffffffffff8203613c8c57613c8b613c23565b5b600182019050919050565b7f4e487b71000000000000000000000000000000000000000000000000000000005f52602260045260245ffd5b5f6002820490506001821680613cdb57607f821691505b602082108103613cee57613ced613c97565b5b50919050565b7f4f6e6c79206d656d626572732063616e2063616c6c20746869732066756e63745f8201527f696f6e0000000000000000000000000000000000000000000000000000000000602082015250565b5f613d4e602383613273565b9150613d5982613cf4565b604082019050919050565b5f6020820190508181035f830152613d7b81613d42565b9050919050565b7f496e76616c69642067796d0000000000000000000000000000000000000000005f82015250565b5f613db6600b83613273565b9150613dc182613d82565b602082019050919050565b5f6020820190508181035f830152613de381613daa565b9050919050565b7f496e76616c696420726174696e670000000000000000000000000000000000005f82015250565b5f613e1e600e83613273565b9150613e2982613dea565b602082019050919050565b5f6020820190508181035f830152613e4b81613e12565b9050919050565b5f613e5c8261319d565b9150613e678361319d565b9250828201905080821115613e7f57613e7e613c23565b5b92915050565b5f613e8f8261319d565b9150613e9a8361319d565b9250828202613ea88161319d565b91508282048414831517613ebf57613ebe613c23565b5b5092915050565b7f4e487b71000000000000000000000000000000000000000000000000000000005f52601260045260245ffd5b5f613efd8261319d565b9150613f088361319d565b925082613f1857613f17613ec6565b5b828204905092915050565b7f537562736372697074696f6e20657870697265640000000000000000000000005f82015250565b5f613f57601483613273565b9150613f6282613f23565b602082019050919050565b5f6020820190508181035f830152613f8481613f4b565b9050919050565b5f819050815f5260205f209050919050565b5f6020601f8301049050919050565b5f82821b905092915050565b5f60088302613fe77fffffffffffffffffffffffffffffffffffffffffffffffffffffffffffffffff82613fac565b613ff18683613fac565b95508019841693508086168417925050509392505050565b5f819050919050565b5f61402c6140276140228461319d565b614009565b61319d565b9050919050565b5f819050919050565b61404583614012565b61405961405182614033565b848454613fb8565b825550505050565b5f90565b61406d614061565b61407881848461403c565b505050565b5b8181101561409b576140905f82614065565b60018101905061407e565b5050565b601f8211156140e0576140b181613f8b565b6140ba84613f9d565b810160208510156140c9578190505b6140dd6140d585613f9d565b83018261407d565b50505b505050565b5f82821c905092915050565b5f6141005f19846008026140e5565b1980831691505092915050565b5f61411883836140f1565b9150826002028217905092915050565b61413182613269565b67ffffffffffffffff81111561414a576141496133ff565b5b6141548254613cc4565b61415f82828561409f565b5f60209050601f831160018114614190575f841561417e578287015190505b614188858261410d565b8655506141ef565b601f19841661419e86613f8b565b5f5b828110156141c5578489015182556001820191506020850194506020810190506141a0565b868310156141e257848901516141de601f8916826140f1565b8355505b6001600288020188555050505b505050505050565b7f4f6e6c792067796d732063616e2063616c6c20746869732066756e6374696f6e5f82015250565b5f61422b602083613273565b9150614236826141f7565b602082019050919050565b5f6020820190508181035f8301526142588161421f565b9050919050565b7f4e6f742061206d656d62657200000000000000000000000000000000000000005f82015250565b5f614293600c83613273565b915061429e8261425f565b602082019050919050565b5f6020820190508181035f8301526142c081614287565b9050919050565b7f496e636f727265637420666565000000000000000000000000000000000000005f82015250565b5f6142fb600d83613273565b9150614306826142c7565b602082019050919050565b5f6020820190508181035f830152614328816142ef565b9050919050565b7f416c72656164792061206d656d626572000000000000000000000000000000005f82015250565b5f614363601083613273565b915061436e8261432f565b602082019050919050565b5f6020820190508181035f83015261439081614357565b9050919050565b7f41646472657373206973207265676973746572656420617320612067796d00005f82015250565b5f6143cb601e83613273565b91506143d682614397565b602082019050919050565b5f6020820190508181035f8301526143f8816143bf565b9050919050565b7f4e6f206561726e696e677320746f2077697468647261770000000000000000005f82015250565b5f614433601783613273565b915061443e826143ff565b602082019050919050565b5f6020820190508181035f83015261446081614427565b9050919050565b7f416c726561647920612067796d000000000000000000000000000000000000005f82015250565b5f61449b600d83613273565b91506144a682614467565b602082019050919050565b5f6020820190508181035f8301526144c88161448f565b9050919050565b7f4164647265737320697320726567697374657265642061732061206d656d62655f8201527f7200000000000000000000000000000000000000000000000000000000000000602082015250565b5f614529602183613273565b9150614534826144cf565b604082019050919050565b5f6020820190508181035f8301526145568161451d565b9050919050565b7f496e76616c6964206475726174696f6e000000000000000000000000000000005f82015250565b5f614591601083613273565b915061459c8261455d565b602082019050919050565b5f6020820190508181035f8301526145be81614585565b905091905056fea26469706673582212201cec630da1c35b32d604ac173aa218eed8b779e93daa190fb137b1b5faecca3d64736f6c634300081a0033",
					"opcodes": "PUSH1 0x80 PUSH1 0x40 MSTORE CALLVALUE DUP1 ISZERO PUSH1 0xE JUMPI PUSH0 DUP1 REVERT JUMPDEST POP CALLER PUSH1 0x6 PUSH0 PUSH2 0x100 EXP DUP2 SLOAD DUP2 PUSH20 0xFFFFFFFFFFFFFFFFFFFFFFFFFFFFFFFFFFFFFFFF MUL NOT AND SWAP1 DUP4 PUSH20 0xFFFFFFFFFFFFFFFFFFFFFFFFFFFFFFFFFFFFFFFF AND MUL OR SWAP1 SSTORE POP PUSH2 0x45FB DUP1 PUSH2 0x5C PUSH0 CODECOPY PUSH0 RETURN INVALID PUSH1 0x80 PUSH1 0x40 MSTORE PUSH1 0x4 CALLDATASIZE LT PUSH2 0x13F JUMPI PUSH0 CALLDATALOAD PUSH1 0xE0 SHR DUP1 PUSH4 0x7D4E1BE3 GT PUSH2 0xB5 JUMPI DUP1 PUSH4 0xCA4CBA8E GT PUSH2 0x6E JUMPI DUP1 PUSH4 0xCA4CBA8E EQ PUSH2 0x487 JUMPI DUP1 PUSH4 0xCC4E6299 EQ PUSH2 0x4C3 JUMPI DUP1 PUSH4 0xDA9F67FE EQ PUSH2 0x4FF JUMPI DUP1 PUSH4 0xDC1D9188 EQ PUSH2 0x529 JUMPI DUP1 PUSH4 0xDFD73077 EQ PUSH2 0x551 JUMPI DUP1 PUSH4 0xF377B3C0 EQ PUSH2 0x579 JUMPI PUSH2 0x13F JUMP JUMPDEST DUP1 PUSH4 0x7D4E1BE3 EQ PUSH2 0x389 JUMPI DUP1 PUSH4 0x8149F74C EQ PUSH2 0x3C7 JUMPI DUP1 PUSH4 0x8DA5CB5B EQ PUSH2 0x3E3 JUMPI DUP1 PUSH4 0x9C6E3E32 EQ PUSH2 0x40D JUMPI DUP1 PUSH4 0xA230C524 EQ PUSH2 0x435 JUMPI DUP1 PUSH4 0xB73C6CE9 EQ PUSH2 0x471 JUMPI PUSH2 0x13F JUMP JUMPDEST DUP1 PUSH4 0x34336077 GT PUSH2 0x107 JUMPI DUP1 PUSH4 0x34336077 EQ PUSH2 0x24E JUMPI DUP1 PUSH4 0x4876AEBC EQ PUSH2 0x276 JUMPI DUP1 PUSH4 0x5D762FB8 EQ PUSH2 0x2A1 JUMPI DUP1 PUSH4 0x5F1231EA EQ PUSH2 0x2DD JUMPI DUP1 PUSH4 0x78F5FA0A EQ PUSH2 0x31D JUMPI DUP1 PUSH4 0x7C0F6B35 EQ PUSH2 0x35F JUMPI PUSH2 0x13F JUMP JUMPDEST DUP1 PUSH4 0x5D52812 EQ PUSH2 0x143 JUMPI DUP1 PUSH4 0x8AE4B0C EQ PUSH2 0x180 JUMPI DUP1 PUSH4 0x9D050F8 EQ PUSH2 0x1C2 JUMPI DUP1 PUSH4 0x1DBE316B EQ PUSH2 0x1EA JUMPI DUP1 PUSH4 0x2B5DD630 EQ PUSH2 0x226 JUMPI JUMPDEST PUSH0 DUP1 REVERT JUMPDEST CALLVALUE DUP1 ISZERO PUSH2 0x14E JUMPI PUSH0 DUP1 REVERT JUMPDEST POP PUSH2 0x169 PUSH1 0x4 DUP1 CALLDATASIZE SUB DUP2 ADD SWAP1 PUSH2 0x164 SWAP2 SWAP1 PUSH2 0x3092 JUMP JUMPDEST PUSH2 0x5B6 JUMP JUMPDEST PUSH1 0x40 MLOAD PUSH2 0x177 SWAP3 SWAP2 SWAP1 PUSH2 0x3234 JUMP JUMPDEST PUSH1 0x40 MLOAD DUP1 SWAP2 SUB SWAP1 RETURN JUMPDEST CALLVALUE DUP1 ISZERO PUSH2 0x18B JUMPI PUSH0 DUP1 REVERT JUMPDEST POP PUSH2 0x1A6 PUSH1 0x4 DUP1 CALLDATASIZE SUB DUP2 ADD SWAP1 PUSH2 0x1A1 SWAP2 SWAP1 PUSH2 0x3092 JUMP JUMPDEST PUSH2 0x9B0 JUMP JUMPDEST PUSH1 0x40 MLOAD PUSH2 0x1B9 SWAP8 SWAP7 SWAP6 SWAP5 SWAP4 SWAP3 SWAP2 SWAP1 PUSH2 0x3302 JUMP JUMPDEST PUSH1 0x40 MLOAD DUP1 SWAP2 SUB SWAP1 RETURN JUMPDEST CALLVALUE DUP1 ISZERO PUSH2 0x1CD JUMPI PUSH0 DUP1 REVERT JUMPDEST POP PUSH2 0x1E8 PUSH1 0x4 DUP1 CALLDATASIZE SUB DUP2 ADD SWAP1 PUSH2 0x1E3 SWAP2 SWAP1 PUSH2 0x33A0 JUMP JUMPDEST PUSH2 0xA7F JUMP JUMPDEST STOP JUMPDEST CALLVALUE DUP1 ISZERO PUSH2 0x1F5 JUMPI PUSH0 DUP1 REVERT JUMPDEST POP PUSH2 0x210 PUSH1 0x4 DUP1 CALLDATASIZE SUB DUP2 ADD SWAP1 PUSH2 0x20B SWAP2 SWAP1 PUSH2 0x3092 JUMP JUMPDEST PUSH2 0xC5A JUMP JUMPDEST PUSH1 0x40 MLOAD PUSH2 0x21D SWAP2 SWAP1 PUSH2 0x33DE JUMP JUMPDEST PUSH1 0x40 MLOAD DUP1 SWAP2 SUB SWAP1 RETURN JUMPDEST CALLVALUE DUP1 ISZERO PUSH2 0x231 JUMPI PUSH0 DUP1 REVERT JUMPDEST POP PUSH2 0x24C PUSH1 0x4 DUP1 CALLDATASIZE SUB DUP2 ADD SWAP1 PUSH2 0x247 SWAP2 SWAP1 PUSH2 0x3092 JUMP JUMPDEST PUSH2 0xE08 JUMP JUMPDEST STOP JUMPDEST CALLVALUE DUP1 ISZERO PUSH2 0x259 JUMPI PUSH0 DUP1 REVERT JUMPDEST POP PUSH2 0x274 PUSH1 0x4 DUP1 CALLDATASIZE SUB DUP2 ADD SWAP1 PUSH2 0x26F SWAP2 SWAP1 PUSH2 0x3523 JUMP JUMPDEST PUSH2 0x1193 JUMP JUMPDEST STOP JUMPDEST CALLVALUE DUP1 ISZERO PUSH2 0x281 JUMPI PUSH0 DUP1 REVERT JUMPDEST POP PUSH2 0x28A PUSH2 0x12D6 JUMP JUMPDEST PUSH1 0x40 MLOAD PUSH2 0x298 SWAP3 SWAP2 SWAP1 PUSH2 0x3680 JUMP JUMPDEST PUSH1 0x40 MLOAD DUP1 SWAP2 SUB SWAP1 RETURN JUMPDEST CALLVALUE DUP1 ISZERO PUSH2 0x2AC JUMPI PUSH0 DUP1 REVERT JUMPDEST POP PUSH2 0x2C7 PUSH1 0x4 DUP1 CALLDATASIZE SUB DUP2 ADD SWAP1 PUSH2 0x2C2 SWAP2 SWAP1 PUSH2 0x3092 JUMP JUMPDEST PUSH2 0x1641 JUMP JUMPDEST PUSH1 0x40 MLOAD PUSH2 0x2D4 SWAP2 SWAP1 PUSH2 0x36B5 JUMP JUMPDEST PUSH1 0x40 MLOAD DUP1 SWAP2 SUB SWAP1 RETURN JUMPDEST CALLVALUE DUP1 ISZERO PUSH2 0x2E8 JUMPI PUSH0 DUP1 REVERT JUMPDEST POP PUSH2 0x303 PUSH1 0x4 DUP1 CALLDATASIZE SUB DUP2 ADD SWAP1 PUSH2 0x2FE SWAP2 SWAP1 PUSH2 0x3092 JUMP JUMPDEST PUSH2 0x165E JUMP JUMPDEST PUSH1 0x40 MLOAD PUSH2 0x314 SWAP6 SWAP5 SWAP4 SWAP3 SWAP2 SWAP1 PUSH2 0x36CE JUMP JUMPDEST PUSH1 0x40 MLOAD DUP1 SWAP2 SUB SWAP1 RETURN JUMPDEST CALLVALUE DUP1 ISZERO PUSH2 0x328 JUMPI PUSH0 DUP1 REVERT JUMPDEST POP PUSH2 0x343 PUSH1 0x4 DUP1 CALLDATASIZE SUB DUP2 ADD SWAP1 PUSH2 0x33E SWAP2 SWAP1 PUSH2 0x3092 JUMP JUMPDEST PUSH2 0x1876 JUMP JUMPDEST PUSH1 0x40 MLOAD PUSH2 0x356 SWAP8 SWAP7 SWAP6 SWAP5 SWAP4 SWAP3 SWAP2 SWAP1 PUSH2 0x37E0 JUMP JUMPDEST PUSH1 0x40 MLOAD DUP1 SWAP2 SUB SWAP1 RETURN JUMPDEST CALLVALUE DUP1 ISZERO PUSH2 0x36A JUMPI PUSH0 DUP1 REVERT JUMPDEST POP PUSH2 0x373 PUSH2 0x1AA8 JUMP JUMPDEST PUSH1 0x40 MLOAD PUSH2 0x380 SWAP2 SWAP1 PUSH2 0x3860 JUMP JUMPDEST PUSH1 0x40 MLOAD DUP1 SWAP2 SUB SWAP1 RETURN JUMPDEST CALLVALUE DUP1 ISZERO PUSH2 0x394 JUMPI PUSH0 DUP1 REVERT JUMPDEST POP PUSH2 0x3AF PUSH1 0x4 DUP1 CALLDATASIZE SUB DUP2 ADD SWAP1 PUSH2 0x3AA SWAP2 SWAP1 PUSH2 0x33A0 JUMP JUMPDEST PUSH2 0x1BC2 JUMP JUMPDEST PUSH1 0x40 MLOAD PUSH2 0x3BE SWAP4 SWAP3 SWAP2 SWAP1 PUSH2 0x3880 JUMP JUMPDEST PUSH1 0x40 MLOAD DUP1 SWAP2 SUB SWAP1 RETURN JUMPDEST PUSH2 0x3E1 PUSH1 0x4 DUP1 CALLDATASIZE SUB DUP2 ADD SWAP1 PUSH2 0x3DC SWAP2 SWAP1 PUSH2 0x33A0 JUMP JUMPDEST PUSH2 0x1DD3 JUMP JUMPDEST STOP JUMPDEST CALLVALUE DUP1 ISZERO PUSH2 0x3EE JUMPI PUSH0 DUP1 REVERT JUMPDEST POP PUSH2 0x3F7 PUSH2 0x20F0 JUMP JUMPDEST PUSH1 0x40 MLOAD PUSH2 0x404 SWAP2 SWAP1 PUSH2 0x38CB JUMP JUMPDEST PUSH1 0x40 MLOAD DUP1 SWAP2 SUB SWAP1 RETURN JUMPDEST CALLVALUE DUP1 ISZERO PUSH2 0x418 JUMPI PUSH0 DUP1 REVERT JUMPDEST POP PUSH2 0x433 PUSH1 0x4 DUP1 CALLDATASIZE SUB DUP2 ADD SWAP1 PUSH2 0x42E SWAP2 SWAP1 PUSH2 0x38E4 JUMP JUMPDEST PUSH2 0x2115 JUMP JUMPDEST STOP JUMPDEST CALLVALUE DUP1 ISZERO PUSH2 0x440 JUMPI PUSH0 DUP1 REVERT JUMPDEST POP PUSH2 0x45B PUSH1 0x4 DUP1 CALLDATASIZE SUB DUP2 ADD SWAP1 PUSH2 0x456 SWAP2 SWAP1 PUSH2 0x3092 JUMP JUMPDEST PUSH2 0x237C JUMP JUMPDEST PUSH1 0x40 MLOAD PUSH2 0x468 SWAP2 SWAP1 PUSH2 0x36B5 JUMP JUMPDEST PUSH1 0x40 MLOAD DUP1 SWAP2 SUB SWAP1 RETURN JUMPDEST CALLVALUE DUP1 ISZERO PUSH2 0x47C JUMPI PUSH0 DUP1 REVERT JUMPDEST POP PUSH2 0x485 PUSH2 0x2399 JUMP JUMPDEST STOP JUMPDEST CALLVALUE DUP1 ISZERO PUSH2 0x492 JUMPI PUSH0 DUP1 REVERT JUMPDEST POP PUSH2 0x4AD PUSH1 0x4 DUP1 CALLDATASIZE SUB DUP2 ADD SWAP1 PUSH2 0x4A8 SWAP2 SWAP1 PUSH2 0x3964 JUMP JUMPDEST PUSH2 0x24FD JUMP JUMPDEST PUSH1 0x40 MLOAD PUSH2 0x4BA SWAP2 SWAP1 PUSH2 0x38CB JUMP JUMPDEST PUSH1 0x40 MLOAD DUP1 SWAP2 SUB SWAP1 RETURN JUMPDEST CALLVALUE DUP1 ISZERO PUSH2 0x4CE JUMPI PUSH0 DUP1 REVERT JUMPDEST POP PUSH2 0x4E9 PUSH1 0x4 DUP1 CALLDATASIZE SUB DUP2 ADD SWAP1 PUSH2 0x4E4 SWAP2 SWAP1 PUSH2 0x3964 JUMP JUMPDEST PUSH2 0x2538 JUMP JUMPDEST PUSH1 0x40 MLOAD PUSH2 0x4F6 SWAP2 SWAP1 PUSH2 0x38CB JUMP JUMPDEST PUSH1 0x40 MLOAD DUP1 SWAP2 SUB SWAP1 RETURN JUMPDEST CALLVALUE DUP1 ISZERO PUSH2 0x50A JUMPI PUSH0 DUP1 REVERT JUMPDEST POP PUSH2 0x513 PUSH2 0x2573 JUMP JUMPDEST PUSH1 0x40 MLOAD PUSH2 0x520 SWAP2 SWAP1 PUSH2 0x3860 JUMP JUMPDEST PUSH1 0x40 MLOAD DUP1 SWAP2 SUB SWAP1 RETURN JUMPDEST CALLVALUE DUP1 ISZERO PUSH2 0x534 JUMPI PUSH0 DUP1 REVERT JUMPDEST POP PUSH2 0x54F PUSH1 0x4 DUP1 CALLDATASIZE SUB DUP2 ADD SWAP1 PUSH2 0x54A SWAP2 SWAP1 PUSH2 0x398F JUMP JUMPDEST PUSH2 0x268D JUMP JUMPDEST STOP JUMPDEST CALLVALUE DUP1 ISZERO PUSH2 0x55C JUMPI PUSH0 DUP1 REVERT JUMPDEST POP PUSH2 0x577 PUSH1 0x4 DUP1 CALLDATASIZE SUB DUP2 ADD SWAP1 PUSH2 0x572 SWAP2 SWAP1 PUSH2 0x3AA7 JUMP JUMPDEST PUSH2 0x28F0 JUMP JUMPDEST STOP JUMPDEST CALLVALUE DUP1 ISZERO PUSH2 0x584 JUMPI PUSH0 DUP1 REVERT JUMPDEST POP PUSH2 0x59F PUSH1 0x4 DUP1 CALLDATASIZE SUB DUP2 ADD SWAP1 PUSH2 0x59A SWAP2 SWAP1 PUSH2 0x33A0 JUMP JUMPDEST PUSH2 0x2C85 JUMP JUMPDEST PUSH1 0x40 MLOAD PUSH2 0x5AD SWAP3 SWAP2 SWAP1 PUSH2 0x3B3A JUMP JUMPDEST PUSH1 0x40 MLOAD DUP1 SWAP2 SUB SWAP1 RETURN JUMPDEST PUSH1 0x60 DUP1 PUSH1 0x6 PUSH0 SWAP1 SLOAD SWAP1 PUSH2 0x100 EXP SWAP1 DIV PUSH20 0xFFFFFFFFFFFFFFFFFFFFFFFFFFFFFFFFFFFFFFFF AND PUSH20 0xFFFFFFFFFFFFFFFFFFFFFFFFFFFFFFFFFFFFFFFF AND CALLER PUSH20 0xFFFFFFFFFFFFFFFFFFFFFFFFFFFFFFFFFFFFFFFF AND EQ PUSH2 0x648 JUMPI PUSH1 0x40 MLOAD PUSH32 0x8C379A000000000000000000000000000000000000000000000000000000000 DUP2 MSTORE PUSH1 0x4 ADD PUSH2 0x63F SWAP1 PUSH2 0x3BD8 JUMP JUMPDEST PUSH1 0x40 MLOAD DUP1 SWAP2 SUB SWAP1 REVERT JUMPDEST PUSH0 DUP1 PUSH0 DUP6 PUSH20 0xFFFFFFFFFFFFFFFFFFFFFFFFFFFFFFFFFFFFFFFF AND PUSH20 0xFFFFFFFFFFFFFFFFFFFFFFFFFFFFFFFFFFFFFFFF AND DUP2 MSTORE PUSH1 0x20 ADD SWAP1 DUP2 MSTORE PUSH1 0x20 ADD PUSH0 KECCAK256 SWAP1 POP PUSH0 DUP1 JUMPDEST PUSH1 0x5 DUP1 SLOAD SWAP1 POP DUP2 LT ISZERO PUSH2 0x735 JUMPI TIMESTAMP DUP4 PUSH1 0x9 ADD PUSH0 PUSH1 0x5 DUP5 DUP2 SLOAD DUP2 LT PUSH2 0x6B1 JUMPI PUSH2 0x6B0 PUSH2 0x3BF6 JUMP JUMPDEST JUMPDEST SWAP1 PUSH0 MSTORE PUSH1 0x20 PUSH0 KECCAK256 ADD PUSH0 SWAP1 SLOAD SWAP1 PUSH2 0x100 EXP SWAP1 DIV PUSH20 0xFFFFFFFFFFFFFFFFFFFFFFFFFFFFFFFFFFFFFFFF AND PUSH20 0xFFFFFFFFFFFFFFFFFFFFFFFFFFFFFFFFFFFFFFFF AND PUSH20 0xFFFFFFFFFFFFFFFFFFFFFFFFFFFFFFFFFFFFFFFF AND DUP2 MSTORE PUSH1 0x20 ADD SWAP1 DUP2 MSTORE PUSH1 0x20 ADD PUSH0 KECCAK256 SLOAD GT ISZERO PUSH2 0x728 JUMPI DUP2 DUP1 PUSH2 0x724 SWAP1 PUSH2 0x3C50 JUMP JUMPDEST SWAP3 POP POP JUMPDEST DUP1 DUP1 PUSH1 0x1 ADD SWAP2 POP POP PUSH2 0x68A JUMP JUMPDEST POP PUSH0 DUP2 PUSH8 0xFFFFFFFFFFFFFFFF DUP2 GT ISZERO PUSH2 0x751 JUMPI PUSH2 0x750 PUSH2 0x33FF JUMP JUMPDEST JUMPDEST PUSH1 0x40 MLOAD SWAP1 DUP1 DUP3 MSTORE DUP1 PUSH1 0x20 MUL PUSH1 0x20 ADD DUP3 ADD PUSH1 0x40 MSTORE DUP1 ISZERO PUSH2 0x77F JUMPI DUP2 PUSH1 0x20 ADD PUSH1 0x20 DUP3 MUL DUP1 CALLDATASIZE DUP4 CALLDATACOPY DUP1 DUP3 ADD SWAP2 POP POP SWAP1 POP JUMPDEST POP SWAP1 POP PUSH0 DUP3 PUSH8 0xFFFFFFFFFFFFFFFF DUP2 GT ISZERO PUSH2 0x79D JUMPI PUSH2 0x79C PUSH2 0x33FF JUMP JUMPDEST JUMPDEST PUSH1 0x40 MLOAD SWAP1 DUP1 DUP3 MSTORE DUP1 PUSH1 0x20 MUL PUSH1 0x20 ADD DUP3 ADD PUSH1 0x40 MSTORE DUP1 ISZERO PUSH2 0x7CB JUMPI DUP2 PUSH1 0x20 ADD PUSH1 0x20 DUP3 MUL DUP1 CALLDATASIZE DUP4 CALLDATACOPY DUP1 DUP3 ADD SWAP2 POP POP SWAP1 POP JUMPDEST POP SWAP1 POP PUSH0 DUP1 JUMPDEST PUSH1 0x5 DUP1 SLOAD SWAP1 POP DUP2 LT ISZERO PUSH2 0x99F JUMPI TIMESTAMP DUP7 PUSH1 0x9 ADD PUSH0 PUSH1 0x5 DUP5 DUP2 SLOAD DUP2 LT PUSH2 0x7F8 JUMPI PUSH2 0x7F7 PUSH2 0x3BF6 JUMP JUMPDEST JUMPDEST SWAP1 PUSH0 MSTORE PUSH1 0x20 PUSH0 KECCAK256 ADD PUSH0 SWAP1 SLOAD SWAP1 PUSH2 0x100 EXP SWAP1 DIV PUSH20 0xFFFFFFFFFFFFFFFFFFFFFFFFFFFFFFFFFFFFFFFF AND PUSH20 0xFFFFFFFFFFFFFFFFFFFFFFFFFFFFFFFFFFFFFFFF AND PUSH20 0xFFFFFFFFFFFFFFFFFFFFFFFFFFFFFFFFFFFFFFFF AND DUP2 MSTORE PUSH1 0x20 ADD SWAP1 DUP2 MSTORE PUSH1 0x20 ADD PUSH0 KECCAK256 SLOAD GT ISZERO PUSH2 0x992 JUMPI PUSH1 0x5 DUP2 DUP2 SLOAD DUP2 LT PUSH2 0x874 JUMPI PUSH2 0x873 PUSH2 0x3BF6 JUMP JUMPDEST JUMPDEST SWAP1 PUSH0 MSTORE PUSH1 0x20 PUSH0 KECCAK256 ADD PUSH0 SWAP1 SLOAD SWAP1 PUSH2 0x100 EXP SWAP1 DIV PUSH20 0xFFFFFFFFFFFFFFFFFFFFFFFFFFFFFFFFFFFFFFFF AND DUP5 DUP4 DUP2 MLOAD DUP2 LT PUSH2 0x8AF JUMPI PUSH2 0x8AE PUSH2 0x3BF6 JUMP JUMPDEST JUMPDEST PUSH1 0x20 MUL PUSH1 0x20 ADD ADD SWAP1 PUSH20 0xFFFFFFFFFFFFFFFFFFFFFFFFFFFFFFFFFFFFFFFF AND SWAP1 DUP2 PUSH20 0xFFFFFFFFFFFFFFFFFFFFFFFFFFFFFFFFFFFFFFFF AND DUP2 MSTORE POP POP DUP6 PUSH1 0x9 ADD PUSH0 PUSH1 0x5 DUP4 DUP2 SLOAD DUP2 LT PUSH2 0x902 JUMPI PUSH2 0x901 PUSH2 0x3BF6 JUMP JUMPDEST JUMPDEST SWAP1 PUSH0 MSTORE PUSH1 0x20 PUSH0 KECCAK256 ADD PUSH0 SWAP1 SLOAD SWAP1 PUSH2 0x100 EXP SWAP1 DIV PUSH20 0xFFFFFFFFFFFFFFFFFFFFFFFFFFFFFFFFFFFFFFFF AND PUSH20 0xFFFFFFFFFFFFFFFFFFFFFFFFFFFFFFFFFFFFFFFF AND PUSH20 0xFFFFFFFFFFFFFFFFFFFFFFFFFFFFFFFFFFFFFFFF AND DUP2 MSTORE PUSH1 0x20 ADD SWAP1 DUP2 MSTORE PUSH1 0x20 ADD PUSH0 KECCAK256 SLOAD DUP4 DUP4 DUP2 MLOAD DUP2 LT PUSH2 0x977 JUMPI PUSH2 0x976 PUSH2 0x3BF6 JUMP JUMPDEST JUMPDEST PUSH1 0x20 MUL PUSH1 0x20 ADD ADD DUP2 DUP2 MSTORE POP POP DUP2 DUP1 PUSH2 0x98E SWAP1 PUSH2 0x3C50 JUMP JUMPDEST SWAP3 POP POP JUMPDEST DUP1 DUP1 PUSH1 0x1 ADD SWAP2 POP POP PUSH2 0x7D1 JUMP JUMPDEST POP DUP3 DUP3 SWAP7 POP SWAP7 POP POP POP POP POP POP SWAP2 POP SWAP2 JUMP JUMPDEST PUSH0 PUSH1 0x20 MSTORE DUP1 PUSH0 MSTORE PUSH1 0x40 PUSH0 KECCAK256 PUSH0 SWAP2 POP SWAP1 POP DUP1 PUSH0 ADD DUP1 SLOAD PUSH2 0x9CE SWAP1 PUSH2 0x3CC4 JUMP JUMPDEST DUP1 PUSH1 0x1F ADD PUSH1 0x20 DUP1 SWAP2 DIV MUL PUSH1 0x20 ADD PUSH1 0x40 MLOAD SWAP1 DUP2 ADD PUSH1 0x40 MSTORE DUP1 SWAP3 SWAP2 SWAP1 DUP2 DUP2 MSTORE PUSH1 0x20 ADD DUP3 DUP1 SLOAD PUSH2 0x9FA SWAP1 PUSH2 0x3CC4 JUMP JUMPDEST DUP1 ISZERO PUSH2 0xA45 JUMPI DUP1 PUSH1 0x1F LT PUSH2 0xA1C JUMPI PUSH2 0x100 DUP1 DUP4 SLOAD DIV MUL DUP4 MSTORE SWAP2 PUSH1 0x20 ADD SWAP2 PUSH2 0xA45 JUMP JUMPDEST DUP3 ADD SWAP2 SWAP1 PUSH0 MSTORE PUSH1 0x20 PUSH0 KECCAK256 SWAP1 JUMPDEST DUP2 SLOAD DUP2 MSTORE SWAP1 PUSH1 0x1 ADD SWAP1 PUSH1 0x20 ADD DUP1 DUP4 GT PUSH2 0xA28 JUMPI DUP3 SWAP1 SUB PUSH1 0x1F AND DUP3 ADD SWAP2 JUMPDEST POP POP POP POP POP SWAP1 DUP1 PUSH1 0x1 ADD SLOAD SWAP1 DUP1 PUSH1 0x2 ADD SLOAD SWAP1 DUP1 PUSH1 0x3 ADD SLOAD SWAP1 DUP1 PUSH1 0x4 ADD SLOAD SWAP1 DUP1 PUSH1 0x5 ADD SLOAD SWAP1 DUP1 PUSH1 0x6 ADD PUSH0 SWAP1 SLOAD SWAP1 PUSH2 0x100 EXP SWAP1 DIV PUSH1 0xFF AND SWAP1 POP DUP8 JUMP JUMPDEST PUSH1 0x1 PUSH0 CALLER PUSH20 0xFFFFFFFFFFFFFFFFFFFFFFFFFFFFFFFFFFFFFFFF AND PUSH20 0xFFFFFFFFFFFFFFFFFFFFFFFFFFFFFFFFFFFFFFFF AND DUP2 MSTORE PUSH1 0x20 ADD SWAP1 DUP2 MSTORE PUSH1 0x20 ADD PUSH0 KECCAK256 PUSH0 SWAP1 SLOAD SWAP1 PUSH2 0x100 EXP SWAP1 DIV PUSH1 0xFF AND PUSH2 0xB08 JUMPI PUSH1 0x40 MLOAD PUSH32 0x8C379A000000000000000000000000000000000000000000000000000000000 DUP2 MSTORE PUSH1 0x4 ADD PUSH2 0xAFF SWAP1 PUSH2 0x3D64 JUMP JUMPDEST PUSH1 0x40 MLOAD DUP1 SWAP2 SUB SWAP1 REVERT JUMPDEST PUSH1 0x3 PUSH0 DUP4 PUSH20 0xFFFFFFFFFFFFFFFFFFFFFFFFFFFFFFFFFFFFFFFF AND PUSH20 0xFFFFFFFFFFFFFFFFFFFFFFFFFFFFFFFFFFFFFFFF AND DUP2 MSTORE PUSH1 0x20 ADD SWAP1 DUP2 MSTORE PUSH1 0x20 ADD PUSH0 KECCAK256 PUSH0 SWAP1 SLOAD SWAP1 PUSH2 0x100 EXP SWAP1 DIV PUSH1 0xFF AND PUSH2 0xB91 JUMPI PUSH1 0x40 MLOAD PUSH32 0x8C379A000000000000000000000000000000000000000000000000000000000 DUP2 MSTORE PUSH1 0x4 ADD PUSH2 0xB88 SWAP1 PUSH2 0x3DCC JUMP JUMPDEST PUSH1 0x40 MLOAD DUP1 SWAP2 SUB SWAP1 REVERT JUMPDEST PUSH1 0x1 DUP2 LT ISZERO DUP1 ISZERO PUSH2 0xBA3 JUMPI POP PUSH1 0x5 DUP2 GT ISZERO JUMPDEST PUSH2 0xBE2 JUMPI PUSH1 0x40 MLOAD PUSH32 0x8C379A000000000000000000000000000000000000000000000000000000000 DUP2 MSTORE PUSH1 0x4 ADD PUSH2 0xBD9 SWAP1 PUSH2 0x3E34 JUMP JUMPDEST PUSH1 0x40 MLOAD DUP1 SWAP2 SUB SWAP1 REVERT JUMPDEST PUSH0 PUSH1 0x2 PUSH0 DUP5 PUSH20 0xFFFFFFFFFFFFFFFFFFFFFFFFFFFFFFFFFFFFFFFF AND PUSH20 0xFFFFFFFFFFFFFFFFFFFFFFFFFFFFFFFFFFFFFFFF AND DUP2 MSTORE PUSH1 0x20 ADD SWAP1 DUP2 MSTORE PUSH1 0x20 ADD PUSH0 KECCAK256 SWAP1 POP DUP2 DUP2 PUSH1 0x8 ADD PUSH0 DUP3 DUP3 SLOAD PUSH2 0xC35 SWAP2 SWAP1 PUSH2 0x3E52 JUMP JUMPDEST SWAP3 POP POP DUP2 SWAP1 SSTORE POP DUP1 PUSH1 0x9 ADD PUSH0 DUP2 SLOAD DUP1 SWAP3 SWAP2 SWAP1 PUSH2 0xC50 SWAP1 PUSH2 0x3C50 JUMP JUMPDEST SWAP2 SWAP1 POP SSTORE POP POP POP POP JUMP JUMPDEST PUSH0 PUSH1 0x6 PUSH0 SWAP1 SLOAD SWAP1 PUSH2 0x100 EXP SWAP1 DIV PUSH20 0xFFFFFFFFFFFFFFFFFFFFFFFFFFFFFFFFFFFFFFFF AND PUSH20 0xFFFFFFFFFFFFFFFFFFFFFFFFFFFFFFFFFFFFFFFF AND CALLER PUSH20 0xFFFFFFFFFFFFFFFFFFFFFFFFFFFFFFFFFFFFFFFF AND EQ PUSH2 0xCEA JUMPI PUSH1 0x40 MLOAD PUSH32 0x8C379A000000000000000000000000000000000000000000000000000000000 DUP2 MSTORE PUSH1 0x4 ADD PUSH2 0xCE1 SWAP1 PUSH2 0x3BD8 JUMP JUMPDEST PUSH1 0x40 MLOAD DUP1 SWAP2 SUB SWAP1 REVERT JUMPDEST PUSH1 0x3 PUSH0 DUP4 PUSH20 0xFFFFFFFFFFFFFFFFFFFFFFFFFFFFFFFFFFFFFFFF AND PUSH20 0xFFFFFFFFFFFFFFFFFFFFFFFFFFFFFFFFFFFFFFFF AND DUP2 MSTORE PUSH1 0x20 ADD SWAP1 DUP2 MSTORE PUSH1 0x20 ADD PUSH0 KECCAK256 PUSH0 SWAP1 SLOAD SWAP1 PUSH2 0x100 EXP SWAP1 DIV PUSH1 0xFF AND PUSH2 0xD73 JUMPI PUSH1 0x40 MLOAD PUSH32 0x8C379A000000000000000000000000000000000000000000000000000000000 DUP2 MSTORE PUSH1 0x4 ADD PUSH2 0xD6A SWAP1 PUSH2 0x3DCC JUMP JUMPDEST PUSH1 0x40 MLOAD DUP1 SWAP2 SUB SWAP1 REVERT JUMPDEST PUSH0 PUSH1 0x2 PUSH0 DUP5 PUSH20 0xFFFFFFFFFFFFFFFFFFFFFFFFFFFFFFFFFFFFFFFF AND PUSH20 0xFFFFFFFFFFFFFFFFFFFFFFFFFFFFFFFFFFFFFFFF AND DUP2 MSTORE PUSH1 0x20 ADD SWAP1 DUP2 MSTORE PUSH1 0x20 ADD PUSH0 KECCAK256 SWAP1 POP PUSH0 DUP2 PUSH1 0x9 ADD SLOAD SUB PUSH2 0xDD7 JUMPI PUSH1 0x1 DUP2 PUSH1 0x7 ADD SLOAD PUSH2 0xDCF SWAP2 SWAP1 PUSH2 0x3E85 JUMP JUMPDEST SWAP2 POP POP PUSH2 0xE03 JUMP JUMPDEST PUSH0 DUP2 PUSH1 0x9 ADD SLOAD DUP3 PUSH1 0x8 ADD SLOAD PUSH2 0xDEC SWAP2 SWAP1 PUSH2 0x3EF3 JUMP JUMPDEST SWAP1 POP DUP1 DUP3 PUSH1 0x7 ADD SLOAD PUSH2 0xDFE SWAP2 SWAP1 PUSH2 0x3E85 JUMP JUMPDEST SWAP3 POP POP POP JUMPDEST SWAP2 SWAP1 POP JUMP JUMPDEST PUSH1 0x1 PUSH0 CALLER PUSH20 0xFFFFFFFFFFFFFFFFFFFFFFFFFFFFFFFFFFFFFFFF AND PUSH20 0xFFFFFFFFFFFFFFFFFFFFFFFFFFFFFFFFFFFFFFFF AND DUP2 MSTORE PUSH1 0x20 ADD SWAP1 DUP2 MSTORE PUSH1 0x20 ADD PUSH0 KECCAK256 PUSH0 SWAP1 SLOAD SWAP1 PUSH2 0x100 EXP SWAP1 DIV PUSH1 0xFF AND PUSH2 0xE91 JUMPI PUSH1 0x40 MLOAD PUSH32 0x8C379A000000000000000000000000000000000000000000000000000000000 DUP2 MSTORE PUSH1 0x4 ADD PUSH2 0xE88 SWAP1 PUSH2 0x3D64 JUMP JUMPDEST PUSH1 0x40 MLOAD DUP1 SWAP2 SUB SWAP1 REVERT JUMPDEST PUSH1 0x3 PUSH0 DUP3 PUSH20 0xFFFFFFFFFFFFFFFFFFFFFFFFFFFFFFFFFFFFFFFF AND PUSH20 0xFFFFFFFFFFFFFFFFFFFFFFFFFFFFFFFFFFFFFFFF AND DUP2 MSTORE PUSH1 0x20 ADD SWAP1 DUP2 MSTORE PUSH1 0x20 ADD PUSH0 KECCAK256 PUSH0 SWAP1 SLOAD SWAP1 PUSH2 0x100 EXP SWAP1 DIV PUSH1 0xFF AND PUSH2 0xF1A JUMPI PUSH1 0x40 MLOAD PUSH32 0x8C379A000000000000000000000000000000000000000000000000000000000 DUP2 MSTORE PUSH1 0x4 ADD PUSH2 0xF11 SWAP1 PUSH2 0x3DCC JUMP JUMPDEST PUSH1 0x40 MLOAD DUP1 SWAP2 SUB SWAP1 REVERT JUMPDEST TIMESTAMP PUSH0 DUP1 CALLER PUSH20 0xFFFFFFFFFFFFFFFFFFFFFFFFFFFFFFFFFFFFFFFF AND PUSH20 0xFFFFFFFFFFFFFFFFFFFFFFFFFFFFFFFFFFFFFFFF AND DUP2 MSTORE PUSH1 0x20 ADD SWAP1 DUP2 MSTORE PUSH1 0x20 ADD PUSH0 KECCAK256 PUSH1 0x9 ADD PUSH0 DUP4 PUSH20 0xFFFFFFFFFFFFFFFFFFFFFFFFFFFFFFFFFFFFFFFF AND PUSH20 0xFFFFFFFFFFFFFFFFFFFFFFFFFFFFFFFFFFFFFFFF AND DUP2 MSTORE PUSH1 0x20 ADD SWAP1 DUP2 MSTORE PUSH1 0x20 ADD PUSH0 KECCAK256 SLOAD GT PUSH2 0xFD6 JUMPI PUSH1 0x40 MLOAD PUSH32 0x8C379A000000000000000000000000000000000000000000000000000000000 DUP2 MSTORE PUSH1 0x4 ADD PUSH2 0xFCD SWAP1 PUSH2 0x3F6D JUMP JUMPDEST PUSH1 0x40 MLOAD DUP1 SWAP2 SUB SWAP1 REVERT JUMPDEST PUSH0 DUP1 PUSH0 CALLER PUSH20 0xFFFFFFFFFFFFFFFFFFFFFFFFFFFFFFFFFFFFFFFF AND PUSH20 0xFFFFFFFFFFFFFFFFFFFFFFFFFFFFFFFFFFFFFFFF AND DUP2 MSTORE PUSH1 0x20 ADD SWAP1 DUP2 MSTORE PUSH1 0x20 ADD PUSH0 KECCAK256 SWAP1 POP PUSH0 PUSH1 0x2 PUSH0 DUP5 PUSH20 0xFFFFFFFFFFFFFFFFFFFFFFFFFFFFFFFFFFFFFFFF AND PUSH20 0xFFFFFFFFFFFFFFFFFFFFFFFFFFFFFFFFFFFFFFFF AND DUP2 MSTORE PUSH1 0x20 ADD SWAP1 DUP2 MSTORE PUSH1 0x20 ADD PUSH0 KECCAK256 SWAP1 POP PUSH1 0x40 MLOAD DUP1 PUSH1 0x40 ADD PUSH1 0x40 MSTORE DUP1 DUP3 PUSH0 ADD DUP1 SLOAD PUSH2 0x106E SWAP1 PUSH2 0x3CC4 JUMP JUMPDEST DUP1 PUSH1 0x1F ADD PUSH1 0x20 DUP1 SWAP2 DIV MUL PUSH1 0x20 ADD PUSH1 0x40 MLOAD SWAP1 DUP2 ADD PUSH1 0x40 MSTORE DUP1 SWAP3 SWAP2 SWAP1 DUP2 DUP2 MSTORE PUSH1 0x20 ADD DUP3 DUP1 SLOAD PUSH2 0x109A SWAP1 PUSH2 0x3CC4 JUMP JUMPDEST DUP1 ISZERO PUSH2 0x10E5 JUMPI DUP1 PUSH1 0x1F LT PUSH2 0x10BC JUMPI PUSH2 0x100 DUP1 DUP4 SLOAD DIV MUL DUP4 MSTORE SWAP2 PUSH1 0x20 ADD SWAP2 PUSH2 0x10E5 JUMP JUMPDEST DUP3 ADD SWAP2 SWAP1 PUSH0 MSTORE PUSH1 0x20 PUSH0 KECCAK256 SWAP1 JUMPDEST DUP2 SLOAD DUP2 MSTORE SWAP1 PUSH1 0x1 ADD SWAP1 PUSH1 0x20 ADD DUP1 DUP4 GT PUSH2 0x10C8 JUMPI DUP3 SWAP1 SUB PUSH1 0x1F AND DUP3 ADD SWAP2 JUMPDEST POP POP POP POP POP DUP2 MSTORE PUSH1 0x20 ADD TIMESTAMP DUP2 MSTORE POP DUP3 PUSH1 0x8 ADD PUSH0 DUP5 PUSH1 0x5 ADD SLOAD DUP2 MSTORE PUSH1 0x20 ADD SWAP1 DUP2 MSTORE PUSH1 0x20 ADD PUSH0 KECCAK256 PUSH0 DUP3 ADD MLOAD DUP2 PUSH0 ADD SWAP1 DUP2 PUSH2 0x111D SWAP2 SWAP1 PUSH2 0x4128 JUMP JUMPDEST POP PUSH1 0x20 DUP3 ADD MLOAD DUP2 PUSH1 0x1 ADD SSTORE SWAP1 POP POP DUP2 PUSH1 0x5 ADD PUSH0 DUP2 SLOAD DUP1 SWAP3 SWAP2 SWAP1 PUSH2 0x113F SWAP1 PUSH2 0x3C50 JUMP JUMPDEST SWAP2 SWAP1 POP SSTORE POP DUP3 PUSH20 0xFFFFFFFFFFFFFFFFFFFFFFFFFFFFFFFFFFFFFFFF AND PUSH2 0x8FC DUP3 PUSH1 0x1 ADD PUSH0 ADD SLOAD SWAP1 DUP2 ISZERO MUL SWAP1 PUSH1 0x40 MLOAD PUSH0 PUSH1 0x40 MLOAD DUP1 DUP4 SUB DUP2 DUP6 DUP9 DUP9 CALL SWAP4 POP POP POP POP ISZERO DUP1 ISZERO PUSH2 0x118D JUMPI RETURNDATASIZE PUSH0 DUP1 RETURNDATACOPY RETURNDATASIZE PUSH0 REVERT JUMPDEST POP POP POP POP JUMP JUMPDEST PUSH1 0x1 PUSH0 CALLER PUSH20 0xFFFFFFFFFFFFFFFFFFFFFFFFFFFFFFFFFFFFFFFF AND PUSH20 0xFFFFFFFFFFFFFFFFFFFFFFFFFFFFFFFFFFFFFFFF AND DUP2 MSTORE PUSH1 0x20 ADD SWAP1 DUP2 MSTORE PUSH1 0x20 ADD PUSH0 KECCAK256 PUSH0 SWAP1 SLOAD SWAP1 PUSH2 0x100 EXP SWAP1 DIV PUSH1 0xFF AND PUSH2 0x121C JUMPI PUSH1 0x40 MLOAD PUSH32 0x8C379A000000000000000000000000000000000000000000000000000000000 DUP2 MSTORE PUSH1 0x4 ADD PUSH2 0x1213 SWAP1 PUSH2 0x3D64 JUMP JUMPDEST PUSH1 0x40 MLOAD DUP1 SWAP2 SUB SWAP1 REVERT JUMPDEST PUSH0 DUP1 PUSH0 CALLER PUSH20 0xFFFFFFFFFFFFFFFFFFFFFFFFFFFFFFFFFFFFFFFF AND PUSH20 0xFFFFFFFFFFFFFFFFFFFFFFFFFFFFFFFFFFFFFFFF AND DUP2 MSTORE PUSH1 0x20 ADD SWAP1 DUP2 MSTORE PUSH1 0x20 ADD PUSH0 KECCAK256 SWAP1 POP PUSH1 0x40 MLOAD DUP1 PUSH1 0x60 ADD PUSH1 0x40 MSTORE DUP1 DUP5 DUP2 MSTORE PUSH1 0x20 ADD DUP4 DUP2 MSTORE PUSH1 0x20 ADD TIMESTAMP DUP2 MSTORE POP DUP2 PUSH1 0x7 ADD PUSH0 DUP4 PUSH1 0x4 ADD SLOAD DUP2 MSTORE PUSH1 0x20 ADD SWAP1 DUP2 MSTORE PUSH1 0x20 ADD PUSH0 KECCAK256 PUSH0 DUP3 ADD MLOAD DUP2 PUSH0 ADD SWAP1 DUP2 PUSH2 0x12A0 SWAP2 SWAP1 PUSH2 0x4128 JUMP JUMPDEST POP PUSH1 0x20 DUP3 ADD MLOAD DUP2 PUSH1 0x1 ADD SSTORE PUSH1 0x40 DUP3 ADD MLOAD DUP2 PUSH1 0x2 ADD SSTORE SWAP1 POP POP DUP1 PUSH1 0x4 ADD PUSH0 DUP2 SLOAD DUP1 SWAP3 SWAP2 SWAP1 PUSH2 0x12CC SWAP1 PUSH2 0x3C50 JUMP JUMPDEST SWAP2 SWAP1 POP SSTORE POP POP POP POP JUMP JUMPDEST PUSH1 0x60 DUP1 PUSH1 0x3 PUSH0 CALLER PUSH20 0xFFFFFFFFFFFFFFFFFFFFFFFFFFFFFFFFFFFFFFFF AND PUSH20 0xFFFFFFFFFFFFFFFFFFFFFFFFFFFFFFFFFFFFFFFF AND DUP2 MSTORE PUSH1 0x20 ADD SWAP1 DUP2 MSTORE PUSH1 0x20 ADD PUSH0 KECCAK256 PUSH0 SWAP1 SLOAD SWAP1 PUSH2 0x100 EXP SWAP1 DIV PUSH1 0xFF AND PUSH2 0x1362 JUMPI PUSH1 0x40 MLOAD PUSH32 0x8C379A000000000000000000000000000000000000000000000000000000000 DUP2 MSTORE PUSH1 0x4 ADD PUSH2 0x1359 SWAP1 PUSH2 0x4241 JUMP JUMPDEST PUSH1 0x40 MLOAD DUP1 SWAP2 SUB SWAP1 REVERT JUMPDEST PUSH0 PUSH1 0x2 PUSH0 CALLER PUSH20 0xFFFFFFFFFFFFFFFFFFFFFFFFFFFFFFFFFFFFFFFF AND PUSH20 0xFFFFFFFFFFFFFFFFFFFFFFFFFFFFFFFFFFFFFFFF AND DUP2 MSTORE PUSH1 0x20 ADD SWAP1 DUP2 MSTORE PUSH1 0x20 ADD PUSH0 KECCAK256 SWAP1 POP PUSH0 DUP2 PUSH1 0xD ADD DUP1 SLOAD SWAP1 POP SWAP1 POP PUSH0 DUP2 PUSH8 0xFFFFFFFFFFFFFFFF DUP2 GT ISZERO PUSH2 0x13C8 JUMPI PUSH2 0x13C7 PUSH2 0x33FF JUMP JUMPDEST JUMPDEST PUSH1 0x40 MLOAD SWAP1 DUP1 DUP3 MSTORE DUP1 PUSH1 0x20 MUL PUSH1 0x20 ADD DUP3 ADD PUSH1 0x40 MSTORE DUP1 ISZERO PUSH2 0x13FB JUMPI DUP2 PUSH1 0x20 ADD JUMPDEST PUSH1 0x60 DUP2 MSTORE PUSH1 0x20 ADD SWAP1 PUSH1 0x1 SWAP1 SUB SWAP1 DUP2 PUSH2 0x13E6 JUMPI SWAP1 POP JUMPDEST POP SWAP1 POP PUSH0 DUP3 PUSH8 0xFFFFFFFFFFFFFFFF DUP2 GT ISZERO PUSH2 0x1419 JUMPI PUSH2 0x1418 PUSH2 0x33FF JUMP JUMPDEST JUMPDEST PUSH1 0x40 MLOAD SWAP1 DUP1 DUP3 MSTORE DUP1 PUSH1 0x20 MUL PUSH1 0x20 ADD DUP3 ADD PUSH1 0x40 MSTORE DUP1 ISZERO PUSH2 0x1447 JUMPI DUP2 PUSH1 0x20 ADD PUSH1 0x20 DUP3 MUL DUP1 CALLDATASIZE DUP4 CALLDATACOPY DUP1 DUP3 ADD SWAP2 POP POP SWAP1 POP JUMPDEST POP SWAP1 POP PUSH0 JUMPDEST DUP4 DUP2 LT ISZERO PUSH2 0x1632 JUMPI PUSH0 DUP6 PUSH1 0xD ADD DUP3 DUP2 SLOAD DUP2 LT PUSH2 0x146B JUMPI PUSH2 0x146A PUSH2 0x3BF6 JUMP JUMPDEST JUMPDEST SWAP1 PUSH0 MSTORE PUSH1 0x20 PUSH0 KECCAK256 ADD PUSH0 SWAP1 SLOAD SWAP1 PUSH2 0x100 EXP SWAP1 DIV PUSH20 0xFFFFFFFFFFFFFFFFFFFFFFFFFFFFFFFFFFFFFFFF AND SWAP1 POP PUSH0 DUP1 PUSH0 DUP4 PUSH20 0xFFFFFFFFFFFFFFFFFFFFFFFFFFFFFFFFFFFFFFFF AND PUSH20 0xFFFFFFFFFFFFFFFFFFFFFFFFFFFFFFFFFFFFFFFF AND DUP2 MSTORE PUSH1 0x20 ADD SWAP1 DUP2 MSTORE PUSH1 0x20 ADD PUSH0 KECCAK256 SWAP1 POP TIMESTAMP DUP8 PUSH1 0xE ADD PUSH0 DUP5 PUSH20 0xFFFFFFFFFFFFFFFFFFFFFFFFFFFFFFFFFFFFFFFF AND PUSH20 0xFFFFFFFFFFFFFFFFFFFFFFFFFFFFFFFFFFFFFFFF AND DUP2 MSTORE PUSH1 0x20 ADD SWAP1 DUP2 MSTORE PUSH1 0x20 ADD PUSH0 KECCAK256 SLOAD GT ISZERO PUSH2 0x1623 JUMPI DUP1 PUSH0 ADD DUP1 SLOAD PUSH2 0x1529 SWAP1 PUSH2 0x3CC4 JUMP JUMPDEST DUP1 PUSH1 0x1F ADD PUSH1 0x20 DUP1 SWAP2 DIV MUL PUSH1 0x20 ADD PUSH1 0x40 MLOAD SWAP1 DUP2 ADD PUSH1 0x40 MSTORE DUP1 SWAP3 SWAP2 SWAP1 DUP2 DUP2 MSTORE PUSH1 0x20 ADD DUP3 DUP1 SLOAD PUSH2 0x1555 SWAP1 PUSH2 0x3CC4 JUMP JUMPDEST DUP1 ISZERO PUSH2 0x15A0 JUMPI DUP1 PUSH1 0x1F LT PUSH2 0x1577 JUMPI PUSH2 0x100 DUP1 DUP4 SLOAD DIV MUL DUP4 MSTORE SWAP2 PUSH1 0x20 ADD SWAP2 PUSH2 0x15A0 JUMP JUMPDEST DUP3 ADD SWAP2 SWAP1 PUSH0 MSTORE PUSH1 0x20 PUSH0 KECCAK256 SWAP1 JUMPDEST DUP2 SLOAD DUP2 MSTORE SWAP1 PUSH1 0x1 ADD SWAP1 PUSH1 0x20 ADD DUP1 DUP4 GT PUSH2 0x1583 JUMPI DUP3 SWAP1 SUB PUSH1 0x1F AND DUP3 ADD SWAP2 JUMPDEST POP POP POP POP POP DUP6 DUP5 DUP2 MLOAD DUP2 LT PUSH2 0x15B8 JUMPI PUSH2 0x15B7 PUSH2 0x3BF6 JUMP JUMPDEST JUMPDEST PUSH1 0x20 MUL PUSH1 0x20 ADD ADD DUP2 SWAP1 MSTORE POP DUP7 PUSH1 0xE ADD PUSH0 DUP4 PUSH20 0xFFFFFFFFFFFFFFFFFFFFFFFFFFFFFFFFFFFFFFFF AND PUSH20 0xFFFFFFFFFFFFFFFFFFFFFFFFFFFFFFFFFFFFFFFF AND DUP2 MSTORE PUSH1 0x20 ADD SWAP1 DUP2 MSTORE PUSH1 0x20 ADD PUSH0 KECCAK256 SLOAD DUP5 DUP5 DUP2 MLOAD DUP2 LT PUSH2 0x1616 JUMPI PUSH2 0x1615 PUSH2 0x3BF6 JUMP JUMPDEST JUMPDEST PUSH1 0x20 MUL PUSH1 0x20 ADD ADD DUP2 DUP2 MSTORE POP POP JUMPDEST POP POP DUP1 DUP1 PUSH1 0x1 ADD SWAP2 POP POP PUSH2 0x144C JUMP JUMPDEST POP DUP2 DUP2 SWAP6 POP SWAP6 POP POP POP POP POP SWAP1 SWAP2 JUMP JUMPDEST PUSH1 0x3 PUSH1 0x20 MSTORE DUP1 PUSH0 MSTORE PUSH1 0x40 PUSH0 KECCAK256 PUSH0 SWAP2 POP SLOAD SWAP1 PUSH2 0x100 EXP SWAP1 DIV PUSH1 0xFF AND DUP2 JUMP JUMPDEST PUSH1 0x60 PUSH0 DUP1 PUSH0 DUP1 PUSH1 0x1 PUSH0 CALLER PUSH20 0xFFFFFFFFFFFFFFFFFFFFFFFFFFFFFFFFFFFFFFFF AND PUSH20 0xFFFFFFFFFFFFFFFFFFFFFFFFFFFFFFFFFFFFFFFF AND DUP2 MSTORE PUSH1 0x20 ADD SWAP1 DUP2 MSTORE PUSH1 0x20 ADD PUSH0 KECCAK256 PUSH0 SWAP1 SLOAD SWAP1 PUSH2 0x100 EXP SWAP1 DIV PUSH1 0xFF AND PUSH2 0x16ED JUMPI PUSH1 0x40 MLOAD PUSH32 0x8C379A000000000000000000000000000000000000000000000000000000000 DUP2 MSTORE PUSH1 0x4 ADD PUSH2 0x16E4 SWAP1 PUSH2 0x3D64 JUMP JUMPDEST PUSH1 0x40 MLOAD DUP1 SWAP2 SUB SWAP1 REVERT JUMPDEST PUSH1 0x1 PUSH0 DUP8 PUSH20 0xFFFFFFFFFFFFFFFFFFFFFFFFFFFFFFFFFFFFFFFF AND PUSH20 0xFFFFFFFFFFFFFFFFFFFFFFFFFFFFFFFFFFFFFFFF AND DUP2 MSTORE PUSH1 0x20 ADD SWAP1 DUP2 MSTORE PUSH1 0x20 ADD PUSH0 KECCAK256 PUSH0 SWAP1 SLOAD SWAP1 PUSH2 0x100 EXP SWAP1 DIV PUSH1 0xFF AND PUSH2 0x1776 JUMPI PUSH1 0x40 MLOAD PUSH32 0x8C379A000000000000000000000000000000000000000000000000000000000 DUP2 MSTORE PUSH1 0x4 ADD PUSH2 0x176D SWAP1 PUSH2 0x42A9 JUMP JUMPDEST PUSH1 0x40 MLOAD DUP1 SWAP2 SUB SWAP1 REVERT JUMPDEST PUSH0 DUP1 PUSH0 DUP9 PUSH20 0xFFFFFFFFFFFFFFFFFFFFFFFFFFFFFFFFFFFFFFFF AND PUSH20 0xFFFFFFFFFFFFFFFFFFFFFFFFFFFFFFFFFFFFFFFF AND DUP2 MSTORE PUSH1 0x20 ADD SWAP1 DUP2 MSTORE PUSH1 0x20 ADD PUSH0 KECCAK256 SWAP1 POP DUP1 PUSH0 ADD DUP2 PUSH1 0x1 ADD SLOAD DUP3 PUSH1 0x2 ADD SLOAD DUP4 PUSH1 0x3 ADD SLOAD DUP5 PUSH1 0x6 ADD PUSH0 SWAP1 SLOAD SWAP1 PUSH2 0x100 EXP SWAP1 DIV PUSH1 0xFF AND DUP5 DUP1 SLOAD PUSH2 0x17E4 SWAP1 PUSH2 0x3CC4 JUMP JUMPDEST DUP1 PUSH1 0x1F ADD PUSH1 0x20 DUP1 SWAP2 DIV MUL PUSH1 0x20 ADD PUSH1 0x40 MLOAD SWAP1 DUP2 ADD PUSH1 0x40 MSTORE DUP1 SWAP3 SWAP2 SWAP1 DUP2 DUP2 MSTORE PUSH1 0x20 ADD DUP3 DUP1 SLOAD PUSH2 0x1810 SWAP1 PUSH2 0x3CC4 JUMP JUMPDEST DUP1 ISZERO PUSH2 0x185B JUMPI DUP1 PUSH1 0x1F LT PUSH2 0x1832 JUMPI PUSH2 0x100 DUP1 DUP4 SLOAD DIV MUL DUP4 MSTORE SWAP2 PUSH1 0x20 ADD SWAP2 PUSH2 0x185B JUMP JUMPDEST DUP3 ADD SWAP2 SWAP1 PUSH0 MSTORE PUSH1 0x20 PUSH0 KECCAK256 SWAP1 JUMPDEST DUP2 SLOAD DUP2 MSTORE SWAP1 PUSH1 0x1 ADD SWAP1 PUSH1 0x20 ADD DUP1 DUP4 GT PUSH2 0x183E JUMPI DUP3 SWAP1 SUB PUSH1 0x1F AND DUP3 ADD SWAP2 JUMPDEST POP POP POP POP POP SWAP5 POP SWAP6 POP SWAP6 POP SWAP6 POP SWAP6 POP SWAP6 POP POP SWAP2 SWAP4 SWAP6 SWAP1 SWAP3 SWAP5 POP JUMP JUMPDEST PUSH1 0x2 PUSH1 0x20 MSTORE DUP1 PUSH0 MSTORE PUSH1 0x40 PUSH0 KECCAK256 PUSH0 SWAP2 POP SWAP1 POP DUP1 PUSH0 ADD DUP1 SLOAD PUSH2 0x1895 SWAP1 PUSH2 0x3CC4 JUMP JUMPDEST DUP1 PUSH1 0x1F ADD PUSH1 0x20 DUP1 SWAP2 DIV MUL PUSH1 0x20 ADD PUSH1 0x40 MLOAD SWAP1 DUP2 ADD PUSH1 0x40 MSTORE DUP1 SWAP3 SWAP2 SWAP1 DUP2 DUP2 MSTORE PUSH1 0x20 ADD DUP3 DUP1 SLOAD PUSH2 0x18C1 SWAP1 PUSH2 0x3CC4 JUMP JUMPDEST DUP1 ISZERO PUSH2 0x190C JUMPI DUP1 PUSH1 0x1F LT PUSH2 0x18E3 JUMPI PUSH2 0x100 DUP1 DUP4 SLOAD DIV MUL DUP4 MSTORE SWAP2 PUSH1 0x20 ADD SWAP2 PUSH2 0x190C JUMP JUMPDEST DUP3 ADD SWAP2 SWAP1 PUSH0 MSTORE PUSH1 0x20 PUSH0 KECCAK256 SWAP1 JUMPDEST DUP2 SLOAD DUP2 MSTORE SWAP1 PUSH1 0x1 ADD SWAP1 PUSH1 0x20 ADD DUP1 DUP4 GT PUSH2 0x18EF JUMPI DUP3 SWAP1 SUB PUSH1 0x1F AND DUP3 ADD SWAP2 JUMPDEST POP POP POP POP POP SWAP1 DUP1 PUSH1 0x1 ADD PUSH1 0x40 MLOAD DUP1 PUSH1 0xC0 ADD PUSH1 0x40 MSTORE SWAP1 DUP2 PUSH0 DUP3 ADD SLOAD DUP2 MSTORE PUSH1 0x20 ADD PUSH1 0x1 DUP3 ADD SLOAD DUP2 MSTORE PUSH1 0x20 ADD PUSH1 0x2 DUP3 ADD SLOAD DUP2 MSTORE PUSH1 0x20 ADD PUSH1 0x3 DUP3 ADD SLOAD DUP2 MSTORE PUSH1 0x20 ADD PUSH1 0x4 DUP3 ADD SLOAD DUP2 MSTORE PUSH1 0x20 ADD PUSH1 0x5 DUP3 ADD SLOAD DUP2 MSTORE POP POP SWAP1 DUP1 PUSH1 0x7 ADD SLOAD SWAP1 DUP1 PUSH1 0x8 ADD SLOAD SWAP1 DUP1 PUSH1 0x9 ADD SLOAD SWAP1 DUP1 PUSH1 0xA ADD SLOAD SWAP1 DUP1 PUSH1 0xB ADD PUSH1 0x40 MLOAD DUP1 PUSH1 0x40 ADD PUSH1 0x40 MSTORE SWAP1 DUP2 PUSH0 DUP3 ADD DUP1 SLOAD PUSH2 0x1993 SWAP1 PUSH2 0x3CC4 JUMP JUMPDEST DUP1 PUSH1 0x1F ADD PUSH1 0x20 DUP1 SWAP2 DIV MUL PUSH1 0x20 ADD PUSH1 0x40 MLOAD SWAP1 DUP2 ADD PUSH1 0x40 MSTORE DUP1 SWAP3 SWAP2 SWAP1 DUP2 DUP2 MSTORE PUSH1 0x20 ADD DUP3 DUP1 SLOAD PUSH2 0x19BF SWAP1 PUSH2 0x3CC4 JUMP JUMPDEST DUP1 ISZERO PUSH2 0x1A0A JUMPI DUP1 PUSH1 0x1F LT PUSH2 0x19E1 JUMPI PUSH2 0x100 DUP1 DUP4 SLOAD DIV MUL DUP4 MSTORE SWAP2 PUSH1 0x20 ADD SWAP2 PUSH2 0x1A0A JUMP JUMPDEST DUP3 ADD SWAP2 SWAP1 PUSH0 MSTORE PUSH1 0x20 PUSH0 KECCAK256 SWAP1 JUMPDEST DUP2 SLOAD DUP2 MSTORE SWAP1 PUSH1 0x1 ADD SWAP1 PUSH1 0x20 ADD DUP1 DUP4 GT PUSH2 0x19ED JUMPI DUP3 SWAP1 SUB PUSH1 0x1F AND DUP3 ADD SWAP2 JUMPDEST POP POP POP POP POP DUP2 MSTORE PUSH1 0x20 ADD PUSH1 0x1 DUP3 ADD DUP1 SLOAD PUSH2 0x1A23 SWAP1 PUSH2 0x3CC4 JUMP JUMPDEST DUP1 PUSH1 0x1F ADD PUSH1 0x20 DUP1 SWAP2 DIV MUL PUSH1 0x20 ADD PUSH1 0x40 MLOAD SWAP1 DUP2 ADD PUSH1 0x40 MSTORE DUP1 SWAP3 SWAP2 SWAP1 DUP2 DUP2 MSTORE PUSH1 0x20 ADD DUP3 DUP1 SLOAD PUSH2 0x1A4F SWAP1 PUSH2 0x3CC4 JUMP JUMPDEST DUP1 ISZERO PUSH2 0x1A9A JUMPI DUP1 PUSH1 0x1F LT PUSH2 0x1A71 JUMPI PUSH2 0x100 DUP1 DUP4 SLOAD DIV MUL DUP4 MSTORE SWAP2 PUSH1 0x20 ADD SWAP2 PUSH2 0x1A9A JUMP JUMPDEST DUP3 ADD SWAP2 SWAP1 PUSH0 MSTORE PUSH1 0x20 PUSH0 KECCAK256 SWAP1 JUMPDEST DUP2 SLOAD DUP2 MSTORE SWAP1 PUSH1 0x1 ADD SWAP1 PUSH1 0x20 ADD DUP1 DUP4 GT PUSH2 0x1A7D JUMPI DUP3 SWAP1 SUB PUSH1 0x1F AND DUP3 ADD SWAP2 JUMPDEST POP POP POP POP POP DUP2 MSTORE POP POP SWAP1 POP DUP8 JUMP JUMPDEST PUSH1 0x60 PUSH1 0x6 PUSH0 SWAP1 SLOAD SWAP1 PUSH2 0x100 EXP SWAP1 DIV PUSH20 0xFFFFFFFFFFFFFFFFFFFFFFFFFFFFFFFFFFFFFFFF AND PUSH20 0xFFFFFFFFFFFFFFFFFFFFFFFFFFFFFFFFFFFFFFFF AND CALLER PUSH20 0xFFFFFFFFFFFFFFFFFFFFFFFFFFFFFFFFFFFFFFFF AND EQ PUSH2 0x1B39 JUMPI PUSH1 0x40 MLOAD PUSH32 0x8C379A000000000000000000000000000000000000000000000000000000000 DUP2 MSTORE PUSH1 0x4 ADD PUSH2 0x1B30 SWAP1 PUSH2 0x3BD8 JUMP JUMPDEST PUSH1 0x40 MLOAD DUP1 SWAP2 SUB SWAP1 REVERT JUMPDEST PUSH1 0x4 DUP1 SLOAD DUP1 PUSH1 0x20 MUL PUSH1 0x20 ADD PUSH1 0x40 MLOAD SWAP1 DUP2 ADD PUSH1 0x40 MSTORE DUP1 SWAP3 SWAP2 SWAP1 DUP2 DUP2 MSTORE PUSH1 0x20 ADD DUP3 DUP1 SLOAD DUP1 ISZERO PUSH2 0x1BB8 JUMPI PUSH1 0x20 MUL DUP3 ADD SWAP2 SWAP1 PUSH0 MSTORE PUSH1 0x20 PUSH0 KECCAK256 SWAP1 JUMPDEST DUP2 PUSH0 SWAP1 SLOAD SWAP1 PUSH2 0x100 EXP SWAP1 DIV PUSH20 0xFFFFFFFFFFFFFFFFFFFFFFFFFFFFFFFFFFFFFFFF AND PUSH20 0xFFFFFFFFFFFFFFFFFFFFFFFFFFFFFFFFFFFFFFFF AND DUP2 MSTORE PUSH1 0x20 ADD SWAP1 PUSH1 0x1 ADD SWAP1 DUP1 DUP4 GT PUSH2 0x1B6F JUMPI JUMPDEST POP POP POP POP POP SWAP1 POP SWAP1 JUMP JUMPDEST PUSH1 0x60 PUSH0 DUP1 PUSH1 0x1 PUSH0 CALLER PUSH20 0xFFFFFFFFFFFFFFFFFFFFFFFFFFFFFFFFFFFFFFFF AND PUSH20 0xFFFFFFFFFFFFFFFFFFFFFFFFFFFFFFFFFFFFFFFF AND DUP2 MSTORE PUSH1 0x20 ADD SWAP1 DUP2 MSTORE PUSH1 0x20 ADD PUSH0 KECCAK256 PUSH0 SWAP1 SLOAD SWAP1 PUSH2 0x100 EXP SWAP1 DIV PUSH1 0xFF AND PUSH2 0x1C4F JUMPI PUSH1 0x40 MLOAD PUSH32 0x8C379A000000000000000000000000000000000000000000000000000000000 DUP2 MSTORE PUSH1 0x4 ADD PUSH2 0x1C46 SWAP1 PUSH2 0x3D64 JUMP JUMPDEST PUSH1 0x40 MLOAD DUP1 SWAP2 SUB SWAP1 REVERT JUMPDEST PUSH1 0x1 PUSH0 DUP7 PUSH20 0xFFFFFFFFFFFFFFFFFFFFFFFFFFFFFFFFFFFFFFFF AND PUSH20 0xFFFFFFFFFFFFFFFFFFFFFFFFFFFFFFFFFFFFFFFF AND DUP2 MSTORE PUSH1 0x20 ADD SWAP1 DUP2 MSTORE PUSH1 0x20 ADD PUSH0 KECCAK256 PUSH0 SWAP1 SLOAD SWAP1 PUSH2 0x100 EXP SWAP1 DIV PUSH1 0xFF AND PUSH2 0x1CD8 JUMPI PUSH1 0x40 MLOAD PUSH32 0x8C379A000000000000000000000000000000000000000000000000000000000 DUP2 MSTORE PUSH1 0x4 ADD PUSH2 0x1CCF SWAP1 PUSH2 0x42A9 JUMP JUMPDEST PUSH1 0x40 MLOAD DUP1 SWAP2 SUB SWAP1 REVERT JUMPDEST PUSH0 DUP1 PUSH0 DUP8 PUSH20 0xFFFFFFFFFFFFFFFFFFFFFFFFFFFFFFFFFFFFFFFF AND PUSH20 0xFFFFFFFFFFFFFFFFFFFFFFFFFFFFFFFFFFFFFFFF AND DUP2 MSTORE PUSH1 0x20 ADD SWAP1 DUP2 MSTORE PUSH1 0x20 ADD PUSH0 KECCAK256 SWAP1 POP PUSH0 DUP2 PUSH1 0x7 ADD PUSH0 DUP8 DUP2 MSTORE PUSH1 0x20 ADD SWAP1 DUP2 MSTORE PUSH1 0x20 ADD PUSH0 KECCAK256 SWAP1 POP DUP1 PUSH0 ADD DUP2 PUSH1 0x1 ADD SLOAD DUP3 PUSH1 0x2 ADD SLOAD DUP3 DUP1 SLOAD PUSH2 0x1D46 SWAP1 PUSH2 0x3CC4 JUMP JUMPDEST DUP1 PUSH1 0x1F ADD PUSH1 0x20 DUP1 SWAP2 DIV MUL PUSH1 0x20 ADD PUSH1 0x40 MLOAD SWAP1 DUP2 ADD PUSH1 0x40 MSTORE DUP1 SWAP3 SWAP2 SWAP1 DUP2 DUP2 MSTORE PUSH1 0x20 ADD DUP3 DUP1 SLOAD PUSH2 0x1D72 SWAP1 PUSH2 0x3CC4 JUMP JUMPDEST DUP1 ISZERO PUSH2 0x1DBD JUMPI DUP1 PUSH1 0x1F LT PUSH2 0x1D94 JUMPI PUSH2 0x100 DUP1 DUP4 SLOAD DIV MUL DUP4 MSTORE SWAP2 PUSH1 0x20 ADD SWAP2 PUSH2 0x1DBD JUMP JUMPDEST DUP3 ADD SWAP2 SWAP1 PUSH0 MSTORE PUSH1 0x20 PUSH0 KECCAK256 SWAP1 JUMPDEST DUP2 SLOAD DUP2 MSTORE SWAP1 PUSH1 0x1 ADD SWAP1 PUSH1 0x20 ADD DUP1 DUP4 GT PUSH2 0x1DA0 JUMPI DUP3 SWAP1 SUB PUSH1 0x1F AND DUP3 ADD SWAP2 JUMPDEST POP POP POP POP POP SWAP3 POP SWAP5 POP SWAP5 POP SWAP5 POP POP POP SWAP3 POP SWAP3 POP SWAP3 JUMP JUMPDEST PUSH1 0x1 PUSH0 CALLER PUSH20 0xFFFFFFFFFFFFFFFFFFFFFFFFFFFFFFFFFFFFFFFF AND PUSH20 0xFFFFFFFFFFFFFFFFFFFFFFFFFFFFFFFFFFFFFFFF AND DUP2 MSTORE PUSH1 0x20 ADD SWAP1 DUP2 MSTORE PUSH1 0x20 ADD PUSH0 KECCAK256 PUSH0 SWAP1 SLOAD SWAP1 PUSH2 0x100 EXP SWAP1 DIV PUSH1 0xFF AND PUSH2 0x1E5C JUMPI PUSH1 0x40 MLOAD PUSH32 0x8C379A000000000000000000000000000000000000000000000000000000000 DUP2 MSTORE PUSH1 0x4 ADD PUSH2 0x1E53 SWAP1 PUSH2 0x3D64 JUMP JUMPDEST PUSH1 0x40 MLOAD DUP1 SWAP2 SUB SWAP1 REVERT JUMPDEST PUSH1 0x3 PUSH0 DUP4 PUSH20 0xFFFFFFFFFFFFFFFFFFFFFFFFFFFFFFFFFFFFFFFF AND PUSH20 0xFFFFFFFFFFFFFFFFFFFFFFFFFFFFFFFFFFFFFFFF AND DUP2 MSTORE PUSH1 0x20 ADD SWAP1 DUP2 MSTORE PUSH1 0x20 ADD PUSH0 KECCAK256 PUSH0 SWAP1 SLOAD SWAP1 PUSH2 0x100 EXP SWAP1 DIV PUSH1 0xFF AND PUSH2 0x1EE5 JUMPI PUSH1 0x40 MLOAD PUSH32 0x8C379A000000000000000000000000000000000000000000000000000000000 DUP2 MSTORE PUSH1 0x4 ADD PUSH2 0x1EDC SWAP1 PUSH2 0x3DCC JUMP JUMPDEST PUSH1 0x40 MLOAD DUP1 SWAP2 SUB SWAP1 REVERT JUMPDEST PUSH0 PUSH1 0x2 PUSH0 DUP5 PUSH20 0xFFFFFFFFFFFFFFFFFFFFFFFFFFFFFFFFFFFFFFFF AND PUSH20 0xFFFFFFFFFFFFFFFFFFFFFFFFFFFFFFFFFFFFFFFF AND DUP2 MSTORE PUSH1 0x20 ADD SWAP1 DUP2 MSTORE PUSH1 0x20 ADD PUSH0 KECCAK256 SWAP1 POP PUSH0 PUSH2 0x1F30 DUP3 DUP5 PUSH2 0x2E8E JUMP JUMPDEST SWAP1 POP DUP1 CALLVALUE EQ PUSH2 0x1F74 JUMPI PUSH1 0x40 MLOAD PUSH32 0x8C379A000000000000000000000000000000000000000000000000000000000 DUP2 MSTORE PUSH1 0x4 ADD PUSH2 0x1F6B SWAP1 PUSH2 0x4311 JUMP JUMPDEST PUSH1 0x40 MLOAD DUP1 SWAP2 SUB SWAP1 REVERT JUMPDEST DUP2 PUSH1 0x7 ADD PUSH0 DUP2 SLOAD DUP1 SWAP3 SWAP2 SWAP1 PUSH2 0x1F88 SWAP1 PUSH2 0x3C50 JUMP JUMPDEST SWAP2 SWAP1 POP SSTORE POP CALLVALUE DUP3 PUSH1 0xA ADD PUSH0 DUP3 DUP3 SLOAD PUSH2 0x1FA0 SWAP2 SWAP1 PUSH2 0x3E52 JUMP JUMPDEST SWAP3 POP POP DUP2 SWAP1 SSTORE POP PUSH0 PUSH3 0x15180 DUP5 PUSH2 0x1FB7 SWAP2 SWAP1 PUSH2 0x3E85 JUMP JUMPDEST TIMESTAMP PUSH2 0x1FC2 SWAP2 SWAP1 PUSH2 0x3E52 JUMP JUMPDEST SWAP1 POP DUP1 PUSH0 DUP1 CALLER PUSH20 0xFFFFFFFFFFFFFFFFFFFFFFFFFFFFFFFFFFFFFFFF AND PUSH20 0xFFFFFFFFFFFFFFFFFFFFFFFFFFFFFFFFFFFFFFFF AND DUP2 MSTORE PUSH1 0x20 ADD SWAP1 DUP2 MSTORE PUSH1 0x20 ADD PUSH0 KECCAK256 PUSH1 0x9 ADD PUSH0 DUP8 PUSH20 0xFFFFFFFFFFFFFFFFFFFFFFFFFFFFFFFFFFFFFFFF AND PUSH20 0xFFFFFFFFFFFFFFFFFFFFFFFFFFFFFFFFFFFFFFFF AND DUP2 MSTORE PUSH1 0x20 ADD SWAP1 DUP2 MSTORE PUSH1 0x20 ADD PUSH0 KECCAK256 DUP2 SWAP1 SSTORE POP DUP3 PUSH1 0xD ADD CALLER SWAP1 DUP1 PUSH1 0x1 DUP2 SLOAD ADD DUP1 DUP3 SSTORE DUP1 SWAP2 POP POP PUSH1 0x1 SWAP1 SUB SWAP1 PUSH0 MSTORE PUSH1 0x20 PUSH0 KECCAK256 ADD PUSH0 SWAP1 SWAP2 SWAP1 SWAP2 SWAP1 SWAP2 PUSH2 0x100 EXP DUP2 SLOAD DUP2 PUSH20 0xFFFFFFFFFFFFFFFFFFFFFFFFFFFFFFFFFFFFFFFF MUL NOT AND SWAP1 DUP4 PUSH20 0xFFFFFFFFFFFFFFFFFFFFFFFFFFFFFFFFFFFFFFFF AND MUL OR SWAP1 SSTORE POP DUP1 DUP4 PUSH1 0xE ADD PUSH0 CALLER PUSH20 0xFFFFFFFFFFFFFFFFFFFFFFFFFFFFFFFFFFFFFFFF AND PUSH20 0xFFFFFFFFFFFFFFFFFFFFFFFFFFFFFFFFFFFFFFFF AND DUP2 MSTORE PUSH1 0x20 ADD SWAP1 DUP2 MSTORE PUSH1 0x20 ADD PUSH0 KECCAK256 DUP2 SWAP1 SSTORE POP POP POP POP POP POP JUMP JUMPDEST PUSH1 0x6 PUSH0 SWAP1 SLOAD SWAP1 PUSH2 0x100 EXP SWAP1 DIV PUSH20 0xFFFFFFFFFFFFFFFFFFFFFFFFFFFFFFFFFFFFFFFF AND DUP2 JUMP JUMPDEST PUSH1 0x1 PUSH0 CALLER PUSH20 0xFFFFFFFFFFFFFFFFFFFFFFFFFFFFFFFFFFFFFFFF AND PUSH20 0xFFFFFFFFFFFFFFFFFFFFFFFFFFFFFFFFFFFFFFFF AND DUP2 MSTORE PUSH1 0x20 ADD SWAP1 DUP2 MSTORE PUSH1 0x20 ADD PUSH0 KECCAK256 PUSH0 SWAP1 SLOAD SWAP1 PUSH2 0x100 EXP SWAP1 DIV PUSH1 0xFF AND ISZERO PUSH2 0x219F JUMPI PUSH1 0x40 MLOAD PUSH32 0x8C379A000000000000000000000000000000000000000000000000000000000 DUP2 MSTORE PUSH1 0x4 ADD PUSH2 0x2196 SWAP1 PUSH2 0x4379 JUMP JUMPDEST PUSH1 0x40 MLOAD DUP1 SWAP2 SUB SWAP1 REVERT JUMPDEST PUSH1 0x3 PUSH0 CALLER PUSH20 0xFFFFFFFFFFFFFFFFFFFFFFFFFFFFFFFFFFFFFFFF AND PUSH20 0xFFFFFFFFFFFFFFFFFFFFFFFFFFFFFFFFFFFFFFFF AND DUP2 MSTORE PUSH1 0x20 ADD SWAP1 DUP2 MSTORE PUSH1 0x20 ADD PUSH0 KECCAK256 PUSH0 SWAP1 SLOAD SWAP1 PUSH2 0x100 EXP SWAP1 DIV PUSH1 0xFF AND ISZERO PUSH2 0x2229 JUMPI PUSH1 0x40 MLOAD PUSH32 0x8C379A000000000000000000000000000000000000000000000000000000000 DUP2 MSTORE PUSH1 0x4 ADD PUSH2 0x2220 SWAP1 PUSH2 0x43E1 JUMP JUMPDEST PUSH1 0x40 MLOAD DUP1 SWAP2 SUB SWAP1 REVERT JUMPDEST PUSH0 DUP1 PUSH0 CALLER PUSH20 0xFFFFFFFFFFFFFFFFFFFFFFFFFFFFFFFFFFFFFFFF AND PUSH20 0xFFFFFFFFFFFFFFFFFFFFFFFFFFFFFFFFFFFFFFFF AND DUP2 MSTORE PUSH1 0x20 ADD SWAP1 DUP2 MSTORE PUSH1 0x20 ADD PUSH0 KECCAK256 SWAP1 POP DUP5 DUP2 PUSH0 ADD SWAP1 DUP2 PUSH2 0x2278 SWAP2 SWAP1 PUSH2 0x4128 JUMP JUMPDEST POP DUP4 DUP2 PUSH1 0x1 ADD DUP2 SWAP1 SSTORE POP DUP3 DUP2 PUSH1 0x2 ADD DUP2 SWAP1 SSTORE POP DUP2 DUP2 PUSH1 0x3 ADD DUP2 SWAP1 SSTORE POP PUSH0 DUP2 PUSH1 0x4 ADD DUP2 SWAP1 SSTORE POP PUSH0 DUP2 PUSH1 0x5 ADD DUP2 SWAP1 SSTORE POP PUSH0 DUP2 PUSH1 0x6 ADD PUSH0 PUSH2 0x100 EXP DUP2 SLOAD DUP2 PUSH1 0xFF MUL NOT AND SWAP1 DUP4 ISZERO ISZERO MUL OR SWAP1 SSTORE POP PUSH1 0x1 DUP1 PUSH0 CALLER PUSH20 0xFFFFFFFFFFFFFFFFFFFFFFFFFFFFFFFFFFFFFFFF AND PUSH20 0xFFFFFFFFFFFFFFFFFFFFFFFFFFFFFFFFFFFFFFFF AND DUP2 MSTORE PUSH1 0x20 ADD SWAP1 DUP2 MSTORE PUSH1 0x20 ADD PUSH0 KECCAK256 PUSH0 PUSH2 0x100 EXP DUP2 SLOAD DUP2 PUSH1 0xFF MUL NOT AND SWAP1 DUP4 ISZERO ISZERO MUL OR SWAP1 SSTORE POP PUSH1 0x4 CALLER SWAP1 DUP1 PUSH1 0x1 DUP2 SLOAD ADD DUP1 DUP3 SSTORE DUP1 SWAP2 POP POP PUSH1 0x1 SWAP1 SUB SWAP1 PUSH0 MSTORE PUSH1 0x20 PUSH0 KECCAK256 ADD PUSH0 SWAP1 SWAP2 SWAP1 SWAP2 SWAP1 SWAP2 PUSH2 0x100 EXP DUP2 SLOAD DUP2 PUSH20 0xFFFFFFFFFFFFFFFFFFFFFFFFFFFFFFFFFFFFFFFF MUL NOT AND SWAP1 DUP4 PUSH20 0xFFFFFFFFFFFFFFFFFFFFFFFFFFFFFFFFFFFFFFFF AND MUL OR SWAP1 SSTORE POP POP POP POP POP POP JUMP JUMPDEST PUSH1 0x1 PUSH1 0x20 MSTORE DUP1 PUSH0 MSTORE PUSH1 0x40 PUSH0 KECCAK256 PUSH0 SWAP2 POP SLOAD SWAP1 PUSH2 0x100 EXP SWAP1 DIV PUSH1 0xFF AND DUP2 JUMP JUMPDEST PUSH1 0x3 PUSH0 CALLER PUSH20 0xFFFFFFFFFFFFFFFFFFFFFFFFFFFFFFFFFFFFFFFF AND PUSH20 0xFFFFFFFFFFFFFFFFFFFFFFFFFFFFFFFFFFFFFFFF AND DUP2 MSTORE PUSH1 0x20 ADD SWAP1 DUP2 MSTORE PUSH1 0x20 ADD PUSH0 KECCAK256 PUSH0 SWAP1 SLOAD SWAP1 PUSH2 0x100 EXP SWAP1 DIV PUSH1 0xFF AND PUSH2 0x2422 JUMPI PUSH1 0x40 MLOAD PUSH32 0x8C379A000000000000000000000000000000000000000000000000000000000 DUP2 MSTORE PUSH1 0x4 ADD PUSH2 0x2419 SWAP1 PUSH2 0x4241 JUMP JUMPDEST PUSH1 0x40 MLOAD DUP1 SWAP2 SUB SWAP1 REVERT JUMPDEST PUSH0 PUSH1 0x2 PUSH0 CALLER PUSH20 0xFFFFFFFFFFFFFFFFFFFFFFFFFFFFFFFFFFFFFFFF AND PUSH20 0xFFFFFFFFFFFFFFFFFFFFFFFFFFFFFFFFFFFFFFFF AND DUP2 MSTORE PUSH1 0x20 ADD SWAP1 DUP2 MSTORE PUSH1 0x20 ADD PUSH0 KECCAK256 SWAP1 POP PUSH0 DUP2 PUSH1 0xA ADD SLOAD SWAP1 POP PUSH0 DUP2 GT PUSH2 0x24AC JUMPI PUSH1 0x40 MLOAD PUSH32 0x8C379A000000000000000000000000000000000000000000000000000000000 DUP2 MSTORE PUSH1 0x4 ADD PUSH2 0x24A3 SWAP1 PUSH2 0x4449 JUMP JUMPDEST PUSH1 0x40 MLOAD DUP1 SWAP2 SUB SWAP1 REVERT JUMPDEST PUSH0 DUP3 PUSH1 0xA ADD DUP2 SWAP1 SSTORE POP CALLER PUSH20 0xFFFFFFFFFFFFFFFFFFFFFFFFFFFFFFFFFFFFFFFF AND PUSH2 0x8FC DUP3 SWAP1 DUP2 ISZERO MUL SWAP1 PUSH1 0x40 MLOAD PUSH0 PUSH1 0x40 MLOAD DUP1 DUP4 SUB DUP2 DUP6 DUP9 DUP9 CALL SWAP4 POP POP POP POP ISZERO DUP1 ISZERO PUSH2 0x24F8 JUMPI RETURNDATASIZE PUSH0 DUP1 RETURNDATACOPY RETURNDATASIZE PUSH0 REVERT JUMPDEST POP POP POP JUMP JUMPDEST PUSH1 0x5 DUP2 DUP2 SLOAD DUP2 LT PUSH2 0x250C JUMPI PUSH0 DUP1 REVERT JUMPDEST SWAP1 PUSH0 MSTORE PUSH1 0x20 PUSH0 KECCAK256 ADD PUSH0 SWAP2 POP SLOAD SWAP1 PUSH2 0x100 EXP SWAP1 DIV PUSH20 0xFFFFFFFFFFFFFFFFFFFFFFFFFFFFFFFFFFFFFFFF AND DUP2 JUMP JUMPDEST PUSH1 0x4 DUP2 DUP2 SLOAD DUP2 LT PUSH2 0x2547 JUMPI PUSH0 DUP1 REVERT JUMPDEST SWAP1 PUSH0 MSTORE PUSH1 0x20 PUSH0 KECCAK256 ADD PUSH0 SWAP2 POP SLOAD SWAP1 PUSH2 0x100 EXP SWAP1 DIV PUSH20 0xFFFFFFFFFFFFFFFFFFFFFFFFFFFFFFFFFFFFFFFF AND DUP2 JUMP JUMPDEST PUSH1 0x60 PUSH1 0x6 PUSH0 SWAP1 SLOAD SWAP1 PUSH2 0x100 EXP SWAP1 DIV PUSH20 0xFFFFFFFFFFFFFFFFFFFFFFFFFFFFFFFFFFFFFFFF AND PUSH20 0xFFFFFFFFFFFFFFFFFFFFFFFFFFFFFFFFFFFFFFFF AND CALLER PUSH20 0xFFFFFFFFFFFFFFFFFFFFFFFFFFFFFFFFFFFFFFFF AND EQ PUSH2 0x2604 JUMPI PUSH1 0x40 MLOAD PUSH32 0x8C379A000000000000000000000000000000000000000000000000000000000 DUP2 MSTORE PUSH1 0x4 ADD PUSH2 0x25FB SWAP1 PUSH2 0x3BD8 JUMP JUMPDEST PUSH1 0x40 MLOAD DUP1 SWAP2 SUB SWAP1 REVERT JUMPDEST PUSH1 0x5 DUP1 SLOAD DUP1 PUSH1 0x20 MUL PUSH1 0x20 ADD PUSH1 0x40 MLOAD SWAP1 DUP2 ADD PUSH1 0x40 MSTORE DUP1 SWAP3 SWAP2 SWAP1 DUP2 DUP2 MSTORE PUSH1 0x20 ADD DUP3 DUP1 SLOAD DUP1 ISZERO PUSH2 0x2683 JUMPI PUSH1 0x20 MUL DUP3 ADD SWAP2 SWAP1 PUSH0 MSTORE PUSH1 0x20 PUSH0 KECCAK256 SWAP1 JUMPDEST DUP2 PUSH0 SWAP1 SLOAD SWAP1 PUSH2 0x100 EXP SWAP1 DIV PUSH20 0xFFFFFFFFFFFFFFFFFFFFFFFFFFFFFFFFFFFFFFFF AND PUSH20 0xFFFFFFFFFFFFFFFFFFFFFFFFFFFFFFFFFFFFFFFF AND DUP2 MSTORE PUSH1 0x20 ADD SWAP1 PUSH1 0x1 ADD SWAP1 DUP1 DUP4 GT PUSH2 0x263A JUMPI JUMPDEST POP POP POP POP POP SWAP1 POP SWAP1 JUMP JUMPDEST PUSH1 0x3 PUSH0 CALLER PUSH20 0xFFFFFFFFFFFFFFFFFFFFFFFFFFFFFFFFFFFFFFFF AND PUSH20 0xFFFFFFFFFFFFFFFFFFFFFFFFFFFFFFFFFFFFFFFF AND DUP2 MSTORE PUSH1 0x20 ADD SWAP1 DUP2 MSTORE PUSH1 0x20 ADD PUSH0 KECCAK256 PUSH0 SWAP1 SLOAD SWAP1 PUSH2 0x100 EXP SWAP1 DIV PUSH1 0xFF AND ISZERO PUSH2 0x2717 JUMPI PUSH1 0x40 MLOAD PUSH32 0x8C379A000000000000000000000000000000000000000000000000000000000 DUP2 MSTORE PUSH1 0x4 ADD PUSH2 0x270E SWAP1 PUSH2 0x44B1 JUMP JUMPDEST PUSH1 0x40 MLOAD DUP1 SWAP2 SUB SWAP1 REVERT JUMPDEST PUSH1 0x1 PUSH0 CALLER PUSH20 0xFFFFFFFFFFFFFFFFFFFFFFFFFFFFFFFFFFFFFFFF AND PUSH20 0xFFFFFFFFFFFFFFFFFFFFFFFFFFFFFFFFFFFFFFFF AND DUP2 MSTORE PUSH1 0x20 ADD SWAP1 DUP2 MSTORE PUSH1 0x20 ADD PUSH0 KECCAK256 PUSH0 SWAP1 SLOAD SWAP1 PUSH2 0x100 EXP SWAP1 DIV PUSH1 0xFF AND ISZERO PUSH2 0x27A1 JUMPI PUSH1 0x40 MLOAD PUSH32 0x8C379A000000000000000000000000000000000000000000000000000000000 DUP2 MSTORE PUSH1 0x4 ADD PUSH2 0x2798 SWAP1 PUSH2 0x453F JUMP JUMPDEST PUSH1 0x40 MLOAD DUP1 SWAP2 SUB SWAP1 REVERT JUMPDEST PUSH0 PUSH1 0x40 MLOAD DUP1 PUSH2 0x120 ADD PUSH1 0x40 MSTORE DUP1 DUP12 DUP2 MSTORE PUSH1 0x20 ADD DUP11 DUP2 MSTORE PUSH1 0x20 ADD DUP10 DUP2 MSTORE PUSH1 0x20 ADD DUP9 DUP2 MSTORE PUSH1 0x20 ADD DUP8 DUP2 MSTORE PUSH1 0x20 ADD DUP7 DUP2 MSTORE PUSH1 0x20 ADD DUP6 DUP2 MSTORE PUSH1 0x20 ADD DUP5 DUP2 MSTORE PUSH1 0x20 ADD DUP4 DUP2 MSTORE POP SWAP1 POP PUSH0 PUSH1 0x2 PUSH0 CALLER PUSH20 0xFFFFFFFFFFFFFFFFFFFFFFFFFFFFFFFFFFFFFFFF AND PUSH20 0xFFFFFFFFFFFFFFFFFFFFFFFFFFFFFFFFFFFFFFFF AND DUP2 MSTORE PUSH1 0x20 ADD SWAP1 DUP2 MSTORE PUSH1 0x20 ADD PUSH0 KECCAK256 SWAP1 POP PUSH2 0x282E DUP2 DUP4 PUSH2 0x2F5A JUMP JUMPDEST PUSH1 0x1 PUSH1 0x3 PUSH0 CALLER PUSH20 0xFFFFFFFFFFFFFFFFFFFFFFFFFFFFFFFFFFFFFFFF AND PUSH20 0xFFFFFFFFFFFFFFFFFFFFFFFFFFFFFFFFFFFFFFFF AND DUP2 MSTORE PUSH1 0x20 ADD SWAP1 DUP2 MSTORE PUSH1 0x20 ADD PUSH0 KECCAK256 PUSH0 PUSH2 0x100 EXP DUP2 SLOAD DUP2 PUSH1 0xFF MUL NOT AND SWAP1 DUP4 ISZERO ISZERO MUL OR SWAP1 SSTORE POP PUSH1 0x5 CALLER SWAP1 DUP1 PUSH1 0x1 DUP2 SLOAD ADD DUP1 DUP3 SSTORE DUP1 SWAP2 POP POP PUSH1 0x1 SWAP1 SUB SWAP1 PUSH0 MSTORE PUSH1 0x20 PUSH0 KECCAK256 ADD PUSH0 SWAP1 SWAP2 SWAP1 SWAP2 SWAP1 SWAP2 PUSH2 0x100 EXP DUP2 SLOAD DUP2 PUSH20 0xFFFFFFFFFFFFFFFFFFFFFFFFFFFFFFFFFFFFFFFF MUL NOT AND SWAP1 DUP4 PUSH20 0xFFFFFFFFFFFFFFFFFFFFFFFFFFFFFFFFFFFFFFFF AND MUL OR SWAP1 SSTORE POP POP POP POP POP POP POP POP POP POP POP POP JUMP JUMPDEST PUSH1 0x3 PUSH0 CALLER PUSH20 0xFFFFFFFFFFFFFFFFFFFFFFFFFFFFFFFFFFFFFFFF AND PUSH20 0xFFFFFFFFFFFFFFFFFFFFFFFFFFFFFFFFFFFFFFFF AND DUP2 MSTORE PUSH1 0x20 ADD SWAP1 DUP2 MSTORE PUSH1 0x20 ADD PUSH0 KECCAK256 PUSH0 SWAP1 SLOAD SWAP1 PUSH2 0x100 EXP SWAP1 DIV PUSH1 0xFF AND PUSH2 0x2979 JUMPI PUSH1 0x40 MLOAD PUSH32 0x8C379A000000000000000000000000000000000000000000000000000000000 DUP2 MSTORE PUSH1 0x4 ADD PUSH2 0x2970 SWAP1 PUSH2 0x4241 JUMP JUMPDEST PUSH1 0x40 MLOAD DUP1 SWAP2 SUB SWAP1 REVERT JUMPDEST PUSH1 0x1 PUSH0 DUP7 PUSH20 0xFFFFFFFFFFFFFFFFFFFFFFFFFFFFFFFFFFFFFFFF AND PUSH20 0xFFFFFFFFFFFFFFFFFFFFFFFFFFFFFFFFFFFFFFFF AND DUP2 MSTORE PUSH1 0x20 ADD SWAP1 DUP2 MSTORE PUSH1 0x20 ADD PUSH0 KECCAK256 PUSH0 SWAP1 SLOAD SWAP1 PUSH2 0x100 EXP SWAP1 DIV PUSH1 0xFF AND ISZERO PUSH2 0x2A03 JUMPI PUSH1 0x40 MLOAD PUSH32 0x8C379A000000000000000000000000000000000000000000000000000000000 DUP2 MSTORE PUSH1 0x4 ADD PUSH2 0x29FA SWAP1 PUSH2 0x4379 JUMP JUMPDEST PUSH1 0x40 MLOAD DUP1 SWAP2 SUB SWAP1 REVERT JUMPDEST PUSH0 DUP1 PUSH0 DUP8 PUSH20 0xFFFFFFFFFFFFFFFFFFFFFFFFFFFFFFFFFFFFFFFF AND PUSH20 0xFFFFFFFFFFFFFFFFFFFFFFFFFFFFFFFFFFFFFFFF AND DUP2 MSTORE PUSH1 0x20 ADD SWAP1 DUP2 MSTORE PUSH1 0x20 ADD PUSH0 KECCAK256 SWAP1 POP DUP5 DUP2 PUSH0 ADD SWAP1 DUP2 PUSH2 0x2A52 SWAP2 SWAP1 PUSH2 0x4128 JUMP JUMPDEST POP DUP4 DUP2 PUSH1 0x1 ADD DUP2 SWAP1 SSTORE POP DUP3 DUP2 PUSH1 0x2 ADD DUP2 SWAP1 SSTORE POP DUP2 DUP2 PUSH1 0x3 ADD DUP2 SWAP1 SSTORE POP PUSH0 DUP2 PUSH1 0x4 ADD DUP2 SWAP1 SSTORE POP PUSH0 DUP2 PUSH1 0x5 ADD DUP2 SWAP1 SSTORE POP PUSH1 0x1 DUP2 PUSH1 0x6 ADD PUSH0 PUSH2 0x100 EXP DUP2 SLOAD DUP2 PUSH1 0xFF MUL NOT AND SWAP1 DUP4 ISZERO ISZERO MUL OR SWAP1 SSTORE POP PUSH1 0x1 DUP1 PUSH0 DUP9 PUSH20 0xFFFFFFFFFFFFFFFFFFFFFFFFFFFFFFFFFFFFFFFF AND PUSH20 0xFFFFFFFFFFFFFFFFFFFFFFFFFFFFFFFFFFFFFFFF AND DUP2 MSTORE PUSH1 0x20 ADD SWAP1 DUP2 MSTORE PUSH1 0x20 ADD PUSH0 KECCAK256 PUSH0 PUSH2 0x100 EXP DUP2 SLOAD DUP2 PUSH1 0xFF MUL NOT AND SWAP1 DUP4 ISZERO ISZERO MUL OR SWAP1 SSTORE POP PUSH1 0x4 DUP7 SWAP1 DUP1 PUSH1 0x1 DUP2 SLOAD ADD DUP1 DUP3 SSTORE DUP1 SWAP2 POP POP PUSH1 0x1 SWAP1 SUB SWAP1 PUSH0 MSTORE PUSH1 0x20 PUSH0 KECCAK256 ADD PUSH0 SWAP1 SWAP2 SWAP1 SWAP2 SWAP1 SWAP2 PUSH2 0x100 EXP DUP2 SLOAD DUP2 PUSH20 0xFFFFFFFFFFFFFFFFFFFFFFFFFFFFFFFFFFFFFFFF MUL NOT AND SWAP1 DUP4 PUSH20 0xFFFFFFFFFFFFFFFFFFFFFFFFFFFFFFFFFFFFFFFF AND MUL OR SWAP1 SSTORE POP PUSH1 0x2 PUSH0 CALLER PUSH20 0xFFFFFFFFFFFFFFFFFFFFFFFFFFFFFFFFFFFFFFFF AND PUSH20 0xFFFFFFFFFFFFFFFFFFFFFFFFFFFFFFFFFFFFFFFF AND DUP2 MSTORE PUSH1 0x20 ADD SWAP1 DUP2 MSTORE PUSH1 0x20 ADD PUSH0 KECCAK256 PUSH1 0xD ADD DUP7 SWAP1 DUP1 PUSH1 0x1 DUP2 SLOAD ADD DUP1 DUP3 SSTORE DUP1 SWAP2 POP POP PUSH1 0x1 SWAP1 SUB SWAP1 PUSH0 MSTORE PUSH1 0x20 PUSH0 KECCAK256 ADD PUSH0 SWAP1 SWAP2 SWAP1 SWAP2 SWAP1 SWAP2 PUSH2 0x100 EXP DUP2 SLOAD DUP2 PUSH20 0xFFFFFFFFFFFFFFFFFFFFFFFFFFFFFFFFFFFFFFFF MUL NOT AND SWAP1 DUP4 PUSH20 0xFFFFFFFFFFFFFFFFFFFFFFFFFFFFFFFFFFFFFFFF AND MUL OR SWAP1 SSTORE POP PUSH4 0x1E13380 TIMESTAMP PUSH2 0x2BFE SWAP2 SWAP1 PUSH2 0x3E52 JUMP JUMPDEST PUSH1 0x2 PUSH0 CALLER PUSH20 0xFFFFFFFFFFFFFFFFFFFFFFFFFFFFFFFFFFFFFFFF AND PUSH20 0xFFFFFFFFFFFFFFFFFFFFFFFFFFFFFFFFFFFFFFFF AND DUP2 MSTORE PUSH1 0x20 ADD SWAP1 DUP2 MSTORE PUSH1 0x20 ADD PUSH0 KECCAK256 PUSH1 0xE ADD PUSH0 DUP9 PUSH20 0xFFFFFFFFFFFFFFFFFFFFFFFFFFFFFFFFFFFFFFFF AND PUSH20 0xFFFFFFFFFFFFFFFFFFFFFFFFFFFFFFFFFFFFFFFF AND DUP2 MSTORE PUSH1 0x20 ADD SWAP1 DUP2 MSTORE PUSH1 0x20 ADD PUSH0 KECCAK256 DUP2 SWAP1 SSTORE POP POP POP POP POP POP POP JUMP JUMPDEST PUSH1 0x60 PUSH0 PUSH1 0x1 PUSH0 CALLER PUSH20 0xFFFFFFFFFFFFFFFFFFFFFFFFFFFFFFFFFFFFFFFF AND PUSH20 0xFFFFFFFFFFFFFFFFFFFFFFFFFFFFFFFFFFFFFFFF AND DUP2 MSTORE PUSH1 0x20 ADD SWAP1 DUP2 MSTORE PUSH1 0x20 ADD PUSH0 KECCAK256 PUSH0 SWAP1 SLOAD SWAP1 PUSH2 0x100 EXP SWAP1 DIV PUSH1 0xFF AND PUSH2 0x2D11 JUMPI PUSH1 0x40 MLOAD PUSH32 0x8C379A000000000000000000000000000000000000000000000000000000000 DUP2 MSTORE PUSH1 0x4 ADD PUSH2 0x2D08 SWAP1 PUSH2 0x3D64 JUMP JUMPDEST PUSH1 0x40 MLOAD DUP1 SWAP2 SUB SWAP1 REVERT JUMPDEST PUSH1 0x1 PUSH0 DUP6 PUSH20 0xFFFFFFFFFFFFFFFFFFFFFFFFFFFFFFFFFFFFFFFF AND PUSH20 0xFFFFFFFFFFFFFFFFFFFFFFFFFFFFFFFFFFFFFFFF AND DUP2 MSTORE PUSH1 0x20 ADD SWAP1 DUP2 MSTORE PUSH1 0x20 ADD PUSH0 KECCAK256 PUSH0 SWAP1 SLOAD SWAP1 PUSH2 0x100 EXP SWAP1 DIV PUSH1 0xFF AND PUSH2 0x2D9A JUMPI PUSH1 0x40 MLOAD PUSH32 0x8C379A000000000000000000000000000000000000000000000000000000000 DUP2 MSTORE PUSH1 0x4 ADD PUSH2 0x2D91 SWAP1 PUSH2 0x42A9 JUMP JUMPDEST PUSH1 0x40 MLOAD DUP1 SWAP2 SUB SWAP1 REVERT JUMPDEST PUSH0 DUP1 PUSH0 DUP7 PUSH20 0xFFFFFFFFFFFFFFFFFFFFFFFFFFFFFFFFFFFFFFFF AND PUSH20 0xFFFFFFFFFFFFFFFFFFFFFFFFFFFFFFFFFFFFFFFF AND DUP2 MSTORE PUSH1 0x20 ADD SWAP1 DUP2 MSTORE PUSH1 0x20 ADD PUSH0 KECCAK256 SWAP1 POP PUSH0 DUP2 PUSH1 0x8 ADD PUSH0 DUP7 DUP2 MSTORE PUSH1 0x20 ADD SWAP1 DUP2 MSTORE PUSH1 0x20 ADD PUSH0 KECCAK256 SWAP1 POP DUP1 PUSH0 ADD DUP2 PUSH1 0x1 ADD SLOAD DUP2 DUP1 SLOAD PUSH2 0x2E03 SWAP1 PUSH2 0x3CC4 JUMP JUMPDEST DUP1 PUSH1 0x1F ADD PUSH1 0x20 DUP1 SWAP2 DIV MUL PUSH1 0x20 ADD PUSH1 0x40 MLOAD SWAP1 DUP2 ADD PUSH1 0x40 MSTORE DUP1 SWAP3 SWAP2 SWAP1 DUP2 DUP2 MSTORE PUSH1 0x20 ADD DUP3 DUP1 SLOAD PUSH2 0x2E2F SWAP1 PUSH2 0x3CC4 JUMP JUMPDEST DUP1 ISZERO PUSH2 0x2E7A JUMPI DUP1 PUSH1 0x1F LT PUSH2 0x2E51 JUMPI PUSH2 0x100 DUP1 DUP4 SLOAD DIV MUL DUP4 MSTORE SWAP2 PUSH1 0x20 ADD SWAP2 PUSH2 0x2E7A JUMP JUMPDEST DUP3 ADD SWAP2 SWAP1 PUSH0 MSTORE PUSH1 0x20 PUSH0 KECCAK256 SWAP1 JUMPDEST DUP2 SLOAD DUP2 MSTORE SWAP1 PUSH1 0x1 ADD SWAP1 PUSH1 0x20 ADD DUP1 DUP4 GT PUSH2 0x2E5D JUMPI DUP3 SWAP1 SUB PUSH1 0x1F AND DUP3 ADD SWAP2 JUMPDEST POP POP POP POP POP SWAP2 POP SWAP4 POP SWAP4 POP POP POP SWAP3 POP SWAP3 SWAP1 POP JUMP JUMPDEST PUSH0 PUSH1 0x1 DUP3 SUB PUSH2 0x2EA5 JUMPI DUP3 PUSH1 0x1 ADD PUSH0 ADD SLOAD SWAP1 POP PUSH2 0x2F54 JUMP JUMPDEST PUSH1 0x7 DUP3 SUB PUSH2 0x2EBC JUMPI DUP3 PUSH1 0x1 ADD PUSH1 0x1 ADD SLOAD SWAP1 POP PUSH2 0x2F54 JUMP JUMPDEST PUSH1 0x1E DUP3 SUB PUSH2 0x2ED3 JUMPI DUP3 PUSH1 0x1 ADD PUSH1 0x2 ADD SLOAD SWAP1 POP PUSH2 0x2F54 JUMP JUMPDEST PUSH1 0x5A DUP3 SUB PUSH2 0x2EEA JUMPI DUP3 PUSH1 0x1 ADD PUSH1 0x3 ADD SLOAD SWAP1 POP PUSH2 0x2F54 JUMP JUMPDEST PUSH1 0xB4 DUP3 SUB PUSH2 0x2F01 JUMPI DUP3 PUSH1 0x1 ADD PUSH1 0x4 ADD SLOAD SWAP1 POP PUSH2 0x2F54 JUMP JUMPDEST PUSH2 0x16D DUP3 SUB PUSH2 0x2F19 JUMPI DUP3 PUSH1 0x1 ADD PUSH1 0x5 ADD SLOAD SWAP1 POP PUSH2 0x2F54 JUMP JUMPDEST PUSH1 0x40 MLOAD PUSH32 0x8C379A000000000000000000000000000000000000000000000000000000000 DUP2 MSTORE PUSH1 0x4 ADD PUSH2 0x2F4B SWAP1 PUSH2 0x45A7 JUMP JUMPDEST PUSH1 0x40 MLOAD DUP1 SWAP2 SUB SWAP1 REVERT JUMPDEST SWAP3 SWAP2 POP POP JUMP JUMPDEST DUP1 PUSH0 ADD MLOAD DUP3 PUSH0 ADD SWAP1 DUP2 PUSH2 0x2F6D SWAP2 SWAP1 PUSH2 0x4128 JUMP JUMPDEST POP DUP1 PUSH1 0x20 ADD MLOAD DUP3 PUSH1 0x1 ADD PUSH0 ADD DUP2 SWAP1 SSTORE POP DUP1 PUSH1 0x40 ADD MLOAD DUP3 PUSH1 0x1 ADD PUSH1 0x1 ADD DUP2 SWAP1 SSTORE POP DUP1 PUSH1 0x60 ADD MLOAD DUP3 PUSH1 0x1 ADD PUSH1 0x2 ADD DUP2 SWAP1 SSTORE POP DUP1 PUSH1 0x80 ADD MLOAD DUP3 PUSH1 0x1 ADD PUSH1 0x3 ADD DUP2 SWAP1 SSTORE POP DUP1 PUSH1 0xA0 ADD MLOAD DUP3 PUSH1 0x1 ADD PUSH1 0x4 ADD DUP2 SWAP1 SSTORE POP DUP1 PUSH1 0xC0 ADD MLOAD DUP3 PUSH1 0x1 ADD PUSH1 0x5 ADD DUP2 SWAP1 SSTORE POP PUSH0 DUP3 PUSH1 0x7 ADD DUP2 SWAP1 SSTORE POP PUSH0 DUP3 PUSH1 0x8 ADD DUP2 SWAP1 SSTORE POP PUSH0 DUP3 PUSH1 0x9 ADD DUP2 SWAP1 SSTORE POP PUSH0 DUP3 PUSH1 0xA ADD DUP2 SWAP1 SSTORE POP DUP1 PUSH1 0xE0 ADD MLOAD DUP3 PUSH1 0xB ADD PUSH0 ADD SWAP1 DUP2 PUSH2 0x3008 SWAP2 SWAP1 PUSH2 0x4128 JUMP JUMPDEST POP DUP1 PUSH2 0x100 ADD MLOAD DUP3 PUSH1 0xB ADD PUSH1 0x1 ADD SWAP1 DUP2 PUSH2 0x3022 SWAP2 SWAP1 PUSH2 0x4128 JUMP JUMPDEST POP POP POP JUMP JUMPDEST PUSH0 PUSH1 0x40 MLOAD SWAP1 POP SWAP1 JUMP JUMPDEST PUSH0 DUP1 REVERT JUMPDEST PUSH0 DUP1 REVERT JUMPDEST PUSH0 PUSH20 0xFFFFFFFFFFFFFFFFFFFFFFFFFFFFFFFFFFFFFFFF DUP3 AND SWAP1 POP SWAP2 SWAP1 POP JUMP JUMPDEST PUSH0 PUSH2 0x3061 DUP3 PUSH2 0x3038 JUMP JUMPDEST SWAP1 POP SWAP2 SWAP1 POP JUMP JUMPDEST PUSH2 0x3071 DUP2 PUSH2 0x3057 JUMP JUMPDEST DUP2 EQ PUSH2 0x307B JUMPI PUSH0 DUP1 REVERT JUMPDEST POP JUMP JUMPDEST PUSH0 DUP2 CALLDATALOAD SWAP1 POP PUSH2 0x308C DUP2 PUSH2 0x3068 JUMP JUMPDEST SWAP3 SWAP2 POP POP JUMP JUMPDEST PUSH0 PUSH1 0x20 DUP3 DUP5 SUB SLT ISZERO PUSH2 0x30A7 JUMPI PUSH2 0x30A6 PUSH2 0x3030 JUMP JUMPDEST JUMPDEST PUSH0 PUSH2 0x30B4 DUP5 DUP3 DUP6 ADD PUSH2 0x307E JUMP JUMPDEST SWAP2 POP POP SWAP3 SWAP2 POP POP JUMP JUMPDEST PUSH0 DUP2 MLOAD SWAP1 POP SWAP2 SWAP1 POP JUMP JUMPDEST PUSH0 DUP3 DUP3 MSTORE PUSH1 0x20 DUP3 ADD SWAP1 POP SWAP3 SWAP2 POP POP JUMP JUMPDEST PUSH0 DUP2 SWAP1 POP PUSH1 0x20 DUP3 ADD SWAP1 POP SWAP2 SWAP1 POP JUMP JUMPDEST PUSH2 0x30EF DUP2 PUSH2 0x3057 JUMP JUMPDEST DUP3 MSTORE POP POP JUMP JUMPDEST PUSH0 PUSH2 0x3100 DUP4 DUP4 PUSH2 0x30E6 JUMP JUMPDEST PUSH1 0x20 DUP4 ADD SWAP1 POP SWAP3 SWAP2 POP POP JUMP JUMPDEST PUSH0 PUSH1 0x20 DUP3 ADD SWAP1 POP SWAP2 SWAP1 POP JUMP JUMPDEST PUSH0 PUSH2 0x3122 DUP3 PUSH2 0x30BD JUMP JUMPDEST PUSH2 0x312C DUP2 DUP6 PUSH2 0x30C7 JUMP JUMPDEST SWAP4 POP PUSH2 0x3137 DUP4 PUSH2 0x30D7 JUMP JUMPDEST DUP1 PUSH0 JUMPDEST DUP4 DUP2 LT ISZERO PUSH2 0x3167 JUMPI DUP2 MLOAD PUSH2 0x314E DUP9 DUP3 PUSH2 0x30F5 JUMP JUMPDEST SWAP8 POP PUSH2 0x3159 DUP4 PUSH2 0x310C JUMP JUMPDEST SWAP3 POP POP PUSH1 0x1 DUP2 ADD SWAP1 POP PUSH2 0x313A JUMP JUMPDEST POP DUP6 SWAP4 POP POP POP POP SWAP3 SWAP2 POP POP JUMP JUMPDEST PUSH0 DUP2 MLOAD SWAP1 POP SWAP2 SWAP1 POP JUMP JUMPDEST PUSH0 DUP3 DUP3 MSTORE PUSH1 0x20 DUP3 ADD SWAP1 POP SWAP3 SWAP2 POP POP JUMP JUMPDEST PUSH0 DUP2 SWAP1 POP PUSH1 0x20 DUP3 ADD SWAP1 POP SWAP2 SWAP1 POP JUMP JUMPDEST PUSH0 DUP2 SWAP1 POP SWAP2 SWAP1 POP JUMP JUMPDEST PUSH2 0x31AF DUP2 PUSH2 0x319D JUMP JUMPDEST DUP3 MSTORE POP POP JUMP JUMPDEST PUSH0 PUSH2 0x31C0 DUP4 DUP4 PUSH2 0x31A6 JUMP JUMPDEST PUSH1 0x20 DUP4 ADD SWAP1 POP SWAP3 SWAP2 POP POP JUMP JUMPDEST PUSH0 PUSH1 0x20 DUP3 ADD SWAP1 POP SWAP2 SWAP1 POP JUMP JUMPDEST PUSH0 PUSH2 0x31E2 DUP3 PUSH2 0x3174 JUMP JUMPDEST PUSH2 0x31EC DUP2 DUP6 PUSH2 0x317E JUMP JUMPDEST SWAP4 POP PUSH2 0x31F7 DUP4 PUSH2 0x318E JUMP JUMPDEST DUP1 PUSH0 JUMPDEST DUP4 DUP2 LT ISZERO PUSH2 0x3227 JUMPI DUP2 MLOAD PUSH2 0x320E DUP9 DUP3 PUSH2 0x31B5 JUMP JUMPDEST SWAP8 POP PUSH2 0x3219 DUP4 PUSH2 0x31CC JUMP JUMPDEST SWAP3 POP POP PUSH1 0x1 DUP2 ADD SWAP1 POP PUSH2 0x31FA JUMP JUMPDEST POP DUP6 SWAP4 POP POP POP POP SWAP3 SWAP2 POP POP JUMP JUMPDEST PUSH0 PUSH1 0x40 DUP3 ADD SWAP1 POP DUP2 DUP2 SUB PUSH0 DUP4 ADD MSTORE PUSH2 0x324C DUP2 DUP6 PUSH2 0x3118 JUMP JUMPDEST SWAP1 POP DUP2 DUP2 SUB PUSH1 0x20 DUP4 ADD MSTORE PUSH2 0x3260 DUP2 DUP5 PUSH2 0x31D8 JUMP JUMPDEST SWAP1 POP SWAP4 SWAP3 POP POP POP JUMP JUMPDEST PUSH0 DUP2 MLOAD SWAP1 POP SWAP2 SWAP1 POP JUMP JUMPDEST PUSH0 DUP3 DUP3 MSTORE PUSH1 0x20 DUP3 ADD SWAP1 POP SWAP3 SWAP2 POP POP JUMP JUMPDEST DUP3 DUP2 DUP4 MCOPY PUSH0 DUP4 DUP4 ADD MSTORE POP POP POP JUMP JUMPDEST PUSH0 PUSH1 0x1F NOT PUSH1 0x1F DUP4 ADD AND SWAP1 POP SWAP2 SWAP1 POP JUMP JUMPDEST PUSH0 PUSH2 0x32AB DUP3 PUSH2 0x3269 JUMP JUMPDEST PUSH2 0x32B5 DUP2 DUP6 PUSH2 0x3273 JUMP JUMPDEST SWAP4 POP PUSH2 0x32C5 DUP2 DUP6 PUSH1 0x20 DUP7 ADD PUSH2 0x3283 JUMP JUMPDEST PUSH2 0x32CE DUP2 PUSH2 0x3291 JUMP JUMPDEST DUP5 ADD SWAP2 POP POP SWAP3 SWAP2 POP POP JUMP JUMPDEST PUSH2 0x32E2 DUP2 PUSH2 0x319D JUMP JUMPDEST DUP3 MSTORE POP POP JUMP JUMPDEST PUSH0 DUP2 ISZERO ISZERO SWAP1 POP SWAP2 SWAP1 POP JUMP JUMPDEST PUSH2 0x32FC DUP2 PUSH2 0x32E8 JUMP JUMPDEST DUP3 MSTORE POP POP JUMP JUMPDEST PUSH0 PUSH1 0xE0 DUP3 ADD SWAP1 POP DUP2 DUP2 SUB PUSH0 DUP4 ADD MSTORE PUSH2 0x331A DUP2 DUP11 PUSH2 0x32A1 JUMP JUMPDEST SWAP1 POP PUSH2 0x3329 PUSH1 0x20 DUP4 ADD DUP10 PUSH2 0x32D9 JUMP JUMPDEST PUSH2 0x3336 PUSH1 0x40 DUP4 ADD DUP9 PUSH2 0x32D9 JUMP JUMPDEST PUSH2 0x3343 PUSH1 0x60 DUP4 ADD DUP8 PUSH2 0x32D9 JUMP JUMPDEST PUSH2 0x3350 PUSH1 0x80 DUP4 ADD DUP7 PUSH2 0x32D9 JUMP JUMPDEST PUSH2 0x335D PUSH1 0xA0 DUP4 ADD DUP6 PUSH2 0x32D9 JUMP JUMPDEST PUSH2 0x336A PUSH1 0xC0 DUP4 ADD DUP5 PUSH2 0x32F3 JUMP JUMPDEST SWAP9 SWAP8 POP POP POP POP POP POP POP POP JUMP JUMPDEST PUSH2 0x337F DUP2 PUSH2 0x319D JUMP JUMPDEST DUP2 EQ PUSH2 0x3389 JUMPI PUSH0 DUP1 REVERT JUMPDEST POP JUMP JUMPDEST PUSH0 DUP2 CALLDATALOAD SWAP1 POP PUSH2 0x339A DUP2 PUSH2 0x3376 JUMP JUMPDEST SWAP3 SWAP2 POP POP JUMP JUMPDEST PUSH0 DUP1 PUSH1 0x40 DUP4 DUP6 SUB SLT ISZERO PUSH2 0x33B6 JUMPI PUSH2 0x33B5 PUSH2 0x3030 JUMP JUMPDEST JUMPDEST PUSH0 PUSH2 0x33C3 DUP6 DUP3 DUP7 ADD PUSH2 0x307E JUMP JUMPDEST SWAP3 POP POP PUSH1 0x20 PUSH2 0x33D4 DUP6 DUP3 DUP7 ADD PUSH2 0x338C JUMP JUMPDEST SWAP2 POP POP SWAP3 POP SWAP3 SWAP1 POP JUMP JUMPDEST PUSH0 PUSH1 0x20 DUP3 ADD SWAP1 POP PUSH2 0x33F1 PUSH0 DUP4 ADD DUP5 PUSH2 0x32D9 JUMP JUMPDEST SWAP3 SWAP2 POP POP JUMP JUMPDEST PUSH0 DUP1 REVERT JUMPDEST PUSH0 DUP1 REVERT JUMPDEST PUSH32 0x4E487B7100000000000000000000000000000000000000000000000000000000 PUSH0 MSTORE PUSH1 0x41 PUSH1 0x4 MSTORE PUSH1 0x24 PUSH0 REVERT JUMPDEST PUSH2 0x3435 DUP3 PUSH2 0x3291 JUMP JUMPDEST DUP2 ADD DUP2 DUP2 LT PUSH8 0xFFFFFFFFFFFFFFFF DUP3 GT OR ISZERO PUSH2 0x3454 JUMPI PUSH2 0x3453 PUSH2 0x33FF JUMP JUMPDEST JUMPDEST DUP1 PUSH1 0x40 MSTORE POP POP POP JUMP JUMPDEST PUSH0 PUSH2 0x3466 PUSH2 0x3027 JUMP JUMPDEST SWAP1 POP PUSH2 0x3472 DUP3 DUP3 PUSH2 0x342C JUMP JUMPDEST SWAP2 SWAP1 POP JUMP JUMPDEST PUSH0 PUSH8 0xFFFFFFFFFFFFFFFF DUP3 GT ISZERO PUSH2 0x3491 JUMPI PUSH2 0x3490 PUSH2 0x33FF JUMP JUMPDEST JUMPDEST PUSH2 0x349A DUP3 PUSH2 0x3291 JUMP JUMPDEST SWAP1 POP PUSH1 0x20 DUP2 ADD SWAP1 POP SWAP2 SWAP1 POP JUMP JUMPDEST DUP3 DUP2 DUP4 CALLDATACOPY PUSH0 DUP4 DUP4 ADD MSTORE POP POP POP JUMP JUMPDEST PUSH0 PUSH2 0x34C7 PUSH2 0x34C2 DUP5 PUSH2 0x3477 JUMP JUMPDEST PUSH2 0x345D JUMP JUMPDEST SWAP1 POP DUP3 DUP2 MSTORE PUSH1 0x20 DUP2 ADD DUP5 DUP5 DUP5 ADD GT ISZERO PUSH2 0x34E3 JUMPI PUSH2 0x34E2 PUSH2 0x33FB JUMP JUMPDEST JUMPDEST PUSH2 0x34EE DUP5 DUP3 DUP6 PUSH2 0x34A7 JUMP JUMPDEST POP SWAP4 SWAP3 POP POP POP JUMP JUMPDEST PUSH0 DUP3 PUSH1 0x1F DUP4 ADD SLT PUSH2 0x350A JUMPI PUSH2 0x3509 PUSH2 0x33F7 JUMP JUMPDEST JUMPDEST DUP2 CALLDATALOAD PUSH2 0x351A DUP5 DUP3 PUSH1 0x20 DUP7 ADD PUSH2 0x34B5 JUMP JUMPDEST SWAP2 POP POP SWAP3 SWAP2 POP POP JUMP JUMPDEST PUSH0 DUP1 PUSH1 0x40 DUP4 DUP6 SUB SLT ISZERO PUSH2 0x3539 JUMPI PUSH2 0x3538 PUSH2 0x3030 JUMP JUMPDEST JUMPDEST PUSH0 DUP4 ADD CALLDATALOAD PUSH8 0xFFFFFFFFFFFFFFFF DUP2 GT ISZERO PUSH2 0x3556 JUMPI PUSH2 0x3555 PUSH2 0x3034 JUMP JUMPDEST JUMPDEST PUSH2 0x3562 DUP6 DUP3 DUP7 ADD PUSH2 0x34F6 JUMP JUMPDEST SWAP3 POP POP PUSH1 0x20 PUSH2 0x3573 DUP6 DUP3 DUP7 ADD PUSH2 0x338C JUMP JUMPDEST SWAP2 POP POP SWAP3 POP SWAP3 SWAP1 POP JUMP JUMPDEST PUSH0 DUP2 MLOAD SWAP1 POP SWAP2 SWAP1 POP JUMP JUMPDEST PUSH0 DUP3 DUP3 MSTORE PUSH1 0x20 DUP3 ADD SWAP1 POP SWAP3 SWAP2 POP POP JUMP JUMPDEST PUSH0 DUP2 SWAP1 POP PUSH1 0x20 DUP3 ADD SWAP1 POP SWAP2 SWAP1 POP JUMP JUMPDEST PUSH0 DUP3 DUP3 MSTORE PUSH1 0x20 DUP3 ADD SWAP1 POP SWAP3 SWAP2 POP POP JUMP JUMPDEST PUSH0 PUSH2 0x35C0 DUP3 PUSH2 0x3269 JUMP JUMPDEST PUSH2 0x35CA DUP2 DUP6 PUSH2 0x35A6 JUMP JUMPDEST SWAP4 POP PUSH2 0x35DA DUP2 DUP6 PUSH1 0x20 DUP7 ADD PUSH2 0x3283 JUMP JUMPDEST PUSH2 0x35E3 DUP2 PUSH2 0x3291 JUMP JUMPDEST DUP5 ADD SWAP2 POP POP SWAP3 SWAP2 POP POP JUMP JUMPDEST PUSH0 PUSH2 0x35F9 DUP4 DUP4 PUSH2 0x35B6 JUMP JUMPDEST SWAP1 POP SWAP3 SWAP2 POP POP JUMP JUMPDEST PUSH0 PUSH1 0x20 DUP3 ADD SWAP1 POP SWAP2 SWAP1 POP JUMP JUMPDEST PUSH0 PUSH2 0x3617 DUP3 PUSH2 0x357D JUMP JUMPDEST PUSH2 0x3621 DUP2 DUP6 PUSH2 0x3587 JUMP JUMPDEST SWAP4 POP DUP4 PUSH1 0x20 DUP3 MUL DUP6 ADD PUSH2 0x3633 DUP6 PUSH2 0x3597 JUMP JUMPDEST DUP1 PUSH0 JUMPDEST DUP6 DUP2 LT ISZERO PUSH2 0x366E JUMPI DUP5 DUP5 SUB DUP10 MSTORE DUP2 MLOAD PUSH2 0x364F DUP6 DUP3 PUSH2 0x35EE JUMP JUMPDEST SWAP5 POP PUSH2 0x365A DUP4 PUSH2 0x3601 JUMP JUMPDEST SWAP3 POP PUSH1 0x20 DUP11 ADD SWAP10 POP POP PUSH1 0x1 DUP2 ADD SWAP1 POP PUSH2 0x3636 JUMP JUMPDEST POP DUP3 SWAP8 POP DUP8 SWAP6 POP POP POP POP POP POP SWAP3 SWAP2 POP POP JUMP JUMPDEST PUSH0 PUSH1 0x40 DUP3 ADD SWAP1 POP DUP2 DUP2 SUB PUSH0 DUP4 ADD MSTORE PUSH2 0x3698 DUP2 DUP6 PUSH2 0x360D JUMP JUMPDEST SWAP1 POP DUP2 DUP2 SUB PUSH1 0x20 DUP4 ADD MSTORE PUSH2 0x36AC DUP2 DUP5 PUSH2 0x31D8 JUMP JUMPDEST SWAP1 POP SWAP4 SWAP3 POP POP POP JUMP JUMPDEST PUSH0 PUSH1 0x20 DUP3 ADD SWAP1 POP PUSH2 0x36C8 PUSH0 DUP4 ADD DUP5 PUSH2 0x32F3 JUMP JUMPDEST SWAP3 SWAP2 POP POP JUMP JUMPDEST PUSH0 PUSH1 0xA0 DUP3 ADD SWAP1 POP DUP2 DUP2 SUB PUSH0 DUP4 ADD MSTORE PUSH2 0x36E6 DUP2 DUP9 PUSH2 0x32A1 JUMP JUMPDEST SWAP1 POP PUSH2 0x36F5 PUSH1 0x20 DUP4 ADD DUP8 PUSH2 0x32D9 JUMP JUMPDEST PUSH2 0x3702 PUSH1 0x40 DUP4 ADD DUP7 PUSH2 0x32D9 JUMP JUMPDEST PUSH2 0x370F PUSH1 0x60 DUP4 ADD DUP6 PUSH2 0x32D9 JUMP JUMPDEST PUSH2 0x371C PUSH1 0x80 DUP4 ADD DUP5 PUSH2 0x32F3 JUMP JUMPDEST SWAP7 SWAP6 POP POP POP POP POP POP JUMP JUMPDEST PUSH1 0xC0 DUP3 ADD PUSH0 DUP3 ADD MLOAD PUSH2 0x373A PUSH0 DUP6 ADD DUP3 PUSH2 0x31A6 JUMP JUMPDEST POP PUSH1 0x20 DUP3 ADD MLOAD PUSH2 0x374D PUSH1 0x20 DUP6 ADD DUP3 PUSH2 0x31A6 JUMP JUMPDEST POP PUSH1 0x40 DUP3 ADD MLOAD PUSH2 0x3760 PUSH1 0x40 DUP6 ADD DUP3 PUSH2 0x31A6 JUMP JUMPDEST POP PUSH1 0x60 DUP3 ADD MLOAD PUSH2 0x3773 PUSH1 0x60 DUP6 ADD DUP3 PUSH2 0x31A6 JUMP JUMPDEST POP PUSH1 0x80 DUP3 ADD MLOAD PUSH2 0x3786 PUSH1 0x80 DUP6 ADD DUP3 PUSH2 0x31A6 JUMP JUMPDEST POP PUSH1 0xA0 DUP3 ADD MLOAD PUSH2 0x3799 PUSH1 0xA0 DUP6 ADD DUP3 PUSH2 0x31A6 JUMP JUMPDEST POP POP POP POP JUMP JUMPDEST PUSH0 PUSH1 0x40 DUP4 ADD PUSH0 DUP4 ADD MLOAD DUP5 DUP3 SUB PUSH0 DUP7 ADD MSTORE PUSH2 0x37B9 DUP3 DUP3 PUSH2 0x35B6 JUMP JUMPDEST SWAP2 POP POP PUSH1 0x20 DUP4 ADD MLOAD DUP5 DUP3 SUB PUSH1 0x20 DUP7 ADD MSTORE PUSH2 0x37D3 DUP3 DUP3 PUSH2 0x35B6 JUMP JUMPDEST SWAP2 POP POP DUP1 SWAP2 POP POP SWAP3 SWAP2 POP POP JUMP JUMPDEST PUSH0 PUSH2 0x180 DUP3 ADD SWAP1 POP DUP2 DUP2 SUB PUSH0 DUP4 ADD MSTORE PUSH2 0x37F9 DUP2 DUP11 PUSH2 0x32A1 JUMP JUMPDEST SWAP1 POP PUSH2 0x3808 PUSH1 0x20 DUP4 ADD DUP10 PUSH2 0x3726 JUMP JUMPDEST PUSH2 0x3815 PUSH1 0xE0 DUP4 ADD DUP9 PUSH2 0x32D9 JUMP JUMPDEST PUSH2 0x3823 PUSH2 0x100 DUP4 ADD DUP8 PUSH2 0x32D9 JUMP JUMPDEST PUSH2 0x3831 PUSH2 0x120 DUP4 ADD DUP7 PUSH2 0x32D9 JUMP JUMPDEST PUSH2 0x383F PUSH2 0x140 DUP4 ADD DUP6 PUSH2 0x32D9 JUMP JUMPDEST DUP2 DUP2 SUB PUSH2 0x160 DUP4 ADD MSTORE PUSH2 0x3852 DUP2 DUP5 PUSH2 0x379F JUMP JUMPDEST SWAP1 POP SWAP9 SWAP8 POP POP POP POP POP POP POP POP JUMP JUMPDEST PUSH0 PUSH1 0x20 DUP3 ADD SWAP1 POP DUP2 DUP2 SUB PUSH0 DUP4 ADD MSTORE PUSH2 0x3878 DUP2 DUP5 PUSH2 0x3118 JUMP JUMPDEST SWAP1 POP SWAP3 SWAP2 POP POP JUMP JUMPDEST PUSH0 PUSH1 0x60 DUP3 ADD SWAP1 POP DUP2 DUP2 SUB PUSH0 DUP4 ADD MSTORE PUSH2 0x3898 DUP2 DUP7 PUSH2 0x32A1 JUMP JUMPDEST SWAP1 POP PUSH2 0x38A7 PUSH1 0x20 DUP4 ADD DUP6 PUSH2 0x32D9 JUMP JUMPDEST PUSH2 0x38B4 PUSH1 0x40 DUP4 ADD DUP5 PUSH2 0x32D9 JUMP JUMPDEST SWAP5 SWAP4 POP POP POP POP JUMP JUMPDEST PUSH2 0x38C5 DUP2 PUSH2 0x3057 JUMP JUMPDEST DUP3 MSTORE POP POP JUMP JUMPDEST PUSH0 PUSH1 0x20 DUP3 ADD SWAP1 POP PUSH2 0x38DE PUSH0 DUP4 ADD DUP5 PUSH2 0x38BC JUMP JUMPDEST SWAP3 SWAP2 POP POP JUMP JUMPDEST PUSH0 DUP1 PUSH0 DUP1 PUSH1 0x80 DUP6 DUP8 SUB SLT ISZERO PUSH2 0x38FC JUMPI PUSH2 0x38FB PUSH2 0x3030 JUMP JUMPDEST JUMPDEST PUSH0 DUP6 ADD CALLDATALOAD PUSH8 0xFFFFFFFFFFFFFFFF DUP2 GT ISZERO PUSH2 0x3919 JUMPI PUSH2 0x3918 PUSH2 0x3034 JUMP JUMPDEST JUMPDEST PUSH2 0x3925 DUP8 DUP3 DUP9 ADD PUSH2 0x34F6 JUMP JUMPDEST SWAP5 POP POP PUSH1 0x20 PUSH2 0x3936 DUP8 DUP3 DUP9 ADD PUSH2 0x338C JUMP JUMPDEST SWAP4 POP POP PUSH1 0x40 PUSH2 0x3947 DUP8 DUP3 DUP9 ADD PUSH2 0x338C JUMP JUMPDEST SWAP3 POP POP PUSH1 0x60 PUSH2 0x3958 DUP8 DUP3 DUP9 ADD PUSH2 0x338C JUMP JUMPDEST SWAP2 POP POP SWAP3 SWAP6 SWAP2 SWAP5 POP SWAP3 POP JUMP JUMPDEST PUSH0 PUSH1 0x20 DUP3 DUP5 SUB SLT ISZERO PUSH2 0x3979 JUMPI PUSH2 0x3978 PUSH2 0x3030 JUMP JUMPDEST JUMPDEST PUSH0 PUSH2 0x3986 DUP5 DUP3 DUP6 ADD PUSH2 0x338C JUMP JUMPDEST SWAP2 POP POP SWAP3 SWAP2 POP POP JUMP JUMPDEST PUSH0 DUP1 PUSH0 DUP1 PUSH0 DUP1 PUSH0 DUP1 PUSH0 PUSH2 0x120 DUP11 DUP13 SUB SLT ISZERO PUSH2 0x39AD JUMPI PUSH2 0x39AC PUSH2 0x3030 JUMP JUMPDEST JUMPDEST PUSH0 DUP11 ADD CALLDATALOAD PUSH8 0xFFFFFFFFFFFFFFFF DUP2 GT ISZERO PUSH2 0x39CA JUMPI PUSH2 0x39C9 PUSH2 0x3034 JUMP JUMPDEST JUMPDEST PUSH2 0x39D6 DUP13 DUP3 DUP14 ADD PUSH2 0x34F6 JUMP JUMPDEST SWAP10 POP POP PUSH1 0x20 PUSH2 0x39E7 DUP13 DUP3 DUP14 ADD PUSH2 0x338C JUMP JUMPDEST SWAP9 POP POP PUSH1 0x40 PUSH2 0x39F8 DUP13 DUP3 DUP14 ADD PUSH2 0x338C JUMP JUMPDEST SWAP8 POP POP PUSH1 0x60 PUSH2 0x3A09 DUP13 DUP3 DUP14 ADD PUSH2 0x338C JUMP JUMPDEST SWAP7 POP POP PUSH1 0x80 PUSH2 0x3A1A DUP13 DUP3 DUP14 ADD PUSH2 0x338C JUMP JUMPDEST SWAP6 POP POP PUSH1 0xA0 PUSH2 0x3A2B DUP13 DUP3 DUP14 ADD PUSH2 0x338C JUMP JUMPDEST SWAP5 POP POP PUSH1 0xC0 PUSH2 0x3A3C DUP13 DUP3 DUP14 ADD PUSH2 0x338C JUMP JUMPDEST SWAP4 POP POP PUSH1 0xE0 DUP11 ADD CALLDATALOAD PUSH8 0xFFFFFFFFFFFFFFFF DUP2 GT ISZERO PUSH2 0x3A5D JUMPI PUSH2 0x3A5C PUSH2 0x3034 JUMP JUMPDEST JUMPDEST PUSH2 0x3A69 DUP13 DUP3 DUP14 ADD PUSH2 0x34F6 JUMP JUMPDEST SWAP3 POP POP PUSH2 0x100 DUP11 ADD CALLDATALOAD PUSH8 0xFFFFFFFFFFFFFFFF DUP2 GT ISZERO PUSH2 0x3A8B JUMPI PUSH2 0x3A8A PUSH2 0x3034 JUMP JUMPDEST JUMPDEST PUSH2 0x3A97 DUP13 DUP3 DUP14 ADD PUSH2 0x34F6 JUMP JUMPDEST SWAP2 POP POP SWAP3 SWAP6 SWAP9 POP SWAP3 SWAP6 SWAP9 POP SWAP3 SWAP6 SWAP9 JUMP JUMPDEST PUSH0 DUP1 PUSH0 DUP1 PUSH0 PUSH1 0xA0 DUP7 DUP9 SUB SLT ISZERO PUSH2 0x3AC0 JUMPI PUSH2 0x3ABF PUSH2 0x3030 JUMP JUMPDEST JUMPDEST PUSH0 PUSH2 0x3ACD DUP9 DUP3 DUP10 ADD PUSH2 0x307E JUMP JUMPDEST SWAP6 POP POP PUSH1 0x20 DUP7 ADD CALLDATALOAD PUSH8 0xFFFFFFFFFFFFFFFF DUP2 GT ISZERO PUSH2 0x3AEE JUMPI PUSH2 0x3AED PUSH2 0x3034 JUMP JUMPDEST JUMPDEST PUSH2 0x3AFA DUP9 DUP3 DUP10 ADD PUSH2 0x34F6 JUMP JUMPDEST SWAP5 POP POP PUSH1 0x40 PUSH2 0x3B0B DUP9 DUP3 DUP10 ADD PUSH2 0x338C JUMP JUMPDEST SWAP4 POP POP PUSH1 0x60 PUSH2 0x3B1C DUP9 DUP3 DUP10 ADD PUSH2 0x338C JUMP JUMPDEST SWAP3 POP POP PUSH1 0x80 PUSH2 0x3B2D DUP9 DUP3 DUP10 ADD PUSH2 0x338C JUMP JUMPDEST SWAP2 POP POP SWAP3 SWAP6 POP SWAP3 SWAP6 SWAP1 SWAP4 POP JUMP JUMPDEST PUSH0 PUSH1 0x40 DUP3 ADD SWAP1 POP DUP2 DUP2 SUB PUSH0 DUP4 ADD MSTORE PUSH2 0x3B52 DUP2 DUP6 PUSH2 0x32A1 JUMP JUMPDEST SWAP1 POP PUSH2 0x3B61 PUSH1 0x20 DUP4 ADD DUP5 PUSH2 0x32D9 JUMP JUMPDEST SWAP4 SWAP3 POP POP POP JUMP JUMPDEST PUSH32 0x4F6E6C79206F776E65722063616E2063616C6C20746869732066756E6374696F PUSH0 DUP3 ADD MSTORE PUSH32 0x6E00000000000000000000000000000000000000000000000000000000000000 PUSH1 0x20 DUP3 ADD MSTORE POP JUMP JUMPDEST PUSH0 PUSH2 0x3BC2 PUSH1 0x21 DUP4 PUSH2 0x3273 JUMP JUMPDEST SWAP2 POP PUSH2 0x3BCD DUP3 PUSH2 0x3B68 JUMP JUMPDEST PUSH1 0x40 DUP3 ADD SWAP1 POP SWAP2 SWAP1 POP JUMP JUMPDEST PUSH0 PUSH1 0x20 DUP3 ADD SWAP1 POP DUP2 DUP2 SUB PUSH0 DUP4 ADD MSTORE PUSH2 0x3BEF DUP2 PUSH2 0x3BB6 JUMP JUMPDEST SWAP1 POP SWAP2 SWAP1 POP JUMP JUMPDEST PUSH32 0x4E487B7100000000000000000000000000000000000000000000000000000000 PUSH0 MSTORE PUSH1 0x32 PUSH1 0x4 MSTORE PUSH1 0x24 PUSH0 REVERT JUMPDEST PUSH32 0x4E487B7100000000000000000000000000000000000000000000000000000000 PUSH0 MSTORE PUSH1 0x11 PUSH1 0x4 MSTORE PUSH1 0x24 PUSH0 REVERT JUMPDEST PUSH0 PUSH2 0x3C5A DUP3 PUSH2 0x319D JUMP JUMPDEST SWAP2 POP PUSH32 0xFFFFFFFFFFFFFFFFFFFFFFFFFFFFFFFFFFFFFFFFFFFFFFFFFFFFFFFFFFFFFFFF DUP3 SUB PUSH2 0x3C8C JUMPI PUSH2 0x3C8B PUSH2 0x3C23 JUMP JUMPDEST JUMPDEST PUSH1 0x1 DUP3 ADD SWAP1 POP SWAP2 SWAP1 POP JUMP JUMPDEST PUSH32 0x4E487B7100000000000000000000000000000000000000000000000000000000 PUSH0 MSTORE PUSH1 0x22 PUSH1 0x4 MSTORE PUSH1 0x24 PUSH0 REVERT JUMPDEST PUSH0 PUSH1 0x2 DUP3 DIV SWAP1 POP PUSH1 0x1 DUP3 AND DUP1 PUSH2 0x3CDB JUMPI PUSH1 0x7F DUP3 AND SWAP2 POP JUMPDEST PUSH1 0x20 DUP3 LT DUP2 SUB PUSH2 0x3CEE JUMPI PUSH2 0x3CED PUSH2 0x3C97 JUMP JUMPDEST JUMPDEST POP SWAP2 SWAP1 POP JUMP JUMPDEST PUSH32 0x4F6E6C79206D656D626572732063616E2063616C6C20746869732066756E6374 PUSH0 DUP3 ADD MSTORE PUSH32 0x696F6E0000000000000000000000000000000000000000000000000000000000 PUSH1 0x20 DUP3 ADD MSTORE POP JUMP JUMPDEST PUSH0 PUSH2 0x3D4E PUSH1 0x23 DUP4 PUSH2 0x3273 JUMP JUMPDEST SWAP2 POP PUSH2 0x3D59 DUP3 PUSH2 0x3CF4 JUMP JUMPDEST PUSH1 0x40 DUP3 ADD SWAP1 POP SWAP2 SWAP1 POP JUMP JUMPDEST PUSH0 PUSH1 0x20 DUP3 ADD SWAP1 POP DUP2 DUP2 SUB PUSH0 DUP4 ADD MSTORE PUSH2 0x3D7B DUP2 PUSH2 0x3D42 JUMP JUMPDEST SWAP1 POP SWAP2 SWAP1 POP JUMP JUMPDEST PUSH32 0x496E76616C69642067796D000000000000000000000000000000000000000000 PUSH0 DUP3 ADD MSTORE POP JUMP JUMPDEST PUSH0 PUSH2 0x3DB6 PUSH1 0xB DUP4 PUSH2 0x3273 JUMP JUMPDEST SWAP2 POP PUSH2 0x3DC1 DUP3 PUSH2 0x3D82 JUMP JUMPDEST PUSH1 0x20 DUP3 ADD SWAP1 POP SWAP2 SWAP1 POP JUMP JUMPDEST PUSH0 PUSH1 0x20 DUP3 ADD SWAP1 POP DUP2 DUP2 SUB PUSH0 DUP4 ADD MSTORE PUSH2 0x3DE3 DUP2 PUSH2 0x3DAA JUMP JUMPDEST SWAP1 POP SWAP2 SWAP1 POP JUMP JUMPDEST PUSH32 0x496E76616C696420726174696E67000000000000000000000000000000000000 PUSH0 DUP3 ADD MSTORE POP JUMP JUMPDEST PUSH0 PUSH2 0x3E1E PUSH1 0xE DUP4 PUSH2 0x3273 JUMP JUMPDEST SWAP2 POP PUSH2 0x3E29 DUP3 PUSH2 0x3DEA JUMP JUMPDEST PUSH1 0x20 DUP3 ADD SWAP1 POP SWAP2 SWAP1 POP JUMP JUMPDEST PUSH0 PUSH1 0x20 DUP3 ADD SWAP1 POP DUP2 DUP2 SUB PUSH0 DUP4 ADD MSTORE PUSH2 0x3E4B DUP2 PUSH2 0x3E12 JUMP JUMPDEST SWAP1 POP SWAP2 SWAP1 POP JUMP JUMPDEST PUSH0 PUSH2 0x3E5C DUP3 PUSH2 0x319D JUMP JUMPDEST SWAP2 POP PUSH2 0x3E67 DUP4 PUSH2 0x319D JUMP JUMPDEST SWAP3 POP DUP3 DUP3 ADD SWAP1 POP DUP1 DUP3 GT ISZERO PUSH2 0x3E7F JUMPI PUSH2 0x3E7E PUSH2 0x3C23 JUMP JUMPDEST JUMPDEST SWAP3 SWAP2 POP POP JUMP JUMPDEST PUSH0 PUSH2 0x3E8F DUP3 PUSH2 0x319D JUMP JUMPDEST SWAP2 POP PUSH2 0x3E9A DUP4 PUSH2 0x319D JUMP JUMPDEST SWAP3 POP DUP3 DUP3 MUL PUSH2 0x3EA8 DUP2 PUSH2 0x319D JUMP JUMPDEST SWAP2 POP DUP3 DUP3 DIV DUP5 EQ DUP4 ISZERO OR PUSH2 0x3EBF JUMPI PUSH2 0x3EBE PUSH2 0x3C23 JUMP JUMPDEST JUMPDEST POP SWAP3 SWAP2 POP POP JUMP JUMPDEST PUSH32 0x4E487B7100000000000000000000000000000000000000000000000000000000 PUSH0 MSTORE PUSH1 0x12 PUSH1 0x4 MSTORE PUSH1 0x24 PUSH0 REVERT JUMPDEST PUSH0 PUSH2 0x3EFD DUP3 PUSH2 0x319D JUMP JUMPDEST SWAP2 POP PUSH2 0x3F08 DUP4 PUSH2 0x319D JUMP JUMPDEST SWAP3 POP DUP3 PUSH2 0x3F18 JUMPI PUSH2 0x3F17 PUSH2 0x3EC6 JUMP JUMPDEST JUMPDEST DUP3 DUP3 DIV SWAP1 POP SWAP3 SWAP2 POP POP JUMP JUMPDEST PUSH32 0x537562736372697074696F6E2065787069726564000000000000000000000000 PUSH0 DUP3 ADD MSTORE POP JUMP JUMPDEST PUSH0 PUSH2 0x3F57 PUSH1 0x14 DUP4 PUSH2 0x3273 JUMP JUMPDEST SWAP2 POP PUSH2 0x3F62 DUP3 PUSH2 0x3F23 JUMP JUMPDEST PUSH1 0x20 DUP3 ADD SWAP1 POP SWAP2 SWAP1 POP JUMP JUMPDEST PUSH0 PUSH1 0x20 DUP3 ADD SWAP1 POP DUP2 DUP2 SUB PUSH0 DUP4 ADD MSTORE PUSH2 0x3F84 DUP2 PUSH2 0x3F4B JUMP JUMPDEST SWAP1 POP SWAP2 SWAP1 POP JUMP JUMPDEST PUSH0 DUP2 SWAP1 POP DUP2 PUSH0 MSTORE PUSH1 0x20 PUSH0 KECCAK256 SWAP1 POP SWAP2 SWAP1 POP JUMP JUMPDEST PUSH0 PUSH1 0x20 PUSH1 0x1F DUP4 ADD DIV SWAP1 POP SWAP2 SWAP1 POP JUMP JUMPDEST PUSH0 DUP3 DUP3 SHL SWAP1 POP SWAP3 SWAP2 POP POP JUMP JUMPDEST PUSH0 PUSH1 0x8 DUP4 MUL PUSH2 0x3FE7 PUSH32 0xFFFFFFFFFFFFFFFFFFFFFFFFFFFFFFFFFFFFFFFFFFFFFFFFFFFFFFFFFFFFFFFF DUP3 PUSH2 0x3FAC JUMP JUMPDEST PUSH2 0x3FF1 DUP7 DUP4 PUSH2 0x3FAC JUMP JUMPDEST SWAP6 POP DUP1 NOT DUP5 AND SWAP4 POP DUP1 DUP7 AND DUP5 OR SWAP3 POP POP POP SWAP4 SWAP3 POP POP POP JUMP JUMPDEST PUSH0 DUP2 SWAP1 POP SWAP2 SWAP1 POP JUMP JUMPDEST PUSH0 PUSH2 0x402C PUSH2 0x4027 PUSH2 0x4022 DUP5 PUSH2 0x319D JUMP JUMPDEST PUSH2 0x4009 JUMP JUMPDEST PUSH2 0x319D JUMP JUMPDEST SWAP1 POP SWAP2 SWAP1 POP JUMP JUMPDEST PUSH0 DUP2 SWAP1 POP SWAP2 SWAP1 POP JUMP JUMPDEST PUSH2 0x4045 DUP4 PUSH2 0x4012 JUMP JUMPDEST PUSH2 0x4059 PUSH2 0x4051 DUP3 PUSH2 0x4033 JUMP JUMPDEST DUP5 DUP5 SLOAD PUSH2 0x3FB8 JUMP JUMPDEST DUP3 SSTORE POP POP POP POP JUMP JUMPDEST PUSH0 SWAP1 JUMP JUMPDEST PUSH2 0x406D PUSH2 0x4061 JUMP JUMPDEST PUSH2 0x4078 DUP2 DUP5 DUP5 PUSH2 0x403C JUMP JUMPDEST POP POP POP JUMP JUMPDEST JUMPDEST DUP2 DUP2 LT ISZERO PUSH2 0x409B JUMPI PUSH2 0x4090 PUSH0 DUP3 PUSH2 0x4065 JUMP JUMPDEST PUSH1 0x1 DUP2 ADD SWAP1 POP PUSH2 0x407E JUMP JUMPDEST POP POP JUMP JUMPDEST PUSH1 0x1F DUP3 GT ISZERO PUSH2 0x40E0 JUMPI PUSH2 0x40B1 DUP2 PUSH2 0x3F8B JUMP JUMPDEST PUSH2 0x40BA DUP5 PUSH2 0x3F9D JUMP JUMPDEST DUP2 ADD PUSH1 0x20 DUP6 LT ISZERO PUSH2 0x40C9 JUMPI DUP2 SWAP1 POP JUMPDEST PUSH2 0x40DD PUSH2 0x40D5 DUP6 PUSH2 0x3F9D JUMP JUMPDEST DUP4 ADD DUP3 PUSH2 0x407D JUMP JUMPDEST POP POP JUMPDEST POP POP POP JUMP JUMPDEST PUSH0 DUP3 DUP3 SHR SWAP1 POP SWAP3 SWAP2 POP POP JUMP JUMPDEST PUSH0 PUSH2 0x4100 PUSH0 NOT DUP5 PUSH1 0x8 MUL PUSH2 0x40E5 JUMP JUMPDEST NOT DUP1 DUP4 AND SWAP2 POP POP SWAP3 SWAP2 POP POP JUMP JUMPDEST PUSH0 PUSH2 0x4118 DUP4 DUP4 PUSH2 0x40F1 JUMP JUMPDEST SWAP2 POP DUP3 PUSH1 0x2 MUL DUP3 OR SWAP1 POP SWAP3 SWAP2 POP POP JUMP JUMPDEST PUSH2 0x4131 DUP3 PUSH2 0x3269 JUMP JUMPDEST PUSH8 0xFFFFFFFFFFFFFFFF DUP2 GT ISZERO PUSH2 0x414A JUMPI PUSH2 0x4149 PUSH2 0x33FF JUMP JUMPDEST JUMPDEST PUSH2 0x4154 DUP3 SLOAD PUSH2 0x3CC4 JUMP JUMPDEST PUSH2 0x415F DUP3 DUP3 DUP6 PUSH2 0x409F JUMP JUMPDEST PUSH0 PUSH1 0x20 SWAP1 POP PUSH1 0x1F DUP4 GT PUSH1 0x1 DUP2 EQ PUSH2 0x4190 JUMPI PUSH0 DUP5 ISZERO PUSH2 0x417E JUMPI DUP3 DUP8 ADD MLOAD SWAP1 POP JUMPDEST PUSH2 0x4188 DUP6 DUP3 PUSH2 0x410D JUMP JUMPDEST DUP7 SSTORE POP PUSH2 0x41EF JUMP JUMPDEST PUSH1 0x1F NOT DUP5 AND PUSH2 0x419E DUP7 PUSH2 0x3F8B JUMP JUMPDEST PUSH0 JUMPDEST DUP3 DUP2 LT ISZERO PUSH2 0x41C5 JUMPI DUP5 DUP10 ADD MLOAD DUP3 SSTORE PUSH1 0x1 DUP3 ADD SWAP2 POP PUSH1 0x20 DUP6 ADD SWAP5 POP PUSH1 0x20 DUP2 ADD SWAP1 POP PUSH2 0x41A0 JUMP JUMPDEST DUP7 DUP4 LT ISZERO PUSH2 0x41E2 JUMPI DUP5 DUP10 ADD MLOAD PUSH2 0x41DE PUSH1 0x1F DUP10 AND DUP3 PUSH2 0x40F1 JUMP JUMPDEST DUP4 SSTORE POP JUMPDEST PUSH1 0x1 PUSH1 0x2 DUP9 MUL ADD DUP9 SSTORE POP POP POP JUMPDEST POP POP POP POP POP POP JUMP JUMPDEST PUSH32 0x4F6E6C792067796D732063616E2063616C6C20746869732066756E6374696F6E PUSH0 DUP3 ADD MSTORE POP JUMP JUMPDEST PUSH0 PUSH2 0x422B PUSH1 0x20 DUP4 PUSH2 0x3273 JUMP JUMPDEST SWAP2 POP PUSH2 0x4236 DUP3 PUSH2 0x41F7 JUMP JUMPDEST PUSH1 0x20 DUP3 ADD SWAP1 POP SWAP2 SWAP1 POP JUMP JUMPDEST PUSH0 PUSH1 0x20 DUP3 ADD SWAP1 POP DUP2 DUP2 SUB PUSH0 DUP4 ADD MSTORE PUSH2 0x4258 DUP2 PUSH2 0x421F JUMP JUMPDEST SWAP1 POP SWAP2 SWAP1 POP JUMP JUMPDEST PUSH32 0x4E6F742061206D656D6265720000000000000000000000000000000000000000 PUSH0 DUP3 ADD MSTORE POP JUMP JUMPDEST PUSH0 PUSH2 0x4293 PUSH1 0xC DUP4 PUSH2 0x3273 JUMP JUMPDEST SWAP2 POP PUSH2 0x429E DUP3 PUSH2 0x425F JUMP JUMPDEST PUSH1 0x20 DUP3 ADD SWAP1 POP SWAP2 SWAP1 POP JUMP JUMPDEST PUSH0 PUSH1 0x20 DUP3 ADD SWAP1 POP DUP2 DUP2 SUB PUSH0 DUP4 ADD MSTORE PUSH2 0x42C0 DUP2 PUSH2 0x4287 JUMP JUMPDEST SWAP1 POP SWAP2 SWAP1 POP JUMP JUMPDEST PUSH32 0x496E636F72726563742066656500000000000000000000000000000000000000 PUSH0 DUP3 ADD MSTORE POP JUMP JUMPDEST PUSH0 PUSH2 0x42FB PUSH1 0xD DUP4 PUSH2 0x3273 JUMP JUMPDEST SWAP2 POP PUSH2 0x4306 DUP3 PUSH2 0x42C7 JUMP JUMPDEST PUSH1 0x20 DUP3 ADD SWAP1 POP SWAP2 SWAP1 POP JUMP JUMPDEST PUSH0 PUSH1 0x20 DUP3 ADD SWAP1 POP DUP2 DUP2 SUB PUSH0 DUP4 ADD MSTORE PUSH2 0x4328 DUP2 PUSH2 0x42EF JUMP JUMPDEST SWAP1 POP SWAP2 SWAP1 POP JUMP JUMPDEST PUSH32 0x416C72656164792061206D656D62657200000000000000000000000000000000 PUSH0 DUP3 ADD MSTORE POP JUMP JUMPDEST PUSH0 PUSH2 0x4363 PUSH1 0x10 DUP4 PUSH2 0x3273 JUMP JUMPDEST SWAP2 POP PUSH2 0x436E DUP3 PUSH2 0x432F JUMP JUMPDEST PUSH1 0x20 DUP3 ADD SWAP1 POP SWAP2 SWAP1 POP JUMP JUMPDEST PUSH0 PUSH1 0x20 DUP3 ADD SWAP1 POP DUP2 DUP2 SUB PUSH0 DUP4 ADD MSTORE PUSH2 0x4390 DUP2 PUSH2 0x4357 JUMP JUMPDEST SWAP1 POP SWAP2 SWAP1 POP JUMP JUMPDEST PUSH32 0x41646472657373206973207265676973746572656420617320612067796D0000 PUSH0 DUP3 ADD MSTORE POP JUMP JUMPDEST PUSH0 PUSH2 0x43CB PUSH1 0x1E DUP4 PUSH2 0x3273 JUMP JUMPDEST SWAP2 POP PUSH2 0x43D6 DUP3 PUSH2 0x4397 JUMP JUMPDEST PUSH1 0x20 DUP3 ADD SWAP1 POP SWAP2 SWAP1 POP JUMP JUMPDEST PUSH0 PUSH1 0x20 DUP3 ADD SWAP1 POP DUP2 DUP2 SUB PUSH0 DUP4 ADD MSTORE PUSH2 0x43F8 DUP2 PUSH2 0x43BF JUMP JUMPDEST SWAP1 POP SWAP2 SWAP1 POP JUMP JUMPDEST PUSH32 0x4E6F206561726E696E677320746F207769746864726177000000000000000000 PUSH0 DUP3 ADD MSTORE POP JUMP JUMPDEST PUSH0 PUSH2 0x4433 PUSH1 0x17 DUP4 PUSH2 0x3273 JUMP JUMPDEST SWAP2 POP PUSH2 0x443E DUP3 PUSH2 0x43FF JUMP JUMPDEST PUSH1 0x20 DUP3 ADD SWAP1 POP SWAP2 SWAP1 POP JUMP JUMPDEST PUSH0 PUSH1 0x20 DUP3 ADD SWAP1 POP DUP2 DUP2 SUB PUSH0 DUP4 ADD MSTORE PUSH2 0x4460 DUP2 PUSH2 0x4427 JUMP JUMPDEST SWAP1 POP SWAP2 SWAP1 POP JUMP JUMPDEST PUSH32 0x416C726561647920612067796D00000000000000000000000000000000000000 PUSH0 DUP3 ADD MSTORE POP JUMP JUMPDEST PUSH0 PUSH2 0x449B PUSH1 0xD DUP4 PUSH2 0x3273 JUMP JUMPDEST SWAP2 POP PUSH2 0x44A6 DUP3 PUSH2 0x4467 JUMP JUMPDEST PUSH1 0x20 DUP3 ADD SWAP1 POP SWAP2 SWAP1 POP JUMP JUMPDEST PUSH0 PUSH1 0x20 DUP3 ADD SWAP1 POP DUP2 DUP2 SUB PUSH0 DUP4 ADD MSTORE PUSH2 0x44C8 DUP2 PUSH2 0x448F JUMP JUMPDEST SWAP1 POP SWAP2 SWAP1 POP JUMP JUMPDEST PUSH32 0x4164647265737320697320726567697374657265642061732061206D656D6265 PUSH0 DUP3 ADD MSTORE PUSH32 0x7200000000000000000000000000000000000000000000000000000000000000 PUSH1 0x20 DUP3 ADD MSTORE POP JUMP JUMPDEST PUSH0 PUSH2 0x4529 PUSH1 0x21 DUP4 PUSH2 0x3273 JUMP JUMPDEST SWAP2 POP PUSH2 0x4534 DUP3 PUSH2 0x44CF JUMP JUMPDEST PUSH1 0x40 DUP3 ADD SWAP1 POP SWAP2 SWAP1 POP JUMP JUMPDEST PUSH0 PUSH1 0x20 DUP3 ADD SWAP1 POP DUP2 DUP2 SUB PUSH0 DUP4 ADD MSTORE PUSH2 0x4556 DUP2 PUSH2 0x451D JUMP JUMPDEST SWAP1 POP SWAP2 SWAP1 POP JUMP JUMPDEST PUSH32 0x496E76616C6964206475726174696F6E00000000000000000000000000000000 PUSH0 DUP3 ADD MSTORE POP JUMP JUMPDEST PUSH0 PUSH2 0x4591 PUSH1 0x10 DUP4 PUSH2 0x3273 JUMP JUMPDEST SWAP2 POP PUSH2 0x459C DUP3 PUSH2 0x455D JUMP JUMPDEST PUSH1 0x20 DUP3 ADD SWAP1 POP SWAP2 SWAP1 POP JUMP JUMPDEST PUSH0 PUSH1 0x20 DUP3 ADD SWAP1 POP DUP2 DUP2 SUB PUSH0 DUP4 ADD MSTORE PUSH2 0x45BE DUP2 PUSH2 0x4585 JUMP JUMPDEST SWAP1 POP SWAP2 SWAP1 POP JUMP INVALID LOG2 PUSH5 0x6970667358 0x22 SLT KECCAK256 SHR 0xEC PUSH4 0xDA1C35B ORIGIN 0xD6 DIV 0xAC OR GASPRICE LOG2 XOR 0xEE 0xD8 0xB7 PUSH26 0xE93DAA190FB137B1B5FAECCA3D64736F6C634300081A00330000 "
				},
				"gasEstimates": {
					"creation": {
						"codeDepositCost": "3583000",
						"executionCost": "28286",
						"totalCost": "3611286"
					},
					"external": {
						"addExercise(string,uint256)": "infinite",
						"addVisit(address)": "infinite",
						"calculateGymFee(address)": "infinite",
						"getActiveMembers()": "infinite",
						"getAllGyms()": "infinite",
						"getAllMembers()": "infinite",
						"getExercise(address,uint256)": "infinite",
						"getMemberInfo(address)": "infinite",
						"getMemberSubscriptions(address)": "infinite",
						"getVisit(address,uint256)": "infinite",
						"gymAddresses(uint256)": "4966",
						"gyms(address)": "infinite",
						"isGym(address)": "2900",
						"isMember(address)": "2944",
						"manualAddMember(address,string,uint256,uint256,uint256)": "infinite",
						"memberAddresses(uint256)": "4988",
						"members(address)": "infinite",
						"owner()": "2575",
						"rateGym(address,uint256)": "infinite",
						"registerGym(string,uint256,uint256,uint256,uint256,uint256,uint256,string,string)": "infinite",
						"registerMember(string,uint256,uint256,uint256)": "infinite",
						"subscribeGym(address,uint256)": "infinite",
						"withdrawEarnings()": "infinite"
					},
					"internal": {
						"determineFee(struct GymMembership.Gym storage pointer,uint256)": "infinite",
						"setGymDetails(struct GymMembership.Gym storage pointer,struct GymMembership.GymDetails memory)": "infinite"
					}
				},
				"methodIdentifiers": {
					"addExercise(string,uint256)": "34336077",
					"addVisit(address)": "2b5dd630",
					"calculateGymFee(address)": "1dbe316b",
					"getActiveMembers()": "4876aebc",
					"getAllGyms()": "da9f67fe",
					"getAllMembers()": "7c0f6b35",
					"getExercise(address,uint256)": "7d4e1be3",
					"getMemberInfo(address)": "5f1231ea",
					"getMemberSubscriptions(address)": "05d52812",
					"getVisit(address,uint256)": "f377b3c0",
					"gymAddresses(uint256)": "ca4cba8e",
					"gyms(address)": "78f5fa0a",
					"isGym(address)": "5d762fb8",
					"isMember(address)": "a230c524",
					"manualAddMember(address,string,uint256,uint256,uint256)": "dfd73077",
					"memberAddresses(uint256)": "cc4e6299",
					"members(address)": "08ae4b0c",
					"owner()": "8da5cb5b",
					"rateGym(address,uint256)": "09d050f8",
					"registerGym(string,uint256,uint256,uint256,uint256,uint256,uint256,string,string)": "dc1d9188",
					"registerMember(string,uint256,uint256,uint256)": "9c6e3e32",
					"subscribeGym(address,uint256)": "8149f74c",
					"withdrawEarnings()": "b73c6ce9"
				}
			},
			"storageLayout": {
				"storage": [
					{
						"astId": 108,
						"contract": "contracts/GymMembership.sol:GymMembership",
						"label": "members",
						"offset": 0,
						"slot": "0",
						"type": "t_mapping(t_address,t_struct(Member)72_storage)"
					},
					{
						"astId": 112,
						"contract": "contracts/GymMembership.sol:GymMembership",
						"label": "isMember",
						"offset": 0,
						"slot": "1",
						"type": "t_mapping(t_address,t_bool)"
					},
					{
						"astId": 117,
						"contract": "contracts/GymMembership.sol:GymMembership",
						"label": "gyms",
						"offset": 0,
						"slot": "2",
						"type": "t_mapping(t_address,t_struct(Gym)43_storage)"
					},
					{
						"astId": 121,
						"contract": "contracts/GymMembership.sol:GymMembership",
						"label": "isGym",
						"offset": 0,
						"slot": "3",
						"type": "t_mapping(t_address,t_bool)"
					},
					{
						"astId": 124,
						"contract": "contracts/GymMembership.sol:GymMembership",
						"label": "memberAddresses",
						"offset": 0,
						"slot": "4",
						"type": "t_array(t_address)dyn_storage"
					},
					{
						"astId": 127,
						"contract": "contracts/GymMembership.sol:GymMembership",
						"label": "gymAddresses",
						"offset": 0,
						"slot": "5",
						"type": "t_array(t_address)dyn_storage"
					},
					{
						"astId": 129,
						"contract": "contracts/GymMembership.sol:GymMembership",
						"label": "owner",
						"offset": 0,
						"slot": "6",
						"type": "t_address"
					}
				],
				"types": {
					"t_address": {
						"encoding": "inplace",
						"label": "address",
						"numberOfBytes": "20"
					},
					"t_array(t_address)dyn_storage": {
						"base": "t_address",
						"encoding": "dynamic_array",
						"label": "address[]",
						"numberOfBytes": "32"
					},
					"t_bool": {
						"encoding": "inplace",
						"label": "bool",
						"numberOfBytes": "1"
					},
					"t_mapping(t_address,t_bool)": {
						"encoding": "mapping",
						"key": "t_address",
						"label": "mapping(address => bool)",
						"numberOfBytes": "32",
						"value": "t_bool"
					},
					"t_mapping(t_address,t_struct(Gym)43_storage)": {
						"encoding": "mapping",
						"key": "t_address",
						"label": "mapping(address => struct GymMembership.Gym)",
						"numberOfBytes": "32",
						"value": "t_struct(Gym)43_storage"
					},
					"t_mapping(t_address,t_struct(Member)72_storage)": {
						"encoding": "mapping",
						"key": "t_address",
						"label": "mapping(address => struct GymMembership.Member)",
						"numberOfBytes": "32",
						"value": "t_struct(Member)72_storage"
					},
					"t_mapping(t_address,t_uint256)": {
						"encoding": "mapping",
						"key": "t_address",
						"label": "mapping(address => uint256)",
						"numberOfBytes": "32",
						"value": "t_uint256"
					},
					"t_mapping(t_uint256,t_struct(Exercise)79_storage)": {
						"encoding": "mapping",
						"key": "t_uint256",
						"label": "mapping(uint256 => struct GymMembership.Exercise)",
						"numberOfBytes": "32",
						"value": "t_struct(Exercise)79_storage"
					},
					"t_mapping(t_uint256,t_struct(Visit)84_storage)": {
						"encoding": "mapping",
						"key": "t_uint256",
						"label": "mapping(uint256 => struct GymMembership.Visit)",
						"numberOfBytes": "32",
						"value": "t_struct(Visit)84_storage"
					},
					"t_string_storage": {
						"encoding": "bytes",
						"label": "string",
						"numberOfBytes": "32"
					},
					"t_struct(Exercise)79_storage": {
						"encoding": "inplace",
						"label": "struct GymMembership.Exercise",
						"members": [
							{
								"astId": 74,
								"contract": "contracts/GymMembership.sol:GymMembership",
								"label": "machine",
								"offset": 0,
								"slot": "0",
								"type": "t_string_storage"
							},
							{
								"astId": 76,
								"contract": "contracts/GymMembership.sol:GymMembership",
								"label": "weightLifted",
								"offset": 0,
								"slot": "1",
								"type": "t_uint256"
							},
							{
								"astId": 78,
								"contract": "contracts/GymMembership.sol:GymMembership",
								"label": "timestamp",
								"offset": 0,
								"slot": "2",
								"type": "t_uint256"
							}
						],
						"numberOfBytes": "96"
					},
					"t_struct(Fee)14_storage": {
						"encoding": "inplace",
						"label": "struct GymMembership.Fee",
						"members": [
							{
								"astId": 3,
								"contract": "contracts/GymMembership.sol:GymMembership",
								"label": "dailyFee",
								"offset": 0,
								"slot": "0",
								"type": "t_uint256"
							},
							{
								"astId": 5,
								"contract": "contracts/GymMembership.sol:GymMembership",
								"label": "weeklyFee",
								"offset": 0,
								"slot": "1",
								"type": "t_uint256"
							},
							{
								"astId": 7,
								"contract": "contracts/GymMembership.sol:GymMembership",
								"label": "monthlyFee",
								"offset": 0,
								"slot": "2",
								"type": "t_uint256"
							},
							{
								"astId": 9,
								"contract": "contracts/GymMembership.sol:GymMembership",
								"label": "quarterlyFee",
								"offset": 0,
								"slot": "3",
								"type": "t_uint256"
							},
							{
								"astId": 11,
								"contract": "contracts/GymMembership.sol:GymMembership",
								"label": "semiAnnualFee",
								"offset": 0,
								"slot": "4",
								"type": "t_uint256"
							},
							{
								"astId": 13,
								"contract": "contracts/GymMembership.sol:GymMembership",
								"label": "annualFee",
								"offset": 0,
								"slot": "5",
								"type": "t_uint256"
							}
						],
						"numberOfBytes": "192"
					},
					"t_struct(Gym)43_storage": {
						"encoding": "inplace",
						"label": "struct GymMembership.Gym",
						"members": [
							{
								"astId": 21,
								"contract": "contracts/GymMembership.sol:GymMembership",
								"label": "name",
								"offset": 0,
								"slot": "0",
								"type": "t_string_storage"
							},
							{
								"astId": 24,
								"contract": "contracts/GymMembership.sol:GymMembership",
								"label": "fees",
								"offset": 0,
								"slot": "1",
								"type": "t_struct(Fee)14_storage"
							},
							{
								"astId": 26,
								"contract": "contracts/GymMembership.sol:GymMembership",
								"label": "totalUsers",
								"offset": 0,
								"slot": "7",
								"type": "t_uint256"
							},
							{
								"astId": 28,
								"contract": "contracts/GymMembership.sol:GymMembership",
								"label": "totalRating",
								"offset": 0,
								"slot": "8",
								"type": "t_uint256"
							},
							{
								"astId": 30,
								"contract": "contracts/GymMembership.sol:GymMembership",
								"label": "reviewCount",
								"offset": 0,
								"slot": "9",
								"type": "t_uint256"
							},
							{
								"astId": 32,
								"contract": "contracts/GymMembership.sol:GymMembership",
								"label": "balance",
								"offset": 0,
								"slot": "10",
								"type": "t_uint256"
							},
							{
								"astId": 35,
								"contract": "contracts/GymMembership.sol:GymMembership",
								"label": "location",
								"offset": 0,
								"slot": "11",
								"type": "t_struct(Location)19_storage"
							},
							{
								"astId": 38,
								"contract": "contracts/GymMembership.sol:GymMembership",
								"label": "memberAddresses",
								"offset": 0,
								"slot": "13",
								"type": "t_array(t_address)dyn_storage"
							},
							{
								"astId": 42,
								"contract": "contracts/GymMembership.sol:GymMembership",
								"label": "activeMembers",
								"offset": 0,
								"slot": "14",
								"type": "t_mapping(t_address,t_uint256)"
							}
						],
						"numberOfBytes": "480"
					},
					"t_struct(Location)19_storage": {
						"encoding": "inplace",
						"label": "struct GymMembership.Location",
						"members": [
							{
								"astId": 16,
								"contract": "contracts/GymMembership.sol:GymMembership",
								"label": "latitude",
								"offset": 0,
								"slot": "0",
								"type": "t_string_storage"
							},
							{
								"astId": 18,
								"contract": "contracts/GymMembership.sol:GymMembership",
								"label": "longitude",
								"offset": 0,
								"slot": "1",
								"type": "t_string_storage"
							}
						],
						"numberOfBytes": "64"
					},
					"t_struct(Member)72_storage": {
						"encoding": "inplace",
						"label": "struct GymMembership.Member",
						"members": [
							{
								"astId": 45,
								"contract": "contracts/GymMembership.sol:GymMembership",
								"label": "name",
								"offset": 0,
								"slot": "0",
								"type": "t_string_storage"
							},
							{
								"astId": 47,
								"contract": "contracts/GymMembership.sol:GymMembership",
								"label": "age",
								"offset": 0,
								"slot": "1",
								"type": "t_uint256"
							},
							{
								"astId": 49,
								"contract": "contracts/GymMembership.sol:GymMembership",
								"label": "weight",
								"offset": 0,
								"slot": "2",
								"type": "t_uint256"
							},
							{
								"astId": 51,
								"contract": "contracts/GymMembership.sol:GymMembership",
								"label": "height",
								"offset": 0,
								"slot": "3",
								"type": "t_uint256"
							},
							{
								"astId": 53,
								"contract": "contracts/GymMembership.sol:GymMembership",
								"label": "exerciseCount",
								"offset": 0,
								"slot": "4",
								"type": "t_uint256"
							},
							{
								"astId": 55,
								"contract": "contracts/GymMembership.sol:GymMembership",
								"label": "visitCount",
								"offset": 0,
								"slot": "5",
								"type": "t_uint256"
							},
							{
								"astId": 57,
								"contract": "contracts/GymMembership.sol:GymMembership",
								"label": "isManual",
								"offset": 0,
								"slot": "6",
								"type": "t_bool"
							},
							{
								"astId": 62,
								"contract": "contracts/GymMembership.sol:GymMembership",
								"label": "exercises",
								"offset": 0,
								"slot": "7",
								"type": "t_mapping(t_uint256,t_struct(Exercise)79_storage)"
							},
							{
								"astId": 67,
								"contract": "contracts/GymMembership.sol:GymMembership",
								"label": "visits",
								"offset": 0,
								"slot": "8",
								"type": "t_mapping(t_uint256,t_struct(Visit)84_storage)"
							},
							{
								"astId": 71,
								"contract": "contracts/GymMembership.sol:GymMembership",
								"label": "gymSubscriptions",
								"offset": 0,
								"slot": "9",
								"type": "t_mapping(t_address,t_uint256)"
							}
						],
						"numberOfBytes": "320"
					},
					"t_struct(Visit)84_storage": {
						"encoding": "inplace",
						"label": "struct GymMembership.Visit",
						"members": [
							{
								"astId": 81,
								"contract": "contracts/GymMembership.sol:GymMembership",
								"label": "gymName",
								"offset": 0,
								"slot": "0",
								"type": "t_string_storage"
							},
							{
								"astId": 83,
								"contract": "contracts/GymMembership.sol:GymMembership",
								"label": "timestamp",
								"offset": 0,
								"slot": "1",
								"type": "t_uint256"
							}
						],
						"numberOfBytes": "64"
					},
					"t_uint256": {
						"encoding": "inplace",
						"label": "uint256",
						"numberOfBytes": "32"
					}
				}
			},
			"userdoc": {
				"kind": "user",
				"methods": {},
				"version": 1
			}
		}
	}
}